:020000040000FA
:2000000018F09FE518F09FE518F09FE518F09FE518F09FE50000A0E120F11FE518F09FE502
:20002000580000004000000044000000480000004C000000000000005000000054000000AC
:20004000FEFFFFEAFEFFFFEAFEFFFFEAFEFFFFEAFEFFFFEAFEFFFFEAFC009FE5AA10A0E37F
:200060005520A0E32030A0E3A03180E5A03190E5403013E2FCFFFF0A0130A0E30C3180E57A
:200080000B30A0E3843080E58C1080E58C2080E50130A0E3803080E58C1080E58C2080E59C
:2000A000883090E5013313E2FCFFFF0A883090E5A8409FE5043003E00B40A0E3043033E021
:2000C000F9FFFF1A0530A0E3043180E50530A0E3083180E50030A0E3A83180E50030A0E3C3
:2000E000AC3180E50330A0E3803080E58C1080E58C2080E560009FE50410A0E3041080E5ED
:200100000210A0E3001080E554009FE5DBF021E300D0A0E1000040E2D7F021E300D0A0E19F
:20012000000040E2D1F021E300D0A0E1000040E2D2F021E300D0A0E1010C40E2D3F021E358
:2001400000D0A0E1080040E210F021E300D0A0E101AB4DE20C009FE510FF2FE100C01FE086
:20016000FF7FFF00E80D00406C010000000000EB440000EB2C008FE2000C90E800A08AE01B
:2001800000B08BE001704AE20B005AE10000001A3C0000EB0F00BAE818E04FE2010013E34F
:2001A00003F0471013FF2FE1A41D0000C41D0000102052E27800B0287800A128FBFFFF8AB9
:2001C000822EB0E13000B0283000A12800409045004081451EFF2FE101C08FE21CFF2FE138
:2001E0001FB5059886460FBC009C02B070477047704770471EFF2FE10047000044332211AF
:2002000000C09FE51CFF2FE13103000000C09FE51CFF2FE16303000000C09FE51CFF2FE1F7
:200220008F03000000C09FE51CFF2FE11709000000C09FE51CFF2FE18D03000000C09FE55A
:200240001CFF2FE11F09000001C08FE21CFF2FE130B47546AE4630BC704700000030B0E3F5
:200260000040B0E30050B0E30060B0E3102052E27800A128FCFFFF8A822EB0E13000A12872
:20028000003081451EFF2FE1700500EB0210A0E1D0FFFFEB1CC09FE50FC08CE001001CE3F4
:2002A0000DE08F120FE0A0011CFF2FE101C08FE21CFF2FE101F0FCFAE91100007847C046F2
:2002C00003002DE9DFFFFFEB0300BDE87D0500EB0C009FE50C109FE504209FE508309FE594
:2002E0001EFF2FE1E0080040E00C0040E00800400FC08FE21CFF2FE101000007C00E090605
:2003000000D5401C7047A44910228A6008610868C006FCD57047A04A1023936010611068CC
:20032000C006FCD5936011611068C006FCD57047994930228A60086108688006FCD54869FC
:200340007047010430B59548954D01430C002800FFF7E1FF21002800FFF7DDFF30BC08BC24
:2003600018478D480021403081604021C16001228260C16088480168C905FCD50021C9432A
:200380008163416381600C214160704770477047844800B541680F229206914341604168F0
:2003A0000522920611434160C16830229143C160C16810221143C160016903229204914350
:2003C000016101690122920411430161764841684206114341607549122048638B6B0200AB
:2003E0009A43FBD1724873498861734901208861724980050861FFF7B4FF0020FFF7A1FF27
:2004000008BC1847002800D001200104FF316C48013180E7704700B5002800D00120010494
:20042000FF3168480131FFF776FF5B4903204031486059480168C905FCD5FF210131816083
:20044000DEE710B502008078FFF756FF524940314B680124844023434B60886050791279D8
:2004600000021043C8604C480168C905FCD5FF210131816010BC08BC1847704700B5FFF7DF
:200480003BFF5149000408438913FFF744FFB7E700B5FFF731FF4C49000408434B49FFF77D
:2004A0003AFFADE700B5FFF727FF4749000408438913FFF730FFA3E700B5FFF71DFF424922
:2004C000000408434249FFF726FF99E700B5FFF713FF3D49000408438913FFF71CFF8FE7F2
:2004E000F3B581B001980E000007810E2A48491C8162016A0A05FCD58C05A40D0025E11C7D
:200500008F0806E024488069310001F08FF9361D6D1CAF42F6D820480021816201982D4949
:20052000C140C8070BD10198FFF7E6FE0521000409024018FFF7E7FE2748FFF7E4FE2000CD
:20054000FEBC08BC1847F7B500980E000007810E11481400891C816242620025D01C87089D
:2005600006E0300001F050F90B49C861361D6D1CAF42F6D80848002181620098FFF7BCFE77
:200580000521000409024018FFF7BDFE1348FFF7BAFE2000D4E7000000C2E0FF0001800017
:2005A0000005D00000C002E0C0C01FE0C0CFE0FFE005000040F1FFFF40F2FFFF00F0FFFFA5
:2005C0000005FE000005D800000540000001200000010100481200000005F2000005FA0083
:2005E000FF502DE918519FE5003295E5083285E5080013E31400000A08019FE53BFFFFEB8C
:2006000004019FE5FDFEFFEB100010E30200000AFDFEFFEBB80000EB250000EA020010E3D1
:200620002300001A080010E30700000A040010E30200000AF7FEFFEBF9FEFFEB1C0000EAA8
:20064000FAFEFFEBFCFEFFEB190000EA040013E3B8609F150040A0130170A0131400000AD6
:20066000300295E51714A0E1010010E1A400A011381285150B00000A001295E5200011E342
:20068000FCFFFF0A141295E5010014E30C00000A001196E7000051E30300A0130100000A25
:2006A0000FE0A0E111FF2FE1014084E2200054E3EAFFFF3A0000A0E3000100E5FF50BDE82D
:2006C00004F05EE2000054E30800001A040011E300109615000051130400000A0100A0E3E4
:2006E0000FE0A0E111FF2FE10140A0E3DBFFFFEA001196E7000051E30200A013E9FFFF0A7B
:20070000E6FFFFEA00C0E0FF0005FE000002FE00E41D000076480121818000220270754935
:200720004270083006C07047714910B51C310020FFF7D6FE10BC08BC184710B56C4C1434E8
:20074000A288402A00D9402221688020FFF7FBFE216809182160A188081AA080EAE710B586
:20076000634C002014342168FFF7BAFE216809182160A188081AA080DCE7002210B51100DA
:200780008020FFF7E0FED5E710B55B490020FFF7A7FECFE7F8B5564C554D143426000836B2
:2007A00031780027030001F097FA084605808E46469E9C46FFF7B8FF3078C009FFF75DFE08
:2007C000F088A08030784106890F02D0012967D14CE071780B0001F07FFA0C070A630C634D
:2007E00010181B1D2331406301F0BEF868E0002000E0012001F0FEF835E0C006C00E4FD1E2
:20080000B07880210843287040E001F067F857E0002046E0C006C00E42D13548401C3DE0A2
:20082000C006C00E3CD101F033F9002838D0FFF7A4FF00F078F8F8BC08BC1847C006C00E66
:2008400001282DD1687800282AD03079A978884226D227491031401820E0C006C00E01281D
:200860001ED101F0B9F900281AD00FE0C006C00E012815D13079002812D17078FE2808D0A8
:20088000FF280DD100F068F8002809D0FFF775FFD1E700F069F8002802D01748206014E0C2
:2008A0008020FFF709FEA780C5E7C80902D0FFF76BFFC0E7A0880028BDD0FFF750FFA088D4
:2008C0000028EDD0B7E7C80902D0FFF736FFB2E728780106AFD54006400E2870FFF731FDB3
:2008E000A9E7802000E00020FFF7F0FDA3E7000000000040010001005400004001C08FE253
:200900001CFF2FE110B5FFF705FF11491020C86110BC08BC18470E492020886170470C49BF
:200920002020C86170470B48102102780848002A01D081617047C161704710B5022804D019
:200940000328E5D100F095FBE2E700F0AFFBDFE780C0FF3F01000040F9490320C861F9497E
:200960000020087001207047F7490020087001207047F0B4F54CF64DA668002340E00122BB
:200980005202904222D213280CD0142811D0C21FFF3AF83A16D0012A16D01D282BD8ED4A47
:2009A000125C29E0EC4AA768D26ED21B5219520A05E0E94AA768D26ED21B5219520C120652
:2009C000120E19E0552217E0AA2215E00122D202904205D2E14A1218FF3AFF3A023A08E044
:2009E000DF4AE04F1268BA4205D101223718D202BA1A127800E00022DB4F401CFA545B1C62
:200A00008B42BCD3F0BC7047F8B5CE4DEC68402C00D94024D048CE49C26ECC488068121ACB
:200A2000A86853180619B34203D2121A5418042129702100FFF79DFFCB4922008220FFF77B
:200A400082FDA8680019A860E868061BC648EE60A730070000F0D8FE001B390000F0E6FE4D
:200A6000002E0CD02878022806D0B5490120C861BD4900209F310873F8BC08BC1847032019
:200A80002870F2E7B84910B5B8489F3100F0CEFEB5490D229F318220FFF755FDA949052095
:200AA000087010BC08BC1847F8B50500A7480E008268012040028542DED3810001208D42EA
:200AC00026D2A94F002440371FE0A44A29198A18385DFF3AFF3A023AE528107014D1A0481D
:200AE000A34A0368934202D0A24883420CD131204001814208D193480069002804D100F00C
:200B0000A5FC904901200861641CB442DDD3B3E7994B1860994B002018605019401A92499B
:200B20003200403100F03CFCA6E7F8B58A48854CC16E86486578826885488A1AA1681318A4
:200B40004D19AB4207D2511A08186070052020700220FFF7B1FC6178A068FFF7A5FF65783C
:200B6000A0684019A060E068461B7F48E660A730070000F049FE401B390000F057FE002E42
:200B800002D02078052812D17B4C2068002804D07A490120086000F064FD0020684A0221FE
:200BA0002060D16170499F310873FFF76BFF63E7F8B56948634CC16E64486578826864487A
:200BC000891AA2680B185519AB4207D2891A08186070052020700220FFF76EFC624F002076
:200BE0003A006578A168403208E00B18FB5C165CB34202D00020606002E0401CA842F4D3F9
:200C00004819A060E068461B5748E660A730070000F0FAFD401B390000F008FE002E02D096
:200C20002078052808D16068002806D000204E499F310873FFF726FF1EE70120F7E74A489D
:200C400010B58030427C017DC37C12061143827C1B0212041A4311433A4A49029160817D98
:200C6000C07D0902014340484C028830D46000F0CBFDA0420DD08220FFF71EFC0220FFF7E5
:200C80001BFC394902209F310873FFF7FBFE002007E7012005E770B53348883000F0B4FD4B
:200CA000314D02249F35002807D028001F38007B000609D40220FFF7FFFB2C73FFF7E2FE59
:200CC000002070BC08BC18470120FAE770B52648883000F099FD1B4C6178884200D2607026
:200CE0002149627840318220FFF72DFC032020701D48A730050000F087FD6178401A2900BA
:200D000000F094FD184900209F310873D9E7164810B5883000F078FD002809D0124880307B
:200D2000007B000601D5822000E00220FFF7C4FB0D4900209F310873FFF7A4FEB1E6000013
:200D400080C0FF3F2400004054000040241E000001080000F41C0000A41E0000940000402C
:200D6000FC0100004433221194060040555342532143658765872143380000403C00004021
:200D800010B5FFF788FF00281DD0DB48702101700021022241708270C170017141710A226E
:200DA0008171C2710172417281723022C1720273012242738173C17301744174CF49122087
:200DC0004870FFF783FF6CE610B5FFF764FF00283ED0C9480022802302704370012182702E
:200DE000C1702021017143718271C2714B2202726522427269226C238272C37201734173AE
:200E000081734C23C173037450234374432383743223C37433230375582343758375442351
:200E2000C17503764276732282766B22C276017741778177C1773122203002702E22427082
:200E400030228270C170AD4924204870FFF73EFF27E610B5FFF71FFF00280BD0A6480321FD
:200E60000170002141708170C170A44904204870FFF72CFF15E610B5FFF70DFF00280FD05A
:200E80009D4800210622017042708170C170017141718171C171994908204870FFF716FFCA
:200EA000FFE510B5FFF7F7FE00281BD09448C16E94488068091A94480818410A8E48491E15
:200EC0000A0E02700A0C42700A0A8270C17000210171022241718271C1718849082048704A
:200EE000FFF7F4FEDDE510B5FFF7D5FE00281ED0814800210170417008228170C270804A81
:200F00000171D36E7F4A92689B1A7F4A9A18530E4371530C520A8371C271022202724172E9
:200F20008272C17275490C204870FFF7CFFEB8E5F8B5724D704C002168786F4A403402E050
:200F4000535C6354491C03008142F9D31F2B74D16948403000F058FC6C4988426DD1201D46
:200F600000F052FC644E5F36311D00F05FFC3000173800F049FC3100083100F057FC607B17
:200F8000002804D1A07B002801D0102802D90120307356E0E07B1E28F9D010DC122832D0A1
:200FA00006DC00282CD00328F1D1FFF7E9FE63E51528ECD01A28EAD1FFF74BFF5CE5022779
:200FC0002A282BD013DC232820D0252821D02828DDD1FFF734FE0028E9D0207B00061BD5C4
:200FE0004B49012088612F70FFF70EFD44E52F282AD05528CBD05A28C9D1FFF73CFF3BE5B4
:20100000FFF785FE38E5FFF7DFFE35E5FFF76BFF32E5FFF746FF2FE502200FE0FFF70FFE73
:201020000028C4D0207B000619D43A490020086037488761012028701EE512E0FFF73CFA1A
:201040003773FFF71FFD17E5FFF7F9FD0028AED0207B000603D40120287068600CE58220BA
:20106000ECE78220FFF728FA0220FFF725FA0620E1E7224810B50178022908D003290ED009
:2010800004290FD0052901D10021017009E51A484030C07B2828F9D1FFF7B6FC01E5FFF719
:2010A000F1FCFEE48220FFF707FAF8E710B512490220FFF715FA11494870087800280BD00D
:2010C00001280CD00220FFF7F7F90B4902205F310873FFF7D7FCE4E4FFF72AFFE1E40648BF
:2010E0004030C07B2A2804D02F28F4D1FFF760FDD7E4FFF71AFDD4E4D406004024000040B2
:20110000A41E0000241E0000010800005553424380C0FF3F3800004010B560A000F074FA7C
:201120000020FFF76FF9FFF71CF9002107204007416003210160AA2181605521816010BCA2
:2011400008BC184710B500F042FB00F031FB55480168022211430160F1E753490024534A4A
:201160000C60F8201070FF2050705149514E9070B668C96E504D0323891B18004D19AD0A62
:2011800012E06A1E824201D14C4A00E0421C474E1701F0540605360F3743444E1209F618F5
:2011A000DB1C7770801CB2708542EAD8444F3F4B0020012292021E183D5CB618401C4028B5
:2011C0003570F8D33F48404E0568B5421ED03F4E05683F48B54201D13125C570394D3D4F51
:2011E0002E68BE4201D13226C6702D683A4EB54201D13325C570394D04202E18203E1F1801
:20120000367FBF18401C0B283E70F6D33048491C20300A0A017742770A0C090E8277C1776C
:20122000FFF7B6F80120FFF7EDF800F00FFA00F023FA2B4F2B4D2C4E286800280BD1686838
:20124000002808D000F012FAB84204D927A000F0DBF9FFF761FF69682868084308D100F065
:20126000FAF9B04204D924A000F0CEF9FFF754FF00F007FA6428DFD900F0FEF900F0ADFA35
:20128000002807D000F06CFA641C142CD4D9FFF759FFD1E700F072FA0024CDE752657365C3
:2012A00074000000C0C01FE03400004094000040A41E0000241E000001080000FF0F0000D8
:2012C000121D0000FC0100004433221178563412940400402143658765872143521D00003D
:2012E000881300003800004060EA000046696E697368656400000000496E61637469766930
:20130000747900005B4A1047F8B55B4E346974615A4D33272F602F1D0EC72861391D280064
:20132000FFF7F0FF3461F8BC08BC184730B4534B32241C601B1D07C330BC5048191DE1E784
:2013400030B44E4B34241C601B1D07C330BC4B48191DD7E7F8B5484E070035697561484879
:201360000224A20082588A4215D9454AA000803A1058884209D121003A000800FFF7D6FFEE
:2013800021003A000800FFF7DBFF21003A000800FFF7CCFF02E0641C1B2CE2D93561C2E753
:2013A000F8B5384C8C466168002900D16060334EA368002028361D0004E061460F5C291849
:2013C000401C77549042F8D39818FF260136B042A06017D1200003C8FFF7BCFF274D14350A
:2013E0002868002800D0FEE7244A200003C833002832FFF789FF2868002800D0FEE700208F
:20140000A060606000208EE710B500F040F900F043F90A28FBD300F015F901204003FEF706
:20142000EBFE10BC08BC1847144810B53521016002214160816001001431FFF763FF0F4862
:20144000143000680028ECD00120EAE710B50D4C1B2122680220FFF769FF22681B210220BE
:20146000FFF76EFF0548143000680028D9D0FEE7D7E70000F1FFFF7F00F0FFFF40070040B9
:20148000A41E000040000040F8B5334800252E00856200F0D1F800F08FF830A000F0B4F80C
:2014A000334F3868334CC00710D033A000F0ACF8266000F069F900281AD06D1C0A2000F0F0
:2014C000F1F830A000F0A0F8322DF2DBFF20386030A000F099F800F0FBF831A000F094F867
:2014E00000F057F900F079F9304D002827D107E000250A2000F0D6F822A000F085F8D8E7CB
:201500002B482C490068884208D1FFF78DFF002804D0686800F078F8FFF776FF2078C00760
:201520000DD1FFF781FF002809D0686800F06CF82068012108432060FFF766FF08E02868EA
:2015400000F062F82068400840002060FFF705FEF8BC08BC0020184700C002E05374617285
:2015600074757020626F6F746C6F61646572000080C11FE0004008E0504F5220726573659F
:2015800074210000436865636B20627574746F6E00000000506F776572204F6E0000000032
:2015A00073657420707772206F6B00004C000040FC010000658721431D4810B501690222DB
:2015C000114301610169082211430161194805218162816A8022114381628321C1600421F3
:2015E0000160002141600321C16000F050F800F053F80A28FBD310BC08BC18470D494A6918
:201600009206FCD50860704700B5002807D0030002E0FFF7F3FF5B1C18780028F9D10A209E
:20162000FFF7ECFF0D20FFF7E9FF08BC1847000000C002E0000001E01F48012141601F4986
:20164000C16070471C490020486070471A4880681B49086070471848806819490968401A8C
:201660007047154880681649486070471248806813494968401A70470F4880681049C86090
:2016800070470D4880680E49C968401A70470A4880680B4908617047074880680849096915
:2016A000401A704700B50200FFF7F1FFFFF7F4FF9042FBD308BC1847004000E0DF2E0000A3
:2016C0006808004048484168402211434160704710B5454CA06840210843A060A068890177
:2016E0000843A06061680120000401436160A1680143A1606169400201436161A1690143FE
:20170000A1616169801001436161A1690143A16136A0FFF779FF20690002C00F3030FFF723
:201720006DFF0A20FFF76AFF0D20FFF767FF33A0FFF76AFF20698001C00F3030FFF75EFF6D
:201740000A20FFF75BFF0D20FFF758FFA068012189060843A060FFF7B5FF10BC08BC1847F8
:2017600021484168012292061143416070471E48C168012292061143C16070471A480068B0
:20178000400100D5F3E7EBE7174800688001C00F7047154841680122120311434160C2685C
:2017A000012109040A43C26042680A43426070470D48C168012212031143C160C2680121C4
:2017C00009040A43C26042680A43426070470648C16840221143C160704703480068C001C4
:2017E000C017401C70470000008002E0506F77657220427574746F6E3A0000005379735229
:20180000657365743A0000007847C0460120D0E50010D0E50230D0E50300D0E5021481E166
:20182000031881E1000C81E11EFF2FE17847C0462024A0E10000C1E50120C1E52028A0E1D0
:201840000220C1E5202CA0E10320C1E51EFF2FE10E50A0E1180000EB05E0A0E10050B0E1D4
:201860000D10A0E10A30A0E10700C0E300D0A0E160D08DE220402DE994FAFFEB2040BDE882
:201880000060A0E30070A0E30080A0E300B0A0E30710C1E305C0A0E1C009ACE8C009ACE881
:2018A000C009ACE8C009ACE801D0A0E11EFF2FE10400C046C0462000FEF700FD00009FE549
:2018C0001EFF2FE17C08004001C08FE21CFF2FE101491820ABDFFEE72600020070B51E4816
:2018E0000178C078C906C90E33D11B490839012806D0194A0228937806D0032829D11AE05C
:201900001648086012201AE01548002208E00478002C04D0C478857824022C432018521C7E
:201920009342F4D10278002A13D00860C27883781002184303E00B481818086000788A8824
:20194000824200D98880FEF7F8FE012070BC08BC18470020FAE700001C000040591D0000B4
:201960006B1D00008C1D000070B520481F4C0078083CC006C00E0AD01C4B210014394D787A
:201980001B791B4A012806D002282CD10AE017481838206021E0002D25D08878834222D233
:2019A000002016E08F200340180605D51E07360F01200004B04001E001209840002D01D1CF
:2019C0001B0710D18B6803420DD0C9680142E7D001201070000A50702260FEF7AEFE012015
:2019E00070BC08BC18470020FAE700001C0000405400004070B502002348244C0378010029
:201A00004988DB06DB0E04D0012B2BD0022B29D111E0012926D10225002A05D00120FEF7BB
:201A2000F9FCA088284304E00020FEF7F3FCA088A843A08026E000798F231840030605D597
:201A400003071B0F01252D049D4001E0012585406378002B06D0030704D0A3682B4201D04F
:201A6000002903D0002070BC08BC1847002A04D0FEF722FDE068284303E0FEF727FDE068F2
:201A8000A843E0600120EEE71C00004000000040F8B54E4FB8783E001C3E00286CD04C4C7B
:201AA00066E06078022804D0042840D005285DD140E06179B878814234D1707021790020E7
:201AC000B17042490C3900220A54401C0428FAD301250120B168A840084202D02800FEF7BF
:201AE000D7FC01200004B168A840084204D0280080210843FEF7CCFC6D1C102DE9D33548FF
:201B00003500B0600020F0600120FEF784FCE0794006A88802D50121084301E040084000FE
:201B2000A88023E0E078A178000208431FE0E07800901BE00098002818D1A5788F20054020
:201B4000280605D52907090F01200004884001E00120A840B16801432000B160FEF771FC6E
:201B60002800FEF78BFC2800FEF79CFC207804192078002895D11FE00020012425007070E8
:201B80002800B168A040084202D02000FEF780FC01200004B168A040084204D0200080217A
:201BA0000843FEF775FC641C102CE9D30948B0600020F060FEF72FFCB8787178884203D154
:201BC0000120F8BC08BC18470020FAE71C0000406B1D000001000100F0B53D4D89B06878DE
:201BE000002870D000272E003A4C1C3667E06078022804D004280BD005285ED11EE06079F9
:201C00006978884259D0E078A1780002084355E0A178E2780020039102920090307988423F
:201C20004BD1B178914248D1294803991030415C012705911100039A81543EE031790398E5
:201C400081423AD1A0788F2108400690000605D506980107090F0120000401E006990120AC
:201C600088400190B1780298814215D1A86801990843A860E968019881432000E960FEF796
:201C8000E0FB0698FEF7FAFB0698FEF70BFC684603C80843009010E0059988420DD168460F
:201CA00003C8084209D1A96801988143A960E9688143E9600698FEF7EBFB2078041920789A
:201CC000002894D1380009B0F0BC08BC18470000000000406B1D00007847C04601C05EE526
:201CE0000C0053E10C30DE270330DE3783C08EE01CFF2FE1EB3C904D53444F53352E30006F
:201D000002020100011000EC03F802000100010000004352502044495341424C44280000A2
:201D20000000000000000000000000000000000000004649524D5741524542494E2018BC79
:201D400041973738373800003D6E2B38020000D0070020454E41424C4412011001000000FC
:201D600040291E0E04100104203E0109022000010100803209040000020806504807058234
:201D8000024000000705020240000000040309041C034B00650069006C00200053006F0017
:201DA0006600740077006100720065001E03550053004200200042006F006F0074006C006F
:201DC000610061006400650072000A0330003000300031000E034D0065006D006F00720027
:201DE0007900000095070000000000003B090000000000000000000000000000000000008A
:201E00000000000000000000000000000000000000000000000000000000000000000000C2
:201E2000000000000000000000100000002000000030000000400000005000000060000052
:201E4000007000000080000000000100008001000000020000800200000003000080030006
:201E6000000004000080040000000500008005000000060000800600000007000080070036
:201E80000090070000A0070000B0070000C0070000D00700FFFFFFFFFFFFFFFFFFFFFFFFBB
:201EA000FFFFFFFFFF0F0000FF1F0000FF2F0000FF3F0000FF4F0000FF5F0000FF6F000074
:201EC000FF7F0000FFFF0000FF7F0100FFFF0100FF7F0200FFFF0200FF7F0300FFFF030006
:201EE000FF7F0400FFFF0400FF7F0500FFFF0500FF7F0600FFFF0600FF7F0700FF8F070036
:201F0000FF9F0700FFAF0700FFBF0700FFCF0700FFDF0700FFFFFFFFFFFFFFFFFFFFFFFFF4
:201F2000FFFFFFFF5374617274696E6720757365722061707000456E746572696E6720625B
:201F40006F6F746C6F616465720000006C1F00000000004054000000B0010000C01F000009
:201F600054000040940D00005C0200000000000000000000000000000000000000000000CE
:201F8000000000000000000000000000000000000000000000000000000000000000000041
:201FA00000000000000000000000000060EA00000000000000000000361F0000241F00003F
:2020000018F09FE518F09FE518F09FE518F09FE518F09FE50000A0E120F11FE518F09FE5E2
:202020005420000040200000F49D00004420000048200000000000004C2000005020000093
:20204000FEFFFFEAFEFFFFEAFEFFFFEAFEFFFFEAFEFFFFEAC0019FE5AA10A0E35520A0E388
:202060002030A0E3A03180E5A03190E5403013E2FCFFFF0A0130A0E30C3180E50B30A0E394
:20208000843080E58C1080E58C2080E50130A0E3803080E58C1080E58C2080E5883090E50D
:2020A000013313E2FCFFFF0A883090E56C419FE5043003E00B40A0E3043033E0F9FFFF1A58
:2020C0000530A0E3043180E50530A0E3083180E54C319FE5A83180E50030A0E3AC3180E524
:2020E0000330A0E3803080E58C1080E58C2080E530419FE5C44080E51C019FE50410A0E36D
:20210000041080E50210A0E3001080E518019FE504119FE514219FE5C44091E5024B84E31F
:20212000C44081E50140A0E3004080E50040A0E3084080E5F8409FE5184082E55540A0E3C9
:20214000204082E5EC409FE5244082E5E8609FE5016056E2FDFFFF1A014CA0E3004280E54C
:202160000240A0E3044280E50240A0E3084280E51F40A0E30C4280E51F40A0E3104280E54D
:202180001F40A0E3144280E50F40A0E3184280E5A8609FE5016056E2FDFFFF1A0040A0E314
:2021A000225DA0E3005085E0004085E56D8F4FE20191A0E3FF00B8E8FF00A9E8FF00B8E8AE
:2021C000FF00A9E878009FE50210A0E3001080E570009FE5DBF021E300D0A0E1000040E233
:2021E000D7F021E300D0A0E1000040E2D1F021E300D0A0E1000040E2D2F021E300D0A0E152
:20220000010C40E2D3F021E300D0A0E1400040E210F021E330009FE510FF2FE100C01FE07F
:20222000FF7FFF00004011A8DE2FC0830080E0FF00C002E05555000000000950804F1200F3
:20224000C0D4010040C01FE0A8350040502200000CD09FE56F1E00EB00009FE510FF2FE1E0
:20226000D722000068340040040002F032FDE249002C086802D00122104301E040084000EC
:202280000860002006F0F5FE06F0A2FEDBA008F04FF8FEE710B503F0FAF900F0D7FC00F03A
:2022A000DBFC0228FBD300F0CDFC02F024FD02F0D4FD04F079FE04F047FED2A008F038F882
:2022C000D3480168022211430160D2A008F030F810BC08BC1847002788B003206946059753
:2022E00004970297069781C1D2493C003E00039707973D008F62C048016849084900016064
:20230000CD4907204007416003210160AA2181605521816000F090FA00F057FB002801D05B
:202320000120079002F030FFC4A002F0B9FF0799C5A007F0FDFF00F0D9FBC9A007F0F8FFA3
:20234000CF48006802F098FFCEA007F0F1FF02F07FFCD0A007F0ECFF02F077FD00280CD1F6
:20236000CEA007F0E5FF00F077FC0100FF20F5308142F8D3C7A007F0DBFF04F075FD04F04C
:20238000D4FD03F0BFFD04F0EBFC02F084FD02F05CFD002802D1C5A007F0CAFF02F099FC7D
:2023A00002F0C4FF03F051F903F0A7FEC7A007F0BFFF09E000F050FC642803D300F046FCBE
:2023C00003F064FF05F071FDC54800780028F1D100F034FC00F046FCC2A007F0A9FFA84892
:2023E000006802F049FF02F02FFEC649072040074160002000F05EFB00F02EFC642872D3AA
:2024000000F024FC04F0B9F9002802D104F0BEFD6D1C002D0FD00A21280006F0CBFF00298B
:2024200004D1C820411BB8A007F082FF6D1CC82D01D1FFF72FFF002E01D0761E09E004F0CF
:20244000B9FD002849D00398401C0390012002F075FC0398142805D900200390B34864268A
:2024600001214170002002F069FCB0484168002907D0AFA007F05CFFAC48AC494068401EE1
:20248000486000F008FAB8420BD100F008FA01000598814205D100F007FA01000498814252
:2024A00016D000F001FA049000F0F9F9070000F0F2F90100049B3A00A3A007F039FF00F0B7
:2024C000EAF9070000F0EBF9059000F0EDF90490012F09D0002F0FD013E000200390012061
:2024E00002F0EEFBBEE76FE00598012809D1049801280ED100240CE0641C210097A007F0EA
:2025000017FF0598002804D1641C210099A007F00FFF0498002804D1641C21009BA007F0C0
:2025200007FF0A2C01D9FFF7B5FE0698002802D0012827D119E004F0F3FC002802980DD0A8
:20254000401C142802901DD904F020FD95A007F0EFFE002002900120069013E0002811D0CC
:202560000020029003F056FE0CE0032000F0A2FA0298401CC828029004D992A007F0D8FE73
:20258000FFF788FE994801990268914203D00020694605C109E00098401C0328009004D92A
:2025A0000020079003F073F801E0012007900698002809D1002E01D0042003E00798002800
:2025C00000D0012000F076FA00F07BFD02F0AFFE03F05CFE05F0F4FD54480078002808D05C
:2025E00000F053F9002804D003F051F84F481421416005F05AFCFFE6004008E05265736513
:20260000740A0D0053687574646F776E0A0D0000C0C01FE0546869732073686F756C6420D6
:202620006E657665722062652076697369626C650A0D000000C002E0002D3101526F626FDB
:2026400074696E6F330000000A0D48617264776172652076657273696F6E2025640A0D0062
:20266000526F626F74696E6F2033206669726D776172652076657273696F6E2000000000F8
:20268000D8110040496E69742066706761202E2E2E200000446F6E650A0D000057616974C3
:2026A000696E67203530306D730A0D00436F6E66696775726174696F6E206F6620465047E6
:2026C00041206661696C65640A0D00005363616E6E696E672063686172676572732000005D
:2026E000281100400A0D526F626F74696E6F2033206669726D776172652076657273696F76
:202700006E200000A086010042617474657279206C6F772E20486172642073687574646F33
:20272000776E20696E202564730A0D0000100040656D657267656E63792062756D706572D0
:202740002025750A0D00000053333A25642053343A25642053353A25640A0D00456E7465E7
:2027600072656420533320636F756E742025640A0D000000456E746572656420533420637E
:202780006F756E742025640A0D000000456E746572656420533520636F756E742025640A48
:2027A0000D000000476F696E6720696E746F20706F776572206F6666207374617465203104
:2027C0000A0D0000446F6573206E6F7420676F20696E746F2053332E204861726420706FA4
:2027E000776572206F66660A0D0000001C10004023C08FE21CFF2FE17A4810B541680122DB
:202800001207114341607848816912141143816102F07AFA10BC08BC184710B515246401EC
:20282000C001642106F0C6FD001970498005000C08406F490860EDE76E4810B5016A3F22B3
:202840001204114301626B4C403C6068012149050843606065483F30FFF7DFFFFFF7CCFF84
:202860006068012109068843606060684900884360605C48816801221207114381605A4898
:202880000168121411430160C4E75748406B0002C017401C704753480069C00F70475248EF
:2028A0004069C006C00F70474F4840694006C00F70474D48403040690005C00F70474A484C
:2028C00040304069C004C00F704710B4032803D90B22101A0006000E474A012413780029F5
:2028E00004D084401C43147010BC70478440A3431370F9E73B480068C007C00F70473A4813
:20290000403041694269C905C90F92054069D20F89184005C00F0818704733494031012889
:2029200005D0022806D0032807D0002070474869C00504E04869800501E048694005C00FB3
:202940007047284881680122D2069143816070472448C2680121C9060A43C26082680A43D3
:20296000826070471F4800680001C00F704710B50400FFF741FF012C06D0022C0BD0032C2E
:2029800001D102F0C9F945E71648C168012212071143C1603EE71448C16901221203114316
:2029A000C16137E70F4810B500680024C00000D401240D484069C00400D4022402F0B4F91B
:2029C000002800D10324200024E7074840304069C017401C7047034800680002C017401C72
:2029E00070470000008002E040C0FF3FC0FF000000C006E040C002E04810004010B502F0EA
:202A00002FFC10BC08BC18470020C043704710B502F026FCF5E7FEE73F502DE984409FE53B
:202A2000140094E5010480E3140084E5141D00EB161D00EB1C0094E5010480E31C0084E568
:202A40000100A0E3121984E2000081E50000A0E3000100E53F50BDE804F05EE23F502DE985
:202A600044409FE50050A0E30000D4E5640050E30050C4250010D4E5040094E50100D0E7F4
:202A80005AFFFFEB0000D4E520109FE5010080E20000C4E50100A0E3000081E5005105E555
:202AA0003F50BDE804F05EE2008002E00C100040004007E000B5A449030007F08DFC06049A
:202AC00006090C0E1114A1480CE0A048643009E09E48C83006E09E4804E09D48643001E086
:202AE0009B48C830486008BC1847C046F8B50220FFF7E0FF9748816901221206114381614C
:202B0000954801254560954C6068944E0002010E491C803670680006000E401C41436068C2
:202B20008F4A4004400C401C504306F043FC8D4FB96A09078A0F8C49895C8C4A514306F046
:202B400039FC8549401EC8608948456060680002010E7068491C0006000E401C41436068A4
:202B60007F4A4004400C401C504306F023FCB96A89068A0F7C49895C7D22D200514306F008
:202B800019FC7B49401EC86060680002010E7068491C0006000E401C41436068704A400406
:202BA000400C401C504306F005FCF96A89048A0F6D49895C6D4A514306F0FCFB6D49401E73
:202BC000C8606D4A6D4882626D4885626D48E20402617D20C00088614869032210434861CB
:202BE00060680002010E7068491C0006000E401C414360685A4A4004400C401C504306F0EA
:202C0000D9FBF96A09048A0F5749895C7D22D200514306F0CFFB5C49401EC8605B4A57481E
:202C2000C2625848220502611420886148690322104348614D60F8BC08BC18474D4901201C
:202C4000486070474B49002048607047484880684F4908607047C046454880684C49096852
:202C6000401A704742488068494948607047C0463F48806846494968401A70473C488068AE
:202C8000434988607047C0463948806840498968401A704700B50200FFF7F0FFFFF7F4FF8A
:202CA0009042FBD31FE7C046314880683849C8607047C0462E4880683549C968401A704783
:202CC0002B488068324908617047C046284880682F490969401A7047254880687047C04693
:202CE00023498968081A70471B488068284914310860704718488068254914310968401AB8
:202D00007047C04600B50200FFF7EEFFFFF7F2FF9042FBD3E7E6C0460F4880681C49143119
:202D2000486070470C488068194914314968401A7047C04600B50200FFF7EEFFFFF7F2FF08
:202D40009042FBD3CFE600000C1000404CB3000078B40000008002E0004000E080C01FE0D6
:202D600000366E0180C11FE0788B010040420F00008000E0000007E0182A000040F1FFFF21
:202D800040F2FFFF00F0FFFF004007E05C2A000054120040E2487047F8B5E24C00250028B9
:202DA00065700ED0022101280FD0022811D0032825D0DB4E030080213000DBA207F0C8FAD7
:202DC0001AE02570F8BC08BC184701202070E160F8E72170D349891C087849780B020343D6
:202DE0000121490223618B426361EBDD0091CC488021D4A207F0ACFA00F09DFEE1E70320BA
:202E00002070A161DEE7F3B583B00C00684602F026F90126C34D002739E001A802F023F987
:202E20000098401E0090687800280BD0012821D0BB486B788021CAA207F08AFA00F07BFE38
:202E4000002011E06846007955280AD0AA280AD0039908700398401C03902068401E206033
:202E600015E06E7013E00120FFF796FF05B0F0BC08BC184768460079202148400399087058
:202E80000398401C03902068401E20606F7020680028EBDD00980028BFDCE7E738B5A14AEA
:202EA00000200100921C535C491C090618180004000C090E0229F6D39A4AB04B526900211A
:202EC00006E05C5C20180004491C000C0906090E9142F6DB0121934A0904081A0104121D7B
:202EE00010785278090C13020343994203D1012038BC08BC1847009189488021A0A207F0ED
:202F000027FA00F018FE0020F2E7F8B585480024801C427801782500A0A007F009FA974FDF
:202F2000804E06E0395DA2A007F002FA641C2406240E7069844216DA102CF3D313E087A08B
:202F400007F0F6F9002509E0395D9BA007F0F0F9641C24066D1C240E2D062D0E706984425A
:202F600001DA142DF0D38442E9DB6E4E0024361D0BE0315D90A007F0DBF9641C24066D1C0E
:202F8000240E2D062D0E022C01D2142DF1D373A007F0CEF9022CF6D314E7F3B50F000026EB
:202FA00081B087A007F0C4F9012400251CE0002E05D001980026415D2020414003E0019822
:202FC000415D552915D07CA007F0B2F9641C2406240E6D1C2D062D0EBD4201D2142CE6D394
:202FE0005EA007F0A5F90024BD42F5D3FEBC08BC18470126EDE71CB502F040F8684602F0E0
:203000002EF8484C14E02378002B17D0012B1ED0022B2AD0032B36D04148802169A207F0B4
:2030200097F900F088FD00202070684602F017F800980028E7DC1CBC08BC184701A802F013
:2030400012F868460079AA28EFD1012036E03548E168801C401A3349801C0C31FFF7D3FE9E
:20306000E0680028E1D1022028E04448616941182069081A2B491031FFF7C5FE206900288B
:20308000D3D103201AE02748A169001D401A2549801C1831FFF7B7FEA0690028C5D1FFF7C4
:2030A000FDFE002807D0A068401CA0603348616901F0D9FA01E0FFF728FF0020FFF76CFE2B
:2030C000B3E71CB5002468460480FFF794FF694601A800F0E5F9684600880028ABD06846F9
:2030E0000088402812D90198402101F0C1FF68460188403901800198403001903220FFF737
:2031000001FE684600880028E9D106E068460188019801F0ADFF6846048000F006FA8AE7B2
:203120007814004014100040496E76616C6964207472616E7369742073746174653D25646C
:20314000000000007061796C6F616420746F206C6F6E673A202564203E2025640A0D0000B1
:20316000496E76616C696420636F6D5F646174615F73746174653D25640000007812004020
:20318000525820636865636B73756D206D69736D6174636820257820257800003C3C204149
:2031A0004120253032582025303258200000000025325820000000002530325820000000E2
:2031C0003E3E2000496E76616C696420636F6D5F73746174653D25640000000010B50320FF
:2031E00004F0EEFE002809D1272004F001FF012004F0FEFE03F094FE04F0FAFE10BC08BCA0
:20320000184738B5122004F0DBFE002828D1FFF776FB0400684602F0E1F8412004F0E8FE23
:20322000102004F0E5FE03F0C6FA04F09AFF009804F097FFFFF75EFB04F0DAFE200004F0F6
:20324000D7FE012C01D9012000E0002004F0D0FE03F077FA04F0CCFE03F08FFA04F02BFFF3
:2032600038BC08BC184770B5F64802F012FDF64C411CA0603AD01E2801DD1E20A060C00008
:203280000E30E060801C0006000E04F099FE00282CD1642004F0ACFE207B04F0A9FE02F006
:2032A000D1FC04F0A5FEE74D286804F004FF0A2004F09EFEA06817E00420285E04F0D0FECA
:2032C0000620285E04F0CCFE288904F0A2FE0A20285E04F0C5FEA068002802DDD94802F0B6
:2032E000D8FCA068401EA0600028E5DA70BC08BC1847F8B5D34F00250C3704F016FB411CC5
:2033000005D078556D1C2D062D0E402DF5D3280014300006000E04F053FE002853D162204C
:2033200004F066FE280012300006000E04F060FEC64C206804F0BFFE002001000122661858
:20334000337A002B04D013008B4003431806000EF37B002B05D00E1D1300B340034318066E
:20336000000E491C0906090E0429E8D304F040FE217B0020002900D00120617B002901D0EE
:203380000221084304F034FE002670000019808A04F03FFE761C3606360E042EF5D300267D
:2033A000A019007F04F024FE761C3606360E042EF6D3002405E0385D04F01AFE641C24065E
:2033C000240EAC42F7D3F8BC08BC1847F8B5050002F0D7FE060006F016F80400032DF2D2B1
:2033E000200016300006000E070004F0E9FD0028E9D1502004F0FCFD380004F0F9FD2800E9
:2034000004F0F6FD18204543914F785904F053FEED19686804F0A5FEA86804F0A2FEE868AE
:2034200004F09FFE286904F09CFE287D04F0E0FD002503E0705D04F0DBFD6D1CA542F9D389
:20344000C1E710B50400032819D2062004F0B8FD002814D1522004F0CBFD042004F0C8FDFE
:20346000200004F0C5FD7B48A1000C18607804F0BFFDA07804F0BCFDE07804F0B9FDBDE6FC
:2034800010B5032004F09CFD002808D14F2004F0AFFD012004F0ACFD012004F0A9FDADE69B
:2034A000F3B56D4800240188200081B0002939D06A490A78002A02D00870FFF7E1FF654E4D
:2034C000634F6148A500715D025D914204D001552006000EFFF7B5FF1820604339585948D7
:2034E0000C384259914204D041512006000EFFF76DFF641C032CE4DB544801685248426867
:20350000914202D04160FFF7F4FEFFF7ACFEFFF778FEFFF763FE01A803C804F0E6FCFEBC16
:2035200008BC184702990880F9E710B504F042FD64E610B5072004F043FD00281AD10220CE
:2035400004F056FD052004F053FDFFF73EFA002801D0342000E0332004F04AFD2E2004F090
:2035600047FD302004F044FD2E2004F041FD302004F03EFD42E670B5394E306805F043FFE0
:203580000500801C0006000E04F01AFD00280FD1042004F02DFD2806000E04F029FD0024A7
:2035A00004E03068005D04F023FD641CAC42F8DB9CE638B5262004F003FD002812D1062003
:2035C00004F016FD242004F013FD00242000694601F0F1FE009804F0C4FD641C2406240EA0
:2035E000092CF3D33CE610B5072004F0E9FC00280BD1082004F0FCFC052004F0F9FC0C2097
:2036000004F0F6FC174804F0ACFDF7E538B50A2004F0D6FC002814D10B2004F0E9FC0820D6
:2036200004F0E6FC00242000694601F031FB00206946085E04F014FD641C2406240E042C5E
:20364000F1D30DE60415004030100040641D0040F81C0040881D0040081200400110004035
:20366000D8110040C3F5484038B5122004F0A8FC002812D10E2004F0BBFC102004F0B8FC6E
:2036800000242000694601F0FBFA009804F03EFD641C2406240E042CF3D3E1E5F8B53220F3
:2036A00004F08EFC002822D1112004F0A1FC302004F09EFCF94FFA4E0024FA4AA0003958A8
:2036C0001558B14201D3F8490958B54201D3F74A1558080004F045FD280004F042FD0020E2
:2036E00004F03FFD641C2406240E042CE5D36AE670B50E2004F064FC002814D1EC48056831
:20370000EC480468EC480668172004F071FC0C2004F06EFC280004F024FD200004F021FDD6
:20372000300004F01EFDE1E510B5122004F048FC002810D11B2004F05BFC102004F058FC4E
:203740000024200001F02EFE04F00BFD641C2406240E042CF5D351E538B5222004F030FCB3
:20376000002812D1212004F043FC202004F040FC00242000694601F048FE009804F0F1FCB7
:20378000641C2406240E082CF3D369E508B5032004F016FC00280CD1684601F029FB232014
:2037A00004F026FC012004F023FC6846007804F01FFC01B008BC184710B5032004F000FCDE
:2037C000002809D1252004F013FC012004F010FCFFF75BF804F00CFC10E508B5032004F070
:2037E000EFFB0028E5D1684601F0A3FA2A2004F0FFFB012004F0FCFB6846007804F0F8FB74
:20380000D7E710B5032004F0DBFB002809D12C2004F0EEFB012004F0EBFB03F0A4FB04F08C
:20382000E7FBEBE410B5072004F0CAFB002819D1332004F0DDFB052004F0DAFBFFF72BF8FA
:2038400004F0D6FBFFF72BF804F0D2FBFFF72CF804F0CEFBFFF72DF804F0CAFBFFF72FF801
:2038600004F0C6FBCAE41CB52A2004F0A9FB00282CD1352004F0BCFB282004F0B9FB0024F9
:203880002000694601F004FA00206946085E04F0E7FB641C2406240E042CF1D3002420004B
:2038A00001A901F0EDF9019804F030FC641C2406240E042CF3D30024200001F073FD04F063
:2038C00050FC641C2406240E042CF5D31CBC08BC184710B50A2004F073FB00280BD1372021
:2038E00004F086FB082004F083FB744804F0E3FB734804F0E0FB81E410B5062004F060FB02
:20390000002809D13F2004F073FB042004F070FB6C48006804F025FC70E470B504000B2088
:2039200004F04EFB002818D1432004F061FB092004F05EFB200004F05BFB6348634DA400A7
:203940000059290005F0F0FD04F00BFC60482900005905F0E9FD04F004FCC7E47FB55D4D86
:2039600035E00098A84200D900956846007B082802D90820694608730D2004F021FB002857
:203980002AD1482004F034FB0B2004F031FB00980004000C04F03DFB6846007B04F028FB42
:2039A00000246E4606E03019007904F021FB641C2406240E6846007BA042F4D805E00020BF
:2039C00004F016FB641C2406240E082CF7D3684603F04CF90028C4DA7FBC08BC184710B539
:2039E000032004F0EDFA002809D14B2004F000FB012004F0FDFAFEF7B5FF04F0F9FA3EE5AE
:203A000010B5032004F0DCFA002809D14E2004F0EFFA012004F0ECFAFEF7C4FF04F0E8FA1E
:203A20002DE5704770B5050002F082FA060005F0EAFC0400032D1FD2E01D0006000E04F01A
:203A4000BFFA002818D1552004F0D2FA601D0006000E04F0CDFA280004F0CAFA0C20454387
:203A60001D48405904F027FB002503E0705D04F0BFFA6D1CA542F9DB38E410B5062004F071
:203A80009FFA002809D1582004F0B2FA042004F0AFFA02F02EFB04F064FBF0E4A41000407C
:203AA00000008080C4100040B4100040D410004004110040081100400C1100400100007F3F
:203AC0000000FFFF74100040F410004000007A44E4100040FF070000401D004038B504005A
:203AE000072004F06DFA00280FD12000694601F09CFC5C2004F07CFA052004F079FA200052
:203B000004F076FA009804F02CFB6BE510B5042004F056FA00280DD15E2004F069FA022014
:203B200004F066FAFEF751FF04F062FAFEF753FF04F05EFAA3E470B5FFF72CF9060005F047
:203B400062FC0406240E802C03D9802400217F208155300006F0ECFB36A006F0E9FBA01C90
:203B60000006000E04F02CFA00280DD1FC2004F03FFA200004F03CFA002503E0705D04F0B5
:203B800037FA6D1CA542F9DB12E570B5FFF702F9060005F038FC0406240E802C03D980240C
:203BA00000217F208155300006F0C2FB21A006F0BFFBA01C0006000E04F002FA00280DD155
:203BC000FA2004F015FA200004F012FA002503E0705D04F00DFA6D1CA542F9DBE8E470B5A3
:203BE000FFF7D8F8060005F00EFC0406240E802C03D9802400217F208155300006F098FB43
:203C00000CA006F095FBA01C0006000E04F0D8F900280DD1FB2004F0EBF9200004F0E8F9EF
:203C2000002503E0705D04F0E3F96D1CA542F9DBBEE400000A0D000038B50400007803284E
:203C400004D0FFF7A7F82378E8A206E06578032D0BD9FFF79FF82B00EEA2802106F078FBAD
:203C6000FFF769FF38BC08BC1847A01C694601F06DFC00216846415E280001F0A7FFF1E705
:203C800038B504000078052804D0FFF783F82378EAA206E06578032D09D9FFF77BF82B00B9
:203CA000F1A2802106F054FBFFF745FFDAE7A01C694601F05BFC0099280000F0F2FFD1E783
:203CC000F0B50400007887B00D2804D0FFF762F82378EFA206E06578032D0CD9FFF75AF8E7
:203CE0002B00F7A2802106F033FBFFF724FF07B0F0BC08BC1847A01C04A901F017FCA01D72
:203D000005A901F013FC20000A3006A901F00EFC069805F0EEFC060005980F0005F0E9FCE8
:203D2000009004980C0005F0E4FC039701AF02000B0050C72900EEA006F0FAFA04992800A2
:203D400001F013FF0599280001F026FFCFE710B50400007801280BD0FFF71CF82378802143
:203D6000EEA206F0F5FAFFF7E6FE10BC08BC184764780020E107C90FFEF7A7FD210002206D
:203D800001400120FEF7A1FD0420210001400220FEF79BFD2100082001400320FEF795FDC5
:203DA0002100102001400420FEF78FFD2020210001400520FEF789FD2100402001400620A2
:203DC000FEF783FDE109C9010720FEF77EFDCCE710B504000078012809D0FEF7DBFF2378C3
:203DE0008021DAA206F0B4FAFFF7A5FEBDE764780020E107C90F01F002F82100022001409A
:203E0000012000F0FCFFB0E73EB5040000780C280BD0FEF7BFFF23788021D6A206F098FA92
:203E2000FFF789FE3EBC08BC1847601C694601F07DFB601D01A901F079FB2000093002A9C4
:203E400001F074FBD44900980860D44901980860D34902980860E5E738B504000078042848
:203E600009D0FEF797FF23788021C2A206F070FAFFF761FEF6E6601C694601F057FBC8492E
:203E800000980860EEE610B504000078012809D0FEF780FF23788021C2A206F059FAFFF7B8
:203EA0004AFE62E76078002802D000F012FF5CE700F021FF59E710B504000078012809D0C8
:203EC000FEF768FF23788021C0A206F041FAFFF732FE4AE76078002802D003F026F844E752
:203EE00003F032F841E770B504000078022804D0FEF750FF2378BFA207E06578681E062826
:203F00000BD3FEF747FF2B00C2A2802106F020FAFFF711FE70BC08BC1847A178280001F0C2
:203F200031FFF7E770B504000078022804D0FEF731FF2378BFA206E06578032D09D9FEF7E9
:203F400029FF2B00C4A2802106F002FAFFF7F3FDE0E7A078002803D0280001F04EFBD9E733
:203F6000280001F052FBD5E710B504000078012809D0FEF70FFF23788021C0A206F0E8F964
:203F8000FFF7D9FDF1E66078002802D003F005F8EBE602F0FBFFE8E610B5040000780128C7
:203FA00009D0FEF7F7FE23788021BDA206F0D0F9FFF7C1FDD9E66078002802D002F0DFFFCF
:203FC000D3E602F0D5FFD0E61CB50400007808280BD0FEF7DFFE23788021BAA206F0B8F943
:203FE000FFF7A9FD1CBC08BC18477FE15441475F5345545F4D4F544F525F535045454420C3
:20400000696E76616C6964206C656E6774682025640000005441475F5345545F4D4F544FA9
:20402000525F535045454420696E76616C6964206D6F746F72202564000000005441475F22
:204040005345545F4D4F544F525F504F534954494F4E20696E76616C6964206C656E67746F
:2040600068202564000000005441475F5345545F4D4F544F525F504F534954494F4E2069BB
:204080006E76616C6964206D6F746F72202564005441475F5345545F4D4F544F525F504999
:2040A000445F504152414D455445525320696E76616C6964206C656E677468202564000017
:2040C0005441475F5345545F4D4F544F525F5049445F504152414D455445525320696E76CD
:2040E000616C6964206D6F746F722025640000005441475F5345545F4D4F544F525F50491D
:20410000445F504152414D45544552532025642025662025662025660A0D00005441475F0C
:204120005345545F414C4C5F4449474954414C5F4F55545055545320696E76616C69642034
:204140006C656E6774682025640000005441475F5345545F414C4C5F52454C41595320691D
:204160006E76616C6964206C656E677468202564000000005441475F5345545F4F444F4DC1
:204180004554525920696E76616C6964206C656E67746820256400000411004008110040DB
:2041A0000C1100405441475F5345545F465047415F504F57455220696E76616C6964206C7F
:2041C000656E677468202564000000005441475F5345545F5057525F4F4B5F5354415445C8
:2041E00020696E76616C6964206C656E67746820256400005441475F5345545F50574D20D3
:20420000696E76616C6964206C656E6774682025640000005441475F5345545F50574D20D2
:20422000696E76616C6964206368616E6E656C20256400005441475F5345545F4D4F544F30
:20424000525F4F4E20696E76616C6964206C656E67746820256400005441475F5345545F38
:204260004D4F544F525F4F4E20696E76616C6964206D6F746F722025640000005441475F75
:204280005345545F50575242544E20696E76616C6964206C656E67746820256400000000A4
:2042A0005441475F5345545F5359535F524553455420696E76616C6964206C656E677468EE
:2042C000202564005441475F5345545F49505F4144445245535320696E76616C6964206C1E
:2042E000656E67746820256400000000601C694601F032F9601D01A901F02EF972E610B55C
:2043000004000078012809D0FEF744FD23788021E0A206F01DF8FFF70EFC26E56078002815
:2043200000D00120E64908701FE510B504000078022804D0FEF72EFD2378E2A206E06478A1
:20434000032C07D9FEF726FD2300E8A2802105F0FFFF05E0FEF71EFD8021EDA205F0F8FFE4
:20436000FFF7E9FB01E510B504000078012809D0FEF710FD23788021EEA205F0E9FFFFF799
:20438000DAFBF2E46078002800D00120FDF76CFFEBE438B504000078042809D0FEF7FAFCFA
:2043A00023788021EBA205F0D3FFFFF7C4FB59E4601C694601F0BAF8009801F033FC51E4C0
:2043C000F0B50400007887B0092804D0FEF7E2FC2378EBA206E06578032D07D9FEF7DAFCE7
:2043E0002B00F3A2802105F0B3FF22E0A01C06A901F09CF8A01D04A901F098F80699012018
:20440000C005814203DA049805F088F914D2049805F06FF9060006980F0005F06AF9040037
:204420000D00FEF7B7FC6B46F0C38021EBA205F08FFFFFF780FB5AE4F64C0698210005F00D
:20444000B7F80100280001F0D0FB0498210005F0AFF80100280001F0D6FB48E41CB5040083
:204460000078082809D0FEF795FC23788021EAA205F06EFFFFF75FFBB4E5601C694601F006
:2044800055F8601D01A901F051F8684603C801F019FEA7E510B504000078012804D0FEF72E
:2044A00079FC2378B6A206E06478032C09D9FEF771FC2300BEA2802105F04AFFFFF73BFBD1
:2044C00053E42000FFF729FA4FE43EB5040000780B2809D0FEF75EFC23788021D8A205F0C4
:2044E00037FFFFF728FB9DE4601C694601F028F8E5780822211D01A804F073FF68460188A5
:20450000D748814201D969460880082D00D90825D448016800290ED0002101606846018828
:20452000D1480160057301A906C9001D06C00C3802F078FA76E4CDA005F0FAFE72E410B5B6
:2045400004000078012809D0FEF724FC23788021C9A205F0FDFEFFF7EEFA06E46078002869
:2045600002D0FEF7EEF932E4FEF7F2F92FE410B504000078012809D0FEF70CFC2378802108
:20458000C5A205F0E5FEFFF7D6FA20E46078FEF7EEF91CE410B504000078012804D0FEF72B
:2045A000F9FB2378C4A206E06078022809D9FEF7F1FB6378CBA2802105F0CAFEFFF7BBFA0A
:2045C00005E401F0F1FD11E410B504000078012804D0FEF7DFFB2378CEA206E0607802281E
:2045E00009D9FEF7D7FB6378D5A2802105F0B0FEFFF7A1FA07E401F0F4FD04E410B504006D
:204600000078012804D0FEF7C5FB2378D8A207E06078411E0A2909D3FEF7BCFB6378DCA229
:20462000802105F095FEFFF786FA3AE4FFF756FA37E410B504000078012804D0FEF7AAFB84
:204640002378DBA206E06078042809D9FEF7A2FB6378E1A2802105F07BFEFFF76CFA20E417
:2046600001F0E4FA1DE4F8B50D000400E0E26678A81E86420CDDFEF78DFB33008021E0A2C2
:20468000009505F065FEFFF756FAF8BC08BC18472078C9E15441475F5345545F454D45521F
:2046A00047454E43595F42554D50455220696E76616C6964206C656E677468202564000008
:2046C000001000405441475F5345545F4D4F544F525F4D4F444520696E76616C6964206C5C
:2046E000656E677468202564000000005441475F5345545F4D4F544F525F4D4F44452069D7
:204700006E76616C6964206D6F746F72202564005441475F5345545F4D4F544F525F4D4F0F
:204720004445206E6F7420696D706C656D656E74656400005441475F52455345545F4C5012
:204740004320696E76616C6964206C656E677468202564005441475F5345545F5341465410
:2047600045595F56454C434F49545920696E76616C6964206C656E6774682025640000007B
:204780005441475F5345545F4D4F544F525F414343454C5F4C494D49545320696E76616CE0
:2047A0006964206C656E677468202564000000005441475F5345545F4D4F544F525F4143E7
:2047C00043454C5F4C494D49545320696E76616C6964206D6F746F72202564005441475F98
:2047E0005345545F4D4F544F525F414343454C5F4C494D49545320696E76616C6964206D61
:20480000696E202566206D61782025662076616C7565730000007A445441475F5345545F11
:20482000424154544552595F4D494E20696E76616C6964206C656E677468202564000000C8
:204840005441475F43414E5F4D534720696E76616C6964206C656E677468202564000000B3
:20486000FF070000CC1100409C1E004043414E20627573790A0D00005441475F5345545FC9
:204880004E52535420696E76616C6964206C656E67746820256400005441475F5345545FF9
:2048A000424F4F5420696E76616C6964206C656E67746820256400005441475F4348415219
:2048C0004745525F4745545F56455253494F4E20696E76616C6964206C656E677468202548
:2048E000640000005441475F434841524745525F4745545F56455253494F4E20696E76618B
:204900006C696420636861726765722049442025640000005441475F434841524745525F76
:20492000434C4541525F4552524F5220696E76616C6964206C656E677468202564000000D5
:204940005441475F434841524745525F434C4541525F4552524F5220696E76616C6964204A
:20496000636861726765722049442025640000005441475F4745545F475041494E20696E25
:2049800076616C6964206C656E677468202564005441475F4745545F475041494E20696EDC
:2049A00076616C696420475041494E20256400005441475F5345545F4D4F544F525F4445B0
:2049C00042554720696E76616C6964206C656E6774682025640000005441475F5345545F21
:2049E0004D4F544F525F444542554720696E76616C6964206D6F746F72202564000000005F
:204A00007461675F6C656E6774683D25642067726561746572207468616E206C656E6774A4
:204A2000683D256400000000030005F0D5FC66F434F437F43AF43DF44044F4474BF44E52D5
:204A4000F455595D6165F4F4F468F4F4F4F4F46BF46EF471F474F4777BF47EF48185898D87
:204A60009195F498F49BF49EA2A6AAAEB1B5F4F4F4B8F4BCFDF4C4C0C7CBF4CED2F4F4F4A2
:204A8000F4F4D5D9F4DDE1F4FDF4E4F4E8F4FDFDF4F4EBF4F0F4FEF74CFDC5E0FEF76BFD50
:204AA000C2E0FEF786FDBFE0FEF79DFDBCE0601CFFF7C2F8B8E0FEF7A9FDB5E0601CFFF7AC
:204AC000DFF8B1E0FEF7D0FDAEE0601CFFF7F8F8AAE0FEF7E3FDA7E0601CFFF738F9A3E0B0
:204AE000601CFFF775F99FE0601CFFF78DF99BE0601CFFF7B1F997E0FEF7FAFD94E0FEF7FC
:204B000013FE91E0FEF728FE8EE0FEF73FFE8BE0FEF752FE88E0FEF761FB85E0601CFFF718
:204B2000B2F981E0FEF759FE7EE0FEF76AFE7BE0601CFFF7C0F977E0601CFFF7D4F973E0F3
:204B4000601CFFF7EFF96FE0601CFFF70DFA6BE0601CFFF721FA67E0FEF764FE64E0FEF784
:204B600082FE61E0FEF7B5FE5EE0601CFFF72CFA5AE0601CFFF7C3FB56E0601CFFF7D5FB14
:204B800052E0601CFFF7EFFB4EE0FDF783FB4BE0601CFFF7FEFB47E0FEF7AEFE44E0601CE9
:204BA000FFF70EFC40E0601CFFF774FC3CE0601CFFF78BFC38E0FEF7D1FE35E0601CFFF77B
:204BC000BEFC31E0FEF70BFF2EE0601CFFF7CFFC2AE0FEF715FF27E0601CFFF7DBFC23E05A
:204BE000601CFFF7F1FC1FE0601CFFF737FC1BE0FEF743FF18E0601CFFF700FD14E0FEF730
:204C000085FF11E001F006FB0EE000E003E0601CFFF70FFD08E0FEF7BDF82378802106A288
:204C200005F096FBFEF787FFA419A41CAD1BAD1E022D00DB1BE528E5546167202564206EF9
:204C40006F7420696D706C656D656E7465640000BD48016A5522114301628169BB4A1143DC
:204C60008161416A0122120411434162416A120311434162B6488169C20311438161704726
:204C8000B54B80001858B34A0860002010707047B04A400013001233185A088000209070BC
:204CA0007047AC4A10B454780123834023435370A94B8000103319500020107010BC704764
:204CC000032805D801218140A2488279114381717047A04940228879104388719F4908720D
:204CE0000220EDE7032805D801218140994882798A43827170479749BF2288791040887175
:204D0000964908720220EDE792490122C8791043C8719249C87270478E49904AC879400873
:204D20004000C871D07270478A48C079C007C00F7047884880794006C00F7047032807D80A
:204D4000844A012192798140114200D0CAE7B7E77047F8B57F4C804D21780020103D8C4651
:204D6000009147007D493A06120E8B5C8918497801226678C91A82401300334209D063463C
:204D8000002B06D19643744B8200103366709B58AB508200AE58401C7618AE501E225143AC
:204DA0006C4A00060A32000E0428D153D9D36B48817AC9430E06360EE670A1790172217A61
:204DC0000173A078002805D1624908220A31881804F007FB0098002803D128000FC81035CB
:204DE0000FC56079002800D12671F8BC08BC1847584901220A79002302704B717047012827
:204E00000DD8001D0306534A1B0E0120002907D09179984003000B4201D108439071704799
:204E20009179984003000B42F9D0814391717047012808D8001D0121814046488079014227
:204E400001D001207047002070474448C07AC00901D0002070470120704770B53C4C60694D
:204E6000E503284360613EA005F062FA20698000FCD441A005F05CFAE0692843E06140A015
:204E800005F056FA20698000FCD53BA005F050FA70BC08BC1847F8B5FFF7DFFF3F49002061
:204EA000401C8842FCD33EA005F042FA284C414F414E002510E02069800001D43FA003E0A6
:204EC0002069000103D540A005F032FA07E06800385A01F07BFF6D1C30688542EBD3690014
:204EE0003CA005F025FA41A005F022FA484F00257D26F6002069800001D446A003E020694B
:204F0000000103D547A005F013FA05E0380001F05DFF6D1CB542EDD3B54202D144A005F082
:204F200007FA0E4B01205873FFF7EEFEFF209873FFF70FFF08490020020010398300401C80
:204F40000428CA50FAD350E700C002E055550000008002E040100040601500400000008094
:204F60005761697420756E74696C20494E49545F42206C6F773A20004F4B0A0D00000000DE
:204F80005761697420756E74696C20494E49545F4220686967683A2000000000002D3101C2
:204FA00050726F6772616D6D696E67202E2E2E2000000000A8B50000A4B50000494E4954BA
:204FC0005F42206C6F772000444F4E45206869676820000070726F6772616D6D6564202525
:204FE000642062797465730A0D0000005761697420666F7220494E49545F42206C6F77206C
:205000006F7220444F4E4520686967683A200000FFFF0000494E49545F42206C6F770A0DF3
:2050200000000000444F4E4520686967680A0D000A0D50726F6772616D6D696E67206661F2
:20504000696C65640A0D000010B503F0A2FD03F0D6FF012004F00DF810BC08BC184710B5AE
:2050600003F08BFDF8E710B5054903F05BFDF3E70A00010010B5822008DFEDE770470000BA
:20508000308B01001F102DE9E8309FE5E8009FE5002093E508D04DE2080000EA0410DDE5A0
:2050A0000E1001E2020051E32400000A040051E30C005113141090150010CD150900000A15
:2050C000081090E50410CDE5010011E30000A0130020831500010015EFFFFF0A08D08DE2C9
:2050E0001F10BDE804F05EE290109FE5044091E500C091E504404CE03F40D4E3EFFFFF1AE7
:20510000004090E50040CDE50040DDE50D0054E30040DD150A0054130A40A0030040CD0500
:205120000040DDE53FC00CE201C08CE00840CCE500C091E501C08CE200C081E5DFFFFFEA08
:205140003C109FE5042091E500C091E502005CE10120A003D9FFFF0AFFC002E201C08CE0FB
:2051600008C0DCE5012082E200C080E5042081E50020A0E3D1FFFFEA5C100040000001E089
:2051800080150040C815004038B44E480021016041604D48012303604A4848380160416048
:2051A0004A480269022422430261026908242243026147480324C460C56880221543C5607F
:2051C00004250560416005218162816A11438162C1689143C1603F493F4DE9613F49CB6145
:2051E00041140A6181686A461170446038BC704737494A699206FCD508607047314910B48D
:205200000B001A689B88D31A1B041B0CFF2B03D90020C04310BC70472B4B1C68002C03D006
:20522000002119602A4905E01206120E521810720868401C08600020ECE7C0462148483842
:2052400001000A884968521A120406D08A06920E1218491C4160107A70470020C043704737
:205260001B494A699206FCD50860704710B50ADF10BC08BC1847C04600B5002807D0030035
:2052800002E0FFF7EDFF5B1C18780028F9D10A20FFF7E6FF0D20FFF7E3FF08BC1847C0461E
:2052A00000B5002807D0030002E0FFF7A1FF5B1C18780028F9D10A20FFF79AFF0D20FFF7EA
:2052C00097FFEAE7C81500405C10004000C002E0000001E08450000000F1FFFF00F2FFFF68
:2052E00070B5644D04004000295250002A002032135220000838042815D2080004F0BEF9C2
:205300005D4904F011F90B21C94304F095F95B4904F0FDF85A4904F007F92A00A1004032CE
:2053200089184039086270BC08BC18477047F8B5554D544C2878C10700D0544C810702D5BD
:205340000121C9020C43410702D5012109030C43000702D501204003044301F054FD20008A
:2053600001F034FD070001F059FD3E0B3F053F0D01F05BFD200001F029FD040001F060FD12
:20538000220B23051B0D390030000EDF2878401C0006000E1028287001D100202870F8BC1C
:2053A00008BC1847032801D9002070473149800040310858704710B50C002E494000203193
:2053C000085A04F05BF92C4904F0AEF80B21C94304F032F9206010BC08BC184770B5040025
:2053E0002448008B04F04AF9234D290004F09CF80B21C94304F020F93F21090604F087F837
:20540000290004F091F820608DE710B50C0019494000085A04F032F91D4904F085F80B21FB
:20542000C94304F009F92060D5E770B50C00411E0A2906D300212160010016A004F078FFCE
:2054400071E70B260C4D4100F643042803D209480818008B03E0074820300818408904F094
:205460000DF9290004F060F8310004F0E5F8206059E70000101600400000A0400000204049
:2054800009F9AC4010830000601000401087000000002041475041494E2564206F75742053
:2054A0006F662072616E67650A0D000003B4694609790170694649794170694689798170B6
:2054C0006946C979C170042002B0704703B46946097901706946497941700220F4E703B4EE
:2054E0006946097901706946497941700220EBE703B46946097901706946497941706946CA
:20550000897981706946C979C1700420DCE703B46946097901706946497941706946897963
:2055200081706946C979C1700420CDE702780A7042784A7082788A70C078C87004207047D9
:2055400002780A70407848700220704702780A70407848700220704702780A7042784A7069
:2055600082788A70C078C8700420704702780A7042784A7082788A70C078C8700420704745
:20558000FE4881690122D2041143816181695200114381618169520011438161816952008C
:2055A00011438161F6480168102211430160016820221143016001684022114301600168DE
:2055C0008022114301607047EC490969133001228240114201D001207047002070471330D8
:2055E00001228240E54B002903D05869104358617047D8691043D8617047E1498A69001D58
:20560000012383401A438A617047DD49CA69001D012383401A43CA61704710B500242000FF
:20562000FFF7F3FF641C2406240E042CF7D310BC08BC184710B500242000FFF7DEFF641C61
:205640002406240E042CF7D3F1E710B5FFF798FFFFF7E3FF00F043FB0021012000F092FB05
:205660000021022000F08EFB0021032000F08AFB0021042000F086FB0021052000F082FB4C
:205680000021062000F07EFBFFF7D4FFCFE7BD490120C873704770B50C000500002901DD85
:2056A000012600E00026B749680028310C5231002800FFF794FF6D1C2806000E002E02D0F7
:2056C0002106090E02E061420906090E00F05AFB70BC08BC1847F1B588B008988400A9485A
:2056E000403007592030055908984600A648805F03F0B2FF0490A3481830805F03F0ACFF91
:205700000190A2480159019803F001FF06009D48017A002955D090300159300003F0FEFF3A
:2057200002D29848903008E0964880300159300003F0FEFF02D2934880300659934831003B
:20574000005903F08FFE914908519149884206D27F228E49D205904201DA002008518B4879
:2057600004990059009003F0D2FE06008948874202D3844950310F59854202D381487030B0
:2057800005596800000E1FD03100280003F0CCFE05007E4840300159300003F0B8FE390089
:2057A00003F0C2FE79495031095903F05BFE290003F058FE0099794A49000B0E764908D07E
:2057C0000BE072490198C9E73100380003F0ACFEF0E7049B5B001B0E03D0884203DD080055
:2057E00004E0002002E0904200D9100067495031085110390E5103F04FFF010408980914D3
:20580000FFF749FF09B0F0BC08BC1847FEB55D4C00200090E07B2500614F1835002814D02D
:2058200000200600E0737100B300584A00206852D050544A761C283236065052360E010082
:20584000300000F09FFA042EEDD32079002816D06079002813D14D4E2036012123798140A1
:205860000A001A4206D08B43464A81002371735840325350401C0006000E0428EDD3A07924
:20588000002816D0E079002813D13E4E60360121A37981400A001A4206D08B433B4A810064
:2058A0003032A37152587250401C0006000E0428EDD334484078002815D0324B98780028B4
:2058C00011D11E00203601215C7881400A00224204D08C4341005C70725A6A52401C0006B3
:2058E000000E0428EFD32548006880063FD42D480078C10709D0800739D4002001004A00B1
:20590000AA5E82420BDD10000FE0002001004200401C0006000E0328A952F8D327E0434284
:205920009A4202DA504200040014491C0906090E0329E4D303F090FE124C0600216903F035
:20594000F7FE14D22069310003F032FE002401906600A85F03F080FE019903F0E5FD03F09A
:205960009BFE641C2406240E032CA853F0D3054CE07A00282CD0207B002815E0008002E0DC
:2059800080C0FF3F641000404A100040681C0040000080BF0000808000007F4300007FC334
:2059A000601600404310004012D1260090360121E37A81400A001A4205D08B43B64A810005
:2059C000E37252587250401C0006000E0428EED3607A002815D0A07A002812D1AF4E01217E
:2059E000637A81400A001A4206D08B43AA4A8100103A637252587250401C0006000E042863
:205A0000EDD300267000285A002806D1A249B000703909584900090E1BD09F490020B20005
:205A200010318850761C3606360E042EEAD300266846805D01282FD09849B00040390290D7
:205A400009580120C005814219DB3000FFF743FE22E0914A10321158491C11507D22D20022
:205A60009142DFD901216A4691558B4A0021203A1150103A11503000FFF70DFED2E770002D
:205A8000285E019003F0E8FD834A0299703A505001993000FFF7FFFD761C3606360E042E65
:205AA000C6D3E078002806D17B487838010008314EC918304EC0607B002805D17749082219
:205AC0005839881803F08DFC606900282AD0FDF707F97D21C900884227D2380003C8411AB2
:205AE000C9091FD14006400E0C214843C619FDF7F3F8B0602078694942005839895A7182D7
:205B0000FFF750FC664903F00FFD03F0DEFD308220784000295AB1816249085AF08138686A
:205B2000401C3860FEBC08BC184700206061F9E75A4A594B803A8000603B185808600020BE
:205B4000D0707047554A4000803A13003033185A0880002050737047504A4000803A130004
:205B6000383319520020907370474C4A10B40123803A53711479834023431371464B4A4C18
:205B8000503B8000A14202DB11005031095819500020507110BC7047404A10B40123803A4E
:205BA000D37194798340234393713B4B3E4C403B8000A14202DB1100703109581950002000
:205BC000D071E7E73549803908727047334A10B4803A012354788340234353704000130024
:205BE0002033195200209070D4E72C4A10B4803AD47A012383402343D372274B80001950DD
:205C000000201073C6E7254A10B4803A547A0123834023435372204B8000103B19500020A8
:205C20009072B7E71D4980390861704710B50400042806D2FDF750F80100184880384161C1
:205C40000470F4E4154880380078704730B4174C230019885A68891A090417D05106490EA2
:205C60000C256943521C091962608A6802608A898280CA89C2800A8A0281498A41811888AB
:205C80009988401A0004000C30BC70470020C043FAE710B50DDFCAE4D81C0040E41000400B
:205CA00000007A444A10004000007F43601600404648C169032212041143C161C1699200EF
:205CC0001143C161C16992001143C16101698022914301610169402211430161704700B5EC
:205CE000FFF7E6FF3A4903204861FF2088610022CA610A624A623648403002604260826039
:205D000002224A6009224A604A6808231A434A604A6801231A434A60C1685A021143C16025
:205D2000C16852001143C160C16852001143C160C16852001143C160C16852001143C160A3
:205D4000C16852001143C16008BC1847204A00B51F494032030004F03FFB07130507090BCC
:205D60000D0F1300C86908E0086A06E0486A04E0106802E0506800E090680006000EE3E725
:205D80000020E1E7134A10B51268002A00D000210F4A0F4C4032030004F01EFB0715050706
:205DA000090B0D0F1500E16108E0216206E0616204E0116002E0516000E0916011690123F1
:205DC00083401943116110BC08BC184700C002E0008001E004100040F8B50220FEF758FFD1
:205DE00004000020FEF754FF201A03F035FC4A4C0700E16903F0DCFB06000120FEF748FFC5
:205E000003F02AFC05000021C943380003F014FC07000020FEF73CFF03F01EFC390003F06C
:205E200021FB290003F073FB216A03F07DFB07000120FEF72DFF03F00FFCA16903F0B8FBCF
:205E4000390003F00FFB616903F0B2FB334D00902900300003F068FB06002900380003F089
:205E600063FB07000098290003F05EFB0100A06803F0F8FAA06005F04DF9390003F054FB0C
:205E80000500A06805F038F8310003F04DFB290003F03DFB216803F0E5FA2060A06805F038
:205EA0002BF8390003F040FB0500A06805F032F9310003F039FB290003F0D4FA616803F02D
:205EC000D1FA6060F8BC08BC184770B5124C1449206903F029FB05001249E06803F024FB26
:205EE000290003F065FB0500A0610F48290003F05FFB20620D48290003F05AFBE06170BC9E
:205F000008BC1847E1E70449C860DEE702490861DBE701494861D8E7041100406F12833AA1
:205F2000DB0FC9400000E144ABAA2A3FD7B3DD3FF0B5032887B004D3002007B0F0BC08BCC0
:205F400018470C214843FD494418FD4920790B00143B002805D0012815D00800303800696B
:205F6000EBE76079A279042800D300200D2A00D30C2292008958F24A8000643210586A4627
:205F800003C21B6819E0EE4E657934363000483847682B0004F020FA0C071818304545188F
:205FA000307830181893A0790D2800D30C208000085831683B0000910190E04880215430D6
:205FC000E0A204F0C5F97AE0A07903F057FB0090E079000203F052FB009903F043FADE49BA
:205FE00003F0E6FA03F085FB02AA03C2A80030583B00DAA200905DE0E179A079227A09021C
:206000000143607A3B0000021043AA00B2580290CA480092019180215430D3A204F098F937
:206020004DE0A07903F02AFB0090E079000203F025FB009903F016FAC74903F0B9FA009022
:20604000207A03F01BFB0190607A000203F016FB019903F007FAC04903F0AAFA03F049FBC7
:2060600004000098019103F044FB019A02AB13C3A800059230583B000090B04880215430F3
:20608000BCA204F065F91AE0A07903F0F7FA0500E079000203F0F2FA290003F0E3F9AE492B
:2060A00003F086FA03F025FB02AA03C2306A3B00B6A20090A1488021543004F049F99F4801
:2060C00054303AE770B50C000500FCF718FC9C4A303A012801D9D46000E0D560D06803F017
:2060E00008FB02000B00ACA004F022F970BC08BC184793483038C068704710B5AEA004F0BD
:2061000017F9B04800F051FCAFA004F011F900F06BFCB0A004F00CF900F06AFC01F089FB82
:2061200010BC08BC184710B5FCF712FC0120FCF7E9FDFCF706FCF3E7F8B507000724640797
:20614000A94E6568A949AAA004F0F2F866600520FCF7B0FC380001F072FB0220FCF7AAFC86
:20616000FCF74AFB7D21C900280003F023F901009FA004F0DDF8656001F097FEF8BC08BC7D
:206180001847032803D36E48303800697047182148436A4948394018007D0D2800D30C2060
:2061A000674980000858704770B5974C002008216073A073217320716071A071E071207277
:2061C0006072924EA0720500E0726801801920608D4800F027FC6D1C2D062D0E032DF4D34C
:2061E00084E78A494001491C4118874810B5016000214173082281730273AA22027155224F
:2062000042718171C171017241728172C17200F009FC85E77E497C4810B501600021417374
:20622000082281730273017141718171C171017241728172C17200F0F5FB71E770B5404C4E
:206240000500303C012815D1A078022801D9002510E03A4A401C3A4E0021A0700800483272
:206260002D3E8B009B1858707054491C0906090E0329F6D33248A9000C3842582178890046
:20628000415864A004F054F825702FE7F0B587B0FCF722FD2A4C303C6169884202D9411ADC
:2062A00064290AD3606100F0ABFB244F24373E00243600283FD000F0A8FB3EE65348039992
:2062C00013300A1A814237D011DC5A480A1A814232D00FDC584808180ED00128EAD002287F
:2062E00029D1C4E01E2AE5D01F2AF9D1BFE0202A22D022DC1D2AF5D14F48081840090328DF
:2063000019DA182148430D49483945186946087C497C0902084369462860887C03F0AEF96F
:2063200069460090C87C000203F0A8F9009903F099F8094982E0AEE0AEE093E0401D004047
:2063400058110040257320257320696E20737461746520257300000000007A4425732025B9
:206360007320252E32665600257320257320257520257500257320257320252E3266646561
:206380006720252E3266646567000000257320257320252E326641005365742062617474C8
:2063A000657279206C6F7720766F6C7461676520252E3266560A0D0043414E2073657475DE
:2063C000700A0D0048E8010043414E2073746172740A0D0043414E207761697420726561CF
:2063E00064790A0D000000008096980010270000536574207761746368646F6720746F2004
:2064000025756D730D0A00009C1E004011050000110600000D0A43686172676572207472EB
:20642000616E736974202573202D3E2025730D0A0000000004050000FFFAFFFF03F0B8F888
:2064400069466860087D03F019F9DD4903F0B0F86946A860887D03F011F96946E860C87D85
:20646000287586E0DD2A32D0DE2A14D174E00800D4494018400903287BDA800080190178F7
:20648000491C01706946097C41706946497C81706946897CC1706CE00800CA49491E4018D1
:2064A0004009032865DA0C214843C7496A464018117C527C120211436A460160917C017106
:2064C000D17C4171918AC180D18A018151E06946087C497C090208433860002002003918FA
:2064E000401C04280A71FADB6846827CD00704D051070120890FC919087100201100C31CF1
:20650000D940C9073B18C90F401C04281972F5DB6846C17CC807C00F38738807C00F787307
:206520004807C00FB8730020C31C0A00DA40D2073B18D20F401C0428DA73F5DBA248C90981
:2065400044300170002003A90A18127A3B18401C04281A77F8DB0CE0002003AD4200531933
:2065600019795B79D219401C1B02194304289182F4DB03A800F07AFB002800DB9EE62078B8
:20658000002804D0012831D0022815D17EE00020A0607078022810D08B4E0025483E182099
:2065A000684380194768A168380003F0C1F800D2A7606D1C032DF2DBBFE000257819007ACD
:2065C00000280FD16800C619B08A03F057F8A16803F0AEF806D2B08A03F050F87B4902F04B
:2065E000A3FFA0606D1C042DE8DBA6E078A003F09FFEA069642838D8764F002500207855D2
:20660000681C0006000EFCF788F900281BD0A80082195078002814D0012802D0022828D027
:2066200011E06D4B187801280DD159789078814207D80906090E814205D19878D1788842BD
:2066400001D9012078556D1C032DD7DB00252800810089194978002900D06D1C401C0328CD
:20666000F6DBFCF74CF9A84208D10020A061022061E05A4B18780228D7D0E4E7A069322896
:2066800001D1FFF750FDFFF78FFD56E000273D005048405D002832D0A8008719F878691C2D
:2066A0000090BB787A784EA003F042FE787800280DD0012819D0022819D054A003F038FECD
:2066C000681C0006000EFFF737FD01272DE043486B4682784178007807C33F488378427856
:2066E00001784CA003F024FEEAE73B4800E03B488378427801784AA003F01AFEE0E7681CFB
:206700000006000EFCF709F900280AD0A8008019C178009183784278691C44A003F008FE4C
:2067200003E0691C4CA003F003FE6D1C032DAFDB0020A0613800FFF781FDA069401CA0619B
:206740000EE410B5FCF7D6F8002814D11E484830407802280BD01F49464AC91E8868904278
:2067600009DDC96802F0DAFF05D20120D8E4164844300078D4E40020D2E470B5FFF7E1FFB0
:20678000144C3D4DE41E002811D06078002806D13AA003F0CDFD01206070FCF791FAFCF734
:2067A00095FAA84201D2281AA0E400209EE40020607028009AE40748C01E806870470000C3
:2067C0000000C842FDFAFFFF401D00406F12833A2E0000002B110040F48B010020C00100D4
:2067E00043686172676572202564206E65656473207570646174652066726F6D2025642EB7
:2068000025642E2564202D3E200000006572726F720D0A0025642E25642E2564206F722034
:2068200025642E25642E25640D0A00004368617267657220256420757020746F2064617484
:20684000652076657273696F6E2025642E25642E25640D0A000000004368617267657220A3
:206860002564206E6F7420636F6E6E65637465640D0A00000000A04060EA00005374617270
:20688000742062617474657279206C6F7720636F756E7465720A0D00C7C08FE21CFF2FE19D
:2068A000F8B50500F448F34E4168F34A0902090E491C803252681206120E521C5143EF4A5D
:2068C000926AEF4B1201920F9A5C406851434004EC4A400C401C504302F06CFD0700EA4853
:2068E000854238D94100380002F064FD04000F2102F060FD00292AD020072AD020000C21E0
:2069000002F058FD002926D020000A2102F052FD002909D0600720D02000062102F04AFDAC
:2069200000291CD0A0071CD00A242100380002F041FD290002F03EFD401E8105D34A890D0B
:20694000A000105808437061F8BC08BC18470F24EBE71024E9E70C24E7E70824E5E7062413
