:020000040000FA
:1020000018F09FE518F09FE518F09FE518F09FE5A0
:1020100018F09FE50000A0E120F11FE518F09FE512
:102020005420000040200000A89F00004420000031
:1020300048200000000000004C200000502000005C
:10204000FEFFFFEAFEFFFFEAFEFFFFEAFEFFFFEAF8
:10205000FEFFFFEAC0019FE5AA10A0E35520A0E320
:102060002030A0E3A03180E5A03190E5403013E2BC
:10207000FCFFFF0A0130A0E30C3180E50B30A0E348
:10208000843080E58C1080E58C2080E50130A0E371
:10209000803080E58C1080E58C2080E5883090E5EC
:1020A000013313E2FCFFFF0A883090E56C419FE5A5
:1020B000043003E00B40A0E3043033E0F9FFFF1AE3
:1020C0000530A0E3043180E50530A0E3083180E568
:1020D0004C319FE5A83180E50030A0E3AC3180E5CC
:1020E0000330A0E3803080E58C1080E58C2080E513
:1020F00030419FE5C44080E51C019FE50410A0E34A
:10210000041080E50210A0E3001080E518019FE5AF
:1021100004119FE514219FE5C44091E5024B84E33F
:10212000C44081E50140A0E3004080E50040A0E319
:10213000084080E5F8409FE5184082E55540A0E35F
:10214000204082E5EC409FE5244082E5E8609FE581
:10215000016056E2FDFFFF1A014CA0E3004280E55A
:102160000240A0E3044280E50240A0E3084280E58B
:102170001F40A0E30C4280E51F40A0E3104280E531
:102180001F40A0E3144280E50F40A0E3184280E521
:10219000A8609FE5016056E2FDFFFF1A0040A0E342
:1021A000225DA0E3005085E0004085E56D8F4FE2A1
:1021B0000191A0E3FF00B8E8FF00A9E8FF00B8E83C
:1021C000FF00A9E878009FE50210A0E3001080E579
:1021D00070009FE5DBF021E300D0A0E1000040E2C9
:1021E000D7F021E300D0A0E1000040E2D1F021E3EC
:1021F00000D0A0E1000040E2D2F021E300D0A0E155
:10220000010C40E2D3F021E300D0A0E1400040E225
:1022100010F021E330009FE510FF2FE100C01FE028
:10222000FF7FFF00004011A8DE2FC0830080E0FF89
:1022300000C002E05555000000000950804F120018
:10224000C0D4010040C01FE0C8350040502200004B
:102250000CD09FE5DC1E00EB00009FE510FF2FE196
:10226000D722000088340040040002F04EFDE2490D
:10227000002C086802D00122104301E04008400011
:102280000860002006F0CFFF06F07CFFDBA008F01E
:1022900025F9FEE710B503F016FA00F0D7FC00F0C0
:1022A000DBFC0228FBD300F0CDFC02F040FD02F085
:1022B000F0FD04F0EDFE04F0BBFED2A008F00EF934
:1022C000D3480168022211430160D2A008F006F948
:1022D00010BC08BC1847002788B003206946059742
:1022E00004970297069781C1D2493C003E000397AC
:1022F00007973D008F62C0480168490849000160A6
:10230000CD4907204007416003210160AA21816077
:102310005521816000F090FA00F057FB002801D0B1
:102320000120079002F04CFFC4A002F0D5FF0799EE
:10233000C5A008F0D3F800F0D9FBC9A008F0CEF88A
:10234000CF48006802F0B4FFCEA008F0C7F802F052
:102350009BFCD0A008F0C2F802F093FD00280CD13D
:10236000CEA008F0BBF800F077FC0100FF20F530AC
:102370008142F8D3C7A008F0B1F804F0E9FD04F0F9
:1023800048FE03F0DBFD04F05FFD02F0A0FD02F06B
:1023900078FD002802D1C5A008F0A0F802F0B5FC35
:1023A00002F0E0FF03F06DF903F0C3FEC7A008F0F0
:1023B00095F809E000F050FC642803D300F046FCD7
:1023C00003F080FF05F0F5FDC54800780028F1D145
:1023D00000F034FC00F046FCC2A008F07FF8A848EA
:1023E000006802F065FF02F04BFEC6490720400777
:1023F0004160002000F05EFB00F02EFC642872D3E8
:1024000000F024FC04F08AFA002802D104F032FE25
:102410006D1C002D0FD00A21280007F0A5F8002917
:1024200004D1C820411BB8A008F058F86D1CC82D75
:1024300001D1FFF72FFF002E01D0761E09E004F036
:102440002DFE002849D00398401C0390012002F083
:1024500091FC0398142805D900200390B348642602
:1024600001214170002002F085FCB048416800293C
:1024700007D0AFA008F032F8AC48AC494068401E25
:10248000486000F008FAB8420BD100F008FA0100E9
:102490000598814205D100F007FA010004988142B5
:1024A00016D000F001FA049000F0F9F9070000F0EE
:1024B000F2F90100049B3A00A3A008F00FF800F025
:1024C000EAF9070000F0EBF9059000F0EDF904904F
:1024D000012F09D0002F0FD013E00020039001201E
:1024E00002F00AFCBEE76FE00598012809D10498C4
:1024F00001280ED100240CE0641C210097A007F0F5
:10250000EDFF0598002804D1641C210099A007F074
:10251000E5FF0498002804D1641C21009BA007F06B
:10252000DDFF0A2C01D9FFF7B5FE0698002802D07E
:10253000012827D119E004F067FD002802980DD08A
:10254000401C142802901DD904F094FD95A007F0BA
:10255000C5FF002002900120069013E0002811D052
:102560000020029003F072FE0CE0032000F0A2FABB
:102570000298401CC828029004D992A007F0AEFF30
:10258000FFF788FE994801990268914203D0002024
:10259000694605C109E00098401C0328009004D951
:1025A0000020079003F08FF801E0012007900698C3
:1025B000002809D1002E01D0042003E0079800284C
:1025C00000D0012000F076FA00F07BFD02F0CBFE97
:1025D00003F078FE05F078FE54480078002808D013
:1025E00000F053F9002804D003F06DF84F4814218F
:1025F000416005F0DEFCFFE6004008E052657365CF
:10260000740A0D0053687574646F776E0A0D0000CC
:10261000C0C01FE0546869732073686F756C6420D4
:102620006E657665722062652076697369626C6595
:102630000A0D000000C002E0002D3101526F626FF0
:1026400074696E6F330000000A0D4861726477612F
:1026500072652076657273696F6E2025640A0D00BD
:10266000526F626F74696E6F2033206669726D7786
:102670006172652076657273696F6E2000000000DC
:1026800018120040496E69742066706761202E2E12
:102690002E200000446F6E650A0D000057616974BA
:1026A000696E67203530306D730A0D00436F6E66BA
:1026B000696775726174696F6E206F662046504756
:1026C00041206661696C65640A0D00005363616EA8
:1026D0006E696E67206368617267657273200000BF
:1026E0002C1100400A0D526F626F74696E6F2033B7
:1026F000206669726D776172652076657273696FA5
:102700006E200000A0860100426174746572792019
:102710006C6F772E20486172642073687574646FE3
:10272000776E20696E202564730A0D00001000404A
:10273000656D657267656E63792062756D7065722F
:102740002025750A0D00000053333A2564205334C8
:102750003A25642053353A25640A0D00456E7465A8
:1027600072656420533320636F756E742025640A8C
:102770000D000000456E746572656420533420635B
:102780006F756E742025640A0D000000456E746537
:1027900072656420533520636F756E742025640A5A
:1027A0000D000000476F696E6720696E746F2070BE
:1027B0006F776572206F666620737461746520316F
:1027C0000A0D0000446F6573206E6F7420676F20E0
:1027D000696E746F2053332E204861726420706FCD
:1027E000776572206F66660A0D0000001C100040BD
:1027F00023C08FE21CFF2FE17A4810B54168012207
:1028000012071143416078488169121411438161B4
:1028100002F096FA10BC08BC184710B515246401E4
:10282000C001642106F0A0FE001970498005000C6B
:1028300008406F490860EDE76E4810B5016A3F2215
:102840001204114301626B4C403C60680121490550
:102850000843606065483F30FFF7DFFFFFF7CCFFBC
:102860006068012109068843606060684900884308
:1028700060605C48816801221207114381605A48F8
:102880000168121411430160C4E75748406B00020D
:10289000C017401C704753480069C00F704752482A
:1028A0004069C006C00F70474F4840694006C00FDE
:1028B00070474D48403040690005C00F70474A4896
:1028C00040304069C004C00F704710B4032803D9DA
:1028D0000B22101A0006000E474A01241378002923
:1028E00004D084401C43147010BC70478440A34340
:1028F0001370F9E73B480068C007C00F70473A48BB
:10290000403041694269C905C90F92054069D20F3B
:1029100089184005C00F0818704733494031012815
:1029200005D0022806D0032807D000207047486948
:10293000C00504E04869800501E048694005C00F12
:102940007047284881680122D20691438160704710
:102950002448C2680121C9060A43C26082680A434A
:10296000826070471F4800680001C00F704710B5B3
:102970000400FFF741FF012C06D0022C0BD0032CE2
:1029800001D102F0E5F945E71648C16801221207B6
:102990001143C1603EE71448C1690122120311438B
:1029A000C16137E70F4810B500680024C00000D4AB
:1029B00001240D484069C00400D4022402F0D0F97B
:1029C000002800D10324200024E707484030406954
:1029D000C017401C7047034800680002C017401C25
:1029E00070470000008002E040C0FF3FC0FF0000D1
:1029F00000C006E040C002E04C10004010B502F0FC
:102A00004BFC10BC08BC18470020C043704710B5F1
:102A100002F042FCF5E7FEE73F502DE984409FE5D8
:102A2000140094E5010480E3140084E5811D00EBAB
:102A3000831D00EB1C0094E5010480E31C0084E589
:102A40000100A0E3121984E2000081E50000A0E388
:102A5000000100E53F50BDE804F05EE23F502DE983
:102A600044409FE50050A0E30000D4E5640050E33B
:102A70000050C4250010D4E5040094E50100D0E71F
:102A80005AFFFFEB0000D4E520109FE5010080E233
:102A90000000C4E50100A0E3000081E5005105E568
:102AA0003F50BDE804F05EE2008002E00C10004000
:102AB000004007E000B5A449030007F063FD0604E9
:102AC00006090C0E1114A1480CE0A048643009E07E
:102AD0009E48C83006E09E4804E09D48643001E00E
:102AE0009B48C830486008BC1847C046F8B502206B
:102AF000FFF7E0FF974881690122120611438161C7
:102B0000954801254560954C6068944E0002010E81
:102B1000491C803670680006000E401C4143606806
:102B20008F4A4004400C401C504306F01DFD8D4F61
:102B3000B96A09078A0F8C49895C8C4A514306F0AF
:102B400013FD8549401EC8608948456060680002E1
:102B5000010E7068491C0006000E401C414360686D
:102B60007F4A4004400C401C504306F0FDFCB96A0B
:102B700089068A0F7C49895C7D22D200514306F088
:102B8000F3FC7B49401EC86060680002010E70685B
:102B9000491C0006000E401C41436068704A400416
:102BA000400C401C504306F0DFFCF96A89048A0F90
:102BB0006D49895C6D4A514306F0D6FC6D49401E53
:102BC000C8606D4A6D4882626D4885626D48E20456
:102BD00002617D20C000886148690322104348617A
:102BE00060680002010E7068491C0006000E401C5F
:102BF000414360685A4A4004400C401C504306F070
:102C0000B3FCF96A09048A0F5749895C7D22D20016
:102C1000514306F0A9FC5C49401EC8605B4A574816
:102C2000C262584822050261142088614869032263
:102C3000104348614D60F8BC08BC18474D4901205D
:102C4000486070474B49002048607047484880689A
:102C50004F4908607047C046454880684C4909683C
:102C6000401A704742488068494948607047C046EA
:102C70003F48806846494968401A70473C48806828
:102C8000434988607047C046394880684049896830
:102C9000401A704700B50200FFF7F0FFFFF7F4FF9E
:102CA0009042FBD31FE7C046314880683849C8606E
:102CB0007047C0462E4880683549C968401A704739
:102CC0002B488068324908617047C04628488068B0
:102CD0002F490969401A7047254880687047C046E7
:102CE00023498968081A70471B48806828491431AD
:102CF0000860704718488068254914310968401AEF
:102D00007047C04600B50200FFF7EEFFFFF7F2FF85
:102D10009042FBD3E7E6C0460F4880681C49143157
:102D2000486070470C488068194914314968401A56
:102D30007047C04600B50200FFF7EEFFFFF7F2FF55
:102D40009042FBD3CFE600000C100040F8B4000026
:102D500024B60000008002E0004000E080C01FE0D8
:102D600000366E0180C11FE0248D010040420F003B
:102D7000008000E0000007E0182A000040F1FFFF9B
:102D800040F2FFFF00F0FFFF004007E05C2A000078
:102D900094120040E2487047F8B5E24C0025002844
:102DA00065700ED0022101280FD0022811D003280F
:102DB00025D0DB4E030080213000DBA207F09EFB14
:102DC0001AE02570F8BC08BC184701202070E160AB
:102DD000F8E72170D349891C087849780B0203432E
:102DE0000121490223618B426361EBDD0091CC48F4
:102DF0008021D4A207F082FB00F0E4FEE1E703208B
:102E00002070A161DEE7F3B583B00C00684602F0E4
:102E100042F90126C34D002739E001A802F03FF92D
:102E20000098401E0090687800280BD0012821D01F
:102E3000BB486B788021CAA207F060FB00F0C2FE9D
:102E4000002011E06846007955280AD0AA280AD047
:102E5000039908700398401C03902068401E20606E
:102E600015E06E7013E00120FFF796FF05B0F0BC8F
:102E700008BC18476846007920214840039908702B
:102E80000398401C03902068401E20606F702068EB
:102E90000028EBDD00980028BFDCE7E738B5A14A41
:102EA00000200100921C535C491C090618180004FC
:102EB000000C090E0229F6D39A4AB04B5269002140
:102EC00006E05C5C20180004491C000C0906090E91
:102ED0009142F6DB0121934A0904081A0104121DEC
:102EE00010785278090C13020343994203D1012050
:102EF00038BC08BC1847009189488021A0A207F07F
:102F0000FDFA00F05FFE0020F2E7F8B585480024E6
:102F1000801C427801782500A0A007F0DFFA974FC7
:102F2000804E06E0395DA2A007F0D8FA641C2406A2
:102F3000240E7069844216DA102CF3D313E087A0B4
:102F400007F0CCFA002509E0395D9BA007F0C6FA2E
:102F5000641C24066D1C240E2D062D0E70698442FF
:102F600001DA142DF0D38442E9DB6E4E0024361DC5
:102F70000BE0315D90A007F0B1FA641C24066D1CD3
:102F8000240E2D062D0E022C01D2142DF1D373A088
:102F900007F0A4FA022CF6D314E7F3B50F000026CD
:102FA00081B087A007F09AFA012400251CE0002ECA
:102FB00005D001980026415D2020414003E00198A2
:102FC000415D552915D07CA007F088FA641C2406C1
:102FD000240E6D1C2D062D0EBD4201D2142CE6D3FD
:102FE0005EA007F07BFA0024BD42F5D3FEBC08BC0E
:102FF00018470126EDE71CB502F05CF8684602F0C0
:103000004AF8484C14E02378002B17D0012B1ED02F
:10301000022B2AD0032B36D04148802169A207F029
:103020006DFA00F0CFFD00202070684602F033F802
:1030300000980028E7DC1CBC08BC184701A802F077
:103040002EF868460079AA28EFD1012036E03548ED
:10305000E168801C401A3349801C0C31FFF7D3FE15
:10306000E0680028E1D1022028E044486169411865
:103070002069081A2B491031FFF7C5FE2069002886
:10308000D3D103201AE02748A169001D401A254921
:10309000801C1831FFF7B7FEA0690028C5D1FFF7E3
:1030A000FDFE002807D0A068401CA060334861697D
:1030B00001F00AFB01E0FFF728FF0020FFF76CFE9C
:1030C000B3E71CB5002468460480FFF794FF694607
:1030D00001A800F025FA684600880028ABD06846B1
:1030E0000088402812D90198402101F0DDFF684690
:1030F0000188403901800198403001903220FFF76B
:1031000001FE684600880028E9D106E0684601888B
:10311000019801F0C9FF6846048000F04EFA8AE782
:10312000B814004014100040496E76616C69642048
:103130007472616E7369742073746174653D256483
:10314000000000007061796C6F616420746F206C06
:103150006F6E673A202564203E2025640A0D00002A
:10316000496E76616C696420636F6D5F6461746140
:103170005F73746174653D2564000000B8120040FF
:10318000525820636865636B73756D206D69736D4C
:103190006174636820257820257800003C3C20413C
:1031A00041202530325820253032582000000000C0
:1031B0002532582000000000253032582000000041
:1031C0003E3E2000496E76616C696420636F6D5FDE
:1031D00073746174653D25640000000010B5032020
:1031E00004F072FF002809D1272004F085FF012098
:1031F00004F082FF03F008FF04F07EFF10BC08BC5F
:10320000184738B5122004F05FFF002831D1FFF7CE
:1032100076FB0400684602F0FDF8412004F06CFFE4
:10322000102004F069FF03F096FB05F01EF80098EB
:1032300005F01BF8FFF75EFB04F05EFF200004F0D2
:103240005BFFFC480168002902D14068002801D0DA
:10325000022004E0012C01D9012000E0002004F04C
:103260004BFF03F0D2FA04F047FF03F057FB04F0E2
:10327000A6FF38BC08BC184770B5EF4802F025FD22
:10328000EE4C411C60603AD01E2801DD1E206060BB
:10329000C0000E30A060801C0006000E04F014FF79
:1032A00000282CD1642004F027FF207A04F024FFAA
:1032B00002F0E4FC04F020FFDF4D286804F07FFFFB
:1032C0000A2004F019FF606817E00420285E04F06B
:1032D0004BFF0620285E04F047FF288904F01DFFFD
:1032E0000A20285E04F040FF6068002802DDD24812
:1032F00002F0EBFC6068401E60600028E5DA70BCFC
:1033000008BC1847F8B5CC4E00250C3604F08CFBF1
:10331000411C05D070556D1C2D062D0E402DF5D38A
:1033200028002B300006000E04F0CEFE00287DD1D0
:10333000622004F0E1FE280029300006000E04F0AF
:10334000DBFEBC4C206804F03AFF606804F037FFF5
:103350000020010001276218927A002A04D03A0066
:103360008A4002431006000E491C0906090E08296E
:10337000F1D304F0C1FE002001006218127E002A81
:1033800004D03A008A4002431006000E491C090688
:10339000090E0829F1D304F0AFFEA17C002000291A
:1033A00000D00120217D002901D002210843A1493C
:1033B00020310A7E002A01D004221043E27C002A38
:1033C00001D010221043627D002A01D02022104338
:1033D000497E002901D04021084304F08DFE0027DA
:1033E00078000019008C04F098FE7F1C3F063F0E09
:1033F000082FF5D30027E0192030007C04F07CFE74
:103400007F1C3F063F0E082FF5D3002004F074FE0A
:10341000002004F071FE002004F06EFE002004F095
:103420006BFE002004F068FE002000E00BE004F0DA
:1034300063FE002405E0305D04F05EFE641C24069B
:10344000240EAC42F7D3F8BC08BC1847F8B5050009
:1034500002F0B3FE060006F0B0F80400032DF2D22D
:10346000200016300006000E070004F02DFE002894
:10347000E9D1502004F040FE380004F03DFE280061
:1034800004F03AFE182045436D4F785904F097FE3A
:10349000ED19686804F0E9FEA86804F0E6FEE86843
:1034A00004F0E3FE286904F0E0FE287D04F024FE29
:1034B000002503E0705D04F01FFE6D1CA542F9D3EA
:1034C000C1E710B50400032819D2062004F0FCFD62
:1034D000002814D1522004F00FFE042004F00CFE4A
:1034E000200004F009FE5748A1000C18607804F091
:1034F00003FEA07804F000FEE07804F0FDFD7DE618
:1035000010B5032004F0E0FD002808D14F2004F09E
:10351000F3FD012004F0F0FD012004F0EDFD6DE667
:10352000F3B5494800240188200081B0002941D02A
:1035300046490A78002A02D00870FFF7E1FF414FA0
:103540003E4EA500785D315D884204D0305520069E
:10355000000EFFF7B6FF18202100414338484158BC
:1035600035480C384259914204D041512006000E92
:10357000FFF76CFF641C032CE3DB30492D480C3152
:103580000B680268934203D14B684468A34204D09D
:103590000A6040684860FFF7B5FEFFF76DFEFFF771
:1035A00030FEFFF71BFE01A803C804F022FDFEBC9D
:1035B00008BC184702990880F9E710B504F07EFDB1
:1035C0001CE610B5072004F07FFD00281AD1022068
:1035D00004F092FD052004F08FFDFFF7F6F90028B6
:1035E00001D0342000E0332004F086FD2E2004F0CA
:1035F00083FD302004F080FD2E2004F07DFD30207E
:1036000004F07AFDFAE570B5114E306805F0D5FF8B
:103610000500801C0006000E04F056FD002820D195
:10362000042004F069FD2806000E04F065FD002466
:1036300015E000005C1100404415004030100040CF
:10364000381D0040A41D00404812004001100040F9
:10365000181200403068005D04F04EFD641CAC425E
:10366000F8DB4CE638B5262004F02EFD002812D1F8
:10367000062004F041FD242004F03EFD002420003B
:10368000694601F0B4FE009804F0EFFD641C2406C6
:10369000240E092CF3D3ECE510B5072004F014FD3B
:1036A00000280BD1082004F027FD052004F024FD9C
:1036B0000C2004F021FDFE4804F0D7FD9EE538B54E
:1036C0000A2004F001FD002814D10B2004F014FDA1
:1036D000082004F011FD00242000694601F0F4FAEE
:1036E00000206946085E04F03FFD641C2406240E99
:1036F000042CF1D3BDE538B5122004F0E5FC002818
:1037000012D10E2004F0F8FC102004F0F5FC002487
:103710002000694601F0D0FA009804F07BFD641C9B
:103720002406240E042CF3D3A3E5F8B5322004F0CC
:10373000CBFC002822D1112004F0DEFC302004F064
:10374000DBFCDC4FDC4E0024DC4AA0003958155865
:10375000B14201D3DA490958B54201D3D94A1558C3
:10376000080004F082FD280004F07FFD002004F032
:103770007CFD641C2406240E042CE5D363E670B59E
:103780000E2004F0A1FC002814D1CF480568CF48D2
:103790000468CF480668172004F0AEFC0C2004F043
:1037A000ABFC280004F061FD200004F05EFD300059
:1037B00004F05BFDA3E510B5122004F085FC0028A1
:1037C00010D11B2004F098FC102004F095FC00247C
:1037D000200001F003FE04F048FD641C2406240EC2
:1037E000042CF5D30AE538B5222004F06DFC00283E
:1037F00012D1212004F080FC202004F07DFC002464
:103800002000694601F01DFE009804F02EFD641CA6
:103810002406240E082CF3D32BE508B5032004F06E
:1038200053FC00280CD1684601F0FEFA232004F076
:1038300063FC012004F060FC6846007804F05CFC46
:1038400001B008BC184710B5032004F03DFC002867
:1038500009D1252004F050FC012004F04DFCFFF7B5
:1038600014F804F049FCC9E408B5032004F02CFC6A
:103870000028E5D1684601F078FA2A2004F03CFCE3
:10388000012004F039FC6846007804F035FCD7E7E5
:1038900010B5032004F018FC002809D12C2004F0F6
:1038A0002BFC012004F028FC03F0D1FB04F024FCE5
:1038B000A4E410B5072004F007FC002819D1332038
:1038C00004F01AFC052004F017FCFEF7E4FF04F0F6
:1038D00013FCFEF7E4FF04F00FFCFEF7E5FF04F035
:1038E0000BFCFEF7E6FF04F007FCFEF7E8FF04F030
:1038F00003FC83E41CB52A2004F0E6FB00282CD14D
:10390000352004F0F9FB282004F0F6FB0024200009
:10391000694601F0D9F900206946085E04F024FCEC
:10392000641C2406240E042CF1D30024200001A9D9
:1039300001F0C2F9019804F06DFC641C2406240E09
:10394000042CF3D30024200001F048FD04F08DFC8A
:10395000641C2406240E042CF5D31CBC08BC184798
:1039600010B50A2004F0B0FB00280BD1372004F07A
:10397000C3FB082004F0C0FB564804F020FC564866
:1039800004F01DFC3AE410B5062004F09DFB00286D
:1039900009D13F2004F0B0FB042004F0ADFB4F48F8
:1039A000006804F062FC29E470B504000B2004F008
:1039B0008BFB002818D1432004F09EFB092004F063
:1039C0009BFB200004F098FB4548464DA40000599D
:1039D000290005F083FE04F048FC43482900005903
:1039E00005F07CFE04F041FC89E47FB53F4D35E0F5
:1039F0000098A84200D900956846007B082802D9A3
:103A00000820694608730D2004F05EFB00282AD1C7
:103A1000482004F071FB0B2004F06EFB00980004BA
:103A2000000C04F07AFB6846007B04F065FB002480
:103A30006E4606E03019007904F05EFB641C240633
:103A4000240E6846007BA042F4D805E0002004F074
:103A500053FB641C2406240E082CF7D3684603F09D
:103A600079F90028C4DA7FBC08BC184710B50320D8
:103A700004F02AFB002809D14B2004F03DFB012073
:103A800004F03AFBFEF76EFF04F036FB37E510B5A5
:103A9000032004F019FB002809D14E2004F02CFB70
:103AA000012004F029FBFEF77DFF04F025FB26E54D
:103AB000C3F54840A810004000008080C8100040B6
:103AC000B8100040D8100040081100400C11004010
:103AD000101100400100007F0000FFFF781000403F
:103AE000F810004000007A44E8100040FF07000092
:103AF000704770B5050002F037FA060005F05DFD6D
:103B00000400032D1FD2E01D0006000E04F0DCFAB5
:103B1000002818D1552004F0EFFA601D0006000EB1
:103B200004F0EAFA280004F0E7FA0C204543644860
:103B3000405904F044FB002503E0705D04F0DCFA1A
:103B40006D1CA542F9DB8CE510B5062004F0BCFA2B
:103B5000002809D1582004F0CFFA042004F0CCFA50
:103B600002F0E3FA04F081FBC9E438B50400072051
:103B700004F0AAFA00280FD12000694601F071FC78
:103B80005C2004F0B9FA052004F0B6FA200004F035
:103B9000B3FA009804F069FB7DE510B5042004F049
:103BA00093FA00280DD15E2004F0A6FA022004F05A
:103BB000A3FAFEF70AFF04F09FFAFEF70CFF04F0E9
:103BC0009BFA9CE470B5FFF7E5F8060005F0F5FCFC
:103BD0000406240E802C03D9802400217F208155E7
:103BE000300006F07BFC37A006F078FCA01C000635
:103BF000000E04F069FA00280DD1FC2004F07CFAD4
:103C0000200004F079FA002503E0705D04F074FAF6
:103C10006D1CA542F9DB24E570B5FFF7BBF8060083
:103C200005F0CBFC0406240E802C03D9802400214F
:103C30007F208155300006F051FC22A006F04EFC9A
:103C4000A01C0006000E04F03FFA00280DD1FA2057
:103C500004F052FA200004F04FFA002503E0705DF2
:103C600004F04AFA6D1CA542F9DBFAE470B5FFF7DF
:103C700091F8060005F0A1FC0406240E802C03D95F
:103C8000802400217F208155300006F027FC0DA004
:103C900006F024FCA01C0006000E04F015FA002813
:103CA0000DD1FB2004F028FA200004F025FA0025AD
:103CB00003E0705D04F020FA6D1CA542F9DBD0E44E
:103CC000801D00400A0D000038B50400007803286C
:103CD00004D0FFF75FF82378E7A206E06578032DAC
:103CE0000BD9FFF757F82B00EDA2802106F006FC58
:103CF000FFF768FF38BC08BC1847A01C694601F0F4
:103D000041FC00216846415E280001F07BFFF1E79D
:103D100038B504000078052804D0FFF73BF8237875
:103D2000E9A206E06578032D09D9FFF733F82B00E7
:103D3000F0A2802106F0E2FBFFF744FFDAE7A01CC7
:103D4000694601F02FFC0099280000F0C6FFD1E77A
:103D50003EB5040000780D2804D0FFF71BF8237847
:103D6000EEA206E06578032D0BD9FFF713F82B00C0
:103D7000F6A2802106F0C2FBFFF724FF3EBC08BC80
:103D80001847A01C694601F0EDFBA01D01A901F038
:103D9000E9FB20000A3002A901F0E4FB00992800A9
:103DA00001F0FFFE0199280001F012FFE6E710B5CF
:103DB0000400007801280BD0FEF7ECFF2378802167
:103DC000EEA206F09BFBFFF7FDFE10BC08BC1847F7
:103DD00064780020E107C90FFEF777FD210002207B
:103DE00001400120FEF771FD042021000140022066
:103DF000FEF76BFD2100082001400320FEF765FD62
:103E00002100102001400420FEF75FFD202021004A
:103E100001400520FEF759FD210040200140062009
:103E2000FEF753FDE109C9010720FEF74EFDCCE77F
:103E300010B504000078012809D0FEF7ABFF237805
:103E40008021DAA206F05AFBFFF7BCFEBDE76478DA
:103E50000020E107C90F00F0EEFF21000220014021
:103E6000012000F0E8FFB0E73EB5040000780C2820
:103E700009D0FEF78FFF23788021D6A206F03EFB03
:103E8000FFF7A0FE7AE7601C694601F06BFB601D3E
:103E900001A901F067FB2000093002A901F062FBD3
:103EA000D54900980860D54901980860D44902981E
:103EB000086063E738B504000078042809D0FEF7ED
:103EC00069FF23788021C3A206F018FBFFF77AFE72
:103ED00010E7601C694601F045FBC949009808607D
:103EE00008E710B504000078012809D0FEF752FF5A
:103EF00023788021C3A206F001FBFFF763FE64E78D
:103F00006078002802D000F000FF5EE700F00FFFAD
:103F10005BE710B504000078012809D0FEF73AFFEE
:103F200023788021C1A206F0E9FAFFF74BFE4CE7A7
:103F30006078002802D003F06CF846E703F078F8C8
:103F400043E770B504000078022804D0FEF722FF92
:103F50002378C0A207E06578681E06280BD3FEF719
:103F600019FF2B00C3A2802106F0C8FAFFF72AFE32
:103F700070BC08BC1847A178280001F01FFFF7E7C4
:103F800070B504000078022804D0FEF703FF237800
:103F9000C0A206E06578032D09D9FEF7FBFE2B00D1
:103FA000C5A2802106F0AAFAFFF70CFEE0E7A07890
:103FB000002803D0280001F03CFBD9E7280001F0DD
:103FC00040FBD5E710B504000078012809D0FEF7C2
:103FD000E1FE23788021C1A206F090FAFFF7F2FDFE
:103FE000F3E66078002802D003F04BF8EDE603F02A
:103FF00041F8EAE610B504000078012809D0FEF780
:10400000C9FE23788021BEA206F078FAFFF7DAFD18
:10401000DBE66078002802D003F025F8D5E603F04F
:104020001BF8D2E61CB50400007808280BD0FEF778
:10403000B1FE23788021BBA206F060FAFFF7C2FD33
:104040001CBC08BC1847601C694601F0A1FA601D41
:1040500001A901F09DFAF3E710B5040000780128EA
:1040600009D0FEF797FE23788021B8A206F046FA21
:10407000FFF7A8FDA9E67FE15441475F5345545F30
:104080004D4F544F525F535045454420696E766101
:104090006C6964206C656E6774682025640000009C
:1040A0005441475F5345545F4D4F544F525F5350F7
:1040B00045454420696E76616C6964206D6F746F4C
:1040C00072202564000000005441475F5345545F4F
:1040D0004D4F544F525F504F534954494F4E2069F2
:1040E0006E76616C6964206C656E67746820256407
:1040F000000000005441475F5345545F4D4F544FFB
:10410000525F504F534954494F4E20696E76616C4F
:104110006964206D6F746F72202564005441475F9D
:104120005345545F4D4F544F525F5049445F504187
:1041300052414D455445525320696E76616C696415
:10414000206C656E67746820256400005441475FE9
:104150005345545F4D4F544F525F5049445F504157
:1041600052414D455445525320696E76616C6964E5
:10417000206D6F746F722025640000005441475F0A
:104180005345545F414C4C5F4449474954414C5F4F
:104190004F55545055545320696E76616C696420B4
:1041A0006C656E6774682025640000005441475FA9
:1041B0005345545F414C4C5F52454C415953206923
:1041C0006E76616C6964206C656E67746820256426
:1041D000000000005441475F5345545F4F444F4D2A
:1041E0004554525920696E76616C6964206C656E25
:1041F0006774682025640000081100400C1100401D
:10420000101100405441475F5345545F46504741A9
:104210005F504F57455220696E76616C6964206C1F
:10422000656E677468202564000000005441475F94
:104230005345545F5057525F4F4B5F535441544561
:1042400020696E76616C6964206C656E67746820A5
:10425000256400005441475F5345545F50574D203B
:10426000696E76616C6964206C656E677468202580
:10427000640000005441475F5345545F50574D2040
:10428000696E76616C6964206368616E6E656C202E
:10429000256400005441475F5345545F4D4F544FD0
:1042A000525F4F4E20696E76616C6964206C656E5A
:1042B00067746820256400005441475F5345545F8C
:1042C0004D4F544F525F4F4E20696E76616C69645A
:1042D000206D6F746F722025640000005441475FA9
:1042E0005345545F50575242544E20696E76616C6C
:1042F0006964206C656E67746820256400000000A6
:104300005441475F5345545F5359535F524553459A
:104310005420696E76616C6964206C656E677468A0
:10432000202564005441475F5345545F49505F4125
:1043300044445245535320696E76616C6964206C25
:10434000656E677468202564000000005441475F73
:104350005345545F454D455247454E43595F42557D
:104360004D50455220696E76616C6964206C656EB3
:1043700067746820256400006078002800D0012060
:10438000DD49087021E510B504000078022804D04A
:10439000FEF700FD2378D9A206E06478032C07D944
:1043A000FEF7F8FC2300DFA2802106F0A7F805E065
:1043B000FEF7F0FC8021E4A206F0A0F8FFF702FC73
:1043C00003E510B504000078012809D0FEF7E2FCEF
:1043D00023788021E5A206F091F8FFF7F3FBF4E4DF
:1043E0006078002800D00120FDF73EFFEDE438B5ED
:1043F00004000078042809D0FEF7CCFC2378802143
:10440000E2A206F07BF8FFF7DDFB73E4601C69466F
:1044100001F0A8F8009801F021FC6BE4F0B504006D
:10442000007887B0092804D0FEF7B4FC2378E2A214
:1044300006E06578032D07D9FEF7ACFC2B00EAA255
:10444000802106F05BF822E0A01C06A901F08AF8A2
:10445000A01D04A901F086F806990120C00581423B
:1044600003DA049805F034FA17D2049805F01BFA21
:10447000060006980F0005F016FA04000D00FEF77E
:1044800089FC6B46F0C38021E2A206F037F8FFF703
:1044900099FB07B0F0BC08BC1847EC4C069821000B
:1044A00005F060F90100280001F0BBFB0498210031
:1044B00005F058F90100280001F0C1FBE9E71CB53F
:1044C00004000078082809D0FEF764FC23788021D6
:1044D000DFA206F013F8FFF775FBB1E5601C694633
:1044E00001F040F8601D01A901F03CF8684603C8DE
:1044F00001F004FEA4E510B504000078012804D002
:10450000FEF748FC2378ACA206E06478032C09D9B6
:10451000FEF740FC2300B4A2802105F0EFFFFFF777
:1045200051FB52E42000FFF73FFA4EE43EB5040091
:1045300000780B2809D0FEF72DFC23788021CEA22D
:1045400005F0DCFFFFF73EFB18E4601C694601F054
:1045500013F8E5780822211D01A805F01CF868462B
:104560000188CD48814201D969460880082D00D9CB
:104570000825CA48016800290ED00021016068465C
:104580000188C7480160057301A906C9001D06C05E
:104590000C3802F0BBFA09E4C2A005F09FFF05E465
:1045A00010B504000078012809D0FEF7F3FB23784A
:1045B0008021BFA205F0A2FFFFF704FB05E46078AD
:1045C000002802D0FEF7BDF931E4FEF7C1F92EE470
:1045D00010B504000078012809D0FEF7DBFB237832
:1045E0008021BBA205F08AFFFFF7ECFA1FE4607898
:1045F000FEF7BDF91BE410B504000078012804D0D3
:10460000FEF7C8FB2378BAA206E06078022809D931
:10461000FEF7C0FB6378C1A2802105F06FFFFFF7B2
:10462000D1FA04E401F0DCFD10E410B504000078D8
:10463000012804D0FEF7AEFB2378C4A206E0607820
:10464000022809D9FEF7A6FB6378CBA2802105F0EA
:1046500055FFFFF7B7FA06E401F0DFFD03E410B5FC
:1046600004000078012804D0FEF794FB2378CEA242
:1046700007E06078411E0A2909D3FEF78BFB6378B7
:10468000D1A2802105F03AFFFFF79CFA37E4FFF74B
:104690006CFA34E410B504000078012804D0FEF769
:1046A00079FB2378D0A206E06078042809D9FEF7C8
:1046B00071FB6378D6A2802105F020FFFFF782FA14
:1046C0001DE401F0CFFA1AE4F8B50D000400CBE2C6
:1046D0006678A81E86420CDDFEF75CFB3300802165
:1046E000D5A2009505F00AFFFFF76CFAF8BC08BCEC
:1046F00018472078B4E10000001000405441475FA3
:104700005345545F4D4F544F525F4D4F44452069C0
:104710006E76616C6964206C656E677468202564D0
:10472000000000005441475F5345545F4D4F544FC4
:10473000525F4D4F444520696E76616C6964206D0F
:104740006F746F72202564005441475F5345545F76
:104750004D4F544F525F4D4F4445206E6F7420694A
:104760006D706C656D656E74656400005441475FE3
:1047700052455345545F4C504320696E76616C69D5
:1047800064206C656E677468202564005441475F3F
:104790005345545F5341465445595F56454C434F2A
:1047A00049545920696E76616C6964206C656E6746
:1047B00074682025640000005441475F5345545FEE
:1047C0004D4F544F525F414343454C5F4C494D4917
:1047D000545320696E76616C6964206C656E6774F1
:1047E00068202564000000005441475F5345545F32
:1047F0004D4F544F525F414343454C5F4C494D49E7
:10480000545320696E76616C6964206D6F746F72A9
:10481000202564005441475F5345545F4D4F544F2A
:10482000525F414343454C5F4C494D4954532069C5
:104830006E76616C6964206D696E202566206D61FD
:10484000782025662076616C7565730000007A44D7
:104850005441475F5345545F424154544552595F58
:104860004D494E20696E76616C6964206C656E6797
:1048700074682025640000005441475F43414E5F47
:104880004D534720696E76616C6964206C656E6774
:104890007468202564000000FF0700000C1200402F
:1048A000B81E004043414E20627573790A0D000026
:1048B0005441475F5345545F4E52535420696E76BE
:1048C000616C6964206C656E677468202564000003
:1048D0005441475F5345545F424F4F5420696E76B1
:1048E000616C6964206C656E6774682025640000E3
:1048F0005441475F434841524745525F4745545FE3
:1049000056455253494F4E20696E76616C6964205A
:104910006C656E6774682025640000005441475F31
:10492000434841524745525F4745545F56455253AD
:10493000494F4E20696E76616C69642063686172CC
:104940006765722049442025640000005441475F98
:10495000434841524745525F434C4541525F45529F
:10496000524F5220696E76616C6964206C656E6787
:1049700074682025640000005441475F4348415259
:104980004745525F434C4541525F4552524F52207A
:10499000696E76616C696420636861726765722014
:1049A00049442025640000005441475F4745545F57
:1049B000475041494E20696E76616C6964206C6590
:1049C0006E677468202564005441475F4745545F13
:1049D000475041494E20696E76616C6964204750AA
:1049E00041494E20256400005441475F5345545FC0
:1049F0004D4F544F525F444542554720696E766192
:104A00006C6964206C656E67746820256400000022
:104A10005441475F5345545F4D4F544F525F444597
:104A200042554720696E76616C6964206D6F746FC2
:104A300072202564000000007461675F6C656E671A
:104A400074683D25642067726561746572207468BE
:104A5000616E206C656E6774683D2564000000001F
:104A6000030005F08FFD66F434F437F43AF43DF4B6
:104A70004044F4474BF44E52F455595D6165F4F4EB
:104A8000F468F4F4F4F4F46BF46EF471F474F47701
:104A90007BF47EF48185898D9195F498F49BF49E46
:104AA000A2A6AAAEB1B5F4F4F4B8F4BCFDF4C4C047
:104AB000C7CBF4CED2F4F4F4F4F4D5D9F4DDE1F4B8
:104AC000FDF4E4F4E8F4FDFDF4F4EBF4F0F4FEF7A7
:104AD00078FDC5E0FEF797FDC2E0FEF7C3FDBFE03D
:104AE000FEF7DAFDBCE0601CFFF7EEF8B8E0FEF779
:104AF000E6FDB5E0601CFFF70BF9B1E0FEF7FBFD4A
:104B0000AEE0601CFFF724F9AAE0FEF70EFEA7E076
:104B1000601CFFF74CF9A3E0601CFFF789F99FE0E8
:104B2000601CFFF7A1F99BE0601CFFF7C3F997E059
:104B3000FEF725FE94E0FEF73EFE91E0FEF753FE01
:104B40008EE0FEF76AFE8BE0FEF77DFE88E0FEF762
:104B500045FB85E0601CFFF7C4F981E0FEF784FEA9
:104B60007EE0FEF795FE7BE0601CFFF7D2F977E070
:104B7000601CFFF7E6F973E0601CFFF701FA6FE0D5
:104B8000601CFFF71FFA6BE0601CFFF733FA67E069
:104B9000FEF78FFE64E0FEF7ADFE61E0FEF7E0FE9B
:104BA0005EE0601CFFF73EFA5AE0601CFFF754FA23
:104BB00056E0601CFFF7E7FB52E0601CFFF701FCCA
:104BC0004EE0FDF767FB4BE0601CFFF710FC47E091
:104BD000FEF7D9FE44E0601CFFF720FC40E0601CBB
:104BE000FFF789FC3CE0601CFFF7A0FC38E0FEF713
:104BF000FCFE35E0601CFFF7D3FC31E0FEF736FF2A
:104C00002EE0601CFFF7E4FC2AE0FEF740FF27E0FF
:104C1000601CFFF7F0FC23E0601CFFF706FD1FE0BF
:104C2000601CFFF74CFC1BE0FEF78EFF18E0601CD9
:104C3000FFF715FD14E0FEF7B0FF11E001F006FBF1
:104C40000EE000E003E0601CFFF724FD08E0FEF743
:104C5000A1F82378802106A205F050FCFEF7B2FFF0
:104C6000A419A41CAD1BAD1E022D00DB30E53DE5F3
:104C7000546167202564206E6F7420696D706C65C7
:104C80006D656E7465640000BD48016A552211436C
:104C900001628169BB4A11438161416A01221204A8
:104CA00011434162416A120311434162B64881696E
:104CB000C203114381617047B54B80001858B34A55
:104CC0000860002010707047B04A40001300123393
:104CD000185A0880002090707047AC4A10B454787D
:104CE0000123834023435370A94B80001033195094
:104CF0000020107010BC7047032805D801218140A6
:104D0000A2488279114381717047A0494022887975
:104D1000104388719F4908720220EDE7032805D8E7
:104D200001218140994882798A438271704797496D
:104D3000BF22887910408871964908720220EDE7F9
:104D400092490122C8791043C8719249C8727047CC
:104D50008E49904AC87940084000C871D0727047A7
:104D60008A48C079C007C00F7047884880794006DC
:104D7000C00F7047032807D8844A012192798140E7
:104D8000114200D0CAE7B7E77047F8B57F4C804DB5
:104D900021780020103D8C46009147007D493A065D
:104DA000120E8B5C8918497801226678C91A8240F4
:104DB0001300334209D06346002B06D19643744B4F
:104DC0008200103366709B58AB508200AE58401C76
:104DD0007618AE501E2251436C4A00060A32000E6D
:104DE0000428D153D9D36B48817AC9430E06360EB5
:104DF000E670A1790172217A0173A078002805D1AB
:104E0000624908220A31881804F0C5FB009800287E
:104E100003D128000FC810350FC56079002800D1D4
:104E20002671F8BC08BC1847584901220A790023AA
:104E300002704B71704701280DD8001D0306534ABC
:104E40001B0E0120002907D09179984003000B42E6
:104E500001D10843907170479179984003000B424B
:104E6000F9D0814391717047012808D8001D0121B4
:104E7000814046488079014201D0012070470020DE
:104E800070474448C07AC00901D000207047012013
:104E9000704770B53C4C6069E503284360613EA0F3
:104EA00005F01CFB20698000FCD441A005F016FB36
:104EB000E0692843E06140A005F010FB2069800014
:104EC000FCD53BA005F00AFB70BC08BC1847F8B540
:104ED000FFF7DFFF3F490020401C8842FCD33EA083
:104EE00005F0FCFA284C414F414E002510E02069A6
:104EF000800001D43FA003E02069000103D540A059
:104F000005F0ECFA07E06800385A01F0D3FF6D1C99
:104F100030688542EBD369003CA005F0DFFA41A080
:104F200005F0DCFA484F00257D26F6002069800058
:104F300001D446A003E02069000103D547A005F095
:104F4000CDFA05E0380001F0B5FF6D1CB542EDD398
:104F5000B54202D144A005F0C1FA0E4B01205873AE
:104F6000FFF7EEFEFF209873FFF70FFF08490020C0
:104F7000020010398300401C0428CA50FAD350E7BD
:104F800000C002E055550000008002E044100040DF
:104F9000A0150040000000805761697420756E7490
:104FA000696C20494E49545F42206C6F773A20006B
:104FB0004F4B0A0D000000005761697420756E7434
:104FC000696C20494E49545F4220686967683A20FD
:104FD00000000000002D310150726F6772616D6D2D
:104FE000696E67202E2E2E200000000054B70000AE
:104FF00050B70000494E49545F42206C6F77200043
:10500000444F4E45206869676820000070726F67E2
:1050100072616D6D65642025642062797465730A20
:105020000D0000005761697420666F7220494E4977
:10503000545F42206C6F77206F7220444F4E4520A2
:10504000686967683A200000FFFF0000494E495434
:105050005F42206C6F770A0D00000000444F4E4500
:1050600020686967680A0D000A0D50726F677261E7
:105070006D6D696E67206661696C65640A0D00007C
:1050800010B503F060FE04F094F8012004F0CBF8B2
:1050900010BC08BC184710B503F049FEF8E710B57E
:1050A000054903F019FEF3E70A00010010B582205C
:1050B00008DFEDE770470000DC8C01001F102DE9D0
:1050C000E8309FE5E8009FE5002093E508D04DE239
:1050D000080000EA0410DDE50E1001E2020051E3D1
:1050E0002400000A040051E30C0051131410901521
:1050F0000010CD150900000A081090E50410CDE558
:10510000010011E30000A013002083150001001529
:10511000EFFFFF0A08D08DE21F10BDE804F05EE249
:1051200090109FE5044091E500C091E504404CE0FB
:105130003F40D4E3EFFFFF1A004090E50040CDE58B
:105140000040DDE50D0054E30040DD150A00541376
:105150000A40A0030040CD050040DDE53FC00CE261
:1051600001C08CE00840CCE500C091E501C08CE2B4
:1051700000C081E5DFFFFFEA3C109FE5042091E5D8
:1051800000C091E502005CE10120A003D9FFFF0A05
:10519000FFC002E201C08CE008C0DCE5012082E231
:1051A00000C080E5042081E50020A0E3D1FFFFEAF4
:1051B00060100040000001E0C015004008160040EB
:1051C00038B44E480021016041604D48012303601E
:1051D0004A484838016041604A4802690224224333
:1051E0000261026908242243026147480324C46023
:1051F000C56880221543C56004250560416005210E
:105200008162816A11438162C1689143C1603F49F3
:105210003F4DE9613F49CB6141140A6181686A46AB
:105220001170446038BC704737494A699206FCD512
:1052300008607047314910B40B001A689B88D31A74
:105240001B041B0CFF2B03D90020C04310BC70476C
:105250002B4B1C68002C03D0002119602A4905E063
:105260001206120E521810720868401C08600020C6
:10527000ECE7C0462148483801000A884968521ABC
:10528000120406D08A06920E1218491C4160107A48
:1052900070470020C04370471B494A699206FCD5FD
:1052A0000860704710B50ADF10BC08BC1847C0463C
:1052B00000B5002807D0030002E0FFF7EDFF5B1CFC
:1052C00018780028F9D10A20FFF7E6FF0D20FFF734
:1052D000E3FF08BC1847C04600B5002807D003000C
:1052E00002E0FFF7A1FF5B1C18780028F9D10A2023
:1052F000FFF79AFF0D20FFF797FFEAE70816004037
:105300006010004000C002E0000001E0BC5000005E
:1053100000F1FFFF00F2FFFF70B5644D0400400094
:10532000295250002A002032135220000838042845
:1053300015D2080004F07CFA5D4904F0CFF90B2186
:10534000C94304F053FA5B4904F0BBF95A4904F02D
:10535000C5F92A00A100403289184039086270BCA2
:1053600008BC18477047F8B5554D544C2878C1070C
:1053700000D0544C810702D50121C9020C434107DA
:1053800002D5012109030C43000702D50120400387
:10539000044301F0ACFD200001F08CFD070001F09A
:1053A000B1FD3E0B3F053F0D01F0B3FD200001F0C4
:1053B00081FD040001F0B8FD220B23051B0D39000F
:1053C00030000EDF2878401C0006000E10282870E0
:1053D00001D100202870F8BC08BC1847032801D967
:1053E000002070473149800040310858704710B59F
:1053F0000C002E4940002031085A04F019FA2C49BB
:1054000004F06CF90B21C94304F0F0F9206010BCE2
:1054100008BC184770B504002448008B04F008FA53
:10542000234D290004F05AF90B21C94304F0DEF999
:105430003F21090604F045F9290004F04FF92060E6
:105440008DE710B50C0019494000085A04F0F0F936
:105450001D4904F043F90B21C94304F0C7F920604A
:10546000D5E770B50C00411E0A2906D30021216042
:10547000010016A005F032F871E70B260C4D410033
:10548000F643042803D209480818008B03E00748B4
:1054900020300818408904F0CBF9290004F01EF9E7
:1054A000310004F0A3F9206059E7000050160040D5
:1054B0000000A0400000204009F9AC40108300002B
:1054C000641000401087000000002041475041490F
:1054D0004E2564206F7574206F662072616E67655B
:1054E0000A0D000003B469460979017069464979DB
:1054F00041706946897981706946C979C170042013
:1055000002B0704703B46946097901706946497968
:1055100041700220F4E703B46946097901706946D5
:10552000497941700220EBE703B4694609790170BB
:105530006946497941706946897981706946C979B6
:10554000C1700420DCE703B469460979017069463B
:10555000497941706946897981706946C979C17014
:105560000420CDE702780A7042784A7082788A7007
:10557000C078C8700420704702780A70407848707C
:105580000220704702780A70407848700220704705
:1055900002780A7042784A7082788A70C078C8703F
:1055A0000420704702780A7042784A7082788A70C4
:1055B000C078C87004207047FE4881690122D20477
:1055C00011438161816952001143816181695200F7
:1055D000114381618169520011438161F64801687C
:1055E000102211430160016820221143016001680B
:1055F000402211430160016880221143016070471D
:10560000EC490969133001228240114201D0012086
:10561000704700207047133001228240E54B00297B
:1056200003D05869104358617047D8691043D86156
:105630007047E1498A69001D012383401A438A614A
:105640007047DD49CA69001D012383401A43CA61BE
:10565000704710B500242000FFF7F3FF641C2406F8
:10566000240E042CF7D310BC08BC184710B5002436
:105670002000FFF7DEFF641C2406240E042CF7D361
:10568000F1E710B5FFF798FFFFF7E3FF00F043FBEA
:105690000021012000F092FB0021022000F08EFB8F
:1056A0000021032000F08AFB0021042000F086FB8B
:1056B0000021052000F082FB0021062000F07EFB87
:1056C000FFF7D4FFCFE7BD490120C873704770B51D
:1056D0000C000500002901DD012600E00026B74985
:1056E000680028310C5231002800FFF794FF6D1C30
:1056F0002806000E002E02D02106090E02E06142AB
:105700000906090E00F05AFB70BC08BC1847F1B539
:1057100088B008988400A9484030075920300559BE
:1057200008984600A648805F04F070F80490A348EB
:105730001830805F04F06AF80190A248015901987E
:1057400003F0BFFF06009D48017A002955D0903034
:105750000159300004F0BCF802D29848903008E0BB
:10576000964880300159300004F0BCF802D29348CA
:105770008030065993483100005903F04DFF91499C
:1057800008519149884206D27F228E49D205904223
:1057900001DA002008518B4804990059009003F069
:1057A00090FF06008948874202D3844950310F593F
:1057B000854202D38148703005596800000E1FD021
:1057C0003100280003F08AFF05007E48403001596F
:1057D000300003F076FF390003F080FF7949503143
:1057E000095903F019FF290003F016FF0099794ABF
:1057F00049000B0E764908D00BE072490198C9E7C1
:105800003100380003F06AFFF0E7049B5B001B0ED9
:1058100003D0884203DD080004E0002002E090424B
:1058200000D9100067495031085110390E5104F069
:105830000DF8010408980914FFF749FF09B0F0BCFE
:1058400008BC1847FEB55D4C00200090E07B2500A9
:10585000614F1835002814D000200600E073710055
:10586000B300584A00206852D050544A761C28325F
:1058700036065052360E0100300000F09FFA042E1A
:10588000EDD32079002816D06079002813D14D4E31
:1058900020360121237981400A001A4206D08B4329
:1058A000464A81002371735840325350401C000611
:1058B000000E0428EDD3A079002816D0E079002846
:1058C00013D13E4E60360121A37981400A001A426D
:1058D00006D08B433B4A81003032A371525872503C
:1058E000401C0006000E0428EDD334484078002800
:1058F00015D0324B9878002811D11E002036012196
:105900005C7881400A00224204D08C4341005C70E4
:10591000725A6A52401C0006000E0428EFD3254834
:10592000006880063FD42D480078C10709D0800761
:1059300039D4002001004A00AA5E82420BDD10002B
:105940000FE0002001004200401C0006000E03286A
:10595000A952F8D327E043429A4202DA50420004A7
:105960000014491C0906090E0329E4D303F04EFF75
:10597000124C0600216903F0B5FF14D220693100F2
:1059800003F0F0FE002401906600A85F03F03EFFE4
:10599000019903F0A3FE03F059FF641C2406240EB2
:1059A000032CA853F0D3054CE07A00282CD0207BA0
:1059B000002815E0008002E080C0FF3F6810004032
:1059C0004E100040A81C0040000080BF00008080F6
:1059D00000007F4300007FC3A01600404710004036
:1059E00012D1260090360121E37A81400A001A4242
:1059F00005D08B43B64A8100E37252587250401C66
:105A00000006000E0428EED3607A002815D0A07A94
:105A1000002812D1AF4E0121637A81400A001A4258
:105A200006D08B43AA4A8100103A637252587250D2
:105A3000401C0006000E0428EDD300267000285AF2
:105A4000002806D1A249B000703909584900090E52
:105A50001BD09F490020B20010318850761C3606BA
:105A6000360E042EEAD300266846805D01282FD02A
:105A70009849B0004039029009580120C005814280
:105A800019DB3000FFF743FE22E0914A1032115833
:105A9000491C11507D22D2009142DFD901216A4672
:105AA00091558B4A0021203A1150103A1150300084
:105AB000FFF70DFED2E77000285E019003F0A6FE0E
:105AC000834A0299703A505001993000FFF7FFFD68
:105AD000761C3606360E042EC6D3E078002806D192
:105AE0007B487838010008314EC918304EC0607BC1
:105AF000002805D1774908225839881803F04BFD52
:105B0000606900282AD0FDF7EBF87D21C9008842A2
:105B100027D2380003C8411AC9091FD14006400ED8
:105B20000C214843C619FDF7D7F8B06020786949C1
:105B300042005839895A7182FFF750FC664903F0D8
:105B4000CDFD03F09CFE308220784000295AB181BF
:105B50006249085AF0813868401C3860FEBC08BCB5
:105B6000184700206061F9E75A4A594B803A800093
:105B7000603B185808600020D0707047554A4000BC
:105B8000803A13003033185A088000205073704751
:105B9000504A4000803A1300383319520020907365
:105BA00070474C4A10B40123803A537114798340F2
:105BB00023431371464B4A4C503B8000A14202DB09
:105BC00011005031095819500020507110BC704715
:105BD000404A10B40123803AD3719479834023431F
:105BE00093713B4B3E4C403B8000A14202DB1100D5
:105BF0007031095819500020D071E7E735498039D4
:105C000008727047334A10B4803A012354788340B5
:105C1000234353704000130020331952002090702A
:105C2000D4E72C4A10B4803AD47A0123834023432A
:105C3000D372274B8000195000201073C6E7254A05
:105C400010B4803A547A0123834023435372204B8B
:105C50008000103B195000209072B7E71D49803931
:105C60000861704710B50400042806D2FDF734F827
:105C700001001848803841610470F4E41548803808
:105C80000078704730B4174C230019885A68891A75
:105C9000090417D05106490E0C256943521C0919F5
:105CA00062608A6802608A898280CA89C2800A8AA0
:105CB0000281498A418118889988401A0004000CA1
:105CC00030BC70470020C043FAE710B50DDFCAE4CE
:105CD000181D0040E810004000007A444E100040BB
:105CE00000007F43A01600404648C1690322120409
:105CF0001143C161C16992001143C161C169920040
:105D00001143C1610169802291430161016940220F
:105D100011430161704700B5FFF7E6FF3A490320E0
:105D20004861FF2088610022CA610A624A623648DF
:105D3000403002604260826002224A6009224A606A
:105D40004A6808231A434A604A6801231A434A6092
:105D5000C1685A021143C160C16852001143C16059
:105D6000C16852001143C160C16852001143C16053
:105D7000C16852001143C160C16852001143C16043
:105D800008BC1847204A00B51F494032030004F000
:105D9000F9FB07130507090B0D0F1300C86908E08D
:105DA000086A06E0486A04E0106802E0506800E013
:105DB00090680006000EE3E70020E1E7134A10B503
:105DC0001268002A00D000210F4A0F4C4032030015
:105DD00004F0D8FB07150507090B0D0F1500E1614D
:105DE00008E0216206E0616204E0116002E05160B7
:105DF00000E091601169012383401943116110BCD7
:105E000008BC184700C002E0008001E00410004018
:105E1000F8B50220FEF758FF04000020FEF754FFFB
:105E2000201A03F0F3FC4A4C0700E16903F09AFCE6
:105E300006000120FEF748FF03F0E8FC0500002102
:105E4000C943380003F0D2FC07000020FEF73CFFF6
:105E500003F0DCFC390003F0DFFB290003F031FC28
:105E6000216A03F03BFC07000120FEF72DFF03F041
:105E7000CDFCA16903F076FC390003F0CDFB61692C
:105E800003F070FC334D00902900300003F026FC35
:105E900006002900380003F021FC070000982900C3
:105EA00003F01CFC0100A06803F0B6FBA06005F045
:105EB00007FA390003F012FC0500A06805F0F2F8BB
:105EC000310003F00BFC290003F0FBFB216803F019
:105ED000A3FB2060A06805F0E5F8390003F0FEFBA5
:105EE0000500A06805F0ECF9310003F0F7FB29008C
:105EF00003F092FB616803F08FFB6060F8BC08BCA4
:105F0000184770B5124C1449206903F0E7FB0500EF
:105F10001249E06803F0E2FB290003F023FC0500CE
:105F2000A0610F48290003F01DFC20620D482900E4
:105F300003F018FCE06170BC08BC1847E1E70449B5
:105F4000C860DEE702490861DBE701494861D8E73C
:105F5000081100406F12833ADB0FC9400000E14492
:105F6000ABAA2A3FD7B3DD3FF0B5032887B004D3EF
:105F7000002007B0F0BC08BC18470C214843F64984
:105F80004418F64920790B00503B002805D0012821
:105F900015D008006C380069EBE76079A279042815
:105FA00000D300200D2A00D30C2292008958EB4A1E
:105FB0008000643210586A4603C21B6819E0E74E3D
:105FC000657934363000843847682B0004F0DAFAFB
:105FD0000C07181830454518307830181893A079F8
:105FE0000D2800D30C208000085831683B00009138
:105FF0000190D94880213030D9A204F07FFA7AE0AC
:10600000A07903F015FC0090E079000203F010FC89
:10601000009903F001FBD74903F0A4FB03F043FC14
:1060200002AA03C2A80030583B00D3A200905DE052
:10603000E179A079227A09020143607A3B000002EB
:106040001043AA00B2580290C348009201918021E7
:106050003030CCA204F052FA4DE0A07903F0E8FB16
:106060000090E079000203F0E3FB009903F0D4FA1A
:10607000C04903F077FB0090207A03F0D9FB019030
:10608000607A000203F0D4FB019903F0C5FAB94924
:1060900003F068FB03F007FC04000098019103F093
:1060A00002FC019A02AB13C3A800059230583B00D2
:1060B0000090A94880213030B5A204F01FFA1AE000
:1060C000A07903F0B5FB0500E079000203F0B0FB16
:1060D000290003F0A1FAA74903F044FB03F0E3FB16
:1060E00002AA03C2306A3B00AFA200909A48802106
:1060F000303004F003FA984830303AE770B50C00BD
:106100000500FCF7FCFB954A6C3A012801D9D460E4
:1061100000E0D560D06803F0C6FB02000B00A5A02C
:1061200004F0DCF970BC08BC18478C486C38C068B7
:10613000704710B5A7A004F0D1F9A94800F0A9FC58
:10614000A8A004F0CBF900F0C3FCA9A004F0C6F9A4
:1061500000F0C2FC01F0F6FB10BC08BC184710B5FB
:10616000FCF7F6FB0120FCF7CDFDFCF7EAFBF3E7BB
:10617000F8B5070007246407A24E6568A249A3A0EA
:1061800004F0ACF966600520FCF794FC380001F0DF
:10619000DFFB0220FCF78EFCFCF72EFB7D21C90003
:1061A000280003F0E1F9010098A004F097F9656078
:1061B00001F0FFFEF8BC08BC1847032803D367486A
:1061C0006C380069704718214843634948394018C2
:1061D000007D0D2800D30C206049800008587047CE
:1061E00070B5904C002008216073A073217320715A
:1061F0006071A071E071207260728B4EA072050018
:10620000E072680180192060864800F07FFC6D1CF8
:106210002D062D0E032DF4D384E783494001491C3C
:106220004118804810B50160002141730822817334
:106230000273AA220271552242718171C1710172E9
:1062400041728172C17200F061FC85E7774975483F
:1062500010B501600021417308228173027301713E
:1062600041718171C171017241728172C17200F01C
:106270004DFC71E770B5394C05006C3C012815D117
:10628000A078022801D9002510E0334A401C334E83
:106290000021A07008002432693E8B009B185870C2
:1062A0007054491C0906090E0329F6D32B48A9008E
:1062B000483842582178890041585DA004F00EF911
:1062C00025702FE7F0B587B0FCF706FD234C6C3C3A
:1062D0006169884202D9411A642908D3606100F0DB
:1062E00003FC1D4E243600282FD000F002FC40E6AF
:1062F0004D4903983231421A884227D019DC54495B
:10630000421A8842F0D00DDC5249421A88421DD010
:1063100003DC5149401818D1A9E0012A17D01E2AE0
:10632000F9D1A4E0012A11D0022A10D01F2AF2D1FB
:106330009DE0C12A0CD00CDC012A08D0BE2A09D06D
:10634000BF2A08D0C02AE6D14EE1C1E0C1E0D5E0C5
:1063500060E183E0EDE003E1801D00409811004022
:10636000257320257320696E207374617465202560
:106370007300000000007A44257320257320252E29
:10638000326656002573202573202575202575005B
:10639000257320257320252E326664656720252EFF
:1063A0003266646567000000257320257320252E62
:1063B000326641005365742062617474657279209D
:1063C0006C6F7720766F6C7461676520252E32665E
:1063D000560A0D0043414E2073657475700A0D0016
:1063E00048E8010043414E2073746172740A0D0045
:1063F00043414E20776169742072656164790A0DAA
:10640000000000008096980010270000536574205B
:106410007761746368646F6720746F2025756D738E
:106420000D0A0000B81E0040110500001106000012
:106430000D0A43686172676572207472616E7369D8
:1064400074202573202D3E2025730D0A00000000C6
:106450002205000003050000FFFAFFFFDE2A68D0D6
:10646000DF2A7DD0E02A7CD0E12A31D1D2E0F84881
:1064700003990818400903282ADA18214843F549E6
:1064800045186946087C497C09020843694628602A
:10649000887C03F0CDF907006946C87C000203F050
:1064A000C7F9390003F0B8F8EB4903F05BF9694626
:1064B0006860087D03F0BCF9E84903F053F96946C8
:1064C000A860887D03F0B4F96946E860C87D287546
:1064D000B1E0DF49891E4018400903280DDA800029
:1064E00080190178491C01706946097C4170694630
:1064F000497C81706946897CC1709CE0D449C91E81
:1065000040184009032813DA0C214843D1496A4650
:1065100048314018117C527C120211436A460160D6
:10652000917C0171D17C4171918AC180D18A0181B4
:1065300081E0CB496B4640184509187C5B7CC94A11
:10654000A9001B0218436B465050987C53199C4677
:1065500018726B46DD7C002001221300834001E0AD
:106560002CE041E01D4201D0012700E00027BD4B97
:106570001B18401C08289F72EFDB6B46187D67468E
:10658000B84DC307DB0FBB748307DB0F3B754307B5
:10659000DB0F0007BB75C30F6046203003766B46E8
:1065A0005B7D0020012282401A4000D001220F189A
:1065B0007F19401C04283A76F4DB3CE0A849A94F37
:1065C000491E4018410900208A00430003A95D18B4
:1065D00029796D7913185B002D02DB192943401CC2
:1065E00004281984F1DB26E09D499E4F891E40183E
:1065F000410900208A00430003A95D1829796D79BB
:1066000013185B002D02DB192943401C0428198450
:10661000F1DB10E09249934BC91E4018410900205C
:10662000890003AA0F1815182D79FF182037401C70
:1066300004283D74F6DB03A800F08CFB002800DB87
:1066400056E62078002804D0012831D0022814D141
:106650007FE00020A060707802280FD07D4E0025DA
:106660001820684380194768A168380003F03AF998
:1066700000D2A7606D1C032DF2DBC2E0794E00252D
:106680007019807A00280FD168008719388C03F0C0
:10669000CFF8A16803F026F906D2388C03F0C8F8C9
:1066A000714903F01BF8A0606D1C082DE8DBA8E021
:1066B0006EA003F013FFA069642839D8694F002544
:1066C0002D3F00207855681C0006000EFCF725F9C8
:1066D00000281BD0A80082195078002814D0012867
:1066E00002D0022828D011E0614B187801280DD182
:1066F00059789078814207D80906090E814205D160
:106700009878D178884201D9012078556D1C032DE5
:10671000D7DB00252800810089194978002900D09D
:106720006D1C401C0328F6DBFCF7E9F8A84208D1F1
:106730000020A061022062E04E4B18780228D7D0DA
:10674000E4E7A069322801D1FFF709FDFFF748FD12
:1067500057E000273D0043482D38405D002832D0E7
:10676000A8008719F878691C0090BB787A7842A055
:1067700003F0B4FE787800280DD0012819D0022843
:1067800019D048A003F0AAFE681C0006000EFFF70F
:10679000EFFC01272DE037486B468278417800787E
:1067A00007C3334883784278017840A003F096FE0F
:1067B000EAE72F4800E02F488378427801783EA02E
:1067C00003F08CFEE0E7681C0006000EFCF7A5F85D
:1067D00000280AD0A8008019C178009183784278F7
:1067E000691C38A003F07AFE03E0691C40A003F0A6
:1067F00075FE6D1C032DAEDB0020A0613800FFF795
:1068000039FDA069401CA06177E410B5FCF772F86F
:1068100000287DD10F486C30407802280BD01149F8
:106820003A4A30398868904276DDC96803F050F8FA
:1068300072D2012090E40B48026801002031002A46
:1068400068D040680028087EF4D0497E084083E480
:10685000FFFAFFFF381D004000007A440000C842E4
:10686000FFF9FFFF5C1100406F12833A2E00000019
:10687000A08D0100CCC10100436861726765722080
:106880002564206E6565647320757064617465208D
:1068900066726F6D2025642E25642E2564202D3EA2
:1068A000200000006572726F720D0A0025642E25AB
:1068B000642E2564206F722025642E25642E2564A5
:1068C0000D0A0000436861726765722025642075B7
:1068D0007020746F20646174652076657273696FCF
:1068E0006E2025642E25642E25640D0A000000000C
:1068F00043686172676572202564206E6F7420633F
:106900006F6E6E65637465640D0A00000000A04040
:1069100002E0FFE7487E1FE400201DE470B5FFF7AA
:1069200074FF0E4C0E4D002811D06078002806D15F
:106930000CA003F0D3FD01206070FCF7C1F9FCF757
:10694000C5F9A84201D2281A66E4002064E40020B8
:106950006070280060E40148806870472C11004096
:1069600060EA00005374617274206261747465722D
:1069700079206C6F7720636F756E7465720A0D00F5
:10698000C7C08FE21CFF2FE1F8B50500F448F34EB5
:106990004168F34A0902090E491C80325268120606
:1069A000120E521C5143EF4A926AEF4B1201920FA2
:1069B0009A5C406851434004EC4A400C401C5043F0
:1069C00002F0D2FD0700EA48854238D9410038007C
:1069D00002F0CAFD04000F2102F0C6FD00292AD0F2
:1069E00020072AD020000C2102F0BEFD002926D06D
:1069F00020000A2102F0B8FD002909D0600720D04C
:106A00002000062102F0B0FD00291CD0A0071CD0F8
:106A10000A242100380002F0A7FD290002F0A4FD9D
:106A2000401E8105D34A890DA000105808437061AB
:106A3000F8BC08BC18470F24EBE71024E9E70C2446
:106A4000E7E70824E5E70624E3E70424E1E7CA4989
:106A500010B4080009C8C14AC31ADB0817D140079F
:106A6000400E136A40180830DC0F44735C00E40FDA
:106A70001B031B0F84730373536A002C036003D141
:106A8000936A4360D26A82600868401C086010BC48
:106A9000704710B5B949B14C4A680F239B021A439D
:106AA0004A60B749B74AD161B74A0121D161B74BB2
:106AB000CA051A61B64B02221A60216000212161C9
:106AC000A160FFF761FF0320206110BC08BC1847DC
:106AD000A248002101607047A048C1694907FCD560
:106AE000AC490120086070479C4880684006C00F90
:106AF00070479A488168490607D501210160FF2146
:106B0000090681600021816001607047027B437B40
:106B100092491207120B012B00D00023DB071A4306
:106B2000837B012B00D000239B071A43CB695B07B3
:106B300008D50A63026821234A6342688A63806831
:106B4000C8634B607047F0B4924A0125121D18CA01
:106B50005A1C944652106D021219AA427EDA8C4ACF
:106B6000012515608C4A002904D061464910894DE1
:106B7000002382E089490840D9070ED1002C0CD0AF
:106B80005E10B10089180D6805E0761CB1008F1801
:106B900039683D600D00641EF7D2002B06D0012B32
:106BA00008D000211D005C1E641023E001047C4815
:106BB000081807E01168090C8142116804D9030420
:106BC000080C184310604DE0090C090401431160E2
:106BD00048E08E00B7183E68360C864201D94D0059
:106BE0000AE03E683604360C864202D94D006D1C20
:106BF00002E0491CA142ECDDA14210DDDB0707D019
:106C0000890089180A68120C120402430A6029E0FC
:106C100003046348890018188918086022E08C0072
:106C2000A6183468ED0705D0250C2D040543356002
:106C30005D100BE00504200CF8E7491C880086185D
:106C40003068070C2404274337600400A942F4DBB2
:106C5000D80707D188008018016800E030E0504A6A
:106C6000114301604B486146416019E08E00B6183F
:106C70003668864203D8491C5B1CA342F6DB8E00B3
:106C8000B7183E683860641CAC60641E06E0491C9E
:106C90005B1C8800851828682E600600A342F6DB7E
:106CA0003C48002341688068491C491089008000E5
:106CB0004218374843608160C160026142610360ED
:106CC000F0BC704738B5040036A003F007FCA07B89
:106CD0000090637B227B216836A003F0FFFB002538
:106CE00007E0601901793EA003F0F8FB6D1C2D064A
:106CF0002D0E207BA842F4D82DA003F0EFFB38BC6A
:106D000008BC18474A7B42738A7B82730B7B002A3C
:106D100003730B68036003D14A684260896881602D
:106D20007047154B10B51C0021886268891A090448
:106D30000DD05107490EC918521C08315A60FFF78F
:106D4000E1FF2088A188401A0004000CBDE6002065
:106D5000C043BAE610B50CDFB7E60000004004E01F
:106D600080C01FE080C11FE0248D010000366E014D
:106D700020A10700E08C0100301E004000C002E0AE
:106D8000E86D000040F1FFFF40F2FFFF00F0FFFF61
:106D900000C003E00C120040008003E0FFF7000099
:106DA000FFFF000043414E206D6573736167653AD4
:106DB0000A0D000069643A203078253032582020CE
:106DC0006C656E3A2025642020666F726D61743A9E
:106DD0002025642020747970653A2025640A0D000E
:106DE00030782530325820001F502DE94C409FE567
:106DF00004D04DE2080094E5010010E30200000A0F
:106E0000DEFEFFEB0400A0E3040084E5080094E547
:106E1000080010E328109F150100A0130000811541
:106E20000C0094E50010E0E30020A0E300008DE5F5
:106E3000001102E504D08DE21F50BDE804F05EE2CF
:106E4000004004E00C1200403B48816901225203DB
:106E500011438161836951000B43836103681343CC
:106E6000036002680A43026034490820C86034485D
:106E7000026803041A43026042680C231A4342600A
:106E8000426830231A4342600868042210430860B5
:106E90000868202210430860704728490A680423C4
:106EA0009A430A60886048680006FCD58868000636
:106EB000000E704721490A6804231A430A6088605B
:106EC00048680006FCD588680004000C704730B59F
:106ED0000400000CFFF7EEFF05002004000CFFF794
:106EE000E9FF0100280430BC08BC084318471248D9
:106EF00081690122920311438161C16952101143DA
:106F0000C16170470C4881690122520311438161BC
:106F10007047094881690122520311438161C169A7
:106F200052001143C16170470348816901229203F5
:106F3000114381617047000080C0FF3F000002E004
:106F400000C002E058484168402211434160704748
:106F500010B5554CA06840210843A060A068890185
:106F60000843A06061680120000401436160A168DA
:106F70000143A1606169400201436161A16901436C
:106F8000A1616169801001436161A1690143A1614F
:106F900046A0FEF78DF920690002C00F3030FEF7E1
:106FA0007BF90A20FEF778F90D20FEF775F943A06A
:106FB000FEF77EF920698001C00F3030FEF76CF9D2
:106FC0000A20FEF769F90D20FEF766F9A068012195
:106FD00089060843A060FFF7B5FF10BC08BC18473E
:106FE00031484168012292061143416070472E48A2
:106FF000C168012292061143C16070472A480068A7
:10700000400100D5F3E7EBE7274800688001C00F97
:107010007047254841680122120311434160C2684C
:10702000012109040A43C26042680A434260704772
:107030001D48C168012212031143C160C2680121C9
:1070400009040A43C26042680A4342607047164816
:107050000068C004C00F70471348C169012252067E
:107060001143C16170471048416901225206114322
:10707000416170470C48C1690122D2051143C161C9
:107080007047094841690122D205114341617047A7
:107090000548C16840221143C1607047024800683A
:1070A000C001C017401C7047008002E0506F776538
:1070B0007220427574746F6E3A00000053797352F7
:1070C000657365743A00000010B5FBF741FC10BC15
:1070D00008BC184710B5FBF734FCF8E7000610B5FC
:1070E000000EFBF744FCF2E710B5FBF785FBEEE77B
:1070F000FE494A699206FCD50860704710B5040045
:1071000000F057FF2000FBF7C5FD00F052FFDEE75F
:1071100070B506000100F6A003F0E0F9F34C002082
:1071200060600321E160E16880252943E1604B2133
:10713000C901711A17D0F34A891818D03100F2A08A
:1071400003F0CCF9E068A843E060F748F7494863EA
:10715000F7490E204863C805F649086101206060C0
:1071600070BC08BC18472121A162342102E08521AE
:10717000A162042121606060E4E7EF48416A0F22C8
:107180001206114341624B20C001C1E730B50C002B
:107190000500002303E0E85CFFF7AAFF5B1CA342A5
:1071A000F9DB0D20FFF7A4FF0A20FFF7A1FF30BC99
:1071B00008BC184770B50500E04E002408E0E0A0C8
:1071C00003F08CF96420FFF799FF641C642CC7DA84
:1071D000F0698542F3D0C3E770B5D84D0120E8616E
:1071E0000020040068603F20FFF782FF6420FFF763
:1071F00085FF641C0A2C02DAE8690128F3D0E869EB
:10720000002803D0CFA003F069F9A9E7D0A0FAE7DE
:10721000E2E7F8B5D14C0E000700BC4204D00A00EA
:107220000100200002F0B7F93020A055C34C002522
:107230002561701C6561E0603100380000F0F7FBEB
:107240002E20FEF729F80520E06131003800FFF715
:107250009DFF0520FFF7AEFF6420FFF74FFFE069B9
:10726000052815D0BEA003F039F96069002807D0C1
:10727000BDA003F033F9B9486169403000F0D7FB95
:10728000BAA003F02BF90120E561F8BC08BC18474F
:10729000B7A003F023F90020E561F6E770B504001C
:1072A000B5A003F01BF9AD482200B7A103F03CF9EB
:1072B000AA4802F082F9A14C002525610100E06096
:1072C000A64800F0B4FB2E20FDF7E6FF0620E061A3
:1072D000A248E168FFF75AFF0620FFF76BFF642022
:1072E000FFF70CFFE069062805D0A8A003F0F6F828
:1072F0000120E56134E79EA003F0F0F8A6A0E56167
:1073000003F0ECF800202BE770B58C4C934B002079
:1073100001006269403305E00A2568435D5C30384E
:107320002818491C9142F7D3A24988420AD101206A
:10733000A061A1A003F0D2F8A8482062A84860622A
:10734000A8480DE0A84988420DD10020A061A7A05F
:1073500003F0C4F8AE482062AE486062A148243011
:10736000A0620120FCE6ACA003F0B8F80020F7E62C
:10737000F0B597B0AEA003F0B1F8FFF72DFF6F4C5A
:10738000E069002828D16420FFF7B8FE0220E06100
:10739000AAA003F0A3F893480C210C38FFF7F6FEDF
:1073A0000220FFF707FFE069002815D177A003F05E
:1073B00095F86420FFF7A2FE0320E061A3A003F08C
:1073C0008DF8884805212C38FFF7E0FE0320FFF7F1
:1073D000F1FEE069002804D0002017B0F0BC08BC22
:1073E00018476AA003F07AF86420FFF787FE7D480B
:1073F00007211338FFF70DFF0028EED0794801214F
:107400003038FFF706FF0028E7D0764801212F38F3
:10741000FFF7FFFE0028E0D0FFF776FF0028DCD062
:1074200092A003F05BF8A06900281CD06D480521EC
:107430001D38FFF7EEFE002819D0A069002818D0EB
:10744000684805211838FFF7E4FE002815D0002011
:1074500004900290206AA26A0168106881420ED9E5
:107460000121049141E25F4805212738E1E783A02B
:107470003EE25C4805212238E5E787A038E204981F
:107480002E4C80001190A16A0858039000F091FDE5
:107490000498092801D386A02AE22848006A0168D6
:1074A0000298081A0399884200D2039000200BE248
:1074B000002706970198002802D08AA003F00EF852
:1074C00001990398401A0121090388420B9001D9C0
:1074D00008000B90B421059002F046F8002903D073
:1074E000B420411A0598FFE000E1000000C007E069
:1074F0005541525433206261756472617465202570
:10750000750D0A008063FEFF556E6B6E6F776E20FF
:10751000626175647261746520666F7220554152B4
:1075200054332025750D0A00C07D000040F1FFFF97
:1075300040F2FFFF00F0FFFF00C002E01C1200401D
:107540002E000000204661696C65640D0A00000091
:10755000205375636573730D0A000000101F00400F
:1075600053756363657373003A2000000A0D0000D1
:107570004572726F720A0D0053656E642063686510
:10758000636B73756D200000256C64005375636335
:107590006573730A0D00000057726F6E6720616E8D
:1075A00073776572206F6E20636865636B73756DAA
:1075B0000A0D000001F700164F6E626F61726420C1
:1075C00063686172676572204944203078253038DD
:1075D0005820666F756E642E0A0D0000A48D0100A0
:1075E000A88D0100588D010001FF010246657374EA
:1075F0006F6F6C2063686172676572204944203048
:10760000782530385820666F756E642E0A0D00009C
:10761000D0C10100D4C10100546172676574206853
:1076200061732077726F6E67204944210A0D000054
:1076300053746172742073796E632E0053656E64A7
:107640002068616E647368616B652E0053657420F9
:107650006F7363696C6C61746F7220746F20313466
:107660002E3734384D487A2E000000005769706973
:107670006E6720666C6173682E0A0D0057726F6E1C
:107680006720616E73776572206F6E20707265700F
:107690006172650A0D00000057726F6E6720616E9F
:1076A00073776572206F6E2065726173650A0D00D5
:1076B00050726F6772616D20697320746F6F206202
:1076C000696720666F7220746865207461726765EF
:1076D0007420666C617368206D656D6F72792E0A17
:1076E0000D0000007C000000081805900499EFA030
:1076F00002F0F4FEF54AF948059BF5A102F014FFEB
:10770000F64801F05AFF0100F448FFF782FD002817
:1077100008D00199029840180090059909904018E6
:107720000D9069E0EEA0E3E00025129512992D225C
:107730005143F348009B006AC91800680A912D3133
:10774000884201D20A99421A0699EEA002F0C6FEBA
:10775000E2494D200124002608700A988119E84862
:10776000026A12688A4202D9406A405C00E0002046
:1077700029020D183F180321300001F0F5FE0229FF
:1077800010D1D64812220019602329001141890620
:10779000890E01701AD020310170921F401C002AFE
:1077A000F3DA241D761C2D2ED7D3D54E0022CB48DC
:1077B0002100327000F04BF901210028317007D010
:1077C0000698401C1428069004D00CE00370E4E7EF
:1077D000D3A08DE03800FFF761FD002800D1FCE563
:1077E0000020070006901298401C042812909DD398
:1077F0000098B43000900D980099884205D9C0488F
:10780000016A0A6800998A428ED80698002804D036
:107810003800FFF743FD0028E1D00499C8A002F02A
:107820005DFE049BAD481A00D0A102F07DFEAB487E
:1078300001F0C3FE0100A948FFF7EBFC002800D1CE
:1078400015E6059801246402A04204D3039864005D
:10785000A04200D3A4009D4DA048099A2B00C6A1C8
:10786000009402F061FE9D4801F0A7FE01009B48D4
:10787000FFF7CFFC002812D00499C3A002F02EFE1F
:10788000099840280DD202984021091A0198081A37
:10789000231A42199148CCA102F046FE08E0CEA07E
:1078A00026E002008D482B00D3A1009402F03CFE9C
:1078B0008A4801F082FE01008848FFF7AAFC0028F0
:1078C00015D00B990198401803990190884200D275
:1078D000EEE5029842188A48016A09688A420AD38A
:1078E0000498002814D0002004900290C7E5C6A098
:1078F00002F0F4FD70E50499002909D0836A11991A
:1079000004985958029A401C891802910490B6E5CF
:10791000C6A002F0E3FD01205FE500221100435CF8
:10792000491C9A18435C491C1B029A18435C491C69
:107930001B049A18435C491C1B069A182029EED395
:107940001000704710B5FFF718FC10BC08BC1847B2
:10795000F8B5060001000524BFA002F0BFFDC4A0D9
:1079600002F0BCFDCE48FFF7D8FF002801D0CDA023
:1079700046E0D648FFF7D1FF002801D0D4A03FE071
:107980005F490120C861DAA002F0A8FD7D25ED0065
:10799000E1A002F0A3FD3000FFF7A0FBFAF7D8FF4B
:1079A0000A20FFF7ABFBE0A002F098FDFAF7C9FF51
:1079B0006420FFF7A3FBFFF7DBFC07006420FFF761
:1079C0009DFB002F0FD0DBA002F088FDD2A002F0BB
:1079D00085FDFAF711FFFAF7BBFF3220FFF78EFBA8
:1079E000FAF7AFFF51E4DBA002F078FD641E06D089
:1079F000DFA002F073FD2800FFF780FBC8E7E0A0DE
:107A000002F06CFD41E43549483908884A68801A1B
:107A1000000406D09006800E4018007A521C4A607E
:107A200070470020C043704710B50FDF8DE770B579
:107A3000060033480D000078002807D0002403E03A
:107A4000305DFDF729FC641CAC42F9DB52E4F8B56B
:107A5000070022480E00B84203D00A00390001F0A6
:107A60009AFD274C0025E660310038002561FFF7BC
:107A7000DEFF2E20FDF710FC0420E061310038000D
:107A8000FFF784FB0420FFF795FBE069042805D08D
:107A9000CA4802F023FD0120E561A3E7C7481C386E
:107AA00002F01CFD0020E5619CE70000577269743C
:107AB0006520736563746F7220256420646174614E
:107AC00020746F2052414D2E0A0D0000000200402C
:107AD0005720256C6420256C64000000101F0040B6
