:020000040000FA
:1020000018F09FE518F09FE518F09FE518F09FE5A0
:1020100018F09FE50000A0E120F11FE518F09FE512
:102020005420000040200000103A0000442000002E
:1020300048200000000000004C200000502000005C
:10204000FEFFFFEAFEFFFFEAFEFFFFEAFEFFFFEAF8
:10205000FEFFFFEA20019FE5AA10A0E35520A0E3C0
:102060002030A0E3A03180E5A03190E5403013E2BC
:10207000FCFFFF0A0130A0E30C3180E50B30A0E348
:10208000843080E58C1080E58C2080E50130A0E371
:10209000803080E58C1080E58C2080E5883090E5EC
:1020A000013313E2FCFFFF0A883090E5CC409FE546
:1020B000043003E00B40A0E3043033E0F9FFFF1AE3
:1020C0000530A0E3043180E50530A0E3083180E568
:1020D0002A33A0E3A83180E50030A0E3AC3180E5ED
:1020E0000330A0E3803080E58C1080E58C2080E513
:1020F0008C409FE5C44080E57C009FE50410A0E390
:10210000041080E50210A0E3001080E5458F4FE247
:102110000191A0E3FF00B8E8FF00A9E8FF00B8E8DC
:10212000FF00A9E85C009FE50210A0E3001080E535
:1021300054009FE5DBF021E300D0A0E1000040E285
:10214000D7F021E300D0A0E1000040E2D1F021E38C
:1021500000D0A0E1000040E2D2F021E300D0A0E1F5
:10216000010C40E2D3F021E300D0A0E1400040E2C6
:1021700010F021E314009FE510FF2FE100C01FE0E5
:10218000FF7FFF005E11004340C01FE08808004051
:10219000942100000CD09FE5120600EB00009FE5A3
:1021A00010FF2FE1E921000048070040224A10B546
:1021B0001168002803D001200143116002E04808A3
:1021C00040001060002000F0C4FF00F071FF00210B
:1021D00007204007416003210160AA218160552149
:1021E000816010BC08BC1847144910B500208862F3
:1021F00000F0C6F800F0F8F800F036F801F036FB11
:10220000062000F069F8072000F066F800F036F9C3
:102210000122110000230AA001F064FE00F0F3F88F
:10222000642804D300F0EAF8072000F060F800F01A
:1022300048FA00F064F8F1E7004008E000C002E06E
:10224000526F626F74696E6F205854206669726DA8
:10225000776172652076657273696F6E2025642ED2
:1022600025642E25640A0D0043480268FF210A43B5
:10227000026082690A4382613F4840380168FF2258
:10228000013291430160016A3F2211430162816B77
:10229000914381637047384840384069C005C00F9A
:1022A0007047062806D2344B403B9A6B012181408F
:1022B0000A439A637047062806D22F4B403BDA6BDD
:1022C000012181400A43DA6370472B4BDA6901210F
:1022D00081400A43DA617047274B9A6901218140A6
:1022E0000A439A617047002900D0F5E7EDE72249DB
:1022F0004A69012181400A4200D0E6E7ECE71F4924
:1023000010B50878C0071ED0FFF7C5FF00281AD007
:102310000878820709D500F0A2F8FF21F53188423C
:1023200008D30520FFF7C7FF04E00222104308701E
:1023300000F090F80020FFF7B4FF0120FFF7B1FF95
:1023400010BC08BC18470878FD2210400870002017
:10235000FFF7B1FF0120FFF7AEFF0520EEE7074AC8
:102360000028117803D001200143117070474808FC
:10237000400010707047000080C0FF3F0001004027
:10238000104801685022114301600F480521816205
:10239000816A8022114381628321C160042101602E
:1023A000002141600321C160704707494A699206D4
:1023B000FCD50860704704484169C907FCD0006833
:1023C0007047000000C002E000C000E010B5FFF759
:1023D000ECFF10BC08BC18470020C043704710B584
:1023E000FFF7E3FFF5E7FEE72049012048600B22F5
:1023F000CA601F4948601F48C86070471C48806811
:102400001D49086070471A4880681B490968401ACE
:1024100070471748806818494860704714488068BA
:1024200015494968401A7047114880681249886008
:1024300070470F48806810498968401A70470C48F7
:1024400080680D49C8607047094880680A49C968B2
:10245000401A704706488068074908617047044879
:10246000806805490969401A70470000004000E093
:10247000008000E0DF2E0000900100403EB59E4944
:1024800068461CC91CC09D4C0C22E01C694601F02A
:102490004BFA200000F01BF9A070012001F00FF8AA
:1024A000012001F04CF8012001F050F894499548C2
:1024B000016000214173817300F0E0FB00F00FFE2A
:1024C000012000F046FEFFF7BAFF3EBC08BC1847EB
:1024D00010B58A4C241FE0700020A070200000F08E
:1024E000F6F8A07021002278822008DF10BC08BC1A
:1024F0001847824810B502780100822008DFF5E70E
:1025000070B586B004A800F0ACFB7F4E012576E0E4
:102510007D4805A9059500F07BFB317804983400CF
:10252000814201DD79A025E0032901D27EA021E0CE
:10253000402901D987A01DE0491E0591601C05A90D
:1025400000F066FB227804980021801A04900800AD
:1025500006E0235C59180904401C090C0006000E13
:102560008242F6D80806000E2900FF2801D1002972
:1025700006D181A001F0B6FC06B070BC08BC1847BB
:10258000637801F0C1FC05040F1223333900E178B0
:102590007EA001F0A7FCE078002800D00120FFF722
:1025A00005FE2CE0FFF7A5FF29E02100132A26D124
:1025B0001022C91C684601F0B7F9684600F0B3FA6A
:1025C00000281CD17CA001F08DFC18E0E1780809FE
:1025D000401E0006000E821E032A10D2C90702D137
:1025E000FFF769FE0BE0FFF75CFE08E0E078C0074C
:1025F000C00FFFF7B4FE02E00120FFF769FF049867
:10260000002885DCB8E770B53C4C86B0641F2078A4
:10261000002812D1FFF718FFFF21F53188420CD3B3
:1026200000F0F2F90006000E207001D070A002E068
:10263000FFF705FF77A001F055FCFFF7EFFE32280A
:102640009AD3FFF7E6FE2D4E00200F36F07020786B
:102650000124002801D1F4700DE002A800F027FA4F
:10266000002805D01022301D02A901F05DF902E01A
:10267000F0782043F070FFF70EFE002800D0012014
:102680001E4D30752435002401E0042C09D02000B3
:1026900001F032F96B46019018792870587968700A
:1026A000AD1C641C2406240E082CEED313480F30F6
:1026B00000F00DF81149B0700F313278822008DF38
:1026C0005AE710B5FFF71CFFFFF79DFF0EE710B4A8
:1026D000037842780321D21806E0445CA218120461
:1026E000491C120C0906090E8B42F6D8D04310BCC7
:1026F0000006000E70470000AC4000000D010040D5
:1027000001060000F8020040A40100404E61636829
:102710007269636874206E69636874206B6F6D7092
:102720006C6574740A0D00004E61636872696368B9
:10273000746CE46E6765206D757373206772F6DFE5
:10274000657220676C656963682033207365696E04
:102750000A0D00004E61636872696368746CE46E10
:102760006765206D757373203C3D2036342073659A
:10277000696E0A0D000000005072FC6673756D6D85
:10278000656E6665686C65720A0D0000526573655A
:1027900074206465766963652E20456E74657220C9
:1027A00055534220426F6F746C6F616465723A20BA
:1027B00025640A0D00000000416E206572726F7280
:1027C000206F63637572726564207768696C652039
:1027D0006170706C79696E6720746865206E6577CA
:1027E000207072657373757265732E0A0D00000098
:1027F00076656D615F7374617274436C6F73656449
:102800004C6F6F7020737563636565646564210A3E
:102810000D00000076656D615F7374617274436CC6
:102820006F7365644C6F6F70206661696C656421BD
:1028300020547279696E6720616761696E20696EE4
:10284000203530306D732E0A0D00000070B5050084
:10285000FFF7EAFDCE4C07E0FFF7EBFDA84203D9F6
:10286000002070BC08BC184720680028F4D0002065
:1028700020600120F5E7002203E0435C9A1812066D
:10288000120E0B00491E0906090E002BF5D1D0438C
:102890000006000E704770B5BE4C0823302210436E
:1028A000237320710020085E002800DA40420004F3
:1028B00000140205120E002662718E5F8025002E24
:1028C00001DA2A4362710001A0710220085E00282B
:1028D00000DA40420004A27900140605360F3243A4
:1028E000A27102228A5E002A02DAA2791A43A27138
:1028F000E0710420085E002800DA4042020412144D
:102900001005000E042620728E5F002E01DA284387
:102910002072100160720620085E002800DA404232
:102920000204607A121415052D0F284360720620E8
:10293000085E002802DA607A184360720721201DC1
:10294000A272FFF798FFE0728BE770B5924D060018
:10295000287B0C0008280BD10721281DFFF78BFFCF
:10296000E97A884204D1287940210E43B04201D04F
:10297000002076E76979AA794806400D12091018F7
:10298000090602D54042000400142080A879EA79A3
:102990004107490D03075018002B02DA404200049A
:1029A00000146080297A6A7A4806400D12091018CE
:1029B000090602D5404200040014A080687AAA7A71
:1029C0004107490D03075018002B02DA404200046A
:1029D0000014E080012044E730B56F4C0500207BF7
:1029E00008280BD10721201DFFF745FFE17A884217
:1029F00004D1207930210D43A84203D0002030BCFF
:102A000008BC18470120FAE7644910B50868002897
:102A1000FDD0002008605F480221017360490A78F8
:102A20000271497841710100012000F09DFDFF20F5
:102A3000F530FFF70BFF00280AD05748017B022929
:102A400006D157490222001D00F096FF002803D04E
:102A5000002010BC08BC18470120FAE74F4910B508
:102A600008680028FDD0002008604A480221017350
:102A70004B490A780271497841710100012000F048
:102A800073FDFF20F530FFF7E1FE00280BD0424830
:102A9000017B022907D142490222891C001D00F056
:102AA0006BFF002801D00020D3E70120D1E7F1B56A
:102AB0003A4D28680028FDD0364E0024384F0220B9
:102AC0002C60307338793100307178797071012061
:102AD00000F04AFD3220FFF7B9FE00281DD0009912
:102AE0000D20FFF732FF002817D028680028FDD0FE
:102AF0002C60B87927493071F8797071012000F0A5
:102B000033FD3220FFF7A2FE002806D000990E20E8
:102B10000831FFF71AFF002803D10020F8BC08BCD9
:102B200018470120FAE770B51C4C05002068002802
:102B3000FDD0002629000D202660FFF7ACFE1549C8
:102B4000012000F011FD3220FFF780FE00281BD08D
:102B50000D20FFF741FF002816D020680028FDD087
:102B6000290008310E202660FFF795FE0949012053
:102B700000F0FAFC3220FFF769FE002804D00E2096
:102B8000FFF72AFF002801D100206AE6012068E64D
:102B900088010040F8020040180300408001004016
:102BA000B840000001C08FE21CFF2FE110B500F01B
:102BB000FDF810BC08BC184710B500F0CCF8F8E7D9
:102BC000704710B50328F4D100F054F80F490A8873
:102BD0008242EED0088000F0CAF8EAE710B5022879
:102BE00004D00328E5D100F097F8E2E700F098F868
:102BF000DFE770477047704770477047704770470E
:102C000070477047704770477047704740010040F9
:102C100010B40968624A0B0009E054686406640E47
:102C2000A418247A04705468401C641C5460491E23
:102C3000F3D210BC1800704730B40968584A0B0032
:102C40000AE0156804786D066D0EAD182C721468D4
:102C5000401C491E641C14600029F2D130BC1800CD
:102C600070474F490A684968511A4906490E016080
:102C7000002070474B49002008807047494A00B542
:102C800001205080FFF7F6FF4549108000200860C2
:102C9000486008BC18470120704701207047012098
:102CA0007047012070470120704710B53E4C617895
:102CB0002078E27809020843A1781206090411433A
:102CC00008433849891D00F06EFE21793548801D82
:102CD000017161794171A1798171012010BC08BC39
:102CE0001847304810B5801D00F054FE2E49020AE6
:102CF00008704A70020C000E8A70C8702948801D46
:102D000002790A7142794A71807988710120E5E778
:102D100001207047012070472249012048807047F8
:102D20001F4808B506C88020891A4906490E401A6E
:102D3000402804D81B490120888001B0A9E7184920
:102D400002204C3900F07BFA0090154869464C3857
:102D5000FFF772FFF1E713498888002806D0104872
:102D600005C8824202D100208880D9E770470C480C
:102D700010B5A1210C380170202141700021817013
:102D8000C1700171022241718271C17105490A222B
:102D900009880172090A41720100812008DF9DE75C
:102DA0003002004042010040B80200409548012135
:102DB000818000210170944A4170C160826001618C
:102DC0007047904910B52031002000F038FA10BC4F
:102DD00008BC184710B58B4C1834A288402A00D97B
:102DE00040222168802008DF216809182160A1881D
:102DF000081AA080EBE710B5824C00201834216837
:102E000000F01DFA216809182160A188081AA08025
:102E1000DDE70022110010B5802008DFD7E710B5EC
:102E20007A49002000F00BFAD1E7F8B5754C754DE2
:102E300018342600083631780027030001F064F8C2
:102E4000086005A1D16060DCDE60FFF7BAFF307872
:102E5000C00900F0BFF9F088A08030784106890FE2
:102E60001CD0012970D1C006C00E6DD001286BD1D5
:102E70003079002801D001287ED17078634D042874
:102E80006AD055DC002860D0012860D002285CD0D0
:102E9000032871D17088FFF704FF66E0737801F0B2
:102EA00033F80C070A6B0C6B121A1F212732446B84
:102EB00000F056FE11E0002000E0012000F090FE3E
:102EC000002859D04CE0C006C00E55D1B078802102
:102ED0000843287044E000F0F7FD00284CD021E0C2
:102EE00000204AE0C006C00E46D14648401C18E00B
:102EF00000F0C6FE00283FD0FFF78BFFFFF760FE13
:102F0000F8BC08BC1847C006C00E012834D1687848
:102F1000002831D03079A97888422DD2394914312E
:102F200040182060FFF756FFEAE700F055FFC7E7BB
:102F300020280AD0212816D0222819D023281BD1D6
:102F40007088FFF7E7FE46E016E02560D8E7FFF758
:102F5000A4FE0AE02560E5E77088FFF7A4FE3AE0EA
:102F6000FFF757FFCCE7FFF7BCFE0028F2D103E0E4
:102F70007088FFF7CDFE2EE0802000F04AF9A78090
:102F8000BEE7C8092AD1A0880028B9D0FFF733FFCF
:102F9000A0880028B4D130784106890FECD00129EF
:102FA000EAD1C006C00EE7D00128E5D1307900286B
:102FB00001D00128E0D17078002806D0022807D07F
:102FC0002028D9D1FFF771FE05E0FFF764FE02E08B
:102FD0007088FFF764FE0028CED0C1E7FFF71FFF1F
:102FE0008EE7C8099ED12878010689D54006400E93
:102FF000287000F04DF883E7002000E0802000F00A
:1030000012F97DE75001004001000100B8020040C4
:103010000FC08FE21CFF2FE101000007C00E090660
:1030200000D5401C7047B24910228A6008610868C8
:10303000C006FCD57047AE4A10239360106110683B
:10304000C006FCD5936011611068C006FCD57047BE
:1030500010B5A74A10230C009360FFF7DDFF052190
:1030600000040902401810611068C006FCD5936086
:1030700014611068C006FCD510BC08BC18479C49F8
:1030800030228A60086108688006FCD5486970476C
:1030900030B504049748984D044321002800FFF7F9
:1030A000CAFF21002800FFF7C6FF30BC08BC184744
:1030B0008F480021403081604021C1600122826040
:1030C000C1608B480168C905FCD50021C9438163F3
:1030D000416381600D2141607047704770478748A8
:1030E00000B541680F229206914341604168052274
:1030F000920611434160C168814A1140C160C168B4
:10310000804A1143C1600169032292049143016125
:10311000016901229204114301617B484168420622
:1031200011434160794912234B638A6B1800904325
:10313000FBD17748774988617749012088617749D1
:1031400080050861FFF7B4FF0020FFF7A1FF08BC6E
:103150001847002800D001200104FF3170480131D8
:1031600069E770480088800702D56F496C4862E7BC
:103170007047704700B5002800D001200104FF31DE
:103180006A480131FFF757FF594903204031486031
:1031900057480168C905FCD5FF2101318160D6E798
:1031A00010B502008078FFF737FF514940314C6875
:1031B000012383401C434C608860507912790002DF
:1031C0001043C8604A480168C905FCD5FF21013198
:1031D000816051E7704700B5FFF71EFF54490004B6
:1031E00008438913FFF727FFB1E700B5FFF714FF86
:1031F0004F49000408434F49FFF71DFFA7E700B5FB
:10320000FFF70AFF4A49000408438913FFF713FF39
:103210009DE700B5FFF700FF454900040843424918
:10322000FFF709FF93E700B5FFF7F6FE40490004FA
:1032300008438913FFF7FFFE89E73F4908E7F3B525
:1032400081B001982A4E00070D00800E401CB0622C
:10325000306A0105FCD58005800D00900024C01C5B
:10326000870805E0B069290000F09DFB2D1D641C56
:10327000A742F7D80020B06201993048C840C00783
:1032800003D12D490198FFF7E3FE0098FEBC08BC6E
:103290001847F7B50098164F00070D00800E801CE8
:1032A000B8620298786202980024C01C860805E083
:1032B000280000F06FFBF8612D1D641CA642F7D8B2
:1032C0000020B8621E490098FFF7C2FE0298DDE7B1
:1032D00010B51C48FFF7A7FE1B4C2000FFF7CFFEE0
:1032E00003002000FFF7CBFE00021843C4E60000F5
:1032F00000C2E0FF000180000005D00000C002E035
:10330000CFFFFFCF10000020C0C01FE0C0CFE0FF04
:103310004C33000040F1FFFF40F2FFFF00F0FFFFE1
:103320000005FE0054010040000101000005D80026
:1033300000054000000120000005F20048120000D6
:103340000005FA000005F5000002F500FF532DE925
:1033500020619FE5004296E5080014E31200000A90
:103360000800A0E3080286E50C019FE527FFFFEBBC
:1033700008019FE5C20100EB100010E30040A0E14E
:103380000100000AC10100EB05FEFFEB080014E399
:103390003400000A040014E30100000ABE0100EB3F
:1033A000300000EABF0100EB2E0000EA010014E348
:1033B0000190A0E308928615BD01001B040014E3F0
:1033C0002800000A307296E50050A0E3B0809FE527
:1033D0000540A0E1050057E12000000A1914A0E112
:1033E000070011E11A00000A015085E1A400A0E1E4
:1033F000381286E5001296E5200011E3FCFFFF0A73
:10340000141296E5010014E30B00001A000054E3C7
:103410000400001A040011E3001098150000511375
:103420000100A0130800001A001198E7000051E302
:103430000700000A0200A0E3030000EA001198E779
:10344000000051E30200000A0300A0E30FE0A0E146
:1034500011FF2FE1014084E2200054E3DCFFFF3A3A
:103460000400A0E3080286E50000A0E3000100E5F7
:10347000FF53BDE804F05EE200C0E0FF0005FE007F
:103480000002FE00C040000001C08FE21CFF2FE1DF
:10349000AB4A012800D0AB4A106AC30F4B734300FC
:1034A000DB0F0003000F8B730873506A0860887B82
:1034B000002803D1906A4860D06A88607047F0B4F1
:1034C0009F49012800D09F499F4EA04AA04F746891
:1034D0000123012809D145032C4374601468240991
:1034E00024011460146805250BE00125AD032C436D
:1034F000746014680F252D02AC4314601468052510
:103500006D022C431460934AD761934AD361934A66
:103510000124E4051461924C022222600B60002217
:103520000A618A60864A012800D0864A8D4B0120B4
:103530001B6B0343536103200861F0BC7047804953
:10354000012800D07F490020086070477C4901288D
:1035500000D07C49CA695207FCD5834A800001210A
:1035600080184038C1637047754A012800D0754AF9
:103570000B7B487B1B071B0B012800D00020C007DA
:103580000343887B012800D0002080070343D069D3
:10359000400708D513630868212350634868906387
:1035A0008868D06353607047F0B46F4C0126083CC4
:1035B00018CC5D1CAC466D1076022D19B5427EDA32
:1035C000674E01253560694D002A79D101224003FB
:1035D0005203801A084366490840D9070ED1002CCF
:1035E0000CD059108A005219126805E0491C8E004F
:1035F0007619376832603A00641EF7D2002B03D187
:1036000001045C48081809E0012B0ED12968090C57
:103610008142296804D90204080C1043286053E051
:10362000090C0904014329604EE000211A005C1EC8
:10363000641010E08E00761937683F0C874201D97C
:103640004A000AE036683604360C864202D94A003F
:10365000521C02E0491CA142ECDDA14210DDDA0758
:1036600006D10204434889001018491908602BE06C
:10367000890049190A68120C120402430A6023E007
:103680008C0066193468D20702D10204200C01E0D4
:10369000220C1204024332605F1008E0491C8800CB
:1036A00042191068060C2404264316600400B9422F
:1036B000F4DBD80708D188004019016801E03EE03A
:1036C00007E02C4A11430160274861460838016031
:1036D00024E00722400752078218234E6046083E26
:1036E0000A434010002106E083005B191B689342E7
:1036F00003D8401C491CA142F6DB83005B191F68FC
:103700001A60641C7460641E06E0401C491C820040
:103710005219136817601F00A142F6DB12490023FB
:10372000083908684968401C4010800089000A1860
:103730000B494B608860C8600A614A610B60FCE617
:10374000004004E0008004E0C0C01FE000C002E0D0
:103750007837000040F1FFFF40F2FFFF00F0FFFF6D
:1037600000C003E0A841000080010040008003E0A9
:10377000FFF70000FFFF0000FF512DE984509FE597
:10378000080095E580809FE5010010E30470A0E348
:103790000140A0E30400000A70109FE50100A0E3CF
:1037A00038FFFFEB047085E5004088E560609FE529
:1037B000080096E5010010E30400000A54109FE59C
:1037C0000200A0E32FFFFFEB047086E5044088E5CC
:1037D000081095E540009FE5080011E300408015C2
:1037E000081096E5080011E3044080150C0095E5EB
:1037F0000C0096E50000E0E30010A0E3000101E505
:10380000FF51BDE804F05EE2004004E088010040A2
:1038100018030040008004E02803004080010040BD
:1038200007002DE938009FE5041090E5020111E33F
:103830000700000A041090E5040090E524209FE5AD
:103840000118A0E1200CA0E1211BA0E1800082E092
:10385000B010C0E10000A0E3000100E50700BDE8F2
:1038600004F05EE2004003E03803004010B5264853
:10387000102100F073F8254841680122920311439A
:1038800041604168920011434160416892001143D8
:1038900041604168930019434160C16803041943C2
:1038A000C16001689B091943016001689B001943CD
:1038B0000160174817490860174818498860184977
:1038C00002208860174801691143016110BC08BCDF
:1038D0001847C046134908690122920490430861C1
:1038E0000E49002088600E490F2088600948911217
:1038F000C160012101607047072801D9002070478D
:1039000041000148405E70473803004000C002E0BB
:10391000EF032100004003E02038000040F1FFFFEA
:1039200040F2FFFF00F0FFFF03000B439B070AD1AB
:1039300002E008C9121F08C0042AFAD203E00B787B
:10394000491C0370401C521EF9D270471206120E19
:1039500001E00270401C491EFBD270470022F5E7CF
:1039600010B504000800110002002000FFF7EEFF70
:10397000200010BC08BC184730B40400002003002D
:1039800000E05B1C934203D2E05CCD5C401BF8D0AE
:1039900030BC7047021D0321521E137800021843E9
:1039A000491EF9D57047030003220870491C000A1C
:1039B000521EFAD5180070470B00010030B40020E9
:1039C0002022012409E00D00D5409D4205D31D00B1
:1039D0009540491B2500954040191500521E002DA9
:1039E000F1DC30BC7047000001C08FE21CFF2FE10A
:1039F000054C064D04E020000FC800F084FA103496
:103A0000AC42F8D300F05CF8EC4100000C4200003E
:103A100000502DE900C04FE100112DE920001CE30A
:103A2000B2C05E11FFCCCC1304C01E05FFC4CC0392
:103A300024809FE508005CE10600002A1C808FE2DC
:103A40000CC198E70FE0A0E11CFF2FE10011BDE8D9
:103A50000CF06FE10090FDE8FEFFFFEA09000000B6
:103A6000583A0000583A0000583A0000583A00000E
:103A7000583A0000583A0000583A0000583A0000FE
:103A80009332000000C09FE51CFF2FE17F30000053
:103A900000C09FE51CFF2FE1B130000000C09FE592
:103AA0001CFF2FE1DD30000000C09FE51CFF2FE16F
:103AB000DB30000000C09FE51CFF2FE1B92B0000A8
:103AC0007847C046B4F9FFEA214830B40178C0789D
:103AD000C906C90E3AD11E4C083C012808D01C4921
:103AE00002288B7808D0032830D11A4800211FE023
:103AF00019482060122022E01848002108E00278CE
:103B0000002A04D0C278857812022A431018491C72
:103B10008B42F4D10178002918D02060C1788278D6
:103B2000080210430BE00278002A00D01018491C4C
:103B30008B42F8D10178002908D020600078A18854
:103B4000814200D9A080012030BC70470020FBE7F3
:103B50007001004056410000004100001241000089
:103B600070B41D481C4B0078083BC106C90E24D018
:103B700019481D00183D6A780079184C012922D097
:103B8000022927D18F21084001218140060604D552
:103B90000607360F01210904B140002A01D10007B0
:103BA00018D1A868084215D0E868084000D0012064
:103BB0002070000A60701C6002E007481C38186022
:103BC000012070BC7047002A04D0A978884201D235
:103BD0000020EDE70020F4E770010040B80200404B
:103BE00070B5254B0200187819004988234DC0068E
:103BF000C00E20D001283CD002283AD118798F235A
:103C0000012418408440030604D503071B0F012438
:103C100024049C406B78002B2BD0030729D0AB6881
:103C2000234226D0002924D1002A16D0FFF7F1FA2A
:103C3000E868204318E001291BD10224002A05D09E
:103C40000120FFF796FAA888204304E00020FFF740
:103C500090FAA888A043A88007E02969214204D1EE
:103C6000FFF7E1FAE868A043E860012070BC08BCF7
:103C700018470020FAE700007001004050010040A2
:103C8000F8B5524800260178C906C90E70D180786F
:103C90004E4F203F00286DD04D4C65E060780228E3
:103CA00020D004285ED0052819D1002E17D1A57880
:103CB0008F2101200D40A840290604D52907090FAE
:103CC000012000048840B96801432000B960FFF773
:103CD00067FA2800FFF77FFA2800FFF790FA2078AC
:103CE000041941E0394861798078814235D1787092
:103CF00021790020B97035490C3900220A54401C42
:103D00000428FAD301250120B968A840084202D04E
:103D10002800FFF76AFA01200004B968A8400842A9
:103D200004D0280080210843FFF75FFA6D1C102D96
:103D3000E9D328483D00B8600020F86038610120D0
:103D4000FFF718FAE0794006A88802D50121084358
:103D500001E040084000A880C1E7E078A1780002B7
:103D60000843BDE7E678BAE72078002896D121E03D
:103D700025E0FFE70020012425048026787001203B
:103D8000B968A040084202D02000FFF72EFA2800B0
:103D9000B968A040084203D020003043FFF725FA5D
:103DA000641C102CEBD30B48B8600020F86038611D
:103DB000FFF7E0F9054879788078884203D0002041
:103DC000F8BC08BC18470120FAE700007001004069
:103DD0001241000001000100F0B5002685B03F4807
:103DE0000396029600783700C006C00E012873D1F2
:103DF0003A482038407800286ED00020384C009097
:103E000061E0607802282DD0042836D0052858D1EA
:103E100032480179B14254D1A1788F220125114055
:103E20008D400191090605D5019901250907090F62
:103E30002D048D408078B84232D1284820388168DE
:103E400029438160C168A943C1602000FFF7A8F938
:103E50000198FFF7C0F90198FFF7D1F902982843BC
:103E600002902EE01D49607920394978884228D097
:103E7000E078A1780002084324E0A678E7780020E3
:103E8000029016480179B1421BD18078B84218D10E
:103E90000120009011480C38815D0391875510E096
:103EA000039887420DD1029828420AD10B48203846
:103EB0008168A9438160C168A943C1600198FFF787
:103EC00094F920780419207800289AD1009805B038
:103ED000F0BC08BC1847FFE70020F8E7700100407D
:103EE000124100000FB410B5044A054B029803A913
:103EF00000F032F810BC08BC04B0184704010040C0
:103F0000CD230000104718477847C04601C05EE542
:103F10000C0053E10330DE370C30DE2783C08EE027
:103F20001CFF2FE1000052E30430901404204212E1
:103F300004308114FAFFFF1A1EFF2FE11EFF2FE14C
:103F40000000A0E3000052E30420421204008114A8
:103F5000FBFFFF1A1EFF2FE1FFB5040000258DB007
:103F600092E0252876D100274F4A641C01210C9746
:103F700023780800203B98400300134202D00743F7
:103F8000641CF5E720782E2817D1042007436078B9
:103F9000641C2A280CD10E98641C02C80E900C9147
:103FA0000BE00C990A22514330394018641C0C90E4
:103FB0002078010030390929F3D92078002867D00A
:103FC000642809D0692807D0752866D10E990A207F
:103FD0000B9001C90E9114E00E990A200B9001C9B3
:103FE0000E91002802DA40422D2102E0390504D565
:103FF0002B216B461972012104E0F90701D0202121
:10400000F7E700210BAE009105E00B99FFF7D4FC18
:104010003031761E31700028F7D103A8801B203084
:104020000190780701D401200C90019A0C9900208E
:10403000914200DD881A00270C9007E00FA906C9FD
:1040400002A8C05DFFF75EFF6D1C7F1C00988742D1
:10405000F4DB06E021E00FA906C93020FFF752FF8C
:104060006D1C0C98411E00280C91F4DC06E00FA991
:10407000307806C9761CFFF745FF6D1C0198411E7C
:1040800000280191F3DC641C2078002800D068E748
:10409000280011B0F0BC08BC18470FA906C9FFF7EB
:1040A00031FF6D1CEFE7000009280100010000004E
:1040B00001000000000000001FE02FD04DB24EB103
:1040C0002B2E0000C32B0000DD2B000000000000A1
:1040D00000000000000000000000000000000000E0
:1040E00000000000000000000000000000000000D0
:1040F00000000000000000000000000000000000C0
:104100001201000202000040291E0B0400010102FE
:10411000030109024300020100803209040000018A
:1041200002020100052400100105240103010424FA
:10413000020205240600010705810340000209046C
:104140000100020A00010007050202400000070505
:1041500082024000000004030904120352004500DB
:104160004300200047006D00620048001803520021
:104170006F0062006F00740069006E006F00200025
:10418000580054001A033000300030003000300076
:1041900031003000300030003000300030000A03C1
:1041A000560043004F004D000000000000000000DA
:1041B000000000000000000000C00100000000003E
:1041C00000C012000000000000C02300000000003A
:1041D00000C025000000000000C036000000000004
:1041E0000000000000C0480000C049000C42000070
:1041F0000001004090000000243F00009C420000AD
:1042000090010040F8060000403F00000000000060
:104210000000000000040000000F0100000000008A
:104220000000000000000000240200000000000068
:10423000000000000000000000000000000000007E
:10424000000000000000000000000000000000006E
:1042500001000000802500000000080000000000B0
:10426000000000000000000000000000000000004E
:10427000000000000000000000000000000000003E
:10428000000000000000000000000000000000002E
:0C42900000000000000000000000000022
:040000050000219442
:00000001FF
