:020000040000FA
:1020000018F09FE518F09FE518F09FE518F09FE5A0
:1020100018F09FE50000A0E120F11FE518F09FE512
:102020005420000040200000344A000044200000FA
:1020300048200000000000004C200000502000005C
:10204000FEFFFFEAFEFFFFEAFEFFFFEAFEFFFFEAF8
:10205000FEFFFFEA20019FE5AA10A0E35520A0E3C0
:102060002030A0E3A03180E5A03190E5403013E2BC
:10207000FCFFFF0A0130A0E30C3180E50B30A0E348
:10208000843080E58C1080E58C2080E50130A0E371
:10209000803080E58C1080E58C2080E5883090E5EC
:1020A000013313E2FCFFFF0A883090E5CC409FE546
:1020B000043003E00B40A0E3043033E0F9FFFF1AE3
:1020C0000530A0E3043180E50530A0E3083180E568
:1020D0000030A0E3A83180E50030A0E3AC3180E51A
:1020E0000330A0E3803080E58C1080E58C2080E513
:1020F0008C409FE5C44080E57C009FE50410A0E390
:10210000041080E50210A0E3001080E5458F4FE247
:102110000191A0E3FF00B8E8FF00A9E8FF00B8E8DC
:10212000FF00A9E85C009FE50210A0E3001080E535
:1021300054009FE5DBF021E300D0A0E1000040E285
:10214000D7F021E300D0A0E1000040E2D1F021E38C
:1021500000D0A0E1000040E2D2F021E300D0A0E1F5
:10216000010C40E2D3F021E300D0A0E1400040E2C6
:1021700010F021E314009FE510FF2FE100C01FE0E5
:10218000FF7FFF005E01004340C01FE0080A0040DF
:10219000942100000CD09FE5E90900EB00009FE5C9
:1021A00010FF2FE1E9210000C808004010B54649A2
:1021B00000280A6803D0012002430A6002E05008A8
:1021C00040000860002002F0A8F902F055F9002153
:1021D00007204007416003210160AA218160552149
:1021E000816010BC08BC1847384801250027AC1E88
:1021F000876200F057FB00F0E9FC00F065F9002071
:1022000000F0E2F900F0A4F8012000F0DDF900F0A0
:102210007BFA00F0FDFF01F0A1FA01230022022168
:102220002BA002F07BFE354E00F0C0F900F0DDFC83
:10223000642815D900F0D4FC072000F0E1F901F082
:10224000A7FA6D1C322D0BDD601C03D101F089F85B
:1022500000F060FF0025641C012C03DD00240FE06A
:10226000002D09D1002C0BD025492722254802F04A
:10227000FBFA2549012008703078022804D018E0C4
:102280001F4927222739F1E720A002F047FE00204E
:10229000377000F077F9002808D0002000F0A0F98E
:1022A00020A002F03BFE01F0A8FA02E025A002F017
:1022B00035FE3078012801D10220307001F036FC63
:1022C00001F073F9B0E70000004008E000C002E050
:1022D000526F626F74696E6F2061726D20666972F1
:1022E0006D776172652076657273696F6E20256403
:1022F0002E25642E25640A0D000000004E010040CA
:10230000270100404303004064010040696F5F7390
:1023100077305F747269676765726564203D20324B
:102320000A0D000073746F726520706F73697469B1
:102330006F6E20747269676765726564206F6E0ADC
:102340000D000000535730206F66660A0D00000034
:102350003B480268032109070A43026082690A4375
:102360008261384882680121C9040A438260426858
:102370000A43426034490820C860344802680304B4
:102380001A43026042680C231A43426042683023B9
:102390001A434260086820221043086070472A49A7
:1023A0000A6804239A430A60886048680006FCD5DE
:1023B00088680006000E704723490A6804231A4300
:1023C0000A60886048680006FCD588680004000C34
:1023D000704730B50400000CFFF7EEFF0500200445
:1023E000000CFFF7E9FF0100280430BC08BC0843DB
:1023F00018471348C16982051143C16170471048ED
:10240000816982051143816170470D48C1694205A8
:102410001143C16170470A488169420511438161D6
:1024200070470848C1680122D2041143C160704757
:10243000044841680122D204114341607047000002
:1024400080C0FF3F008002E0000002E000C002E028
:1024500007002DE964009FE50010D0E5000051E37E
:102460000110A0030010C00554109FE5402191E524
:102470000000A0E3022082E3402181E5000100E5A5
:102480000700BDE804F05EE207002DE92C009FE59F
:102490000110D0E5000051E30110A0030110C005B8
:1024A0001C109FE5402191E50000A0E3042082E399
:1024B000402181E5000100E50700BDE804F05EE28F
:1024C0004E01004000C01FE070B56E480268FF2159
:1024D0000A43026082690A43826100F0CEFB00F089
:1024E000D7FB6948826802210A438260C2680A43B6
:1024F000C26002680A430260836804221343836057
:10250000C3681343C3600368134303605F4B604CAD
:10251000E363604C0F23E3635F4C8D0325615C4EE6
:102520005E4D403635605B4D40352B60CB032361FB
:102530005B4B1C694D052C431C611C69CD052C436C
:102540001C61574B40331C690325AD052C431C61AE
:102550001C69AD002C431C6103688B430360016858
:10256000914301604F4881688022114381608168F6
:10257000402211438160816892001143816070BCE8
:1025800008BC18473F49403949690B300122824055
:10259000114201D001207047002070473949CA69B3
:1025A000012383401A43CA617047C04610B500F04A
:1025B00069FB7D21C900884202D90020FFF7EEFFA8
:1025C00010BC08BC1847C0462E498A6901238340C5
:1025D0001A438A617047C046002900D0F4E7DDE75E
:1025E00010B5002807D00128EAD100F051FB0120E6
:1025F000FFF7EAFFE4E700F040FB0020F8E7C04601
:102600002049496901228240114200D0C6E7DBE738
:10261000F8B50F00002806D0012806D0022806D001
:10262000010021A028E0072402E0062400E008249D
:1026300027A002F073FC1B4E0125002F08D029A013
:1026400002F06CFC70682900A1400843706007E04C
:1026500026A002F063FCF0682900A1400843F06066
:10266000210025A002F05AFC3068A540284201D084
:10267000012100E0002122A002F050FCF8BC08BCBF
:102680001847000080C0FF3F40C11FE050240000F9
:1026900000F1FFFF00F2FFFF00F0FFFF88240000C1
:1026A00000C002E0008002E0696F5F736574506FE4
:1026B000776572456E61626C656420756E6B6F77CD
:1026C0006E206368616E6E656C2025750A0D0000D2
:1026D000696F5F736574506F776572456E61626C88
:1026E00065642000656E61626C65200064697361D9
:1026F000626C6520000000006368616E6E656C208E
:1027000025750A0D00000000704710B5FFF789FE1F
:102710000520FFF744FE0020FFF741FE0400FFF70D
:1027200087FE200010BC08BC184710B5FFF779FEE3
:102730000620FFF734FEFFF77BFEF3E710B5FFF747
:1027400070FE0420FFF72BFEFFF772FEEAE770B57C
:102750000D000400FFF7E9FFFFF763FE0220FFF71B
:102760001EFE2000FFF728FE2800FFF718FEFFF7E7
:102770005FFE70BC08BC184710B50400FFF751FE9F
:102780000320FFF70CFE2000FFF716FE0020FFF7E6
:1027900006FE0400FFF74CFE2000C3E770B50D00F5
:1027A0000400FFF7C2FFFFF73CFE0220FFF7F7FD32
:1027B0002000FFF701FE2800FFF7FEFDFFF738FEBF
:1027C000D7E710B50400FFF72CFE0320FFF7E7FD65
:1027D0002000FFF7F1FD0020FFF7EEFD0400FFF7FA
:1027E00027FE20009EE770B50D000400FFF79DFF57
:1027F000FFF717FE0220FFF7D2FD2000FFF7DCFDF8
:102800002800FFF7E6FDFFF713FEB2E710B504005E
:10281000FFF707FE0320FFF7C2FD2000FFF7CCFD06
:102820000020FFF7D6FD0400FFF702FE200079E745
:1028300010B5FFF7F6FD0520FFF7B1FD0020FFF70B
:10284000AEFD0400FFF7F4FD20006BE710B50400B7
:10285000FFF76BFFFFF7E5FD0120FFF7A0FD20006C
:10286000FFF79DFDFFF7E4FD5CE730B40C000106C7
:10287000200401431002014330BC19430020B2E799
:10288000F8B507001C0015000E000020FFF7BEFF82
:10289000010E3970010C3170010A29702070F8BCEA
:1028A00008BC1847104801685022114301600F48C6
:1028B00005218162816A8022114381628321C16086
:1028C00004210160002141600321C1607047074974
:1028D0004A699206FCD50860704704484169C907F7
:1028E000FCD000687047000000C002E000C000E0BB
:1028F00010B5FFF7ECFF10BC08BC18470020C04320
:10290000704710B5FFF7E3FFF5E7FEE701C08FE280
:102910001CFF2FE15948C169012252071143C161CF
:102920005748002141701021C170704770B554485C
:102930000024447044715348102101F0AFFF4F4808
:1029400081690122520711438161FFF7E3FF0121F1
:102950000020FFF75DFE4C480322C26044604B49F3
:102960000B6801252D052B430B600B68AD002B4335
:102970000B604749474B1963474B0F211963474B7E
:10298000A9011961C36880210B43C3600823036058
:10299000446005238362836A0B438362C3688B436D
:1029A000C3608168426070BC08BC18473348416905
:1029B000012252071143416131490020087088709B
:1029C0007047FFB51D000F00040081B000F029F929
:1029D0002B4E03E000F02AF9052802D8B078002831
:1029E000F8D0FFF7E3FF2748FF2110300170417056
:1029F000A91C8470C17000210400077107E00398CE
:102A00008A00805C6218491C0906090E5071A942AF
:102A1000F5D31C48103000F0ADFA6119AD1D4871B6
:102A20000120B571707120781749086005B0F0BCBD
:102A300008BC184770B5040000F0F3F8104D03E02F
:102A400000F0F4F8052802D8A8780028F8D0E0783B
:102A50002100001D02060B48120E1030AA7101F071
:102A600003FFFFF7A3FF01206871064806491030F5
:102A70000078086097E70A48DCE70000008002E081
:102A80005401004058020040008007E000C002E00E
:102A9000A42A000040F1FFFF40F2FFFF00F0FFFF1B
:102AA000385400003F502DE908319FE508419FE56B
:102AB0000150A0E3370000EA0E0000E2040050E3FA
:102AC0000C00000A060000CA000050E3EC009F055D
:102AD000180090052F00000A020050E32D00001A94
:102AE000210000EA060050E3140094052900000AC2
:102AF0000C0050E32700001A000094E50400C3E531
:102B00000100D3E50310D3E5010050E10050C325D7
:102B1000030050E30700001A0410D3E5041081E21B
:102B2000FF1001E2100051E30200A0830310C3E58F
:102B30000000C3850700008A0010D3E5000051E3C0
:102B40000400001A0420D3E574C09FE5011080E260
:102B50000020CCE70110C3E50100D3E50310D3E565
:102B6000010050E10250C3050A0000EA0500D3E568
:102B70000610D3E5010050E10500002A44109FE54E
:102B80000010D1E7001084E5010080E20500C3E5F4
:102B9000000000EA5CFFFFEB080094E5FF0000E2A4
:102BA000010010E30000A01300010015C1FFFF0A9F
:102BB0003F50BDE804F05EE254010040008007E0B1
:102BC000000001E058020040680200403649012040
:102BD00048600B22CA60354948603548C860704774
:102BE000324880683349086070473048806831490E
:102BF0000968401A70472D4880682E494860704720
:102C00002A4880682B494968401A704727488068DD
:102C10002849886070472548806826498968401A95
:102C20007047224880682349C86070471F48806801
:102C30002049C968401A70471C4880681D490861CE
:102C400070471A4880681B490969401A704717483D
:102C50008068184948617047144880681549496977
:102C6000401A7047114880681249886170470F48C0
:102C7000806810498969401A70470C4880680D497E
:102C8000C8617047094880680A49C969401A704795
:102C9000064880680749086270470448806805490B
:102CA000096A401A70470000004000E0008000E020
:102CB000DF2E00007802004001C08FE21CFF2FE1F0
:102CC0005848C169012212071143C16156480021C9
:102CD00041701021C170704770B553480024447092
:102CE00044715248102101F0D9FD4E4881690122FA
:102CF000120711438161FFF7E3FF01210800FFF78D
:102D000087FC4B480322C26044604A494B6A15065F
:102D10002B434B624B6A95062B434B624649474B0C
:102D20005963474B0F215963D905464B1961C36855
:102D300080210B43C3600823036044600523836242
:102D4000836A0B438362C3688B43C36081684260BC
:102D500070BC08BC1847334841690122120711436F
:102D6000416131490020087088707047FFB51D002F
:102D70000F00040081B0FFF75FFF2B4E03E0FFF769
:102D800060FF052802D8B0780028F8D0FFF7E3FFED
:102D90002648FF21103001704170A91C8470C17059
:102DA00000210400077107E003988A00805C621824
:102DB000491C0906090E5071A942F5D31B48103071
:102DC00000F0D8F86119AD1D48710120B57170711E
:102DD00020781749086005B0F0BC08BC184770B5EA
:102DE0000400FFF729FF104D03E0FFF72AFF052835
:102DF00002D8A8780028F8D0E0782100001D02064B
:102E00000A48120E1030AA7101F02EFDFFF7A3FF41
:102E1000012068710548064910300078086097E77E
:102E20000948DCE7008002E05B0100409C020040B2
:102E300000C007E000C002E04C2E000040F1FFFFA0
:102E400040F2FFFF00F0FFFF385400003F502DE933
:102E500008319FE508419FE50150A0E3370000EAF3
:102E60000E0000E2040050E30C00000A060000CA55
:102E7000000050E3EC009F05180090052F00000AA9
:102E8000020050E32D00001A210000EA060050E382
:102E9000140094052900000A0C0050E32700001AD2
:102EA000000094E50400C3E50100D3E50310D3E579
:102EB000010050E10050C325030050E30700001A51
:102EC0000410D3E5041081E2FF1001E2100051E389
:102ED0000200A0830310C3E50000C3850700008A39
:102EE0000010D3E5000051E30400001A0420D3E5EC
:102EF00074C09FE5011080E20020CCE70110C3E51B
:102F00000100D3E50310D3E5010050E10250C305F1
:102F10000A0000EA0500D3E50610D3E5010050E100
:102F20000500002A44109FE50010D1E7001084E559
:102F3000010080E20500C3E5000000EA5DFFFFEB51
:102F4000080094E5FF0000E2010010E30000A01378
:102F500000010015C1FFFF0A3F50BDE804F05EE22A
:102F60005B01004000C007E0000001E09C0200405F
:102F7000AC02004010B4C27800230221D21C06E04B
:102F8000445CE3181B04491C1B0C0906090E8A4209
:102F9000F6D8D84310BC0006000E704710B50028C4
:102FA0000AD001280CD002280ED00100FEA001F0AA
:102FB000B5FF10BC08BC18470800FFF73BFDF8E759
:102FC0000800FFF70CFFF4E7080000F001FFF0E74E
:102FD000F0B5FBA207CA85B06B4607C300273C00CB
:102FE000601C0006000E00266946039035008870BC
:102FF0006800281801190801411AF448425C002AA7
:103000001FD00818817B01291BD1002181734278D0
:1030100069468A718278CA71C2780A7200794872E8
:103020006846FFF7A7FF694688722800FFF7B6FFDA
:103030000120A840010031430E063843360E070632
:103040003F0E6D1C2D062D0E032DD1D3002E43D027
:10305000FFF708FEFFF70BFE0628FBD3DC480078DD
:10306000002807D0DB4801792001021BD74810183F
:10307000417307E0F00705D0D44A21018020091BE5
:1030800089184873D4480078002806D0D3480179BD
:103090002001021BCD48101806E0B00706D5CB4A28
:1030A00020018021001B801820308176CC480078D8
:1030B000002808D0CB4801792001021BC348101812
:1030C0006030C17108E0700706D521010A1BBF49B5
:1030D000802051186031C871039C032C80D30024D8
:1030E00001252800A040384203D0BF492000FFF747
:1030F00055FF641C2406240E032CF2D3002F05D0A8
:10310000FFF7B0FDFFF7B3FD0328FBD305B0F0BC1C
:1031100008BC1847FEB5B5A105C96B46B54905C33E
:103120004878002863D00020B249A84F002301242A
:10313000002848705DD00022002041004118891805
:103140000D01691A7D5C002D08D0C9194D79202622
:103150004D708D798D70CE700B718C73401C000694
:10316000000E0328E9D3521C1206120E032AE3D3E1
:10317000FFF72EFF9F486946407800258871681C3C
:1031800007063F0E6946002668468F70FFF7F2FE7D
:1031900069460024C8716000201840190101091A0D
:1031A0008A48405C002808D020006946FFF7F6FEF8
:1031B0000120A04030430606360E641C2406240E6F
:1031C000032CE8D3002E05D0FFF74CFDFFF74FFD91
:1031D0000628FBD33D00032FD1D386484078002832
:1031E00012D00120FFF7F0F9FEBC08BC18470120FF
:1031F0009AE70101091AC919401C0006000ECB709C
:1032000009280B71F5D3B5E70120FFF7C7F9EBE704
:1032100010B5FFF78BFBFFF75FFD00F05AFDFFF7DE
:1032200079FFC6E610B5002809D0012809D0022888
:1032300009D001005CA001F071FE0020B9E66448ED
:1032400002E0654800E066480078B2E6F0B56AA1A1
:1032500003C987B06A465D4D03C20024601C0006A6
:10326000000E69460390887000276846FFF782FECB
:1032700069460026C8717000301800190101081A4B
:10328000285C002808D030006946FFF787FE01203F
:10329000B040384307063F0E761C3606360E032E26
:1032A000E9D3002F57D0FFF7DDFCFFF7E0FC06283D
:1032B000FBD34748007800280ED046482101027908
:1032C000091B49194A7342794A7282798A72C27912
:1032D000CA72007A087306E0F80704D02101802042
:1032E000091B491948733C48007800280FD03B4916
:1032F00020010A79001B4019203082764A798275B4
:103300008A79C275CA790276097A417607E0B807E8
:1033100005D52101091B80204919203188763048C4
:10332000007800280FD02F4920010A79001B40198E
:103330006030C2714A79C2708A790271CA79427169
:10334000097A817107E0780705D52101091B8020E2
:1033500049196031C871039C032C00D27EE707B085
:10336000D5E6FEB526A103C96A46184D03C200265C
:103370000024601C07063F0E694668468F70FFF701
:10338000F9FD694648713000FFF708FEFFF76AFC57
:10339000FFF76DFC0628FBD33000FFF743FF002842
:1033A00000D0012071002FE0556E6B6E6F776E209C
:1033B0006368616E6E656C2025750A0D0000000063
:1033C000FFFF0007041E000000000000BC020040D8
:1033D00056010040580200405D0100409C02004040
:1033E0001A0200409403004038540000FFFF00041C
:1033F0000318000062010040FFFF00040206040001
:10340000FFFF000201000000711809190A01511A9A
:103410003C00032F6854ACD3761C3606360E032EC0
:10342000A6D3FFF713FFA7A001F078FD0026002424
:10343000700030180290621C3100A7A001F06EFDF0
:103440000298001901010F1AE85D002801D0A7A019
:1034500000E0A8A001F062FD7819027BC17A120297
:103460008A18417A807A00020918A5A001F056FD59
:10347000A7A001F053FD641C2406240E032CDAD30C
:10348000761C3606360E032ED1D3A2A001F046FDDF
:10349000AAE6F0B5A1A103C987B06A46A14D03C24F
:1034A0000024601C0006000E694603908870002707
:1034B0006846FFF75FFD69460026C8717000301846
:1034C00000190101081A285C002808D0300069465C
:1034D000FFF764FD0120B040384307063F0E761C1D
:1034E0003606360E032EE9D3002F59D0FFF7BAFB6C
:1034F000FFF7BDFB0628FBD38B48007800280ED0D1
:103500008A4821010279091B49194A7342794A7193
:1035100082798A71C279CA71007A087206E0F80766
:1035200004D021018020091B491948738048007884
:1035300000280FD07F4920010A79001B4019203054
:1035400082764A7982748A79C274CA790275097A54
:10355000417507E0B80705D52101091B80204919ED
:103560002031887674480078002811D073492001F2
:10357000001B0B79421910006030C3714B79403247
:10358000D3778A790270CA794270097A817007E02C
:10359000780705D52101091B802049196031C871C0
:1035A000039C032C00D27CE7D9E6F8B56448017887
:1035B000002954D00021017055A001F0AFFC002477
:1035C0006048015D60A001F0A9FC641C272CF7DBBA
:1035D0004FA001F0A3FC5F48407800283FD00024B2
:1035E00000204100411809194E4D0A01561AA95DE3
:1035F000002928D00C214143524A8918A2008B1877
:10360000DB1C9F785A1CD91C002FBC4602D10F78B6
:10361000002F18D075196E781F78BE420AD1AB788A
:103620001678B34206D1EB78634503D12B790E7837
:10363000B34208D06F70137862460126AB70EA700F
:1036400009782971AE73401C0006000E0328C8D308
:10365000641C2406240E032CC2D3FFF7B9FC3D489A
:103660000078002801D0FFF714FF3B4C2078022897
:1036700008D10120FEF786FF002803D0002020702B
:10368000FFF748FD2078012801D102202070F8BC06
:1036900008BC184770B5022811D800242D21050058
:1036A0004D43204E2001001B801940190F30072187
:1036B00001F0F4F8641C2406240E032CF2D370BC31
:1036C00008BC1847536572766F7320666F756E6419
:1036D0003A200A0D000000004368616E6E656C20A0
:1036E00025752049442025753A200000666F756EC7
:1036F000640000006E6F7420666F756E64000000D9
:1037000043573A20257520204343573A202575001A
:103710000A0D00000A0D0A0D00000000FFFF000462
:1037200002240400BC020040560100405802004040
:103730005D0100409C0200401A02004094030040DA
:1037400064010040430300403078253032582C207B
:1037500000000000620100404F0100403EB5F64A03
:103760006B46121D07CA07C3F44C0C22E01C6946C5
:1037700001F07AF8200000F089FAA07000F05CFCFB
:1037800000F091FE012000F0C8FE3EBC08BC1847C6
:10379000032210B5E849822008DF10BC08BC184796
:1037A00010B5E64CA43CE0700020A070200000F0B2
:1037B0006DFAA07021002278822008DFEDE710B5B5
:1037C000DE4CA03CE0700020A070200000F05EFA0B
:1037D000A07021002278822008DFDEE710B5D74CE8
:1037E0009C3CE0700020A070200000F04FFAA07018
:1037F00021002278822008DFCFE7F8B5D048CF4DEE
:103800000078983DEC1C002801D1FFF742FECD4A1C
:1038100000200101091A8B185E792700611C3E7097
:103820009B79401C0006A41C000E09280B70F0D3E5
:103830000020A870C148983800F028FABF49A87045
:1038400098392A78822008DFF8BC08BC184710B5E0
:10385000FFF787FDB94CBB490020833C0201121AD7
:1038600023188A5C401C0006000E0928DA70F5D384
:103870000020A070B148833800F008FAAF49A0706A
:1038800083392278822008DF87E710B5C178AB4CF6
:10389000C91D773C2170C2780100E01C121D00F0A8
:1038A000E3FF200000F0F2F9A070210022788220CE
:1038B00008DF72E7A14810B502780100822008DF16
:1038C0006BE7F8B59D4C273CE31C00252801411B04
:1038D0009C489A1C0E18717A581C6D1C1970B77A86
:1038E0001100DA1C0770F07A2D061B1D0870307B62
:1038F0002D0E092D1070E9D30020A0708F482738B5
:1039000000F0C4F98D49A07027392278822008DFA1
:103910009AE7F8B5894F573FFB1C00242001011B93
:103920008848641C0D186A791900581C0A70AE7911
:103930009B1C19000670E8795A1C9B1C0870287A99
:103940001E0024061070687B5B1C240E092C30704E
:10395000E4D30020B8707948573800F097F97749D8
:10396000B87057393A78822008DF6DE7FEB56846AF
:1039700000F055FB744C0125CBE0734801A901957B
:1039800000F022FB21780098814201DD6FA024E045
:10399000032901D274A020E02A2901D97DA01CE0CE
:1039A000491E0191601C01A900F00EFB22780098CD
:1039B000654E801A002300903778190006E0705C8D
:1039C000C3181B04491C1B0C0906090E8F42F6D8AC
:1039D0001806000EFF2805D077A001F09FFAFEBC64
:1039E00008BC18476078030001F0ACFA0B07535C81
:1039F0005F6A6E737D83869198005149002008703C
:103A0000E178002907D0012917D0022929D0022006
:103A1000FFF7C6FE7DE0201DFFF70CF8FFF7EBF87F
:103A20006A4E3078002806D1FFF7EAF80628F8D366
:103A3000307800282AD0664824E0201DFFF7CFF90F
:103A4000FFF7D9F8634E3078002806D1FFF7D8F891
:103A50000628F8D33078002801D05F4812E0012012
:103A600014E0201D00F0B4F9FFF7C5F85B4E307884
:103A7000002806D1FFF7C4F80628F8D330780028CC
:103A800003D05748FFF701FF43E00220FFF797FEFE
:103A90003FE02D490800273800F0E6FE2748A5380A
:103AA000057036E0FFF7D3FE33E0E17824480029C3
:103AB000017001D04BA000E050A001F02FFA28E0E7
:103AC000E078FFF7E7FD24E0FFF7E3FCFFF721FFD5
:103AD0001FE02279E1784FA001F020FA2179E07807
:103AE000FEF796FD15E057A001F018FAFFF712FB5C
:103AF0000FE0FFF7E6FE0CE0E17859A001F00EFAC6
:103B0000E078002800D00120FEF750FB01E0FFF72D
:103B1000D1FE0098002800DD2FE760E7012077E75D
:103B200007480078002800D0F3E6704710B5FFF78B
:103B30001DFFFFF7F5FF30E640540000090200408A
:103B400062010040BC0200406A0300404E616368AD
:103B50007269636874206E69636874206B6F6D703E
:103B60006C6574740A0D00004E6163687269636865
:103B7000746CE46E6765206D757373206772F6DF91
:103B8000657220676C656963682033207365696EB0
:103B90000A0D00004E61636872696368746CE46EBC
:103BA0006765206D757373203C3D2034322073654A
:103BB000696E0A0D000000005072FC6673756D6D31
:103BC000656E6665686C65720A0D000056010040FE
:103BD000580200405D0100409C0200401A02004073
:103BE000940300404175746F2075706461746520A2
:103BF000656E61626C6564200A0D00004175746F2A
:103C0000207570646174652064697361626C6564B9
:103C1000200A0D00656E61626C6520706F776572B9
:103C2000207265636569766564202D206368616E26
:103C30006E656C3A2025752020656E61626C653A70
:103C400020257500546F67676C6520746F727175FD
:103C5000652072656365697665640A0D0000000081
:103C60005265736574206465766963652E20456EC0
:103C70007465722055534220426F6F746C6F61649B
:103C800065723A2025640A0D0000000010B4037824
:103C900042780321D21806E0445CA2181204491CA1
:103CA000120C0906090E8B42F6D8D04310BC000650
:103CB000000E704701C08FE21CFF2FE15648C1681B
:103CC00001221143C1605548002141701021C1708B
:103CD000704770B551480024447044715048102119
:103CE00000F0DCFD4C488168012211438160FFF740
:103CF000E5FF01210220FEF78BFC4A480322C26047
:103D0000446049490B6902252B430B610D69082367
:103D10001D430D614549464DE961464D0F21E9615D
:103D2000802145142961C5680D43C5600360446066
:103D300005238362836A0B438362C3688B43C3603A
:103D40008168426070BC08BC184733484168012252
:103D50001143416031490020087088707047FFB5F9
:103D60001D000F00040081B0FEF771FF2B4E03E031
:103D7000FEF772FF052802D8B0780028F8D0FFF7C8
:103D8000E4FF2748FF21103001704170A91C8470A6
:103D9000C17000210400077107E003988A00805C6D
:103DA0006218491C0906090E5071A942F5D31C4836
:103DB0001030FFF7DFF86119AD1D48710120B571B2
:103DC000707120781749086005B0F0BC08BC18472E
:103DD00070B50400FEF73BFF104D03E0FEF73CFF1B
:103DE000052802D8A8780028F8D0E0782100001D26
:103DF00002060B48120E1030AA7100F035FDFFF7D5
:103E0000A4FF012068710648064910300078086058
:103E100098E70948DCE70000008002E01802004053
:103E200094030040000001E000C002E03C3E0000BE
:103E300000F1FFFF00F2FFFF385400003F502DE972
:103E400004419FE504319FE50150A0E3360000EAFC
:103E50000E0000E2040050E30B00000A050000CA57
:103E6000000050E3180093052F00000A020050E301
:103E70002D00001A210000EA060050E3140093050B
:103E80002900000A0C0050E32700001A000093E507
:103E90000400C4E50100D4E50310D4E5010050E1BD
:103EA0000050C425030050E30700001A0410D4E5B5
:103EB000041081E2FF1001E2100051E30200A08330
:103EC0000310C4E50000C4850700008A0010D4E593
:103ED000000051E30400001A0420D4E570C09FE5FF
:103EE000011080E20020CCE70110C4E50100D4E518
:103EF0000310D4E5010050E10250C4050A0000EAB5
:103F00000500D4E50610D4E5010050E10500002AC3
:103F100040109FE50010D1E7001083E5010080E22A
:103F20000500C4E5000000EA61FFFFEB080093E52F
:103F3000FF0000E2010010E30000A01300010015E3
:103F4000C2FFFF0A3F50BDE804F05EE218020040E5
:103F5000000001E094030040A403004001C08FE290
:103F60001CFF2FE110B500F001F910BC08BC184788
:103F700010B500F0CFF8F8E7704710B50328F4D17A
:103F800000F056F80F490A888242EED0088000F00F
:103F9000CDF8EAE710B5022804D00328E5D100F0F7
:103FA00099F8E2E700F09AF8DFE77047704770474A
:103FB0007047704770477047704770477047704749
:103FC000704770472002004010B40200086864493E
:103FD000030009E00C796406640E6418247A1470F6
:103FE0004C68521C641C4C60401EF3D210BC18007C
:103FF000704730B402000868594903000AE00D78A0
:104000001478521C6D066D0E6D182C720C68401ED3
:10401000641C0C600028F2D130BC18007047504975
:104020000A780979511A4906490E01600020704743
:104030004C490020088070474A4A00B50120508052
:10404000FFF7F6FF1080464800210160416008BC80
:104050001847012070470120704701207047012058
:1040600070470120704710B53F4C61782078E278A6
:1040700009020843A178120609041143084339498B
:10408000891D00F022FC21793648801D017161797B
:104090004171A1798171012010BC08BC18473148D9
:1040A00010B5801D00F007FC2F49020A08704A7005
:1040B000020C000E8A70C8702A48801D02790A71AD
:1040C00042794A71807988710120E5E701207047C3
:1040D000012070472349012048807047204808B5D7
:1040E000017802798020891A4906490E401A402831
:1040F00004D81C490120888001B0A8E71849022093
:104100004C3900F080FA0090154869464C38FFF7AA
:1041100070FFF1E713488188002906D0104906C9CD
:104120008A4202D100218180D8E770470C4810B53F
:10413000A1210C3801702021417000218170C170D3
:104140000171022241718271C17106490A220988F6
:104150000172090A41720100812008DF9CE700001A
:1041600000040040220200408804004097480121DA
:10417000818000210170964A4170C16082600161B6
:104180007047924910B52031002000F03CFA10BC75
:1041900008BC184710B58D4C1834A288402A00D9A5
:1041A00040222168802008DF216809182160A18849
:1041B000081AA080EBE710B5844C00201834216861
:1041C00000F021FA216809182160A188081AA0804E
:1041D000DDE70022110010B5802008DFD7E710B519
:1041E0007C49002000F00FFAD1E7F8B5774C774D05
:1041F00018342600083631780027030000F0A2FEAC
:10420000083805A5D53838E0E238FFF7BAFF30782E
:10421000C00900F0C3F9F088A08030784106890F0A
:1042200002D0012971D14AE071780B0000F08AFEBA
:104230000C070A880C88121A23252B34448800F0B6
:10424000A3FC11E0002000E0012000F0DFFC0028CA
:1042500076D065E0C006C00E72D1B07880210843E8
:1042600028705DE000F042FC002869D0FFF792FF63
:10427000F8BC08BC1847002063E0C006C00E5FD140
:104280005248401C16E000F013FD002858D0FFF7FC
:10429000A0FFFFF771FEEBE7C006C00E01284FD16B
:1042A000687800284CD03079A978884248D24749AC
:1042B000143140182060D9E700F0AAFDC7E7C00616
:1042C000C00E3DD001283BD13079002801D0012813
:1042D00036D170783F4D04281ED008DC00280FD05E
:1042E00001280FD002280BD0032829D110E0202864
:1042F00006D0212817D022281AD0232820D11BE04D
:104300002560B5E7FFF7A7FE0FE019E02560ADE7F0
:104310007088FFF7A4FE08E07088FFF7A2FE41E076
:10432000FFF757FFA4E7FFF7BAFE0028EED107E03A
:104330007088FFF7CBFE35E07088FFF7C9FE31E0EB
:10434000802000F04AF9A78092E7C80902D0FFF761
:1043500046FF8DE7A08800288AD0FFF72CFFA088B1
:10436000002885D130784106890FE9D00129E7D1AD
:10437000C006C00EE4D00128E2D13079002801D077
:104380000128DDD17078002806D0022807D0202827
:10439000D6D1FFF768FE05E0FFF75BFE02E070880C
:1043A000FFF75BFE0028CBD0BAE7C809AFD1287869
:1043B0000106A6D54006400E287000F04DF857E7DC
:1043C000002000E0802000F012F951E730020040A8
:1043D00001000100880400400FC08FE21CFF2FE1A4
:1043E00001000007C00E090600D5401C7047B34904
:1043F00010228A6008610868C006FCD57047AF4A81
:104400001023936010611068C006FCD593601161A1
:104410001068C006FCD5704710B5A84A10240B00E0
:104420009460FFF7DDFF05210004090240181061C8
:104430001068C006FCD5946013611068C006FCD5F6
:1044400010BC08BC18479D4930228A600861086882
:104450008006FCD54869704730B504049848994DEA
:10446000044321002800FFF7CAFF21002800FFF7BE
:10447000C6FF30BC08BC184790480021403081601E
:104480004021C16001228260C1608C480168C90579
:10449000FCD50021C9438163416381600D214160E6
:1044A000704770477047884800B541680F229206F0
:1044B0009143416041680522920611434160C16801
:1044C000824A1140C160C168814A1143C1600169DB
:1044D0000322920491430161016901229204114374
:1044E00001617C4841684206114341607A491220CB
:1044F00048638B6B02009A43FBD178487849886106
:10450000784901208861784980050861FFF7B4FF88
:104510000020FFF7A1FF08BC1847002800D00120A9
:104520000104FF317148013169E771480078800763
:1045300002D570496D4862E77047704700B50028A2
:1045400000D001200104FF316B480131FFF757FF14
:104550005A4903204031486058480168C905FCD5D4
:10456000FF2101318160D6E710B502008078FFF7A6
:1045700037FF524940314B680124844023434B604C
:1045800088605079127900021043C8604B48016876
:10459000C905FCD5FF210131816051E7704700B5A5
:1045A000FFF71EFF5549000408438913FFF727FF53
:1045B000B1E700B5FFF714FF504900040843504924
:1045C000FFF71DFFA7E700B5FFF70AFF4B490004FF
:1045D00008438913FFF713FF9DE700B5FFF700FFBE
:1045E0004649000408434349FFF709FF93E700B534
:1045F000FFF7F6FE4149000408438913FFF7FFFE69
:1046000089E7404908E7F3B581B001980E0000073B
:10461000810E2A48491C8162016A0A05FCD58C0575
:10462000A40D0025E11C8F0806E0244880693100B4
:1046300000F04BF9361D6D1CAF42F6D81F48002123
:10464000816201983049C140C80703D12D490198C2
:10465000FFF7E2FE2000FEBC08BC1847F7B5009843
:104660000E000007810E15481400891C8162426209
:104670000025D01C870806E0300000F01CF90F4927
:10468000C861361D6D1CAF42F6D80C48002181620E
:104690001E490098FFF7C0FE2000DCE710B51C485B
:1046A000FFF7A5FE1B4C2000FFF7CDFE0300200006
:1046B000FFF7C9FE00021843C2E6000000C2E0FF97
:1046C000000180000005D00000C002E0CFFFFFCF56
:1046D00010000020C0C01FE0C0CFE0FF184700005E
:1046E00040F1FFFF40F2FFFF00F0FFFF0005FE007A
:1046F00034020040000101000005D8000005400020
:10470000000120000005F200481200000005FA0038
:104710000005F5000002F500FF532DE934419FE547
:10472000005294E5080015E31200000A0800A0E317
:10473000080284E520019FE526FFFFEB1C019FE5B1
:10474000D80000EB100010E30040A0E10100000AD7
:10475000D70000EB00FEFFEB080014E32800000A7E
:10476000040014E30100000AD40000EB240000EA76
:10477000D50000EB220000EA010015E30180A0E370
:1047800008828415D300001B040015E31C00000AF6
:10479000309294E50070A0E3C4609FE50750A0E16B
:1047A000070059E11400000A1815A0E1090011E101
:1047B00001708711A500A011381284150B00000AA2
:1047C000001294E5200011E3FCFFFF0A141294E5A7
:1047D000010015E30E00000A001196E7000051E306
:1047E0000300A0130100000A0FE0A0E111FF2FE178
:1047F000015085E2200055E3E8FFFF3A0400A0E302
:10480000080284E50000A0E3000100E5FF53BDE8D5
:1048100004F05EE2000055E30900001A040011E311
:104820000700000A001096E5000051E30400000AAA
:104830000100A0E30FE0A0E111FF2FE10150A0E390
:10484000D6FFFFEA001196E7000051E30200A01333
:10485000E6FFFF0AE3FFFFEA00C0E0FF0005FE00FD
:104860000002FE005054000003000B439B0703D0DE
:1048700009E008C9121F08C0042AFAD203E00B7825
:10488000491C0370401C521EF9D270471206120ECA
:1048900001E00270401C491EFBD270470022F5E780
:1048A000130010B50A0004001900FFF7EFFF200005
:1048B00010BC08BC1847001D0321401E03781202DB
:1048C0001A43491EF9D510007047030003220870EF
:1048D000491C000A521EFAD518007047F0B51FB4E3
:1048E0000600002082B06F46050003C740241BE08D
:1048F000019922000F00300000F049F804AA0CCA08
:10490000801A994110D310001900220000F02EF8EF
:10491000361A8F410197009F22000120002100F0EC
:1049200025F838184D4100902000641E0028DFDC77
:10493000684609C807B0049C29003200A646F0BCAE
:1049400001B0704701C08FE21CFF2FE1054C064DFE
:1049500004E020000FC800F0F2FA1034AC42F8D3A3
:1049600000F0C0F83C5500005C55000010B4202A4F
:1049700005DB0100203A9140002010BC70479140B7
:1049800020239C1A0300E34019439040F5E710B43C
:10499000202A05DB0800203AD040002110BC7047D7
:1049A0000B00D340D0402024A21A914008431900A4
:1049B000F4E7000030002DE9024081E001C0D0E4BE
:1049C00007301CE20130D0044C22B0E10120D004B9
:1049D000010000EA0150D0E40150C1E4013053E28B
:1049E000FBFFFF1A08301CE20300000A0130D0E48C
:1049F000022082E2033041E0060000EA012042E2A8
:104A0000000052E30130C1A4FBFFFFAA030000EA4B
:104A100001C0D3E401C0C1E4012052E2FBFFFF5A10
:104A2000040051E10000A023E3FFFF3A3000BDE89D
:104A30001EFF2FE100502DE900C04FE100112DE9CC
:104A400020001CE3B2C05E11FFCCCC1304C01E05D5
:104A5000FFC4CC0324809FE508005CE10600002A27
:104A60001C808FE20CC198E70FE0A0E11CFF2FE152
:104A70000011BDE80CF06FE10090FDE8FEFFFFEAD9
:104A8000090000007C4A00007C4A00007C4A0000CB
:104A90007C4A00007C4A00007C4A00007C4A0000FE
:104AA0007C4A00005D46000000C09FE51CFF2FE12E
:104AB0004744000000C09FE51CFF2FE1794400003F
:104AC00000C09FE51CFF2FE1A544000000C09FE54A
:104AD0001CFF2FE1A344000000C09FE51CFF2FE155
:104AE000713F00007847C046ABF5FFEA224830B47A
:104AF0000178C078C906C90E3BD11F490839012881
:104B000006D01D4A0228937806D0032831D11AE036
:104B10001A480860122025E01948002208E00478AD
:104B2000002C04D0C478857824022C432018521C11
:104B30009342F4D10278002A1BD00860C2788378AF
:104B4000100218430EE00F48002204E00478002C05
:104B500000D02018521C9342F8D10278002A08D0C5
:104B6000086000788A88824200D98880012030BCA1
:104B700070470020FBE70000500200409054000006
:104B8000A2540000E654000070B41E481D4C00788A
:104B9000083CC006C00E0AD01A4B210018394D78C7
:104BA0001B79194A012806D0022829D10AE01548A4
:104BB0001C38206021E0002D22D0887883421FD24B
:104BC000002016E08F200340180605D51E07360F7B
:104BD00001200004B04001E001209840002D01D1E7
:104BE0001B070DD18B6803420AD0C9680142E7D088
:104BF00001201070000A50702260012070BC7047C4
:104C00000020FBE7500200408804004070B502001D
:104C10002548264C037801004988DB06DB0E04D0CA
:104C2000012B2BD0022B29D111E0012926D10225FD
:104C3000002A05D00120FFF780FCA088284304E06B
:104C40000020FFF77AFCA088A843A08029E0007923
:104C50008F231840030605D503071B0F01252D04DC
:104C60009D4001E0012585406378002B06D00307B5
:104C700004D0A3682B4201D0002903D0002070BCCF
:104C800008BC1847002A04D0FFF7A7FCE0682843B7
:104C900006E02169294204D1FFF7A9FCE068A84396
:104CA000E0600120EBE700005002004030020040CD
:104CB000F8B5544F002000903878C006C00E74D16B
:104CC000B8783E00203E002871D04F4C69E06078F3
:104CD000022804D0042843D0052860D143E061793C
:104CE000B878814237D1707021790020B170454980
:104CF0000C3900220A54401C0428FAD30125012053
:104D0000B168A840084202D02800FFF752FC0120F9
:104D10000004B168A840084204D02800802108435C
:104D2000FFF747FC6D1C102DE9D338483500B06003
:104D30000020F06030610120FFF700FCE0794006C0
:104D400004D5A98801200143A98028E0A88840084B
:104D50004000A88023E0E078A178000208431FE02B
:104D6000E07800901BE00098002818D1A5788F20EB
:104D70000540280605D52907090F012000048840B1
:104D800001E00120A840B16801432000B160FFF7B5
:104D9000EBFB2800FFF703FC2800FFF714FC20784A
:104DA00004192078002892D122E025E0FFE70020B6
:104DB0000124250070702800B168A040084202D08C
:104DC0002000FFF7F6FB01200004B168A040084274
:104DD00004D0200080210843FFF7EBFB641C102C5B
:104DE000E9D30A48B0600020F0603061FFF7A6FB0D
:104DF000B8787178884203D00020F8BC08BC184706
:104E00000120FAE750020040A25400000100010016
:104E1000F0B5002789B03F480597009700783E001D
:104E2000C006C00E012804D0002009B0F0BC08BCA8
:104E30001847384D203D68780028F6D00020364CC1
:104E4000079061E06078022804D004280BD0052880
:104E500058D11BE060796978884253D0E078A17816
:104E6000000208434FE0A778E67800200090294828
:104E70000179B94246D18078B04243D101200790F0
:104E800024480C38C15D0591C6553BE021480179A5
:104E9000B94237D1A1788F2211400691090605D574
:104EA00006990A07120F0121090401E0069A01215F
:104EB000914001918078B04214D1A8680843A8605D
:104EC000E968019881432000E960FFF74DFB0698EF
:104ED000FFF765FB0698FFF776FB684603C80843B3
:104EE00000900FE0059886420CD10098084209D145
:104EF000A8688843A860E96801988143E96006983A
:104F0000FFF757FB20780419207800289AD10798DA
:104F10008BE7000050020040A25400000FB410B50F
:104F2000044B054A029803A900F036F810BC08BCEF
:104F300004B01847F12800005001004010471847FE
:104F4000304700007847C04601C05EE50C0053E1E1
:104F50000C30DE270330DE3783C08EE01CFF2FE1EC
:104F6000020000EA043090E4042042E2043081E4CC
:104F7000000052E3FAFFFF1A1EFF2FE11EFF2FE190
:104F80000000A0E3000052E3042042120400811458
:104F9000FBFFFF1A1EFF2FE1FFB50F0005000026E3
:104FA00091B0FBE0252876D10024FA4A6D1C01213E
:104FB000009402942B780800203B98400300134291
:104FC00002D004436D1CF5E728782A280ED0022170
:104FD00028780200303A092A15D8009A0A235A4341
:104FE000303A80180C436D1C0090F1E701CF002887
:104FF000009005DA012040030443009840420090ED
:10500000022004436D1C28782E2815D10420044367
:105010006D1C28782A280AD101CF6D1C02900BE064
:1050200002990A225143303940186D1C02902878A9
:10503000010030390929F3D928786C2810D006DC12
:105040004C281AD068280ED06A2817D104E074289A
:1050500013D07A2812D110E00120400504430CE05F
:105060000121090501E0032109050C43697881420A
:1050700003D101206D1C000524186D1C28786E28B2
:10508000039020D00DDC632834D005DC00287DD0CF
:10509000582812D1C4E010E0642801D069280CD14E
:1050A00085E0732830D004DC6F2870D0702804D1DC
:1050B000B8E075286CD078286BD013A906C9FFF723
:1050C0003DFF761C69E06002400F022807D00328EC
:1050D0000AD0042838680AD03F1D06605DE001CF81
:1050E000F1170660416058E001CF068055E03F1D92
:1050F000067052E0387869463F1D087400204874F5
:1051000004A80390012003E001CF03900020C043D6
:1051100061070FD5002101E00199491C029A019114
:10512000914213DA8142F7DB019A0399895C0029E5
:10513000F2D10BE0002101E00199491C814201916B
:10514000FADB019A0399895C0029F5D1684603C806
:1051500013AA401A00900CCA210000F054F90199DA
:105160008019461808E0039803990078491C0391B8
:1051700013A906C9FFF7E2FE0198401E0190401CEA
:10518000F1D113AA0CCA0098210003E00AE052E012
:1051900044E045E000F024F986196D1C28780028C9
:1051A00000D0FFE6300015B0F0BC08BC18470A205C
:1051B000002104AA03C26002410F022905D001CFD9
:1051C000C2170329944607D00AE0FF1DFF08FF001D
:1051D000380003C8083708E000040014C2179446DA
:1051E000042903D100060016C1178C4600229445FD
:1051F000614606DA0A000021404291418C462D2189
:1052000002E0210504D52B216A461176012103E035
:10521000E10701D02021F7E7019152E00A200BE0DD
:10522000102009E01020002104AA03C20420044336
:105230000820029003E008200021059104906002FC
:10524000410F022905D001CF00220329944608D03E
:1052500009E0FF1DFF08FF00380003C808378C462F
:1052600005E00004000C042901D10006000E002115
:105270000191210725D5039970292AD004AA0CCAC7
:1052800010214A401A4309D16146014306D030211A
:105290006A461176039951760221019104AA0CCA3B
:1052A00008214A401A430CD16146014301D16107EC
:1052B00007D530216A461176012101910299491ED4
:1052C00002910399582909D033A103910FA90F9195
:1052D00012E040216A4611760121DEE733A1F4E7AE
:1052E00004AA0CCA6146FFF7F9FA039B8C469B5C43
:1052F0000F9A521E0F92137061460143F0D10F981E
:1053000007A9081A20300390600704D50120000483
:105310008443029801E0012002900399884201DD54
:10532000401A00E0002041180290019809180098E6
:10533000401A0090E00306D413AA0CCA009821007A
:1053400000F061F88619002009E0049906A8405C85
:1053500013A906C9FFF7F2FD0498761C401C0199B9
:1053600004908842F1DBE0030DD513AA0CCA009823
:10537000210000F048F8861905E013A906C930207D
:10538000FFF7DCFD761C0299481E00290290F4DC30
:1053900020E000000928010030313233343536373F
:1053A0003839616263646566000000003031323371
:1053B0003435363738394142434445460000000011
:1053C0000F980F990078491C0F9113A906C9FFF790
:1053D000B5FD761C0399481E00290390F0DCD0E649
:1053E000F8B51E00170004000025880405D406E067
:1053F00039002020FFF7A4FD6D1C641EF8D528009D
:10540000F8BC08BC1847FFB51E0004000025C803FF
:1054100081B001D5302700E02027880405D506E0BB
:1054200003993800FFF78CFD6D1C641EF8D5280029
:1054300005B0F0BC08BC1847FFFFFE0205FA0000EB
:1054400003FFFD000200000000000000010000005A
:10545000EB4100007B3F0000953F00000000000092
:10546000000000000000000000000000000000003C
:10547000000000000000000000000000000000002C
:10548000000000000000000000000000000000001C
:105490001201000202000040291E0804000101025E
:1054A00003010902430002010080320904000001E7
:1054B0000202010005240010010524010301042457
:1054C00002020524060001070581034000020904C9
:1054D0000100020A00010007050202400000070562
:1054E0008202400000000403090412035200450038
:1054F0004300200047006D00620048001A0352007C
:105500006F0062006F00740069006E006F00200081
:10551000410072006D001A0330003000300030008E
:1055200030003100300030003000300030003000FA
:105530000A03560043004F004D0000005C55000078
:105540000001004058010000B4490000AC550000C3
:1055500058020040B0070000804F000097270190DC
:1055600086015A14D0025A1A18109A6C14411D2739
:1055700001CC121B811ADF1F1A7904DA34270114B7
:105580001301012304031B04010422040313150562
:10559000B30C07021E02032E3006032527080B1842
:0C55A0000F09C23143802509244B410053
:040000050000219442
:00000001FF
