:020000040000FA
:1000000018F09FE518F09FE518F09FE518F09FE5C0
:1000100018F09FE50000A0E120F11FE518F09FE532
:1000200058000000400000004400000048000000AC
:100030004C000000000000005000000054000000D0
:10004000FEFFFFEAFEFFFFEAFEFFFFEAFEFFFFEA18
:10005000FEFFFFEAFEFFFFEAFC009FE5AA10A0E317
:100060005520A0E32030A0E3A03180E5A03190E549
:10007000403013E2FCFFFF0A0130A0E30C3180E5C1
:100080000B30A0E3843080E58C1080E58C2080E587
:100090000130A0E3803080E58C1080E58C2080E585
:1000A000883090E5013313E2FCFFFF0A883090E5C9
:1000B000A8409FE5043003E00B40A0E3043033E0A8
:1000C000F9FFFF1A0530A0E3043180E50530A0E315
:1000D000083180E50030A0E3A83180E50030A0E3DE
:1000E000AC3180E50330A0E3803080E58C1080E502
:1000F0008C2080E560009FE50410A0E3041080E5FB
:100100000210A0E3001080E554009FE5DBF021E33E
:1001100000D0A0E1000040E2D7F021E300D0A0E150
:10012000000040E2D1F021E300D0A0E1000040E275
:10013000D2F021E300D0A0E1010C40E2D3F021E3B2
:1001400000D0A0E1080040E210F021E300D0A0E1DF
:1001500001AB4DE20C009FE510FF2FE100C01FE056
:10016000FF7FFF00E80D00406C010000000000EB85
:10017000440000EB2C008FE2000C90E800A08AE025
:1001800000B08BE001704AE20B005AE10000001A57
:100190003C0000EB0F00BAE818E04FE2010013E367
:1001A00003F0471013FF2FE1A41D0000C41D000041
:1001B000102052E27800B0287800A128FBFFFF8AC7
:1001C000822EB0E13000B0283000A12800409045D8
:1001D000004081451EFF2FE101C08FE21CFF2FE18F
:1001E0001FB5059886460FBC009C02B0704770474B
:1001F000704770471EFF2FE1004700004433221173
:1002000000C09FE51CFF2FE13103000000C09FE507
:100210001CFF2FE16303000000C09FE51CFF2FE1DE
:100220008F03000000C09FE51CFF2FE117090000AD
:1002300000C09FE51CFF2FE18D03000000C09FE57B
:100240001CFF2FE11F09000001C08FE21CFF2FE1FE
:1002500030B47546AE4630BC704700000030B0E3A5
:100260000040B0E30050B0E30060B0E3102052E281
:100270007800A128FCFFFF8A822EB0E13000A1287F
:10028000003081451EFF2FE1700500EB0210A0E158
:10029000D0FFFFEB1CC09FE50FC08CE001001CE30A
:1002A0000DE08F120FE0A0011CFF2FE101C08FE2D3
:1002B0001CFF2FE101F0FCFAE91100007847C0466D
:1002C00003002DE9DFFFFFEB0300BDE87D0500EB38
:1002D0000C009FE50C109FE504209FE508309FE58A
:1002E0001EFF2FE1E0080040E00C0040E008004065
:1002F0000FC08FE21CFF2FE101000007C00E0906AE
:1003000000D5401C7047A44910228A600861086823
:10031000C006FCD57047A04A102393601061106896
:10032000C006FCD5936011611068C006FCD570470B
:10033000994930228A60086108688006FCD54869BE
:100340007047010430B59548954D01430C002800D5
:10035000FFF7E1FF21002800FFF7DDFF30BC08BCFC
:1003600018478D480021403081604021C160012242
:100370008260C16088480168C905FCD50021C94375
:100380008163416381600C21416070477047704711
:10039000844800B541680F2292069143416041684C
:1003A0000522920611434160C16830229143C16029
:1003B000C16810221143C160016903229204914374
:1003C000016101690122920411430161764841688B
:1003D0004206114341607549122048638B6B02004D
:1003E0009A43FBD17248734988617349012088613F
:1003F000724980050861FFF7B4FF0020FFF7A1FFF5
:1004000008BC1847002800D001200104FF316C48C7
:10041000013180E7704700B5002800D001200104B9
:10042000FF3168480131FFF776FF5B490320403117
:10043000486059480168C905FCD5FF210131816038
:10044000DEE710B502008078FFF756FF52494031D1
:100450004B680124844023434B60886050791279B3
:1004600000021043C8604C480168C905FCD5FF2153
:100470000131816010BC08BC1847704700B5FFF718
:100480003BFF5149000408438913FFF744FFB7E7D6
:1004900000B5FFF731FF4C49000408434B49FFF713
:1004A0003AFFADE700B5FFF727FF474900040843CF
:1004B0008913FFF730FFA3E700B5FFF71DFF42499F
:1004C000000408434249FFF726FF99E700B5FFF70C
:1004D00013FF3D49000408438913FFF71CFF8FE712
:1004E000F3B581B001980E000007810E2A48491C1F
:1004F0008162016A0A05FCD58C05A40D0025E11C6A
:100500008F0806E024488069310001F08FF9361D1C
:100510006D1CAF42F6D820480021816201982D4918
:10052000C140C8070BD10198FFF7E6FE0521000482
:1005300009024018FFF7E7FE2748FFF7E4FE200016
:10054000FEBC08BC1847F7B500980E000007810EE6
:1005500011481400891C816242620025D01C870862
:1005600006E0300001F050F90B49C861361D6D1CE2
:10057000AF42F6D80848002181620098FFF7BCFE20
:100580000521000409024018FFF7BDFE1348FFF7DC
:10059000BAFE2000D4E7000000C2E0FF00018000A6
:1005A0000005D00000C002E0C0C01FE0C0CFE0FFE7
:1005B000E005000040F1FFFF40F2FFFF00F0FFFF09
:1005C0000005FE000005D8000005400000012000E5
:1005D00000010100481200000005F2000005FA00C9
:1005E000FF502DE918519FE5003295E5083285E569
:1005F000080013E31400000A08019FE53BFFFFEB2E
:1006000004019FE5FDFEFFEB100010E30200000A6D
:10061000FDFEFFEBB80000EB250000EA020010E34E
:100620002300001A080010E30700000A040010E38A
:100630000200000AF7FEFFEBF9FEFFEB1C0000EAE8
:10064000FAFEFFEBFCFEFFEB190000EA040013E3E7
:10065000B8609F150040A0130170A0131400000A99
:10066000300295E51714A0E1010010E1A400A011EB
:10067000381285150B00000A001295E5200011E3E1
:10068000FCFFFF0A141295E5010014E30C00000AB8
:10069000001196E7000051E30300A0130100000AD7
:1006A0000FE0A0E111FF2FE1014084E2200054E3BC
:1006B000EAFFFF3A0000A0E3000100E5FF50BDE8BB
:1006C00004F05EE2000054E30800001A040011E3A5
:1006D00000109615000051130400000A0100A0E369
:1006E0000FE0A0E111FF2FE10140A0E3DBFFFFEAF3
:1006F000001196E7000051E30200A013E9FFFF0A92
:10070000E6FFFFEA00C0E0FF0005FE000002FE0079
:10071000E41D0000764801218180002202707549A5
:100720004270083006C07047714910B51C31002076
:10073000FFF7D6FE10BC08BC184710B56C4C14343B
:10074000A288402A00D9402221688020FFF7FBFEC2
:10075000216809182160A188081AA080EAE710B56D
:10076000634C002014342168FFF7BAFE2168091891
:100770002160A188081AA080DCE7002210B51100D2
:100780008020FFF7E0FED5E710B55B490020FFF7BA
:10079000A7FECFE7F8B5564C554D14342600083661
:1007A00031780027030001F097FA084605808E464D
:1007B000469E9C46FFF7B8FF3078C009FFF75DFE04
:1007C000F088A08030784106890F02D0012967D1D6
:1007D0004CE071780B0001F07FFA0C070A630C63A0
:1007E00010181B1D2331406301F0BEF868E00020A3
:1007F00000E0012001F0FEF835E0C006C00E4FD148
:10080000B07880210843287040E001F067F857E095
:10081000002046E0C006C00E42D13548401C3DE0F5
:10082000C006C00E3CD101F033F9002838D0FFF7E4
:10083000A4FF00F078F8F8BC08BC1847C006C00E4A
:1008400001282DD1687800282AD03079A9788842EB
:1008500026D227491031401820E0C006C00E0128DA
:100860001ED101F0B9F900281AD00FE0C006C00E61
:10087000012815D13079002812D17078FE2808D0CF
:10088000FF280DD100F068F8002809D0FFF775FFA8
:10089000D1E700F069F8002802D01748206014E082
:1008A0008020FFF709FEA780C5E7C80902D0FFF73F
:1008B0006BFFC0E7A0880028BDD0FFF750FFA088DD
:1008C0000028EDD0B7E7C80902D0FFF736FFB2E73E
:1008D00028780106AFD54006400E2870FFF731FD9D
:1008E000A9E7802000E00020FFF7F0FDA3E700006B
:1008F00000000040010001005400004001C08FE2F0
:100900001CFF2FE110B5FFF705FF11491020C8614A
:1009100010BC08BC18470E492020886170470C495C
:100920002020C86170470B48102102780848002A2F
:1009300001D081617047C161704710B5022804D0B1
:100940000328E5D100F095FBE2E700F0AFFBDFE71D
:1009500080C0FF3F01000040F9490320C861F94908
:100960000020087001207047F7490020087001201E
:100970007047F0B4F54CF64DA668002340E0012224
:100980005202904222D213280CD0142811D0C21F38
:10099000FF3AF83A16D0012A16D01D282BD8ED4A76
:1009A000125C29E0EC4AA768D26ED21B5219520A97
:1009B00005E0E94AA768D26ED21B5219520C120602
:1009C000120E19E0552217E0AA2215E00122D202E8
:1009D000904205D2E14A1218FF3AFF3A023A08E083
:1009E000DF4AE04F1268BA4205D101223718D2021D
:1009F000BA1A127800E00022DB4F401CFA545B1C4C
:100A00008B42BCD3F0BC7047F8B5CE4DEC68402C9F
:100A100000D94024D048CE49C26ECC488068121A12
:100A2000A86853180619B34203D2121A54180421A5
:100A300029702100FFF79DFFCB4922008220FFF79C
:100A400082FDA8680019A860E868061BC648EE6029
:100A5000A730070000F0D8FE001B390000F0E6FECA
:100A6000002E0CD02878022806D0B5490120C86194
:100A7000BD4900209F310873F8BC08BC184703200B
:100A80002870F2E7B84910B5B8489F3100F0CEFEA3
:100A9000B5490D229F318220FFF755FDA949052058
:100AA000087010BC08BC1847F8B50500A7480E0030
:100AB0008268012040028542DED3810001208D4200
:100AC00026D2A94F002440371FE0A44A29198A18CA
:100AD000385DFF3AFF3A023AE528107014D1A04879
:100AE000A34A0368934202D0A24883420CD131202A
:100AF0004001814208D193480069002804D100F0E8
:100B0000A5FC904901200861641CB442DDD3B3E721
:100B1000994B1860994B002018605019401A92495F
:100B20003200403100F03CFCA6E7F8B58A48854C1D
:100B3000C16E86486578826885488A1AA16813184C
:100B40004D19AB4207D2511A081860700520207069
:100B50000220FFF7B1FC6178A068FFF7A5FF657878
:100B6000A0684019A060E068461B7F48E660A73097
:100B7000070000F049FE401B390000F057FE002E30
:100B800002D02078052812D17B4C2068002804D0A0
:100B90007A490120086000F064FD0020684A0221C3
:100BA0002060D16170499F310873FFF76BFF63E7E5
:100BB000F8B56948634CC16E6448657882686448DA
:100BC000891AA2680B185519AB4207D2891A08185E
:100BD0006070052020700220FFF76EFC624F00203D
:100BE0003A006578A168403208E00B18FB5C165C9F
:100BF000B34202D00020606002E0401CA842F4D35F
:100C00004819A060E068461B5748E660A730070017
:100C100000F0FAFD401B390000F008FE002E02D063
:100C20002078052808D16068002806D000204E49A9
:100C30009F310873FFF726FF1EE70120F7E74A48B8
:100C400010B58030427C017DC37C12061143827C4A
:100C50001B0212041A4311433A4A49029160817DF2
:100C6000C07D0902014340484C028830D46000F046
:100C7000CBFDA0420DD08220FFF71EFC0220FFF723
:100C80001BFC394902209F310873FFF7FBFE00204F
:100C900007E7012005E770B53348883000F0B4FD60
:100CA000314D02249F35002807D028001F38007BD3
:100CB000000609D40220FFF7FFFB2C73FFF7E2FECA
:100CC000002070BC08BC18470120FAE770B5264820
:100CD000883000F099FD1B4C6178884200D260702A
:100CE0002149627840318220FFF72DFC03202070DB
:100CF0001D48A730050000F087FD6178401A2900E3
:100D000000F094FD184900209F310873D9E7164878
:100D100010B5883000F078FD002809D012488030E6
:100D2000007B000601D5822000E00220FFF7C4FB13
:100D30000D4900209F310873FFF7A4FEB1E60000C3
:100D400080C0FF3F2400004054000040241E0000EB
:100D500001080000F41C0000A41E000094000040E4
:100D6000FC010000443322119406004055534253C5
:100D70002143658765872143380000403C000040DF
:100D800010B5FFF788FF00281DD0DB4870210170E7
:100D90000021022241708270C170017141710A22EA
:100DA0008171C2710172417281723022C17202730B
:100DB000012242738173C17301744174CF491220BF
:100DC0004870FFF783FF6CE610B5FFF764FF00285B
:100DD0003ED0C948002280230270437001218270F6
:100DE000C1702021017143718271C2714B22027264
:100DF0006522427269226C238272C372017341734D
:100E000081734C23C173037450234374432383744D
:100E10003223C374332303755823437583754423E6
:100E2000C17503764276732282766B22C276017791
:100E300041778177C1773122203002702E224270B3
:100E400030228270C170AD4924204870FFF73EFF08
:100E500027E610B5FFF71FFF00280BD0A648032197
:100E60000170002141708170C170A4490420487054
:100E7000FFF72CFF15E610B5FFF70DFF00280FD088
:100E80009D4800210622017042708170C17001717D
:100E900041718171C171994908204870FFF716FFAF
:100EA000FFE510B5FFF7F7FE00281BD09448C16E90
:100EB00094488068091A94480818410A8E48491EC7
:100EC0000A0E02700A0C42700A0A8270C170002178
:100ED0000171022241718271C171884908204870F4
:100EE000FFF7F4FEDDE510B5FFF7D5FE00281ED0B4
:100EF000814800210170417008228170C270804ACF
:100F00000171D36E7F4A92689B1A7F4A9A18530EDA
:100F10004371530C520A8371C271022202724172F0
:100F20008272C17275490C204870FFF7CFFEB8E598
:100F3000F8B5724D704C002168786F4A403402E079
:100F4000535C6354491C03008142F9D31F2B74D1B5
:100F50006948403000F058FC6C4988426DD1201D32
:100F600000F052FC644E5F36311D00F05FFC300033
:100F7000173800F049FC3100083100F057FC607B65
:100F8000002804D1A07B002801D0102802D901201C
:100F9000307356E0E07B1E28F9D010DC122832D0E6
:100FA00006DC00282CD00328F1D1FFF7E9FE63E529
:100FB0001528ECD01A28EAD1FFF74BFF5CE5022791
:100FC0002A282BD013DC232820D0252821D028281C
:100FD000DDD1FFF734FE0028E9D0207B00061BD5C9
:100FE0004B49012088612F70FFF70EFD44E52F2843
:100FF0002AD05528CBD05A28C9D1FFF73CFF3BE572
:10100000FFF785FE38E5FFF7DFFE35E5FFF76BFFFD
:1010100032E5FFF746FF2FE502200FE0FFF70FFE56
:101020000028C4D0207B000619D43A49002008606B
:1010300037488761012028701EE512E0FFF73CFA6F
:101040003773FFF71FFD17E5FFF7F9FD0028AED056
:10105000207B000603D40120287068600CE5822004
:10106000ECE78220FFF728FA0220FFF725FA062096
:10107000E1E7224810B50178022908D003290ED0F3
:1010800004290FD0052901D10021017009E51A4872
:101090004030C07B2828F9D1FFF7B6FC01E5FFF707
:1010A000F1FCFEE48220FFF707FAF8E710B51249D9
:1010B0000220FFF715FA11494870087800280BD074
:1010C00001280CD00220FFF7F7F90B4902205F310D
:1010D0000873FFF7D7FCE4E4FFF72AFFE1E40648D2
:1010E0004030C07B2A2804D02F28F4D1FFF760FDC0
:1010F000D7E4FFF71AFDD4E4D406004024000040F2
:10110000A41E0000241E00000108000055534243A5
:1011100080C0FF3F3800004010B560A000F074FAB6
:101120000020FFF76FF9FFF71CF9002107204007A7
:10113000416003210160AA2181605521816010BCBA
:1011400008BC184710B500F042FB00F031FB5548D1
:101150000168022211430160F1E753490024534A18
:101160000C60F8201070FF2050705149514E907063
:10117000B668C96E504D0323891B18004D19AD0A7E
:1011800012E06A1E824201D14C4A00E0421C474EE6
:101190001701F0540605360F3743444E1209F6186E
:1011A000DB1C7770801CB2708542EAD8444F3F4BFD
:1011B0000020012292021E183D5CB618401C4028F7
:1011C0003570F8D33F48404E0568B5421ED03F4EBB
:1011D00005683F48B54201D13125C570394D3D4FB5
:1011E0002E68BE4201D13226C6702D683A4EB542F5
:1011F00001D13325C570394D04202E18203E1F180B
:10120000367FBF18401C0B283E70F6D33048491C6F
:1012100020300A0A017742770A0C090E8277C177DB
:10122000FFF7B6F80120FFF7EDF800F00FFA00F035
:1012300023FA2B4F2B4D2C4E286800280BD16868C1
:10124000002808D000F012FAB84204D927A000F014
:10125000DBF9FFF761FF69682868084308D100F0EF
:10126000FAF9B04204D924A000F0CEF9FFF754FFF8
:1012700000F007FA6428DFD900F0FEF900F0ADFABB
:10128000002807D000F06CFA641C142CD4D9FFF7A6
:1012900059FFD1E700F072FA0024CDE7526573657B
:1012A00074000000C0C01FE0340000409400004003
:1012B000A41E0000241E000001080000FF0F000013
:1012C000121D0000FC010000443322117856341234
:1012D000940400402143658765872143521D000027
:1012E000881300003800004060EA000046696E691B
:1012F0007368656400000000496E61637469766913
:10130000747900005B4A1047F8B55B4E346974612C
:101310005A4D33272F602F1D0EC72861391D280015
:10132000FFF7F0FF3461F8BC08BC184730B4534BEA
:1013300032241C601B1D07C330BC5048191DE1E757
:1013400030B44E4B34241C601B1D07C330BC4B48CB
:10135000191DD7E7F8B5484E07003569756148484B
:101360000224A20082588A4215D9454AA000803A38
:101370001058884209D121003A000800FFF7D6FF33
:1013800021003A000800FFF7DBFF21003A000800C7
:10139000FFF7CCFF02E0641C1B2CE2D93561C2E7E9
:1013A000F8B5384C8C466168002900D16060334E36
:1013B000A368002028361D0004E061460F5C291850
:1013C000401C77549042F8D39818FF260136B0425B
:1013D000A06017D1200003C8FFF7BCFF274D1435CC
:1013E0002868002800D0FEE7244A200003C8330004
:1013F0002832FFF789FF2868002800D0FEE7002088
:10140000A060606000208EE710B500F040F900F0A9
:1014100043F90A28FBD300F015F901204003FEF739
:10142000EBFE10BC08BC1847144810B5352101600C
:1014300002214160816001001431FFF763FF0F4812
:10144000143000680028ECD00120EAE710B50D4CFC
:101450001B2122680220FFF769FF22681B2102205E
:10146000FFF76EFF0548143000680028D9D0FEE76A
:10147000D7E70000F1FFFF7F00F0FFFF40070040CB
:10148000A41E000040000040F8B5334800252E009F
:10149000856200F0D1F800F08FF830A000F0B4F8C9
:1014A000334F3868334CC00710D033A000F0ACF88D
:1014B000266000F069F900281AD06D1C0A2000F09F
:1014C000F1F830A000F0A0F8322DF2DBFF203860F8
:1014D00030A000F099F800F0FBF831A000F094F88B
:1014E00000F057F900F079F9304D002827D107E0D6
:1014F00000250A2000F0D6F822A000F085F8D8E7F1
:101500002B482C490068884208D1FFF78DFF00283E
:1015100004D0686800F078F8FFF776FF2078C007FD
:101520000DD1FFF781FF002809D0686800F06CF842
:101530002068012108432060FFF766FF08E0286863
:1015400000F062F82068400840002060FFF705FEC8
:10155000F8BC08BC0020184700C002E05374617258
:1015600074757020626F6F746C6F616465720000D7
:1015700080C11FE0004008E0504F52207265736543
:1015800074210000436865636B20627574746F6E2C
:1015900000000000506F776572204F6E0000000061
:1015A00073657420707772206F6B00004C000040F0
:1015B000FC010000658721431D4810B50169022226
:1015C0001143016101690822114301611948052194
:1015D0008162816A8022114381628321C16004217A
:1015E0000160002141600321C16000F050F800F06B
:1015F00053F80A28FBD310BC08BC18470D494A69A8
:101600009206FCD50860704700B5002807D003009B
:1016100002E0FFF7F3FF5B1C18780028F9D10A20DD
:10162000FFF7ECFF0D20FFF7E9FF08BC18470000AB
:1016300000C002E0000001E01F48012141601F4995
:10164000C16070471C490020486070471A48806894
:101650001B49086070471848806819490968401A92
:10166000704715488068164948607047124880687E
:1016700013494968401A70470F4880681049C8608C
:1016800070470D4880680E49C968401A70470A487B
:1016900080680B49086170470748806808490969F4
:1016A000401A704700B50200FFF7F1FFFFF7F4FFA3
:1016B0009042FBD308BC1847004000E0DF2E00003A
:1016C0006808004048484168402211434160704723
:1016D00010B5454CA06840210843A060A06889016E
:1016E0000843A06061680120000401436160A168B3
:1016F0000143A1606169400201436161A169014345
:10170000A1616169801001436161A1690143A16127
:1017100036A0FFF779FF20690002C00F3030FFF7D5
:101720006DFF0A20FFF76AFF0D20FFF767FF33A068
:10173000FFF76AFF20698001C00F3030FFF75EFFBE
:101740000A20FFF75BFF0D20FFF758FFA06801217B
:1017500089060843A060FFF7B5FF10BC08BC184716
:1017600021484168012292061143416070471E489A
:10177000C168012292061143C16070471A4800688F
:10178000400100D5F3E7EBE7174800688001C00F80
:101790007047154841680122120311434160C26835
:1017A000012109040A43C26042680A43426070474B
:1017B0000D48C168012212031143C160C2680121B2
:1017C00009040A43C26042680A43426070470648FF
:1017D000C16840221143C160704703480068C001DE
:1017E000C017401C70470000008002E0506F776512
:1017F0007220427574746F6E3A0000005379735210
:10180000657365743A0000007847C0460120D0E552
:101810000010D0E50230D0E50300D0E5021481E1EC
:10182000031881E1000C81E11EFF2FE17847C046DB
:101830002024A0E10000C1E50120C1E52028A0E1AD
:101840000220C1E5202CA0E10320C1E51EFF2FE10D
:101850000E50A0E1180000EB05E0A0E10050B0E15F
:101860000D10A0E10A30A0E10700C0E300D0A0E124
:1018700060D08DE220402DE994FAFFEB2040BDE8D6
:101880000060A0E30070A0E30080A0E300B0A0E34C
:101890000710C1E305C0A0E1C009ACE8C009ACE88D
:1018A000C009ACE8C009ACE801D0A0E11EFF2FE1FF
:1018B0000400C046C0462000FEF700FD00009FE582
:1018C0001EFF2FE17C08004001C08FE21CFF2FE1CA
:1018D00001491820ABDFFEE72600020070B51E4864
:1018E0000178C078C906C90E33D11B4908390128CF
:1018F00006D0194A0228937806D0032829D11AE085
:101900001648086012201AE01548002208E0047802
:10191000002C04D0C478857824022C432018521C53
:101920009342F4D10278002A13D00860C2788378F9
:101930001002184303E00B481818086000788A88E2
:10194000824200D98880FEF7F8FE012070BC08BCF6
:1019500018470020FAE700001C000040591D000055
:101960006B1D00008C1D000070B520481F4C0078D6
:10197000083CC006C00E0AD01C4B210014394D781B
:101980001B791B4A012806D002282CD10AE01748EF
:101990001838206021E0002D25D08878834222D29B
:1019A000002016E08F200340180605D51E07360FCD
:1019B00001200004B04001E001209840002D01D139
:1019C0001B0710D18B6803420DD0C9680142E7D0D4
:1019D00001201070000A50702260FEF7AEFE012058
:1019E00070BC08BC18470020FAE700001C0000404B
:1019F0005400004070B502002348244C03780100D5
:101A00004988DB06DB0E04D0012B2BD0022B29D119
:101A100011E0012926D10225002A05D00120FEF778
:101A2000F9FCA088284304E00020FEF7F3FCA0881E
:101A3000A843A08026E000798F231840030605D52F
:101A400003071B0F01252D049D4001E00125854062
:101A50006378002B06D0030704D0A3682B4201D083
:101A6000002903D0002070BC08BC1847002A04D00D
:101A7000FEF722FDE068284303E0FEF727FDE0685B
:101A8000A843E0600120EEE71C0000400000004099
:101A9000F8B54E4FB8783E001C3E00286CD04C4C38
:101AA00066E06078022804D0042840D005285DD183
:101AB00040E06179B878814234D17070217900209A
:101AC000B17042490C3900220A54401C0428FAD350
:101AD00001250120B168A840084202D02800FEF785
:101AE000D7FC01200004B168A840084204D02800B7
:101AF00080210843FEF7CCFC6D1C102DE9D335483E
:101B00003500B0600020F0600120FEF784FCE07931
:101B10004006A88802D50121084301E040084000A2
:101B2000A88023E0E078A178000208431FE0E07875
:101B300000901BE00098002818D1A5788F20054060
:101B4000280605D52907090F01200004884001E077
:101B50000120A840B16801432000B160FEF771FC8C
:101B60002800FEF78BFC2800FEF79CFC2078041967
:101B70002078002895D11FE00020012425007070F6
:101B80002800B168A040084202D02000FEF780FC87
:101B900001200004B168A040084204D02000802148
:101BA0000843FEF775FC641C102CE9D30948B060AB
:101BB0000020F060FEF72FFCB8787178884203D1DE
:101BC0000120F8BC08BC18470020FAE71C000040C0
:101BD0006B1D000001000100F0B53D4D89B0687833
:101BE000002870D000272E003A4C1C3667E0607841
:101BF000022804D004280BD005285ED11EE06079AD
:101C00006978884259D0E078A1780002084355E00D
:101C1000A178E27800200391029200903079884206
:101C20004BD1B178914248D1294803991030415C99
:101C3000012705911100039A81543EE03179039800
:101C400081423AD1A0788F2108400690000605D540
:101C500006980107090F0120000401E00699012000
:101C600088400190B1780298814215D1A868019905
:101C70000843A860E968019881432000E960FEF705
:101C8000E0FB0698FEF7FAFB0698FEF70BFC6846A9
:101C900003C80843009010E0059988420DD16846BA
:101CA00003C8084209D1A96801988143A960E9687D
:101CB0008143E9600698FEF7EBFB20780419207851
:101CC000002894D1380009B0F0BC08BC18470000C7
:101CD000000000406B1D00007847C04601C05EE573
:101CE0000C0053E10C30DE270330DE3783C08EE07A
:101CF0001CFF2FE1EB3C904D53444F53352E3000E9
:101D000002020100011000EC03F8020001000100D2
:101D100000004352502044495341424C44280000A3
:101D200000000000000000000000000000000000B3
:101D300000004649524D5741524542494E2018BC79
:101D400041973738373800003D6E2B38020000D0FD
:101D5000070020454E41424C441201100100000092
:101D600040291E0E04100104203E0109022000013A
:101D7000010080320904000002080650480705826D
:101D800002400000070502024000000004030904AD
:101D90001C034B00650069006C00200053006F00BD
:101DA0006600740077006100720065001E03550034
:101DB00053004200200042006F006F0074006C006E
:101DC000610061006400650072000A0330003000A9
:101DD000300031000E034D0065006D006F00720091
:101DE0007900000095070000000000003B0900009A
:101DF00000000000000000000000000000000000E3
:101E000000000000000000000000000000000000D2
:101E100000000000000000000000000000000000C2
:101E20000000000000000000001000000020000082
:101E30000030000000400000005000000060000082
:101E40000070000000800000000001000080010020
:101E50000000020000800200000003000080030078
:101E60000000040000800400000005000080050060
:101E70000000060000800600000007000080070048
:101E80000090070000A0070000B0070000C0070096
:101E900000D00700FFFFFFFFFFFFFFFFFFFFFFFF77
:101EA000FFFFFFFFFF0F0000FF1F0000FF2F0000DC
:101EB000FF3F0000FF4F0000FF5F0000FF6F0000CA
:101EC000FF7F0000FFFF0000FF7F0100FFFF010018
:101ED000FF7F0200FFFF0200FF7F0300FFFF030000
:101EE000FF7F0400FFFF0400FF7F0500FFFF0500E8
:101EF000FF7F0600FFFF0600FF7F0700FF8F070040
:101F0000FF9F0700FFAF0700FFBF0700FFCF0700DD
:101F1000FFDF0700FFFFFFFFFFFFFFFFFFFFFFFFE8
:101F2000FFFFFFFF5374617274696E6720757365FC
:101F3000722061707000456E746572696E67206210
:101F40006F6F746C6F616465720000006C1F00003D
:101F50000000004054000000B0010000C01F00005D
:101F600054000040940D00005C02000000000000DE
:101F70000000000000000000000000000000000061
:101F80000000000000000000000000000000000051
:101F90000000000000000000000000000000000041
:101FA00000000000000000000000000060EA0000E7
:101FB0000000000000000000361F0000241F000089
:040000050000016C8A
:00000001FF
