:020000040000FA
:2000000018F09FE518F09FE518F09FE518F09FE518F09FE50000A0E120F11FE518F09FE502
:20002000580000004000000044000000480000004C000000000000005000000054000000AC
:20004000FEFFFFEAFEFFFFEAFEFFFFEAFEFFFFEAFEFFFFEAFEFFFFEAFC009FE5AA10A0E37F
:200060005520A0E32030A0E3A03180E5A03190E5403013E2FCFFFF0A0130A0E30C3180E57A
:200080000B30A0E3843080E58C1080E58C2080E50130A0E3803080E58C1080E58C2080E59C
:2000A000883090E5013313E2FCFFFF0A883090E5A8409FE5043003E00B40A0E3043033E021
:2000C000F9FFFF1A0530A0E3043180E50530A0E3083180E50030A0E3A83180E50030A0E3C3
:2000E000AC3180E50330A0E3803080E58C1080E58C2080E560009FE50410A0E3041080E5ED
:200100000210A0E3001080E554009FE5DBF021E300D0A0E1000040E2D7F021E300D0A0E19F
:20012000000040E2D1F021E300D0A0E1000040E2D2F021E300D0A0E1010C40E2D3F021E358
:2001400000D0A0E1080040E210F021E300D0A0E101AB4DE20C009FE510FF2FE100C01FE086
:20016000FF7FFF00E80D00406C010000000000EB440000EB2C008FE2000C90E800A08AE01B
:2001800000B08BE001704AE20B005AE10000001A3C0000EB0F00BAE818E04FE2010013E34F
:2001A00003F0471013FF2FE1A41D0000C41D0000102052E27800B0287800A128FBFFFF8AB9
:2001C000822EB0E13000B0283000A12800409045004081451EFF2FE101C08FE21CFF2FE138
:2001E0001FB5059886460FBC009C02B070477047704770471EFF2FE10047000044332211AF
:2002000000C09FE51CFF2FE13103000000C09FE51CFF2FE16303000000C09FE51CFF2FE1F7
:200220008F03000000C09FE51CFF2FE11709000000C09FE51CFF2FE18D03000000C09FE55A
:200240001CFF2FE11F09000001C08FE21CFF2FE130B47546AE4630BC704700000030B0E3F5
:200260000040B0E30050B0E30060B0E3102052E27800A128FCFFFF8A822EB0E13000A12872
:20028000003081451EFF2FE1700500EB0210A0E1D0FFFFEB1CC09FE50FC08CE001001CE3F4
:2002A0000DE08F120FE0A0011CFF2FE101C08FE21CFF2FE101F0FCFAE91100007847C046F2
:2002C00003002DE9DFFFFFEB0300BDE87D0500EB0C009FE50C109FE504209FE508309FE594
:2002E0001EFF2FE1E0080040E00C0040E00800400FC08FE21CFF2FE101000007C00E090605
:2003000000D5401C7047A44910228A6008610868C006FCD57047A04A1023936010611068CC
:20032000C006FCD5936011611068C006FCD57047994930228A60086108688006FCD54869FC
:200340007047010430B59548954D01430C002800FFF7E1FF21002800FFF7DDFF30BC08BC24
:2003600018478D480021403081604021C16001228260C16088480168C905FCD50021C9432A
:200380008163416381600C214160704770477047844800B541680F229206914341604168F0
:2003A0000522920611434160C16830229143C160C16810221143C160016903229204914350
:2003C000016101690122920411430161764841684206114341607549122048638B6B0200AB
:2003E0009A43FBD1724873498861734901208861724980050861FFF7B4FF0020FFF7A1FF27
:2004000008BC1847002800D001200104FF316C48013180E7704700B5002800D00120010494
:20042000FF3168480131FFF776FF5B4903204031486059480168C905FCD5FF210131816083
:20044000DEE710B502008078FFF756FF524940314B680124844023434B60886050791279D8
:2004600000021043C8604C480168C905FCD5FF210131816010BC08BC1847704700B5FFF7DF
:200480003BFF5149000408438913FFF744FFB7E700B5FFF731FF4C49000408434B49FFF77D
:2004A0003AFFADE700B5FFF727FF4749000408438913FFF730FFA3E700B5FFF71DFF424922
:2004C000000408434249FFF726FF99E700B5FFF713FF3D49000408438913FFF71CFF8FE7F2
:2004E000F3B581B001980E000007810E2A48491C8162016A0A05FCD58C05A40D0025E11C7D
:200500008F0806E024488069310001F08FF9361D6D1CAF42F6D820480021816201982D4949
:20052000C140C8070BD10198FFF7E6FE0521000409024018FFF7E7FE2748FFF7E4FE2000CD
:20054000FEBC08BC1847F7B500980E000007810E11481400891C816242620025D01C87089D
:2005600006E0300001F050F90B49C861361D6D1CAF42F6D80848002181620098FFF7BCFE77
:200580000521000409024018FFF7BDFE1348FFF7BAFE2000D4E7000000C2E0FF0001800017
:2005A0000005D00000C002E0C0C01FE0C0CFE0FFE005000040F1FFFF40F2FFFF00F0FFFFA5
:2005C0000005FE000005D800000540000001200000010100481200000005F2000005FA0083
:2005E000FF502DE918519FE5003295E5083285E5080013E31400000A08019FE53BFFFFEB8C
:2006000004019FE5FDFEFFEB100010E30200000AFDFEFFEBB80000EB250000EA020010E3D1
:200620002300001A080010E30700000A040010E30200000AF7FEFFEBF9FEFFEB1C0000EAA8
:20064000FAFEFFEBFCFEFFEB190000EA040013E3B8609F150040A0130170A0131400000AD6
:20066000300295E51714A0E1010010E1A400A011381285150B00000A001295E5200011E342
:20068000FCFFFF0A141295E5010014E30C00000A001196E7000051E30300A0130100000A25
:2006A0000FE0A0E111FF2FE1014084E2200054E3EAFFFF3A0000A0E3000100E5FF50BDE82D
:2006C00004F05EE2000054E30800001A040011E300109615000051130400000A0100A0E3E4
:2006E0000FE0A0E111FF2FE10140A0E3DBFFFFEA001196E7000051E30200A013E9FFFF0A7B
:20070000E6FFFFEA00C0E0FF0005FE000002FE00E41D000076480121818000220270754935
:200720004270083006C07047714910B51C310020FFF7D6FE10BC08BC184710B56C4C1434E8
:20074000A288402A00D9402221688020FFF7FBFE216809182160A188081AA080EAE710B586
:20076000634C002014342168FFF7BAFE216809182160A188081AA080DCE7002210B51100DA
:200780008020FFF7E0FED5E710B55B490020FFF7A7FECFE7F8B5564C554D143426000836B2
:2007A00031780027030001F097FA084605808E46469E9C46FFF7B8FF3078C009FFF75DFE08
:2007C000F088A08030784106890F02D0012967D14CE071780B0001F07FFA0C070A630C634D
:2007E00010181B1D2331406301F0BEF868E0002000E0012001F0FEF835E0C006C00E4FD1E2
:20080000B07880210843287040E001F067F857E0002046E0C006C00E42D13548401C3DE0A2
:20082000C006C00E3CD101F033F9002838D0FFF7A4FF00F078F8F8BC08BC1847C006C00E66
:2008400001282DD1687800282AD03079A978884226D227491031401820E0C006C00E01281D
:200860001ED101F0B9F900281AD00FE0C006C00E012815D13079002812D17078FE2808D0A8
:20088000FF280DD100F068F8002809D0FFF775FFD1E700F069F8002802D01748206014E0C2
:2008A0008020FFF709FEA780C5E7C80902D0FFF76BFFC0E7A0880028BDD0FFF750FFA088D4
:2008C0000028EDD0B7E7C80902D0FFF736FFB2E728780106AFD54006400E2870FFF731FDB3
:2008E000A9E7802000E00020FFF7F0FDA3E7000000000040010001005400004001C08FE253
:200900001CFF2FE110B5FFF705FF11491020C86110BC08BC18470E492020886170470C49BF
:200920002020C86170470B48102102780848002A01D081617047C161704710B5022804D019
:200940000328E5D100F095FBE2E700F0AFFBDFE780C0FF3F01000040F9490320C861F9497E
:200960000020087001207047F7490020087001207047F0B4F54CF64DA668002340E00122BB
:200980005202904222D213280CD0142811D0C21FFF3AF83A16D0012A16D01D282BD8ED4A47
:2009A000125C29E0EC4AA768D26ED21B5219520A05E0E94AA768D26ED21B5219520C120652
:2009C000120E19E0552217E0AA2215E00122D202904205D2E14A1218FF3AFF3A023A08E044
:2009E000DF4AE04F1268BA4205D101223718D202BA1A127800E00022DB4F401CFA545B1C62
:200A00008B42BCD3F0BC7047F8B5CE4DEC68402C00D94024D048CE49C26ECC488068121ACB
:200A2000A86853180619B34203D2121A5418042129702100FFF79DFFCB4922008220FFF77B
:200A400082FDA8680019A860E868061BC648EE60A730070000F0D8FE001B390000F0E6FE4D
:200A6000002E0CD02878022806D0B5490120C861BD4900209F310873F8BC08BC1847032019
:200A80002870F2E7B84910B5B8489F3100F0CEFEB5490D229F318220FFF755FDA949052095
:200AA000087010BC08BC1847F8B50500A7480E008268012040028542DED3810001208D42EA
:200AC00026D2A94F002440371FE0A44A29198A18385DFF3AFF3A023AE528107014D1A0481D
:200AE000A34A0368934202D0A24883420CD131204001814208D193480069002804D100F00C
:200B0000A5FC904901200861641CB442DDD3B3E7994B1860994B002018605019401A92499B
:200B20003200403100F03CFCA6E7F8B58A48854CC16E86486578826885488A1AA1681318A4
:200B40004D19AB4207D2511A08186070052020700220FFF7B1FC6178A068FFF7A5FF65783C
:200B6000A0684019A060E068461B7F48E660A730070000F049FE401B390000F057FE002E42
:200B800002D02078052812D17B4C2068002804D07A490120086000F064FD0020684A0221FE
:200BA0002060D16170499F310873FFF76BFF63E7F8B56948634CC16E64486578826864487A
:200BC000891AA2680B185519AB4207D2891A08186070052020700220FFF76EFC624F002076
:200BE0003A006578A168403208E00B18FB5C165CB34202D00020606002E0401CA842F4D3F9
:200C00004819A060E068461B5748E660A730070000F0FAFD401B390000F008FE002E02D096
:200C20002078052808D16068002806D000204E499F310873FFF726FF1EE70120F7E74A489D
:200C400010B58030427C017DC37C12061143827C1B0212041A4311433A4A49029160817D98
:200C6000C07D0902014340484C028830D46000F0CBFDA0420DD08220FFF71EFC0220FFF7E5
:200C80001BFC394902209F310873FFF7FBFE002007E7012005E770B53348883000F0B4FD4B
:200CA000314D02249F35002807D028001F38007B000609D40220FFF7FFFB2C73FFF7E2FE59
:200CC000002070BC08BC18470120FAE770B52648883000F099FD1B4C6178884200D2607026
:200CE0002149627840318220FFF72DFC032020701D48A730050000F087FD6178401A2900BA
:200D000000F094FD184900209F310873D9E7164810B5883000F078FD002809D0124880307B
:200D2000007B000601D5822000E00220FFF7C4FB0D4900209F310873FFF7A4FEB1E6000013
:200D400080C0FF3F2400004054000040241E000001080000F41C0000A41E0000940000402C
:200D6000FC0100004433221194060040555342532143658765872143380000403C00004021
:200D800010B5FFF788FF00281DD0DB48702101700021022241708270C170017141710A226E
:200DA0008171C2710172417281723022C1720273012242738173C17301744174CF49122087
:200DC0004870FFF783FF6CE610B5FFF764FF00283ED0C9480022802302704370012182702E
:200DE000C1702021017143718271C2714B2202726522427269226C238272C37201734173AE
:200E000081734C23C173037450234374432383743223C37433230375582343758375442351
:200E2000C17503764276732282766B22C276017741778177C1773122203002702E22427082
:200E400030228270C170AD4924204870FFF73EFF27E610B5FFF71FFF00280BD0A6480321FD
:200E60000170002141708170C170A44904204870FFF72CFF15E610B5FFF70DFF00280FD05A
:200E80009D4800210622017042708170C170017141718171C171994908204870FFF716FFCA
:200EA000FFE510B5FFF7F7FE00281BD09448C16E94488068091A94480818410A8E48491E15
:200EC0000A0E02700A0C42700A0A8270C17000210171022241718271C1718849082048704A
:200EE000FFF7F4FEDDE510B5FFF7D5FE00281ED0814800210170417008228170C270804A81
:200F00000171D36E7F4A92689B1A7F4A9A18530E4371530C520A8371C271022202724172E9
:200F20008272C17275490C204870FFF7CFFEB8E5F8B5724D704C002168786F4A403402E050
:200F4000535C6354491C03008142F9D31F2B74D16948403000F058FC6C4988426DD1201D46
:200F600000F052FC644E5F36311D00F05FFC3000173800F049FC3100083100F057FC607B17
:200F8000002804D1A07B002801D0102802D90120307356E0E07B1E28F9D010DC122832D0A1
:200FA00006DC00282CD00328F1D1FFF7E9FE63E51528ECD01A28EAD1FFF74BFF5CE5022779
:200FC0002A282BD013DC232820D0252821D02828DDD1FFF734FE0028E9D0207B00061BD5C4
:200FE0004B49012088612F70FFF70EFD44E52F282AD05528CBD05A28C9D1FFF73CFF3BE5B4
:20100000FFF785FE38E5FFF7DFFE35E5FFF76BFF32E5FFF746FF2FE502200FE0FFF70FFE73
:201020000028C4D0207B000619D43A490020086037488761012028701EE512E0FFF73CFA1A
:201040003773FFF71FFD17E5FFF7F9FD0028AED0207B000603D40120287068600CE58220BA
:20106000ECE78220FFF728FA0220FFF725FA0620E1E7224810B50178022908D003290ED009
:2010800004290FD0052901D10021017009E51A484030C07B2828F9D1FFF7B6FC01E5FFF719
:2010A000F1FCFEE48220FFF707FAF8E710B512490220FFF715FA11494870087800280BD00D
:2010C00001280CD00220FFF7F7F90B4902205F310873FFF7D7FCE4E4FFF72AFFE1E40648BF
:2010E0004030C07B2A2804D02F28F4D1FFF760FDD7E4FFF71AFDD4E4D406004024000040B2
:20110000A41E0000241E0000010800005553424380C0FF3F3800004010B560A000F074FA7C
:201120000020FFF76FF9FFF71CF9002107204007416003210160AA2181605521816010BCA2
:2011400008BC184710B500F042FB00F031FB55480168022211430160F1E753490024534A4A
:201160000C60F8201070FF2050705149514E9070B668C96E504D0323891B18004D19AD0A62
:2011800012E06A1E824201D14C4A00E0421C474E1701F0540605360F3743444E1209F618F5
:2011A000DB1C7770801CB2708542EAD8444F3F4B0020012292021E183D5CB618401C4028B5
:2011C0003570F8D33F48404E0568B5421ED03F4E05683F48B54201D13125C570394D3D4F51
:2011E0002E68BE4201D13226C6702D683A4EB54201D13325C570394D04202E18203E1F1801
:20120000367FBF18401C0B283E70F6D33048491C20300A0A017742770A0C090E8277C1776C
:20122000FFF7B6F80120FFF7EDF800F00FFA00F023FA2B4F2B4D2C4E286800280BD1686838
:20124000002808D000F012FAB84204D927A000F0DBF9FFF761FF69682868084308D100F065
:20126000FAF9B04204D924A000F0CEF9FFF754FF00F007FA6428DFD900F0FEF900F0ADFA35
:20128000002807D000F06CFA641C142CD4D9FFF759FFD1E700F072FA0024CDE752657365C3
:2012A00074000000C0C01FE03400004094000040A41E0000241E000001080000FF0F0000D8
:2012C000121D0000FC0100004433221178563412940400402143658765872143521D00003D
:2012E000881300003800004060EA000046696E697368656400000000496E61637469766930
:20130000747900005B4A1047F8B55B4E346974615A4D33272F602F1D0EC72861391D280064
:20132000FFF7F0FF3461F8BC08BC184730B4534B32241C601B1D07C330BC5048191DE1E784
:2013400030B44E4B34241C601B1D07C330BC4B48191DD7E7F8B5484E070035697561484879
:201360000224A20082588A4215D9454AA000803A1058884209D121003A000800FFF7D6FFEE
:2013800021003A000800FFF7DBFF21003A000800FFF7CCFF02E0641C1B2CE2D93561C2E753
:2013A000F8B5384C8C466168002900D16060334EA368002028361D0004E061460F5C291849
:2013C000401C77549042F8D39818FF260136B042A06017D1200003C8FFF7BCFF274D14350A
:2013E0002868002800D0FEE7244A200003C833002832FFF789FF2868002800D0FEE700208F
:20140000A060606000208EE710B500F040F900F043F90A28FBD300F015F901204003FEF706
:20142000EBFE10BC08BC1847144810B53521016002214160816001001431FFF763FF0F4862
:20144000143000680028ECD00120EAE710B50D4C1B2122680220FFF769FF22681B210220BE
:20146000FFF76EFF0548143000680028D9D0FEE7D7E70000F1FFFF7F00F0FFFF40070040B9
:20148000A41E000040000040F8B5334800252E00856200F0D1F800F08FF830A000F0B4F80C
:2014A000334F3868334CC00710D033A000F0ACF8266000F069F900281AD06D1C0A2000F0F0
:2014C000F1F830A000F0A0F8322DF2DBFF20386030A000F099F800F0FBF831A000F094F867
:2014E00000F057F900F079F9304D002827D107E000250A2000F0D6F822A000F085F8D8E7CB
:201500002B482C490068884208D1FFF78DFF002804D0686800F078F8FFF776FF2078C00760
:201520000DD1FFF781FF002809D0686800F06CF82068012108432060FFF766FF08E02868EA
:2015400000F062F82068400840002060FFF705FEF8BC08BC0020184700C002E05374617285
:2015600074757020626F6F746C6F61646572000080C11FE0004008E0504F5220726573659F
:2015800074210000436865636B20627574746F6E00000000506F776572204F6E0000000032
:2015A00073657420707772206F6B00004C000040FC010000658721431D4810B501690222DB
:2015C000114301610169082211430161194805218162816A8022114381628321C1600421F3
:2015E0000160002141600321C16000F050F800F053F80A28FBD310BC08BC18470D494A6918
:201600009206FCD50860704700B5002807D0030002E0FFF7F3FF5B1C18780028F9D10A209E
:20162000FFF7ECFF0D20FFF7E9FF08BC1847000000C002E0000001E01F48012141601F4986
:20164000C16070471C490020486070471A4880681B49086070471848806819490968401A8C
:201660007047154880681649486070471248806813494968401A70470F4880681049C86090
:2016800070470D4880680E49C968401A70470A4880680B4908617047074880680849096915
:2016A000401A704700B50200FFF7F1FFFFF7F4FF9042FBD308BC1847004000E0DF2E0000A3
:2016C0006808004048484168402211434160704710B5454CA06840210843A060A068890177
:2016E0000843A06061680120000401436160A1680143A1606169400201436161A1690143FE
:20170000A1616169801001436161A1690143A16136A0FFF779FF20690002C00F3030FFF723
:201720006DFF0A20FFF76AFF0D20FFF767FF33A0FFF76AFF20698001C00F3030FFF75EFF6D
:201740000A20FFF75BFF0D20FFF758FFA068012189060843A060FFF7B5FF10BC08BC1847F8
:2017600021484168012292061143416070471E48C168012292061143C16070471A480068B0
:20178000400100D5F3E7EBE7174800688001C00F7047154841680122120311434160C2685C
:2017A000012109040A43C26042680A43426070470D48C168012212031143C160C2680121C4
:2017C00009040A43C26042680A43426070470648C16840221143C160704703480068C001C4
:2017E000C017401C70470000008002E0506F77657220427574746F6E3A0000005379735229
:20180000657365743A0000007847C0460120D0E50010D0E50230D0E50300D0E5021481E166
:20182000031881E1000C81E11EFF2FE17847C0462024A0E10000C1E50120C1E52028A0E1D0
:201840000220C1E5202CA0E10320C1E51EFF2FE10E50A0E1180000EB05E0A0E10050B0E1D4
:201860000D10A0E10A30A0E10700C0E300D0A0E160D08DE220402DE994FAFFEB2040BDE882
:201880000060A0E30070A0E30080A0E300B0A0E30710C1E305C0A0E1C009ACE8C009ACE881
:2018A000C009ACE8C009ACE801D0A0E11EFF2FE10400C046C0462000FEF700FD00009FE549
:2018C0001EFF2FE17C08004001C08FE21CFF2FE101491820ABDFFEE72600020070B51E4816
:2018E0000178C078C906C90E33D11B490839012806D0194A0228937806D0032829D11AE05C
:201900001648086012201AE01548002208E00478002C04D0C478857824022C432018521C7E
:201920009342F4D10278002A13D00860C27883781002184303E00B481818086000788A8824
:20194000824200D98880FEF7F8FE012070BC08BC18470020FAE700001C000040591D0000B4
:201960006B1D00008C1D000070B520481F4C0078083CC006C00E0AD01C4B210014394D787A
:201980001B791B4A012806D002282CD10AE017481838206021E0002D25D08878834222D233
:2019A000002016E08F200340180605D51E07360F01200004B04001E001209840002D01D1CF
:2019C0001B0710D18B6803420DD0C9680142E7D001201070000A50702260FEF7AEFE012015
:2019E00070BC08BC18470020FAE700001C0000405400004070B502002348244C0378010029
:201A00004988DB06DB0E04D0012B2BD0022B29D111E0012926D10225002A05D00120FEF7BB
:201A2000F9FCA088284304E00020FEF7F3FCA088A843A08026E000798F231840030605D597
:201A400003071B0F01252D049D4001E0012585406378002B06D0030704D0A3682B4201D04F
:201A6000002903D0002070BC08BC1847002A04D0FEF722FDE068284303E0FEF727FDE068F2
:201A8000A843E0600120EEE71C00004000000040F8B54E4FB8783E001C3E00286CD04C4C7B
:201AA00066E06078022804D0042840D005285DD140E06179B878814234D1707021790020E7
:201AC000B17042490C3900220A54401C0428FAD301250120B168A840084202D02800FEF7BF
:201AE000D7FC01200004B168A840084204D0280080210843FEF7CCFC6D1C102DE9D33548FF
:201B00003500B0600020F0600120FEF784FCE0794006A88802D50121084301E040084000FE
:201B2000A88023E0E078A178000208431FE0E07800901BE00098002818D1A5788F20054020
:201B4000280605D52907090F01200004884001E00120A840B16801432000B160FEF771FC6E
:201B60002800FEF78BFC2800FEF79CFC207804192078002895D11FE00020012425007070E8
:201B80002800B168A040084202D02000FEF780FC01200004B168A040084204D0200080217A
:201BA0000843FEF775FC641C102CE9D30948B0600020F060FEF72FFCB8787178884203D154
:201BC0000120F8BC08BC18470020FAE71C0000406B1D000001000100F0B53D4D89B06878DE
:201BE000002870D000272E003A4C1C3667E06078022804D004280BD005285ED11EE06079F9
:201C00006978884259D0E078A1780002084355E0A178E2780020039102920090307988423F
:201C20004BD1B178914248D1294803991030415C012705911100039A81543EE031790398E5
:201C400081423AD1A0788F2108400690000605D506980107090F0120000401E006990120AC
:201C600088400190B1780298814215D1A86801990843A860E968019881432000E960FEF796
:201C8000E0FB0698FEF7FAFB0698FEF70BFC684603C80843009010E0059988420DD168460F
:201CA00003C8084209D1A96801988143A960E9688143E9600698FEF7EBFB2078041920789A
:201CC000002894D1380009B0F0BC08BC18470000000000406B1D00007847C04601C05EE526
:201CE0000C0053E10C30DE270330DE3783C08EE01CFF2FE1EB3C904D53444F53352E30006F
:201D000002020100011000EC03F802000100010000004352502044495341424C44280000A2
:201D20000000000000000000000000000000000000004649524D5741524542494E2018BC79
:201D400041973738373800003D6E2B38020000D0070020454E41424C4412011001000000FC
:201D600040291E0E04100104203E0109022000010100803209040000020806504807058234
:201D8000024000000705020240000000040309041C034B00650069006C00200053006F0017
:201DA0006600740077006100720065001E03550053004200200042006F006F0074006C006F
:201DC000610061006400650072000A0330003000300031000E034D0065006D006F00720027
:201DE0007900000095070000000000003B090000000000000000000000000000000000008A
:201E00000000000000000000000000000000000000000000000000000000000000000000C2
:201E2000000000000000000000100000002000000030000000400000005000000060000052
:201E4000007000000080000000000100008001000000020000800200000003000080030006
:201E6000000004000080040000000500008005000000060000800600000007000080070036
:201E80000090070000A0070000B0070000C0070000D00700FFFFFFFFFFFFFFFFFFFFFFFFBB
:201EA000FFFFFFFFFF0F0000FF1F0000FF2F0000FF3F0000FF4F0000FF5F0000FF6F000074
:201EC000FF7F0000FFFF0000FF7F0100FFFF0100FF7F0200FFFF0200FF7F0300FFFF030006
:201EE000FF7F0400FFFF0400FF7F0500FFFF0500FF7F0600FFFF0600FF7F0700FF8F070036
:201F0000FF9F0700FFAF0700FFBF0700FFCF0700FFDF0700FFFFFFFFFFFFFFFFFFFFFFFFF4
:201F2000FFFFFFFF5374617274696E6720757365722061707000456E746572696E6720625B
:201F40006F6F746C6F616465720000006C1F00000000004054000000B0010000C01F000009
:201F600054000040940D00005C0200000000000000000000000000000000000000000000CE
:201F8000000000000000000000000000000000000000000000000000000000000000000041
:201FA00000000000000000000000000060EA00000000000000000000361F0000241F00003F
:2020000018F09FE518F09FE518F09FE518F09FE518F09FE50000A0E120F11FE518F09FE5E2
:20202000542000004020000060C900004420000048200000000000004C20000050200000FB
:20204000FEFFFFEAFEFFFFEAFEFFFFEAFEFFFFEAFEFFFFEAC0019FE5AA10A0E35520A0E388
:202060002030A0E3A03180E5A03190E5403013E2FCFFFF0A0130A0E30C3180E50B30A0E394
:20208000843080E58C1080E58C2080E50130A0E3803080E58C1080E58C2080E5883090E50D
:2020A000013313E2FCFFFF0A883090E56C419FE5043003E00B40A0E3043033E0F9FFFF1A58
:2020C0000530A0E3043180E50530A0E3083180E54C319FE5A83180E50030A0E3AC3180E524
:2020E0000330A0E3803080E58C1080E58C2080E530419FE5C44080E51C019FE50410A0E36D
:20210000041080E50210A0E3001080E518019FE504119FE514219FE5C44091E5024B84E31F
:20212000C44081E50140A0E3004080E50040A0E3084080E5F8409FE5184082E55540A0E3C9
:20214000204082E5EC409FE5244082E5E8609FE5016056E2FDFFFF1A014CA0E3004280E54C
:202160000240A0E3044280E50240A0E3084280E51F40A0E30C4280E51F40A0E3104280E54D
:202180001F40A0E3144280E50F40A0E3184280E5A8609FE5016056E2FDFFFF1A0040A0E314
:2021A000225DA0E3005085E0004085E56D8F4FE20191A0E3FF00B8E8FF00A9E8FF00B8E8AE
:2021C000FF00A9E878009FE50210A0E3001080E570009FE5DBF021E300D0A0E1000040E233
:2021E000D7F021E300D0A0E1000040E2D1F021E300D0A0E1000040E2D2F021E300D0A0E152
:20220000010C40E2D3F021E300D0A0E1400040E210F021E330009FE510FF2FE100C01FE07F
:20222000FF7FFF00004011A8DE2FC0C30080E0FF00C002E05555000000000950804F1200B3
:20224000C0D4010040C01FE0F8450040502200000CD09FE5522900EB00009FE510FF2FE192
:20226000D7220000B8440040040002F0CAFCEA49002C086802D00122104301E040084000ED
:202280000860002007F053FA07F000FAE3A00AF0F9FDFEE710B503F0A6F800F0E5FC00F012
:2022A000E9FC0228FBD300F0DBFC02F0BCFC02F07CFD05F02FF905F0FDF8DAA00AF0E2FD0B
:2022C000DB480168022211430160DAA00AF0DAFD10BC08BC184700208EB00890079005903D
:2022E000039006900C90FF202D300024029003200190D848260025000A940D94012784627B
:20230000C5480168B9430160D34907204007416003210160AA2181605521816000F09AFAB3
:2023200000F061FB002805D00121CCA00AF0AAFD002703E00D99C9A00AF0A4FD02F04AFE37
:2023400000F0E2FBCBA00AF09DFDD248006802F06AFED1A00AF096FD02F012FCD2A00AF06B
:2023600091FD02F01AFD00280CD1D1A00AF08AFD00F080FC0100FF20F5308142F8D3CAA026
:202380000AF080FD05F026F805F085F8002F01D004F02AFE03F01EFC04F078FE02F023FD9C
:2023A00002F0FBFC002802D1C5A00AF06BFD02F028FC02F04FFE02F0F4FF04F03DF80CF013
:2023C000ADFA03F0CDFD00F047FC00F059FCC4A00AF058FDAF48006802F025FE02F0DCFD2F
:2023E000C749072040074160002000F071FB00F041FC64287DD300F037FC0CF0F3FE04F035
:20240000DDF9002802D105F077F86D1C002D0FD00A21280009F0DEFC002904D1C820411B8A
:20242000B8A00AF02FFD6D1CC82D01D1FFF732FF002E01D0761E09E005F072F8002859D07B
:202440000A98401C0A90012002F010FC0A98142805D900200A90B4486426012141700020D6
:2024600002F004FCB0484168002906D0AFA00AF009FDAD484168491E416002980A2809D030
:20248000B0480068002805D00A21AFA00AF0FAFC0A20029000F00DFA0100089881420BD182
:2024A00000F00BFA01000798814205D100F00AFA01000698814216D000F004FA089000F03C
:2024C000FCF9079000F0F5F907AA0CCA0100A6A00AF0D8FC00F0EDF9089000F0EEF907901A
:2024E00000F0F0F906900898012809D000280FD013E072E000200A90012002F079FBAEE7A9
:202500000798012809D1069801280ED100240CE0641C210099A00AF0B5FC0798002804D142
:20252000641C21009BA00AF0ADFC0698002804D1641C21009DA00AF0A5FC0298844201D9CE
:20254000FFF7A8FE0C98002802D0012823D115E004F09CFF00280ED00598401C14280590D0
:2025600019D904F0C9FF97A00AF08CFC0020059001200C900FE0002005900CE0032000F0DF
:20258000A7FA0598401CC828059004D995A00AF079FCFFF77FFE6B4803990268914203D0C9
:2025A00000200392019009E00198401C0328019004D900200D9002F016FF01E001200D90FB
:2025C0000C98002809D1002E01D0042003E00D98002800D0012000F07BFA0CF0A3FB00F0A2
:2025E0007AFD02F038FD002F01D004F003FD04F08BF803F091FD4C480078002808D000F055
:2026000052F9002804D002F0EEFE47481421416005F02CFEEBE60000004008E05265736589
:20262000740A0D0053687574646F776E0A0D0000C0C01FE0546869732073686F756C6420B6
:202640006E657665722062652076697369626C650A0D000000C002E0002D31010A0D48618D
:202660007264776172652076657273696F6E2025640A0D00526F626F74696E6F20332066CA
:2026800069726D776172652076657273696F6E200000000000120040496E697420667067BA
:2026A00061202E2E2E200000446F6E650A0D000057616974696E67203530306D730A0D00D3
:2026C000436F6E66696775726174696F6E206F662046504741206661696C65640A0D0000D3
:2026E0000A0D526F626F74696E6F2033206669726D776172652076657273696F6E20000061
:20270000A086010042617474657279206C6F772E20486172642073687574646F776E206953
:202720006E202564730A0D0000100040656D657267656E63792062756D7065722025750A7A
:202740000D0000001C10004053657474696E672073585F636F756E7465725F6D617820749F
:202760006F2025750A0D000053333A25642053343A25642053353A25640A0D00456E746558
:2027800072656420533320636F756E742025640A0D000000456E746572656420533420635E
:2027A0006F756E742025640A0D000000456E746572656420533520636F756E742025640A28
:2027C0000D000000476F696E6720696E746F20706F776572206F66662073746174652031E4
:2027E0000A0D0000446F6573206E6F7420676F20696E746F2053332E204861726420706F84
:20280000776572206F66660A0D00000023C08FE21CFF2FE17A4810B54168012212071143B9
:2028200041607848816912141143816102F004FA10BC08BC184710B515246401C001642169
:2028400009F0C8FA001970498005000C08406F490860EDE76E4810B5016A3F22120411436D
:2028600001626B4C403C6068012149050843606065483F30FFF7DFFFFFF7CCFF60680121E4
:2028800009068843606060684900884360605C48816801221207114381605A4801681214D3
:2028A00011430160C4E75748406B0002C017401C704753480069C00F704752484069C006EF
:2028C000C00F70474F4840694006C00F70474D48403040690005C00F70474A484030406982
:2028E000C004C00F704710B4032803D90B22101A0006000E474A01241378002904D0844056
:202900001C43147010BC70478440A3431370F9E73B480068C007C00F70473A484030416970
:202920004269C905C90F92054069D20F89184005C00F0818704733494031012805D0022884
:2029400006D0032807D0002070474869C00504E04869800501E048694005C00F704728486B
:2029600081680122D2069143816070472448C2680121C9060A43C26082680A438260704741
:202980001F4800680001C00F704710B50400FFF741FF012C06D0022C0BD0032C01D102F0E3
:2029A00053F945E71648C168012212071143C1603EE71448C169012212031143C16137E7F0
:2029C0000F4810B500680024C00000D401240D484069C00400D4022402F03EF9002800D1B8
:2029E0000324200024E7074840304069C017401C7047034800680002C017401C7047000094
:202A0000008002E040C0FF3FC0FF000000C006E040C002E03810004010B502F0F8FA10BCD2
:202A200008BC18470020C043704710B502F0EFFAF5E7FEE73F502DE984409FE5140094E5BE
:202A4000010480E3140084E5E12700EBE32700EB1C0094E5010480E31C0084E50100A0E3A3
:202A6000121984E2000081E50000A0E3000100E53F50BDE804F05EE23F502DE944409FE5E1
:202A80000050A0E30000D4E5640050E30050C4250010D4E5040094E50100D0E75AFFFFEB99
:202AA0000000D4E520109FE5010080E20000C4E50100A0E3000081E5005105E53F50BDE844
:202AC00004F05EE2008002E00C100040004007E000B5A24903000AF033FA060406090C0EE0
:202AE00011149F480CE09E48643009E09C48C83006E09C4804E09B48643001E09948C830C0
:202B0000486008BC1847C046F8B50220FFF7E0FF9548816901221206114381619348012507
:202B20004560934C6068924E0002010E491C803670680006000E401C414360688D4A40048E
:202B4000400C401C504309F045F98B4FB96A09078A0F8A49895C8A4A514309F03BF9834944
:202B6000401EC8608748456060680002010E7068491C0006000E401C414360687D4A40047E
:202B8000400C401C504309F025F9B96A89068A0F7A49895C7D22D200514309F01BF979491C
:202BA000401EC86060680002010E7068491C0006000E401C414360686E4A4004400C401C19
:202BC000504309F007F9F96A89048A0F6B49895C6B4A514309F0FEF86B49401EC8606B4A20
:202BE0006B4882626B4885626B48E20402617D20C0008861486903221043486160680002C6
:202C0000010E7068491C0006000E401C41436068584A4004400C401C504309F0DBF8F96A5C
:202C200009048A0F5549895C7D22D200514309F0D1F85A49401EC860594A5548C262564879
:202C4000220502611420886148690322104348614D60F8BC08BC18474B4901204860704763
:202C60004949002048607047464880684D4908607047C046434880684A490968401A70478A
:202C800040488068474948607047C0463D48806844494968401A70473A4880684149886037
:202CA0007047C046374880683E498968401A704700B50200FFF7F0FFFFF7F4FF9042FBD342
:202CC0001FE7C0462F4880683649C8607047C0462C4880683349C968401A704729488068B2
:202CE000304908617047C046264880682D490969401A7047234880687047C0461B4880688B
:202D0000284914310860704718488068254914310968401A7047C04600B50200FFF7EEFFC1
:202D2000FFF7F2FF9042FBD3EBE6C0460F4880681C491431486070470C488068194914310A
:202D40004968401A7047C04600B50200FFF7EEFFFFF7F2FF9042FBD3D3E600000C10004075
:202D600034F5000060F60000008002E0004000E080C01FE000366E0180C11FE060CD010000
:202D800040420F00008000E0000007E0342A000040F1FFFF40F2FFFF00F0FFFF004007E089
:202DA000782A0000B4120040E2487047F8B5E24C0025002865700ED0022101280FD002285A
:202DC00011D0032825D0DB4E030080213000DBA20AF068F81AE02570F8BC08BC1847012097
:202DE0002070E160F8E72170D349891C087849780B0203430121490223618B426361EBDDF3
:202E00000091CC488021D4A20AF04CF800F032FEE1E703202070A161DEE7F3B583B00C006F
:202E2000684602F0C4F80126C34D002739E001A802F0C1F80098401E0090687800280BD002
:202E4000012821D0BB486B788021CAA20AF02AF800F010FE002011E06846007955280AD0BC
:202E6000AA280AD0039908700398401C03902068401E206015E06E7013E00120FFF796FF30
:202E800005B0F0BC08BC18476846007920214840039908700398401C03902068401E2060BA
:202EA0006F7020680028EBDD00980028BFDCE7E738B5A14A00200100921C535C491C0906C8
:202EC00018180004000C090E0229F6D39A4AB04B5269002106E05C5C20180004491C000CA1
:202EE0000906090E9142F6DB0121934A0904081A0104121D10785278090C13020343994209
:202F000003D1012038BC08BC1847009189488021A0A209F0C7FF00F0ADFD0020F2E7F8B561
:202F200085480024801C427801782500A0A009F0A9FF974F804E06E0395DA2A009F0A2FFBF
:202F4000641C2406240E7069844216DA102CF3D313E087A009F096FF002509E0395D9BA07D
:202F600009F090FF641C24066D1C240E2D062D0E7069844201DA142DF0D38442E9DB6E4E32
:202F80000024361D0BE0315D90A009F07BFF641C24066D1C240E2D062D0E022C01D2142D89
:202FA000F1D373A009F06EFF022CF6D314E7F3B50F00002681B087A009F064FF0124002507
:202FC0001CE0002E05D001980026415D2020414003E00198415D552915D07CA009F052FFF1
:202FE000641C2406240E6D1C2D062D0EBD4201D2142CE6D35EA009F045FF0024BD42F5D30D
:20300000FEBC08BC18470126EDE71CB501F0DEFF684601F0CCFF484C14E02378002B17D09A
:20302000012B1ED0022B2AD0032B36D04148802169A209F037FF00F01DFD0020207068464F
:2030400001F0B5FF00980028E7DC1CBC08BC184701A801F0B0FF68460079AA28EFD101202A
:2030600036E03548E168801C401A3349801C0C31FFF7D3FEE0680028E1D1022028E044488A
:20308000616941182069081A2B491031FFF7C5FE20690028D3D103201AE02748A169001DEC
:2030A000401A2549801C1831FFF7B7FEA0690028C5D1FFF7FDFE002807D0A068401CA0609D
:2030C0003348616901F07BFA01E0FFF728FF0020FFF76CFEB3E71CB5002468460480FFF710
:2030E00094FF694601A800F06AF9684600880028ABD068460088402812D90198402101F045
:203100005FFF68460188403901800198403001903220FFF701FE684600880028E9D106E041
:2031200068460188019801F04BFF6846048000F092F98AE7D814004014100040496E766148
:203140006C6964207472616E7369742073746174653D2564000000007061796C6F61642000
:20316000746F206C6F6E673A202564203E2025640A0D0000496E76616C696420636F6D5F16
:20318000646174615F73746174653D2564000000D8120040525820636865636B73756D20E8
:2031A0006D69736D6174636820257820257800003C3C204141202530325820253032582007
:2031C00000000000253258200000000025303258200000003E3E2000496E76616C6964209E
:2031E000636F6D5F73746174653D25640000000010B5032005F0C8F8002809D1272005F06F
:20320000DBF8012005F0D8F804F040F905F0D4F810BC08BC184738B5122005F0B5F800282F
:2032200028D1FFF77AFB0400684601F084FF412005F0C2F8102005F0BFF803F0DCFA05F05A
:2032400074F9009805F071F9FFF762FB05F0B4F8200005F0B1F8012C01D9012000E0002030
:2032600005F0AAF803F098FA05F0A6F803F0A6FA05F005F938BC08BC184770B5050002F0E6
:203280005FFF060008F065FE0400C01D0006000E05F07AF8002817D1552005F08DF8601D97
:2032A0000006000E05F088F8280005F085F8280003F01EFA05F0E3F8002503E0705D05F01E
:2032C0007BF86D1CA542F9DB70BC08BC18473EB50400062005F058F800281AD1200002ABA6
:2032E00001AA694603F0F6F9522005F065F8042005F062F8200005F05FF86846007805F0D4
:203300005BF86846007905F057F86846007A05F053F83EBC08BC18477047F8B5070003F00C
:20332000C4F8060008F015FE050016300006000E040005F029F800282ED1502005F03CF887
:20334000200005F039F8380005F036F8380003F097F805F094F8380003F0B8F805F0E5F8E4
:20336000380003F0CAF805F0E0F8380003F0D4F805F0DBF8380003F0A1F905F0D6F8380014
:2033800003F08AF805F018F8002403E0305D05F013F8641CAC42F9D3F8BC08BC184710B549
:2033A000032004F0F1FF002808D14F2005F004F8012005F001F8012004F0FEFF28E7F3B5CD
:2033C000FF4800250188280081B0002940D0FD490A78002A02D00870FFF7E1FFFA4E3700D5
:2033E0000C37FA48AC0000593159884204D930512806000EFFF791FFF548395900598842DD
:2034000000D93851F3480159EF4818300259914204D901512806000EFFF759FFEE480159BF
:20342000E94824300259914204D901512806000EFFF723FF6D1C032DD3DBFFF7ECFEFFF719
:20344000D7FE01A803C804F034FFFEBC08BC184702990880F9E710B504F090FFD8E610B551
:20346000072004F091FF002814D1022004F0A4FF052004F0A1FF332004F09EFF2E2004F0FC
:203480009BFF302004F098FF2E2004F095FF302004F092FFBCE670B5D04E306808F059FD41
:2034A0000500801C0006000E04F06EFF00280FD1042004F081FF2806000E04F07DFF002486
:2034C00004E03068005D04F077FF641CAC42F8DBFAE638B5262004F057FF002812D10620DA
:2034E00004F06AFF242004F067FF00242000694601F010FE009805F018F8641C2406240E66
:20350000092CF3D3B6E610B5072004F03DFF00280BD1082004F050FF052004F04DFF0C20F8
:2035200004F04AFFAE4805F000F871E638B50A2004F02AFF002814D10B2004F03DFF082050
:2035400004F03AFF00242000694601F039FB00206946085E04F068FF641C2406240E042C8A
:20356000F1D387E638B5122004F00EFF002812D10E2004F021FF102004F01EFF0024200028
:20358000694601F015FB009804F0A4FF641C2406240E042CF3D36DE6F8B5322004F0F4FE42
:2035A000002822D1112004F007FF302004F004FF8C4F8D4E00248D4AA00039581558B1423C
:2035C00001D38B490958B54201D38A4A1558080004F0ABFF280004F0A8FF002004F0A5FFB5
:2035E000641C2406240E042CE5D3D5E670B50E2004F0CAFE002814D17F4805687F480468C9
:203600007F480668172004F0D7FE0C2004F0D4FE280004F08AFF200004F087FF300004F020
:2036200084FF51E638B5122004F0AEFE002812D11B2004F0C1FE102004F0BEFE00242000F4
:20364000694601F04AFD009804F06FFF641C2406240E042CF3D30DE638B5222004F094FE0F
:20366000002812D1212004F0A7FE202004F0A4FE00242000694601F075FD009804F055FF59
:20368000641C2406240E082CF3D3F3E508B5032004F07AFE00280CD1684601F051FB2320FD
:2036A00004F08AFE012004F087FE6846007804F083FE01B008BC184710B5032004F064FE47
:2036C000002809D1252004F077FE012004F074FEFFF7E9F804F070FE9AE508B5032004F027
:2036E00053FE0028E5D1684601F0BBFA2A2004F063FE012004F060FE6846007804F05CFEC1
:20370000D7E710B5032004F03FFE002809D12C2004F052FE012004F04FFE03F0DAFE04F01F
:203720004BFE75E510B5072004F02EFE002819D1332004F041FE052004F03EFEFFF7B9F846
:2037400004F03AFEFFF7B9F804F036FEFFF7BAF804F032FEFFF7BBF804F02EFEFFF7BDF82E
:2037600004F02AFE54E53EB52A2004F00DFE002852D1352004F020FE282004F01DFE00248B
:20378000200001A901F01CFA04206946085E04F04BFE641C2406240E042CF1D300242000CE
:2037A00002A901F005FA029804F094FE641C2406240E042CF3D300242000694622E0000087
:2037C0002012004001100040581500404818004054180040601800406C180040001200405F
:2037E000C3F54840A810004000008080C8100040B8100040D8100040081100400C11004093
:203800001011004001F069FC009804F08EFE641C2406240E042CCFD37BE510B50A2004F0E8
:20382000B3FD00280BD1372004F0C6FD082004F0C3FDCF4804F023FECE4804F020FEE7E4CB
:2038400010B5062004F0A0FD002809D13F2004F0B3FD042004F0B0FDC748006804F065FE54
:20386000D6E470B504000B2004F08EFD002818D1432004F0A1FD092004F09EFD200004F0E9
:203880009BFDBE48BE4DA4000059290008F000FC04F04BFEBB482900005908F0F9FB04F0C3
:2038A00044FE11E510B50A2004F06EFD002811D1462004F081FD082004F07EFD03F0B5FB66
:2038C0000124E407604004F030FE03F0B2FB604004F02BFE9CE470B5AB4E3088357B0404AB
:2038E000AA48240C844200D90400082D00D908250D2004F049FD00281FD1482004F05CFD94
:203900000B2004F059FD200004F067FD280004F053FD002406E03019007904F04DFD641CC4
:203920002406240EAC42F6D305E0002004F044FD641C2406240E082CF7D3C5E410B50320CF
:2039400004F022FD002809D14B2004F035FD012004F032FDFFF714F804F02EFD58E410B55B
:20396000032004F011FD002809D14E2004F024FD012004F021FDFFF723F804F01DFD47E420
:2039800010B5062004F000FD002809D1582004F013FD042004F010FD02F0ADFC04F0C5FD57
:2039A00036E4F8B57A4D2878C000801C0006000E04F0EAFC00281AD15A2004F0FDFC287875
:2039C000C006000E04F0F8FC724E00240AE0A700F05904F054FD7048C05904F0A6FD641C40
:2039E0002406240E28788442F1D300202870D3E438B50400072004F0C7FC00280FD12000DB
:203A0000694601F0BFFB5C2004F0D6FC052004F0D3FC200004F0D0FC009804F086FD29E426
:203A200010B5042004F0B0FC00280DD15E2004F0C3FC022004F0C0FCFEF7D5FF04F0BCFC7F
:203A4000FEF7D7FF04F0B8FCB8E410B50A2004F09BFC00280DD1612004F0AEFC082004F09C
:203A6000ABFC03F0EAFA04F060FD03F0EBFA04F05CFDA3E470B5FFF797F9060008F069FABF
:203A80000406240E802C03D9802400217F208155300009F0F7F941A009F0F4F9A01C000686
:203AA000000E04F071FC00280DD1FC2004F084FC200004F081FC002503E0705D04F07CFC2F
:203AC0006D1CA542F9DB03E570B5FFF76DF9060008F03FFA0406240E802C03D98024002179
:203AE0007F208155300009F0CDF92CA009F0CAF9A01C0006000E04F047FC00280DD1FA20B3
:203B000004F05AFC200004F057FC002503E0705D04F052FC6D1CA542F9DBD9E470B5FFF7C1
:203B200043F9060008F015FA0406240E802C03D9802400217F208155300009F0A3F917A0C2
:203B400009F0A0F9A01C0006000E04F01DFC00280DD1FB2004F030FC200004F02DFC002553
:203B600003E0705D04F028FC6D1CA542F9DBAFE40100007F0000FFFF64100040F81000402C
:203B800000007A44E810004098180040FF070000F011004078190040B81900400A0D0000FF
:203BA00038B504000078032804D0FFF7FDF82378EAA206E06578032D0BD9FFF7F5F82B00A6
:203BC000F0A2802109F06EF9FFF754FF38BC08BC1847A01C694601F065FB00216846415EC8
:203BE000002902D0F14A00201060280001F098FEECE738B504000078052804D0FFF7D4F851
:203C00002378EBA206E06578032D09D9FFF7CCF82B00F2A2802109F045F9FFF72BFFD5E77A
:203C2000A01C694601F04EFB0099280000F0D1FFCCE738B5040000780D2804D0FFF7B4F897
:203C40002378F0A206E06578032D09D9FFF7ACF82B00F8A2802109F025F9FFF70BFFB5E7AF
:203C6000A01C694601F00EFB0099280001F039FEA01D694601F006FB0099280001F03FFEA9
:203C8000A4E710B50400007801280BD0FFF78CF823788021F3A209F005F9FFF7EBFE10BC67
:203CA00008BC184764780020E107C90FFEF71BFE2100022001400120FEF715FE0420210025
:203CC00001400220FEF70FFE2100082001400320FEF709FE2100102001400420FEF703FE2A
:203CE0002020210001400520FEF7FDFD2100402001400620FEF7F7FDE109C9010720FEF76D
:203D0000F2FDCCE710B504000078012809D0FFF74BF823788021DFA209F0C4F8FFF7AAFE75
:203D2000BDE764780020E107C90F01F010F8210002200140012001F00AF8B0E73EB5040004
:203D400000780C280BD0FFF72FF823788021DBA209F0A8F8FFF78EFE3EBC08BC1847601C52
:203D6000694601F08FFA601D01A901F08BFA2000093002A901F086FAD94900980860D949C4
:203D800001980860D84902980860E5E738B504000078042809D0FFF707F823788021C7A22B
:203DA00009F080F8FFF766FE10E7601C694601F069FACD490098086008E710B5040000787C
:203DC000012809D0FEF7F0FF23788021C7A209F069F8FFF74FFE62E76078002802D000F0B0
:203DE00010FF5CE700F01FFF59E710B504000078012809D0FEF7D8FF23788021C5A209F078
:203E000051F8FFF737FE4AE76078002802D003F042FB44E703F04EFB41E770B504000078CB
:203E2000022804D0FEF7C0FF2378C4A207E06578681E06280BD3FEF7B7FF2B00C7A2802199
:203E400009F030F8FFF716FE70BC08BC1847A178280001F0FFFDF7E770B504000078022811
:203E600004D0FEF7A1FF2378C4A206E06578032D09D9FEF799FF2B00C9A2802109F012F83C
:203E8000FFF7F8FDE0E7A078002803D0280001F060FAD9E7280001F064FAD5E710B504002E
:203EA0000078012809D0FEF77FFF23788021C5A208F0F8FFFFF7DEFDF1E66078002802D009
:203EC00003F021FBEBE603F017FBE8E610B504000078012809D0FEF767FF23788021C2A2F1
:203EE00008F0E0FFFFF7C6FDD9E66078002802D003F0FBFAD3E603F0F1FAD0E61CB5040097
:203F0000007808280BD0FEF74FFF23788021BFA208F0C8FFFFF7AEFD1CBC08BC1847601C67
:203F2000694601F0C5F9601D01A901F0C1F9F3E710B504000078012809D0FEF735FF237870
:203F40008021BCA208F0AEFFFFF794FDA7E66078002800D00120C2490870A0E65441475F74
:203F60005345545F4D4F544F525F535045454420696E76616C6964206C656E6774682025A7
:203F8000640000005441475F5345545F4D4F544F525F535045454420696E76616C696420AF
:203FA0006D6F746F72202564000000003C1000405441475F5345545F4D4F544F525F504F86
:203FC000534954494F4E20696E76616C6964206C656E677468202564000000005441475F7E
:203FE0005345545F4D4F544F525F504F534954494F4E20696E76616C6964206D6F746F72B9
:20400000202564005441475F5345545F4D4F544F525F5049445F504152414D455445525351
:2040200020696E76616C6964206C656E67746820256400005441475F5345545F4D4F544F69
:20404000525F5049445F504152414D455445525320696E76616C6964206D6F746F722025E2
:20406000640000005441475F5345545F414C4C5F4449474954414C5F4F555450555453205D
:20408000696E76616C6964206C656E6774682025640000005441475F5345545F414C4C5F30
:2040A00052454C41595320696E76616C6964206C656E677468202564000000005441475FA3
:2040C0005345545F4F444F4D4554525920696E76616C6964206C656E6774682025640000D0
:2040E000081100400C110040101100405441475F5345545F465047415F504F574552206990
:204100006E76616C6964206C656E677468202564000000005441475F5345545F5057525FF8
:204120004F4B5F535441544520696E76616C6964206C656E67746820256400005441475F78
:204140005345545F50574D20696E76616C6964206C656E6774682025640000005441475F93
:204160005345545F50574D20696E76616C6964206368616E6E656C20256400005441475F1C
:204180005345545F4D4F544F525F4F4E20696E76616C6964206C656E6774682025640000F5
:2041A0005441475F5345545F4D4F544F525F4F4E20696E76616C6964206D6F746F7220254F
:2041C000640000005441475F5345545F50575242544E20696E76616C6964206C656E6774D7
:2041E00068202564000000005441475F5345545F5359535F524553455420696E76616C69A4
:2042000064206C656E677468202564005441475F5345545F49505F414444524553532069E2
:204220006E76616C6964206C656E677468202564000000005441475F5345545F454D455206
:2042400047454E43595F42554D50455220696E76616C6964206C656E67746820256400006C
:204260000010004010B504000078022804D0FEF79BFD2378DDA206E06478032C07D9FEF742
:2042800093FD2300E3A2802108F00CFE05E0FEF78BFD8021E8A208F005FEFFF7EBFBFEE4FD
:2042A00010B504000078012809D0FEF77DFD23788021EAA208F0F6FDFFF7DCFBEFE4607821
:2042C000002800D00120FDF7CFFFE8E438B504000078042809D0FEF767FD23788021E7A2AB
:2042E00008F0E0FDFFF7C6FB70E4601C694600F0C9FF009801F03DFB68E4F0B504000078CD
:2043000087B0092804D0FEF74FFD2378E6A206E06578032D07D9FEF747FD2B00EEA2802195
:2043200008F0C0FD22E0A01C06A900F0ABFFA01D04A900F0A7FF06990120C005814203DA9C
:20434000049807F09FFF17D2049807F086FF060006980F0007F081FF04000D00FEF724FDDA
:204360006B46F0C38021E7A208F09CFDFFF782FB07B0F0BC08BC1847F04C0698210007F033
:20438000CBFE0100280001F0D9FA0498210007F0C3FE0100280001F0DEFAE9E71CB504005B
:2043A0000078082809D0FEF7FFFC23788021E4A208F078FDFFF75EFBAEE5601C694600F060
:2043C00061FF601D01A900F05DFF684603C801F07BFFA1E510B504000078012804D0FEF76D
:2043E000E3FC2378B0A206E06478032C09D9FEF7DBFC2300B8A2802108F054FDFFF73AFBC0
:204400004DE42000FFF72DFA49E43EB5040000780B2809D0FEF7C8FC23788021D2A208F025
:2044200041FDFFF727FB97E4601C694600F034FFE5780822211D01A807F064FD6846018860
:20444000D148814201D969460880082D00D90825CE48016800290FD00021016068460188F4
:20446000CB480160057301A906C9001D06C0C849012002F0DAFA6FE4C6A008F003FD6BE4FC
:2044800010B504000078012809D0FEF78DFC23788021C3A208F006FDFFF7ECFA31E46078F6
:2044A000002802D0FEF75BFA2BE4FEF75FFA28E410B504000078012809D0FEF775FC23780B
:2044C0008021BFA208F0EEFCFFF7D4FA19E46078FEF75BFA15E410B504000078012804D0DE
:2044E000FEF762FC2378BEA206E06078022809D9FEF75AFC6378C5A2802108F0D3FCFFF7B9
:20450000B9FA0DE402F09CFB0AE410B504000078012804D0FEF748FC2378C8A206E0607846
:20452000022809D9FEF740FC6378CFA2802108F0B9FCFFF79FFA4EE402F00CFC4BE410B5F5
:2045400004000078012804D0FEF72EFC2378D2A207E06078411E0A2909D3FEF725FC637896
:20456000D5A2802108F09EFCFFF784FA33E4FFF73FFA30E438B504000078052804D0FEF764
:2045800013FC2378D4A20CE0A01C694600F07AFE607800280BD001280DD0FEF705FC63788A
:2045A000D7A2802108F07EFCFFF764FA04E4009802F047FD98E6009802F048FD94E6F8B5F1
:2045C0000D000400CCE26678A81E86420CDDFEF7EBFB33008021D3A2009508F063FCFFF7C1
:2045E00049FAF8BC08BC18472078AFE15441475F5345545F4D4F544F525F4D4F4445206955
:204600006E76616C6964206C656E677468202564000000005441475F5345545F4D4F544F0C
:20462000525F4D4F444520696E76616C6964206D6F746F72202564005441475F5345545F1D
:204640004D4F544F525F4D4F4445206E6F7420696D706C656D656E74656400005441475FE5
:2046600052455345545F4C504320696E76616C6964206C656E677468202564005441475FEC
:204680005345545F5341465445595F56454C434F49545920696E76616C6964206C656E6768
:2046A00074682025640000005441475F5345545F4D4F544F525F414343454C5F4C494D491D
:2046C000545320696E76616C6964206C656E677468202564000000005441475F5345545F5B
:2046E0004D4F544F525F414343454C5F4C494D49545320696E76616C6964206D6F746F72E9
:20470000202564005441475F5345545F4D4F544F525F414343454C5F4C494D495453206968
:204720006E76616C6964206D696E202566206D61782025662076616C7565730000007A446D
:204740005441475F5345545F424154544552595F4D494E20696E76616C6964206C656E67A8
:2047600074682025640000005441475F43414E5F4D534720696E76616C6964206C656E6794
:204780007468202564000000FF070000E01100407818004043414E20627573790A0D0000C1
:2047A0005441475F5345545F4E52535420696E76616C6964206C656E6774682025640000DA
:2047C0005441475F5345545F424F4F5420696E76616C6964206C656E6774682025640000CD
:2047E0005441475F434841524745525F4745545F56455253494F4E20696E76616C69642097
:204800006C656E6774682025640000005441475F434841524745525F4745545F5645525358
:20482000494F4E20696E76616C696420636861726765722049442025640000005441475FFE
:20484000434841524745525F434C4541525F4552524F5220696E76616C6964206C656E67E0
:2048600074682025640000005441475F434841524745525F434C4541525F4552524F5220AD
:20488000696E76616C696420636861726765722049442025640000005441475F4745545F65
:2048A000475041494E20696E76616C6964206C656E677468202564005441475F4745545FBD
:2048C000475041494E20696E76616C696420475041494E20256400005441475F4759524FAE
:2048E0005F5345545F504152414D20696E76616C6964206C656E677468202564000000004B
:204900005441475F4759524F5F5345545F504152414D20696E76616C696420504152414D68
:20492000202564007461675F6C656E6774683D25642067726561746572207468616E206C8A
:20494000656E6774683D256400000000030008F0F7FA61FA32FA35FA38FA3BFA3E42FA45B3
:2049600049FA4C50FA53575B5F63FAFAFA66FAFAFAFAFA69FA6CFA6FFA72FA7579FA7CFA65
:204980007F83878B8F93FA96FA99FA9CA0A4A8ACAFB3FAFAFAB6FABABEFAC5C1C8CCFACF3B
:2049A000D3FAFAFAFAFAD6DAFADEE2FAE5FAE8FAF0FAF3F7FA00FEF752FDCDE0FEF76BFD01
:2049C000CAE0FEF786FDC7E0FEF79DFDC4E0601CFFF7E6F8C0E0FEF7A9FDBDE0601CFFF741
:2049E00008F9B9E0FEF7BEFDB6E0601CFFF721F9B2E0FEF7D1FDAFE0601CFFF742F9ABE02F
:204A0000601CFFF77FF9A7E0601CFFF797F9A3E0601CFFF7BBF99FE0FEF7E8FD9CE0FEF7B0
:204A200001FE99E0FEF718FE96E0FEF72FFE93E0FEF742FE90E0FEF7DBFB8DE0601CFFF799
:204A4000BCF989E0FEF749FE86E0FEF75AFE83E0601CFFF7CAF97FE0601CFFF7DEF97BE0AE
:204A6000601CFFF7F9F977E0601CFFF717FA73E0601CFFF72BFA6FE0FEF754FE6CE0FEF737
:204A800072FE69E0FEF7C9FE66E0601CFFF736FA62E0601CFFF74CFA5EE0601CFFF7E2FB32
:204AA0005AE0601CFFF7FCFB56E0FDF7F3FB53E0601CFFF70BFC4FE0FEF7C2FE4CE0601C03
:204AC000FFF71BFC48E0601CFFF784FC44E0FEF7E9FE41E0601CFFF798FC3DE0FEF7FBFE7D
:204AE0003AE0601CFFF7CCFC36E0FEF727FF33E0601CFFF7DDFC2FE0FEF731FF2CE0601C17
:204B0000FFF7E9FC28E0601CFFF7FFFC24E0601CFFF744FC20E0FEF733FF1DE0FEF741FF36
:204B20001AE0601CFFF70BFD16E009E004E000E009E0FEF775FF0FE0601CFFF71BFD0BE0A8
:204B4000FEF783FF08E0FEF72FF92378802106A208F0A8F9FEF78EFFA419A41CAD1BAD1ECA
:204B6000022D00DB2FE53CE5546167202564206E6F7420696D706C656D656E74656400000C
:204B8000C548016A5522114301628169C34A11438161416A0122120411434162416A1203A7
:204BA00011434162BE488169C203114381617047BD4B80001858BB4A0860002010707047A0
:204BC000B84A400013001833185A0880002090707047B44A10B454780123834023435370C6
:204BE000B14B8000103319500020107010BC7047032805D801218140AA488279114381714C
:204C00007047A8494022887910438871A74908720220EDE7032805D801218140A14882790E
:204C20008A43827170479F49BF228879104088719E4908720220EDE79A490122C8791043F9
:204C4000C8719A49C87270479649984AC87940084000C871D07270479248C079C007C00FE2
:204C60007047904880794006C00F7047032807D88C4A012192798140114200D0CAE7B7E7A0
:204C80007047F8B5874C0125217800208C460091470086493A06120E8B5C891849786678FE
:204CA000CB1A012181400A0032420BD06246002A08D18E437C4A66707B4E81001032525885
:204CC000103E72507849860010398A59D2188A511E214B4373491A0410311214CA5300D091
:204CE0000025401C0006000E0428D1D36F48817AC9430E06360EE670A1790172217A017347
:204D0000A078002805D1674908221031881807F0F9F80098002805D16348103801008EC9F9
:204D200010308EC06079002800D12671002D02D0E068401C00E00020E060F8BC08BC1847C2
:204D4000584901220A79002302704B71704701280DD8001D0306534A1B0E0120002907D0E9
:204D60009179984003000B4201D10843907170479179984003000B42F9D0814391717047B4
:204D8000012808D8001D0121814046488079014201D001207047002070474448C07AC00931
:204DA00001D0002070470120704770B53C4C6069E503284360613EA008F064F820698000AE
:204DC000FCD441A008F05EF8E0692843E06140A008F058F820698000FCD53BA008F052F8C0
:204DE00070BC08BC1847F8B5FFF7DFFF3F490020401C8842FCD33EA008F044F8284C414F30
:204E0000414E002510E02069800001D43FA003E02069000103D540A008F034F807E0680099
:204E2000385A02F069F96D1C30688542EBD369003CA008F027F841A008F024F8484F0025D9
:204E40007D26F6002069800001D446A003E02069000103D547A008F015F805E0380002F0B5
:204E60004BF96D1CB542EDD3B54202D144A008F009F80E4B01205873FFF7DEFEFF209873C6
:204E8000FFF7FFFE08490020020010398300401C0428CA50FAD350E700C002E055550000EE
:204EA000008002E03010004098150040000000805761697420756E74696C20494E49545F0F
:204EC00042206C6F773A20004F4B0A0D000000005761697420756E74696C20494E49545F7F
:204EE0004220686967683A2000000000002D310150726F6772616D6D696E67202E2E2E20AA
:204F00000000000090F700008CF70000494E49545F42206C6F772000444F4E4520686967A2
:204F20006820000070726F6772616D6D65642025642062797465730A0D000000576169741F
:204F400020666F7220494E49545F42206C6F77206F7220444F4E4520686967683A20000022
:204F6000FFFF0000494E49545F42206C6F770A0D00000000444F4E4520686967680A0D00D8
:204F80000A0D50726F6772616D6D696E67206661696C65640A0D000010B504F058F904F0DD
:204FA0008CFB012004F0C3FB10BC08BC184710B504F041F9F8E710B5054904F011F9F3E7EB
:204FC0000A00010010B5822008DFEDE77047000018CD01001D4801690222114301610169F4
:204FE0000822114301611A480321C160C26880210A43C26004220260002242600522826299
:20500000826A0A438262C2688A43C260704710494A699206FCD5086070470D484169C90740
:20502000FCD00068704700B5002807D0030002E0FFF7EDFF5B1C18780028F9D10A20FFF7F1
:20504000E6FF0D20FFF7E3FF08BC184700C002E0000001E0704770B55D4D5C4C6878C107EA
:2050600000D05C4C810702D50121C9020C43410702D5012109030C43000702D5012040033F
:2050800004430120287002F054F8200002F034F8060002F059F8504A310B3005000D4900EA
:2050A000505202F058F8200002F026F8040002F05DF8494A210B2005000D49002032505263
:2050C000002129706878401C0006000E1028687000D1697070BC08BC184710B50C003C4967
:2050E0000978002913D13C4940004018008A07F079F83A4906F0CCFF0B21C94307F050F858
:20510000374906F0B8FF374906F0C2FF206010BC08BC184710B50C002F4940002031085A80
:2051200007F060F82D4906F0B3FF0B21C94307F037F82060EBE770B504002748008B07F038
:2051400051F8264D290006F0A3FF0B21C94307F027F83F21090606F08EFF290006F098FFDC
:205160002060B7E710B50C001B494000085A07F039F81D4906F08CFF0B21C94307F010F8F4
:205180002060C4E770B50C00411E0A2906D300212160010015A007F075FE9BE70B260F4D77
:2051A0004100F643042803D20B480818008B03E0094820300818408907F014F8290006F0E7
:2051C00067FF310006F0ECFF206083E7108300005010004010870000B81500400000A040B6
:2051E0000000204009F9AC4000002041475041494E2564206F7574206F662072616E67656E
:205200000A0D000003B46946097901706946497941706946897981706946C979C170042014
:2052200002B0704703B46946097901706946497941700220F4E703B4694609790170694685
:20524000497941700220EBE703B46946097901706946497941706946897981706946C979D9
:20526000C1700420DCE703B46946097901706946497941706946897981706946C979C170D7
:205280000420CDE702780A7042784A7082788A70C078C8700420704702780A70407848702B
:2052A0000220704702780A70407848700220704702780A7042784A7082788A70C078C8700C
:2052C0000420704702780A7042784A7082788A70C078C87004207047F94881690122D20428
:2052E00011438161816952001143816181695200114381618169520011438161F148016880
:2053000010221143016001682022114301600168402211430160016880221143016070474F
:20532000E7490969133001228240114201D00120704700207047133001228240E04B002954
:2053400003D05869104358617047D8691043D8617047DC498A69001D012383401A438A610E
:205360007047D849CA69001D012383401A43CA61704710B500242000FFF7F3FF641C240644
:20538000240E042CF7D310BC08BC184710B500242000FFF7DEFF641C2406240E042CF7D340
:2053A000F1E710B5FFF798FFFFF7E3FF00F0FFFA0021012000F04EFB0021022000F04AFB0F
:2053C0000021032000F046FB0021042000F042FB0021052000F03EFB0021062000F03AFB0B
:2053E000FFF7D4FFCFE7B849012088737047B64A4100243210B58918FFF76FFEC3E7B24A54
:205400008000443211507047B04A80001150704770B50C000500002901DD012600E0002682
:20542000A94968002C310C5231002800FFF783FF6D1C2806000E002E02D02106090E02E0A1
:2054400061420906090E00F005FB70BC08BC184710B444019D480023903003552018417032
:205460004280C3820375C36110BC7047F1B588B008988400944854300759203005590898F6
:2054800046009348805F06F09BFE04908E481430805F06F095FE01908C48103001590198CF
:2054A00006F0E9FD06008848C179002959D0A4300159300006F0E6FE02D28348A43008E01B
:2054C000814894300159300006F0E6FE02D27E48943006597D4831001030005906F076FD26
:2054E0007A49103108517B49884207D277497F221031D205904201DA0020085173480499F1
:2055000010300059009006F0B6FD06007248874202D36D4964310F59854202D36A488430A6
:2055200005596800000E20D03100280006F0B0FD0500664850300159300006F09CFD390026
:2055400006F0A6FD61496031095906F03FFD290006F03CFD0099624A49000B0E5F4909D063
:205560000CE05A4901981031C7E73100380006F08FFDEFE7049B5B001B0E03D0884203DDB3
:20558000080004E0002002E0904200D910004F496031085110390E5106F032FE010408986D
:2055A0000914FFF735FF09B0F0BC08BC1847FEB5454E00200190B07B35001435002814D070
:2055C00000273C00B77360004049A20010312F528F503D49641C2C3124060F52240E0021D1
:2055E000200000F037FA042CEDD3F0780124002816D03079002813D1334F54372100F37891
:2056000081400A001A4206D08B43304A81003032F37052587A50401C0006000E0428EDD32F
:205620007079002816D0B079002813D1264F74372100737981400A001A4206D08B43234AD9
:2056400081004032737152587A50401C0006000E0428EDD31C480078002815D01A4841789F
:20566000002911D107001C37220006788A401300334204D096434A000670BB5AAB52491CEF
:205680000906090E0429EFD30D480068800653D414480078C10709D080074DD4002001004D
:2056A0004A00AA5E82421FDD100023E0002001004200401C0006000E0328A952F8D33BE0E6
:2056C000008002E080C0FF3F54100040F815004040100040000080BF0000808000007F4368
:2056E00000007FC33310004043429A4202DA504200040014491C0906090E0329D0D306F0AE
:205700005FFD9D4E0700316906F0C6FD14D23069390006F001FD002600907700E85F06F0D2
:205720004FFD009906F0B4FC06F06AFD761C3606360E032EE853F0D38F4EB07A002815D02C
:20574000F07A002812D13700A4372100B37A81400A001A4205D08B43884A8100B372525888
:205760007A50401C0006000E0428EED3307A002816D0707A002813D17F4F94372100337AED
:2057800081400A001A4206D08B437C4A8100103A337252587A50401C0006000E0428EDD338
:2057A00000277800285A00280BD17449B800703909584900090E04D16F4944310958012958
:2057C0002DD06E480021BA00903081503800FFF70EFE7F1C3F063F0E042FE2D3002401AF87
:2057E000385D012812D06448A100443000914058012829D002282BD003283AD05F4A0020DA
:20580000703A505001002000FFF702FE641C2406240E042CE4D3B078002835D03BE0574A53
:2058200090321158491C11507D22D2009142CDD9524A01A9CC550021203A1150103A11509F
:205840003800FFF7E5FDC1E72000FFF70FFEDDE760000290285E06F0B3FC484A0099703AB7
:205860005050707B0028D1D1434902983C31095EC9E76000285E029006F0A2FC3F4A0099FB
:20588000703A50500299BEE73C488038010010311EC920301EC0307B002805D13649082299
:2058A0002C31881806F02EFBFEBC08BC1847334B8000603B1858304A08600020907070472D
:2058C0002D4A400013003433185A0880002010737047294A400013003C33195200205073C0
:2058E0007047254A10B4D478012383402343D370224B8000503B195000201071B4E51E4A5F
:2059000010B4547901238340234353711B4B8000403B195000209071A6E51749C87170471F
:20592000154A10B401231478834023431370400013001C3319520020507095E50E4A10B465
:20594000947A01238340234393720C4B800019500020D07288E5084A10B4147A012383404D
:2059600023431372054B8000103B1950002050727AE501490861704754100040781600409B
:205980004648C169032212041143C161C16992001143C161C16992001143C161016980222E
:2059A000914301610169402211430161704700B5FFF7E6FF3A4903204861FF20886100226F
:2059C000CA610A624A623648403002604260826002224A6009224A604A6808231A434A6029
:2059E0004A6801231A434A60C1685A021143C160C16852001143C160C16852001143C160F0
:205A0000C16852001143C160C16852001143C160C16852001143C16008BC1847204A00B574
:205A20001F494032030007F08BFA07130507090B0D0F1300C86908E0086A06E0486A04E09D
:205A4000106802E0506800E090680006000EE3E70020E1E7134A10B51268002A00D00021DF
:205A60000F4A0F4C4032030007F06AFA07150507090B0D0F1500E16108E0216206E06162DF
:205A800004E0116002E0516000E091601169012383401943116110BC08BC184700C002E08D
:205AA000008001E004100040F8B50220FFF788F804000020FFF784F8201A06F081FB4A4C14
:205AC0000700E16906F028FB06000120FFF778F806F076FB05000021C943380006F060FBAD
:205AE00007000020FFF76CF806F06AFB390006F06DFA290006F0BFFA216A06F0C9FA070011
:205B00000120FFF75DF806F05BFBA16906F004FB390006F05BFA616906F0FEFA334D009082
:205B20002900300006F0B4FA06002900380006F0AFFA07000098290006F0AAFA0100A068F7
:205B400006F044FAA06009F023FA390006F0A0FA0500A06808F0A2FB310006F099FA2900AD
:205B600006F089FA216806F031FA2060A06808F095FB390006F08CFA0500A06809F008FA35
:205B8000310006F085FA290006F020FA616806F01DFA6060F8BC08BC184770B5124C1449D9
:205BA000206906F075FA05001249E06806F070FA290006F0B1FA0500A0610F48290006F0A9
:205BC000ABFA20620D48290006F0A6FAE06170BC08BC1847E1E70449C860DEE70249086144
:205BE000DBE701494861D8E7081100406F12833ADB0FC9400000E144ABAA2A3FD7B3DD3F1E
:205C00007CB5022812D2062105004D43FD4E6A46AC196079715B03C22379E278A178FAA0B6
:205C200007F030F9002070536080A0807CBC08BC1847F1B5F34EFF4F002482B00620250030
:205C40004543705B002811D0029809F0D5FAED49029A0C31019006F055F90298A9190090B6
:205C6000725B3878019B891C09F0C4FB641C022CE4D3FEBC08BC1847E24902220C310A7066
:205C800000224A7005228A708200C870EA4883581B0E0B7183581B0C4B71835A1B0A8B71DF
:205CA000805CC8710820C4E7D64901220C310A7000224A7005228A708200C870DF4883584A
:205CC0001B0E0B7183581B0C4B71835A1B0A8B71805CC8710820ACE7CA4800210C300170B3
:205CE0004170042181700720A3E7D249C54810B51C22491C0C3006F005F91C20FFF799FFA2
:205D000010BC08BC184738B50C000500002911D0032009F071FA0A2101700300401C0021E9
:205D20000170417003200090C24822000078290009F060FB38BC08BC1847FFB583B00C98CB
:205D40001C00160003281DD32178AE4D0B0007F0F7F80DF9081AF9F92CF987BBDDF9F9F42D
:205D6000F9000828EFD3E07803280BD82279E179A3791206114362791B0212041A43114396
:205D8000FFF73DFBDEE00828FCD3E0780328F9D82279E179A3791206114362791B02120439
:205DA0001A431143FFF730FBCCE00024062027004743E85BB04207D179190498891C042264
:205DC00006F0DCF8002810D0641C022CEED3002406206043285A002812D0641C022CF7D391
:205DE00004983100FFF78FFFACE006204443781941792A5B6B4606C30379C27881780FE031
:205E0000062044432E5366190499B01C042206F079F87079295B6A4603C23379F278B178BE
:205E200087A007F02FF8FFF760FFFFF755FF0020FFF73AFF0120FFF737FF0220FFF734FF97
:205E40000320FFF731FF0020FFF716FF0120FFF713FF0220FFF710FF0320FFF70DFF71E008
:205E60000B286FD3754D2868022808D1E078217900020843010409140020FFF72AFD6868EA
:205E8000022808D16079A17900020843010409140120FFF71EFDA868022808D1E079217A64
:205EA00000020843010409140220FFF712FDE868022847D1607AA17A000208430104091456
:205EC0000320FFF706FD3DE010283BD3E078032838D8002002A9221812790B00491C401C54
:205EE00004281A70F7D3E0780299FFF7FAFC002002A92218127A0B00491C401C04281A7030
:205F0000F7D3E0780299FFF7FAFC1BE00024200006214843295AB1420AD141190498891CFB
:205F2000042206F02BF8002802D12000FFF768FE641C022CEBD305E0FFE7042802D3E0781B
:205F4000FFF7EBFC07B0F0BC08BC0020184710B500242000FFF754FE641C022CF9D3CFE63E
:205F6000344810B50621401C0170002141701921817000213C4A080009F052F92D4C2070F3
:205F80003AA006F07FFF2078002804D03A4909F07BF9012803D039A006F074FFB0E639A082
:205FA000FAE710B5040088B0FCF7A4FE0090200003A9FFF77CFC039806F022F969460881BC
:205FC000200006A9FFF77CFC200004A9FEF7F8FD200005A9FEF7ECFD200001A9FFF77DF8EC
:205FE00008490B200C3108700020487013208870CC70091D00206A461378521C4C1C0B705F
:20600000210043E018170040556E7265676973746572205544502072656365697665722007
:2060200025642E25642E25642E25643A25640A0D000000002C110040F81500409810004026
:206040005265676973746572205544502072656365697665722025642E25642E25642E2513
:20606000643A25640A0D00003B5D000055445020736F636B65742000692200006572726F55
:20608000720A0D004F4B0A0D00000000401C0006000E0428B0D3002002AA1378401C4C1C8C
:2060A00000060B70521C2100000E0228F5D3002004AA1378401C4C1C00060B70521C2100A3
:2060C000000E0228F5D3002001AA1378401C4C1C00060B70521C2100000E0428F5D3002074
:2060E00006AA1378401C4C1C00060B70521C2100000E0228F5D3002005AA1378401C4C1C73
:2061000000060B70521C2100000E0428F5D31620FFF78FFD08B0F3E570B5084D0024A000E7
:20612000285CC00703D02006000EFFF73AFF641C042CF4DB70BC08BC18470000F8150040C3
:20614000F0B5032887B004D3002007B0F0BC08BC18470101F6480C18F649A0790B00083BB1
:20616000002805D0012815D008001838C068ECE7E079227A042800D300200D2A00D30C2275
:2061800092008958EB4A8000643210586A4603C21B6819E0E74EE579343630003C38476898
:2061A0002B0006F0CDFE0C0717172F4343172F752F17178F207A0D2800D30C2080000858A8
:2061C00031683B0000910190E0488021DAA206F069FE77E0207A06F005F80090607A0002D7
:2061E00006F000F8009905F0F1FED94905F094FF06F033F802AA03C2A80030583B00D5A216
:2062000000905BE0607A217AA27A00020843E17A3B0009021143AA00B258009201AA03C22A
:20622000CA488021CEA206F03DFE4BE0207A05F0D9FF0090607A000205F0D4FF009905F0B6
:20624000C5FEC34905F068FF0090A07A05F0CAFF0190E07A000205F0C5FF019905F0B6FEC2
:20626000BB4905F059FF05F0F8FF04000098019105F0F3FF019A02AB13C3A80005923058E7
:206280003B000090B1488021B8A206F00BFE19E0207A05F0A7FF0500607A000205F0A2FF9B
:2062A000290005F093FEAA4905F036FF05F0D5FF02AA03C2306A3B00B2A20090A348802193
:2062C00006F0F0FDA14840E770B50C000500FCF724FB984A183A012801D9946000E0956083
:2062E000906805F0BAFF02000B00A9A006F0CAFD70BC08BC18478F48183880687047F0B52B
:20630000002089B0079001F0B3FC0024A84821010818411D061D801D0490601C0006000E55
:206320000391FCF708FB00284DD0611CA1A006F0A9FD2006000E00F083FC0025A700A548D8
:20634000C05900280AD1A4A006F09CFD01F08EFF6420FCF7ADFC6D1C322DF0DB04983178B8
:206360000378039802789DA006F08CFD9E4D30782978814211D80906090E814226D1039876
:2063800069780078814208D80906090E81421DD10498A9780078814218D90520FCF798FB96
:2063A00028786978AA786B4607C3049831780378039802788DA006F065FD601C01F05DFC9F
:2063C0000120079006E0611C96A001E0611C9BA006F058FD641C032C98DBFCF71BFA0798BF
:2063E000002820D09BA006F04DFD0024C820FCF75FFC01F03BFF78A006F044FD641C0A2C80
:20640000F4DB9CA006F03EFD0024601C0006000EFCF791FA002803D02006000E00F010FCE3
:20642000641C032CF1DB95499548FFF74DFF0220FCF74EFB09B089E610B592A006F022FD52
:206440009349012000F0B1FA92A006F01BFD012000F0D4FA92A006F015FD012000F0D6FA6A
:20646000FCF756FA002806D1FCF780FA0120FCF753FCFCF774FAFFF742FF10BC08BC184783
:20648000032801D30020704701018A48081801794079000208437047032801D30020704725
:2064A000844900014018C07A704700B5032804D320481838C06808BC1847FFF7EDFF0D28F4
:2064C00000D30C201B4980000858F4E770B5032801D300200CE7010176480C18A07905F075
:2064E00081FE0500E079000205F07CFE290005F06DFD174905F010FEFAE610B5032801D3BF
:206500000020BAE76B4900014018007A05F06AFE694905F001FEB0E710B5032801D30020B5
:20652000ABE7644900014018407A05F05BFEA4E74819004064110040257320257320696E93
:20654000207374617465202573000000C817004000007A44257320257320252E32665600B4
:20656000257320257320257520257500257320257320252E326664656720252E32666465F8
:2065800067000000257320257320252E326641005365742062617474657279206C6F77201F
:2065A000766F6C7461676520252E3266560A0D0018190040466F756E64206368617267657A
:2065C0007220256420776974682076657273696F6E200000601800402E0000002025642EC1
:2065E00025642E25640A0D00B0CD01005570646174696E6720636861726765722066726F27
:206600006D2076657273696F6E2025642E25642E256420746F2025642E25642E25640A0D9F
:206620000000000043686172676572202564206E6F7420666F756E640A0D000043686172B3
:2066400067657220256420757020746F20646174650A0D0057616974696E6720666F72201C
:206660006368617267657220746F20626F6F74200000000020446F6E650A0D0066669E41DF
:206680000000984143414E2073657475700A0D0048E8010043414E2073746172740A0D007F
:2066A00043414E20776169742072656164790A0D00000000B81800400000C84210B50328DD
:2066C00001D30020D9E64D4900014018807A05F089FDD2E610B4032808D204014848201855
:2066E00004790C70417911708079187010BC7047032801D300207047010142480818017966
:206700004079000208437047F8B53F4F3F4E00253F48AC0000593959884202D93851002063
:2067200070603C48015938480C300259914208D901512800FFF704FD06F0A4FB36A006F00E
:20674000A1FB3648015930481830025991420BD901512B4829010818817900914379027922
:20676000691C2FA006F08EFB6D1C032DD0DB70684000000E0DD100242006000EFFF7A6FEEC
:206780007168050005F088FD00D27560641C032CF2DBF8BC08BC184710B5FCF7B9F8002816
:2067A0000AD11A49294A4868904205DD896805F069FD01D2012060E600205EE670B5FFF7BF
:2067C000EBFF124C224D002811D02078002806D120A006F057FB01202070FCF77FFAFCF74A
:2067E00083FAA84201D2281A82E5002080E50020207028007CE5054840687047B81800403C
:206800001819004048190040A41700404C110040481800406C1800400A0D0000601800409B
:2068200043414E20726563656976656420436861726765722025642076657273696F6E3A3A
:206840002025642E25642E25640A0D000000A04060EA000053746172742062617474657230
:2068600079206C6F7720636F756E7465720A0D00E7C08FE21CFF2FE1F8B5FF4B0F00FE4966
:20688000FE4CFF4D8033012850D0FE4E48680002020E5868521C0006000E401C4243A06A2B
:2068A0008000800F285C42434868F7494004400C401C4843110005F08DFA0500F3488742C3
:2068C00045D94100280005F085FA04000F2105F081FA002937D0200737D020000C2105F079
:2068E00079FA002933D020000A2105F073FA002909D060072DD02000062105F06BFA00291C
:2069000029D0A00729D00A242100280005F062FA390005F05FFA401E8105DD4A890DA0004E
:20692000105808437061F8BC08BC1847D94E48680002020E5868521C0006000E401C4243F0
:20694000A06A0001ADE70F24DEE71024DCE70C24DAE70824D8E70624D6E70424D4E70128DA
