:020000040000FA
:1000000018F09FE518F09FE518F09FE518F09FE5C0
:1000100018F09FE50000A0E1F0FF1FE518F09FE554
:1000200054000000400000000817000044000000D9
:1000300048000000000000004C00000050000000DC
:10004000FEFFFFEAFEFFFFEAFEFFFFEAFEFFFFEA18
:10005000FEFFFFEAAC009FE50110A0E3001080E581
:10006000A4009FE5AA10A0E35520A0E32430A0E35C
:10007000043080E50130A0E3003080E50C1080E51D
:100080000C2080E5083090E5013B13E2FCFFFF0AFD
:100090000330A0E3003080E50C1080E50C2080E503
:1000A00068009FE50410A0E3041080E50210A0E3BF
:1000B000001080E558009FE5DBF021E300D0A0E1CF
:1000C000000040E2D7F021E300D0A0E1000040E2D0
:1000D000D1F021E300D0A0E1400040E2D2F021E3E2
:1000E00000D0A0E1010C40E2D3F021E300D0A0E178
:1000F000400040E210F021E300D0A0E101AB4DE26E
:1001000010009FE510FF2FE100C11FE080C01FE03D
:1001100000C01FE0100F00401C010000000000EBB9
:100120004D0000EB2C008FE2000C90E800A08AE06C
:1001300000B08BE001704AE20B005AE10000001AA7
:10014000450000EB0F00BAE818E04FE2010013E3AE
:1001500003F0471013FF2FE198180000B8180000B3
:10016000102052E27800B0287800A128FBFFFF8A17
:10017000822EB0E13000B0283000A1280040904528
:10018000004081451EFF2FE10030B0E30040B0E3A6
:100190000050B0E30060B0E3102052E27800A128E4
:1001A000FCFFFF8A822EB0E13000A128003081459B
:1001B0001EFF2FE101C08FE21CFF2FE11FB5059844
:1001C00086460FBC009C02B07047000001C08FE261
:1001D0001CFF2FE130B47546AE4630BC70470000BE
:1001E0007847C04603002DE9F7FFFFEB0300BDE8A9
:1001F000340500EB7047704770470000443322110C
:1002000000C09FE51CFF2FE11310000000C09FE518
:100210001CFF2FE14510000000C09FE51CFF2FE1EF
:100220007110000000C09FE51CFF2FE16F1000005F
:1002300000C09FE51CFF2FE1F11300000C009FE5BB
:100240000C109FE504209FE508309FE51EFF2FE17D
:1002500090090040900D004090090040FB0400EB25
:100260000210A0E1D2FFFFEB1CC09FE50FC08CE0A5
:1002700001001CE30DE08F120FE0A0011CFF2FE135
:1002800001C08FE21CFF2FE101F012FA1D000000F7
:1002900070B500F0F5F800F04BF8184C216801201B
:1002A000400601432160E1690143E16114A000F0CF
:1002B00070F8184D2868C00702D017A000F069F840
:1002C000FF202860174818490068184D88420BD154
:1002D0006069400008D500F069FA002804D0686819
:1002E00000F057F800F052FA286800F052F800F0D9
:1002F0006FF970BC08BC00201847000000C0FF3F29
:100300005374617274757020626F6F746C6F616486
:100310006572000080C11FE0504F52207265736506
:1003200074210000FC0100006587214300000040AB
:100330001E48016801221143016001680422114333
:1003400001601B4803210173027B80210A43027371
:10035000142202700022027105228262826A0A431C
:100360008262017B4906490E0173704710490A7D7C
:100370009206FCD50006000E0870704700B5030019
:1003800002E05B1CFFF7F2FF18780028F9D108BCE7
:10039000184700B5002801D0FFF7F0FF0A20FFF74B
:1003A000E5FF0D20FFF7E2FFF1E7000000C002E0EB
:1003B00000C000E022480168032252051143016099
:1003C00070471F48C169012252051143C16170473E
:1003D0001B48816901225205114381617047184809
:1003E00040698002C017401C70471548C16901224E
:1003F00092051143C161704711488169012292053C
:100400001143816170470E4840694002C017401C8B
:10041000704700B5FFF7E3FF002803D0FFF7D8FFD0
:1004200008BC1847FFF7CDFFFAE700B5FFF7EBFF71
:10043000002802D0FFF7E0FFF2E7FFF7D6FFEFE773
:1004400000C0FF3F374810B580687D21C90001F02A
:1004500047F935490968401810BC08BC184710B561
:100460000400FFF7EFFF314AA1005050F4E710B548
:100470000400FFF7E7FF2D49A2008958401AEBE777
:1004800010B52A48142100F0D3FF27490020086046
:100490004860244C01206060254800782549800789
:1004A000800F095C24484143214880380079234A61
:1004B000C006C00E401C504301F012F9401EE0601F
:1004C0001F48A061032060611E481F4948601F4902
:1004D000242048606014C26810218A43C260026907
:1004E0000A430261B8E71A48416910221143416189
:1004F000164900204860144948600A49486148602C
:1005000009490860486070470120A8E70120AEE76C
:100510000220A4E70220AAE70320A8E700209EE724
:100520000020A4E7004000E0080000407000004008
:1005300000C11FE09C17000040420F00001BB700E5
:10054000FFC99A3B5405000000F1FFFF00F2FFFFD6
:1005500000F0FFFF07002DE938009FE5001090E54F
:100560003D1981E2091D81E2001080E5041090E54B
:1005700024209FE5021081E0041080E51C109FE517
:100580000100A0E3000081E50000A0E3D00F00E53A
:100590000700BDE804F05EE20800004000CA9A3B94
:1005A000004000E010B559A0FFF7F3FE002000F076
:1005B00091FD00F047FD0021072040074160032125
:1005C0000170AA2101725521017210BC08BC1847A4
:1005D0005049002008605049F8200870FF204870FA
:1005E0004E4A4F4D8870AD68D26E4E4B0324521B5D
:1005F0002000D3189D0A10E06B1E834201D14A4BA4
:1006000000E0431C1E0107053F0F3E430F1908552C
:100610001B09E41C7E70801CBB708542ECD8434EE5
:10062000002001239B020D18345CED18401C40286B
:100630002C70F8D33E483F4D0468AC421DD03E4E6E
:1006400025003E4CB54201D13125E5703C4E056890
:10065000B54201D13225E57000683A4DA84201D17A
:100660003320E070384C04202518203D0E182D7FD3
:10067000F618401C0B283570F6D33048521C203039
:10068000110A02774177110C8177110EC177FFF7BC
:1006900091FE2EA0FFF77DFE00F0EBFC012000F0A4
:1006A00019FDFFF731FFFFF733FFFFF78AFEFFF772
:1006B000A3FE294E294C2A4D206800280BD16068E2
:1006C000002808D0FFF728FFB04204D925A0FFF783
:1006D00060FEFFF767FF61682068084308D1FFF7F5
:1006E00015FFA84204D923A0FFF753FEFFF75AFFD6
:1006F000FFF710FFC828DFD9FFF70AFF2E20FFF70A
:1007000035FEFFF786FEFFF790FED5E7526573656D
:1007100074000000280000408400004068180000B9
:10072000E817000001080000FF0F0000A0170000FC
:10073000FC01000044332211785634128404004036
:100740002143658765872143E01700004C4544201D
:10075000496E69740000000088130000100000401A
:1007600060EA000046696E69736865642028357325
:1007700029000000496E61637469766974792028E4
:100780003630732900000000114A104710B5FFF7FA
:10079000C5FEFFF7C5FE0A28FBD3FFF7A4FE012024
:1007A000400300F0EBFF10BC08BC1847094810B527
:1007B0003521016002214160816001001431FFF7A1
:1007C000E3FF0448143000680028ECD00120EAE779
:1007D000F1FFFF7F3007004030B4020008684F4946
:1007E00003000AE00D781478521C6D066D0E6D182A
:1007F0002C720C68401E641C0C600028F2D130BCC6
:100800001800704746490020088070470120704753
:100810000120704701207047012070470120704778
:1008200010B5404C61782078E27809020843A1783D
:1008300012060904114308433949891D00F036FEA8
:1008400021793748801D017161794171A1798171E8
:10085000012010BC08BC1847314810B5801D00F0BD
:1008600013FE3049020A08704A70020C000E8A70AA
:10087000C8702B48801D02790A7142794A718079CB
:1008800088710120E5E70120704701207047244965
:10089000012048807047214808B5017802798020FE
:1008A000891A4906490E401A402805D81C490120DA
:1008B000888001B008BC1847184902204C3900F064
:1008C00075FC0090154869464C38FFF785FFF0E746
:1008D00013488188002906D0104906C98A4202D1EE
:1008E00000218180D7E770470C4810B5A1210C3852
:1008F00001702021417000218170C17001710222BC
:1009000041718271C17106490A2209880172090A7E
:1009100041720100812008DF9BE70000A40800402D
:100920002C00004054000040F74801218180002144
:100930000170F64A4170C160826001617047F249FE
:1009400010B52831002000F031FC10BC08BC18475D
:1009500010B5ED4C2034A288082A00D9082221685D
:10096000802008DF216809182160A188081AA0806A
:10097000EBE710B5E44C00202034216800F016FCB1
:10098000216809182160A188081AA080DDE70022EB
:10099000110010B5802008DFD7E7DB4910B518310A
:1009A000002000F003FCD0E7020070B5D648D64C1A
:1009B0002830037801004988DB06DB0E04D0012BC8
:1009C0002BD0022B29D111E0012926D10225002AA2
:1009D00005D0012000F086FBA088284304E0002019
:1009E00000F080FBA088A843A08029E000798F2335
:1009F0001840030605D503071B0F01252D049D4054
:100A000001E0012585406378002B06D0030704D060
:100A1000A3682B4201D0002903D0002070BC08BC81
:100A20001847002A04D000F0ADFBE068284306E038
:100A30002169294204D100F0AFFBE068A843E060DF
:100A40000120EBE7F8B5B04F002028370090387848
:100A5000C006C00E73D1B878AB4E002871D0AC4C34
:100A600069E06078022804D0042843D0052860D1CA
:100A700043E06179B878814237D1707021790020E4
:100A8000B170A149143100220A54401C0428FAD341
:100A900001250120B168A840084202D0280000F0DA
:100AA0005DFB01200004B168A840084204D0280082
:100AB0008021084300F052FB6D1C102DE9D39348B0
:100AC0003500B0600020F0603061012000F00BFBC9
:100AD000E079400604D5A98801200143A98028E0D7
:100AE000A88840084000A88023E0E078A1780002B0
:100AF00008431FE0E07800901BE00098002818D120
:100B0000A5788F200540280605D52907090F012063
:100B10000004884001E00120A840B16801432000A2
:100B2000B16000F0F6FA280000F00EFB280000F09B
:100B30001FFB207804192078002892D122E025E0BC
:100B4000FFE700200124250070702800B168A04054
:100B5000084202D0200000F001FB01200004B1682F
:100B6000A040084204D020008021084300F0F6FA9B
:100B7000641C102CE9D36548B0600020F06030613F
:100B800000F0B1FAB8787178884203D00020F8BC40
:100B900008BC18470120FAE7F0B55B48002789B088
:100BA00005972830009700783E00C006C00E012847
:100BB00004D0002009B0F0BC08BC1847524D68783A
:100BC0000028F7D00020524C079063E0607802289C
:100BD00004D004280BD005285AD11CE0607969782C
:100BE000884255D0E078A1780002084351E0A77808
:100BF000E67800200090444828300179B94247D176
:100C00008078B04244D1012007903F481430C15D44
:100C10000591C6553CE03C4828300179B94237D1AE
:100C2000A1788F2211400691090605D506990A0779
:100C3000120F0121090401E0069A0121914001915E
:100C40008078B04214D1A8680843A860E968019888
:100C500081432000E96000F05CFA069800F074FA25
:100C6000069800F085FA684603C8084300900FE034
:100C7000059886420CD10098084209D1A86888439B
:100C8000A860E96801988143E960069800F066FA77
:100C9000207804192078002898D107988AE7F8B5B9
:100CA000194C194D203426000836317800270300EE
:100CB00000F066FD083E05A9D93E3EE4E63EFFF79A
:100CC0003EFE3078C00900F03EFAF088A08030780F
:100CD0004106890F02D0012970D14DE071780B00D7
:100CE00000F04EFD0C070A8C0C8C182027292E379B
:100CF000478C00F0C9F817E0002000E00120FFF762
:100D000053FE00287AD069E03C0000400100010059
:100D1000FA180000C006C00E70D1B07880210843D8
:100D200028705BE000F0EFF8002867D0FFF710FEB6
:100D30002DE7002063E0C006C00E5FD1954816E0A5
:100D4000FFF780FE002859D0FFF721FE00F054FB8A
:100D50001DE7C006C00E012850D1687800284DD08C
:100D60003079A978884249D28A49133140182060E5
:100D7000DCE7FFF711FFC4E7C006C00E3ED0012834
:100D80003CD13079002801D0012837D17078814DCD
:100D9000173504281ED008DC002810D0012810D0F8
:100DA00002280CD0032829D110E0202807D02128C0
:100DB00017D022281AD0232820D11BE01EE025605E
:100DC000E5E6FFF725FD0EE02560AFE77088FFF749
:100DD00023FD08E07088FFF721FD41E0FFF7D7FD14
:100DE000D5E6FFF739FD0028EED107E07088FFF760
:100DF0004AFD35E07088FFF748FD31E0802000F0C3
:100E0000C1F9A780C3E6C80902D0FFF7C6FDBEE658
:100E1000A08800288CD0FFF7ACFDA088002887D1DF
:100E200030784106890FE9D00129E7D1C006C00E0C
:100E3000E4D00128E2D13079002801D00128DDD1A9
:100E40007078002806D0022807D02028D6D1FFF7D6
:100E5000E7FC05E0FFF7DAFC02E07088FFF7DAFC58
:100E60000028CBD0BAE7C809AFD128780106A7D5AA
:100E70004006400E287000F0D5F888E6002000E01B
:100E8000802000F089F982E670B44248414C273056
:100E900000781F34C006C00E0CD02200083A1100A2
:100EA00018390B0028334D781B79012806D0022809
:100EB00027D10AE03748C01C20601FE0002D20D059
:100EC000887883421DD2002016E08F200340180648
:100ED00005D51E07360F01200004B04001E00120B7
:100EE0009840002D01D11B070BD18B68034208D01D
:100EF000C9680142E7D0012010802260012070BC47
:100F000070470020FBE7234830B427300178C078D1
:100F1000C906C90E3CD11F491F31012807D00A005C
:100F200008329378022806D0032831D11AE01A48F3
:100F30000860122025E01948002208E00478002CFF
:100F400004D0C478857824022C432018521C934284
:100F5000F4D10278002A1BD00860C278837810028E
:100F600018430EE00E48002204E00478002C00D064
:100F70002018521C9342F8D10278002A08D0086049
:100F800000788A88824200D98880012030BC70476E
:100F90000020FBE73D000040E8180000FA180000C0
:100FA0003E1900000FC08FE21CFF2FE10100000777
:100FB000C00E090600D5401C7047A24910228A6065
:100FC00008610868C006FCD570479E4A10239360EC
:100FD00010611068C006FCD5936011611068C006EE
:100FE000FCD5704710B5974A10240B009460FFF7AA
:100FF000DDFF052100040902401810611068C006D9
:10100000FCD5946013611068C006FCD510BC08BC08
:1010100018478C4930228A60086108688006FCD530
:1010200048697047010430B58748884D01430C007A
:101030002800FFF7CAFF21002800FFF7C6FF30BCD9
:1010400008BC18477F480021403081600821C160FA
:1010500001228260C1607B480168C905FCD500217E
:10106000C9438163416381600D21416070477047CE
:101070007047774800B54168764A11404160416841
:10108000754A114341607548416842061143416009
:10109000724823214038416201210162AA21C162C4
:1010A0005522C262836A5B05FCD503230362C162D9
:1010B000C2626B486B4908606B49362008606B4917
:1010C000012080050861FFF7BDFF0020FFF7AAFFA0
:1010D00008BC1847002800D001200104FF316448F3
:1010E000013172E7704700B5002800D001200104EB
:1010F000FF3160480131FFF768FF5249032040315A
:10110000486050480168C905FCD5FF210131816064
:10111000DEE710B502008078FFF748FF494940310B
:101120004B680124844023434B60886050791279D6
:1011300000021043C86043480168C905FCD5FF217F
:101140000131816062E7704700B5FFF72FFF4A4920
:10115000000408438913FFF738FFB9E700B5FFF72C
:1011600025FF4549000408434449FFF72EFFAFE738
:1011700000B5FFF71BFF4049000408438913FFF740
:1011800024FFA5E700B5FFF711FF3B490004084322
:101190003B49FFF71AFF9BE700B5FFF707FF36490A
:1011A000000408438913FFF710FF91E7F3B581B0FE
:1011B00001980E000007810E2248491C8162016AD5
:1011C0000A05FCD58C05A40D0025E11C8F0806E05E
:1011D0001C488069310000F069F9361D6D1CAF4272
:1011E000F6D818480021816201982649C140C807F5
:1011F00003D125490198FFF7F5FE2000FEBC08BC8D
:101200001847F7B500980E000007810E0D4814002E
:10121000891C816242620025D01C870806E03000EC
:1012200000F032F90749C861361D6D1CAF42F6D88F
:1012300004480021816215490098FFF7D3FE200081
:10124000DCE70000000009E0000180000005D0009C
:1012500000C002E0FF3FFF3F00400080C0C01FE031
:101260009012000000F1FFFF00F2FFFF00F0FFFF0F
:101270000005FE000005D800000540000001200028
:1012800000010100481200000005F2000005FA000C
:10129000FF532DE930419FE5005094E5080015E328
:1012A0001200000A0800A0E3080084E51C019FE585
:1012B0003BFFFFEB18019FE5D0FBFFEB100010E3B5
:1012C0000040A0E10100000ACFFBFFEB420000EB71
:1012D000080014E32800000A040014E30100000AD7
:1012E000CCFBFFEB240000EACDFBFFEB220000EA81
:1012F000010015E30180A0E308808415CBFBFF1BF0
:10130000040015E31C00000A309094E50070A0E38F
:10131000C0609FE50750A0E1070059E11400000AF2
:101320001815A0E1090011E101708711A500A011B5
:10133000381084150B00000A001094E5200011E31A
:10134000FCFFFF0A141094E5010015E30E00000AEB
:10135000001196E7000051E30300A0130100000A0A
:101360000FE0A0E111FF2FE1015085E2200055E3DD
:10137000E8FFFF3A0400A0E3080084E50000A0E3D2
:10138000D00F00E5FF53BDE804F05EE2000055E336
:101390000800001A040011E3001096150000511314
:1013A0000400000A0100A0E30FE0A0E111FF2FE11B
:1013B0000150A0E3D7FFFFEA001196E7000051E3D8
:1013C0000200A013E7FFFF0AE4FFFFEA000009E0C4
:1013D0000005FE000002FE008819000001C08FE237
:1013E0001CFF2FE110B5FFF79FFA10BC08BC18478F
:1013F00010B5FFF76DFAF8E7704710B50328F4D180
:10140000FFF700FA09490A888242EED00880FFF708
:101410006BFAEAE710B5022804D00328E5D1FFF7FC
:1014200036FAE2E7FFF737FADFE700006C0000402A
:101430007847C0460020A0E300402DE90230A0E13B
:1014400002C0A0E102E0A0E1201051E20C50A0286F
:101450000C50A02820105122FBFFFF2A011EB0E1F2
:101460000C50A0280C00A0480040BDE80111B0E1DC
:10147000042080241EFF2F01B220C040010111E38F
:101480000120C0141EFF2FE17847C0460120D0E59F
:101490000010D0E50230D0E50300D0E5021481E170
:1014A000031881E1000C81E11EFF2FE17847C0465F
:1014B0002024A0E10000C1E50120C1E52028A0E131
:1014C0000220C1E5202CA0E10320C1E51EFF2FE191
:1014D000013090E12100004A0020B0E3A03071E02B
:1014E0001A00003A203271E00F00003A203471E017
:1014F0000100003A00C0A0E3200000EAA03371E040
:10150000810340200220B2E0203371E0010340203B
:101510000220B2E0A03271E0810240200220B2E05D
:10152000203271E0010240200220B2E0A03171E0DF
:10153000810140200220B2E0203171E00101402011
:101540000220B2E0A03071E0810040200220B2E031
:10155000011050E00010A0310200A2E01EFF2FE1B8
:10156000022111E20010614240C032E0000060221E
:10157000203271E01D00003A203471E00F00003A83
:101580000113A0E1203471E03F2382E30B00003A15
:101590000113A0E1203471E03F2682E30700003A06
:1015A0000113A0E1203471E03F2982E30113A0215F
:1015B0003F2C8223003071E21D00002A2113A0215C
:1015C000A03371E0810340200220B2E0203371E0BB
:1015D000010340200220B2E0A03271E081024020ED
:1015E0000220B2E0203271E0010240200220B2E08D
:1015F000A03171E0810140200220B2E0203171E091
:10160000010140200220B2E0EBFFFF2AA03071E090
:10161000810040200220B2E0011050E00010A03113
:101620000200A2E0CCCFB0E10000604200106122D5
:101630001EFF2FE1CCCFB0E10000604201402DE958
:101640000000B0E30000A0E10240BDE81EFF2FE172
:101650000E50A0E1180000EB05E0A0E10050B0E161
:101660000D10A0E10A30A0E10700C0E300D0A0E126
:1016700060D08DE220402DE9EFFAFFEB2040BDE87D
:101680000060A0E30070A0E30080A0E300B0A0E34E
:101690000710C1E305C0A0E1C009ACE8C009ACE88F
:1016A000C009ACE8C009ACE801D0A0E11EFF2FE101
:1016B0000400C046C0462000FEF792FD00009FE5F2
:1016C0001EFF2FE12C09004001C08FE21CFF2FE11B
:1016D00001491820ABDFFEE7260002001EFF2FE1C4
:1016E0007847C0460020B0E3203171E094FFFF3A14
:1016F000A03271E089FFFF3A203471E07EFFFF3AAB
:1017000000C0A0E39DFFFFEA00502DE900C04FE1BB
:1017100000112DE920001CE3B2C05E11FFCCCC13F8
:1017200004C01E05FFC4CC0324809FE508005CE1D3
:101730000600002A1C808FE20CC198E70FE0A0E1B0
:101740001CFF2FE10011BDE80CF06FE10090FDE8F7
:10175000FEFFFFEA090000005017000050170000CC
:1017600050170000501700005017000050170000DD
:10177000501700005017000003120000004700003F
:101780007847C04601C05EE50C0053E10C30DE270F
:101790000330DE3783C08EE01CFF2FE1040102001E
:1017A0004352502044495341424C44280000000019
:1017B0000000000000000000000000000000000029
:1017C0004649524D5741524542494E2018BC419717
:1017D0003738373800003D6E2B38020000D0070044
:1017E00020454E41424C4400000000000010000023
:1017F0000020000000300000004000000050000009
:101800000060000000700000008000000000010087
:1018100000800100000002000080020000000300C0
:1018200000800300000004000080040000000500A8
:101830000080050000000600008006000000070090
:10184000008007000090070000A0070000B007001C
:1018500000C0070000D00700FFFFFFFFFFFFFFFFF2
:10186000FFFFFFFFFFFFFFFFFF0F0000FF1F000054
:10187000FF2F0000FF3F0000FF4F0000FF5F000050
:10188000FF6F0000FF7F0000FFFF0000FF7F0100EF
:10189000FFFF0100FF7F0200FFFF0200FF7F030048
:1018A000FFFF0300FF7F0400FFFF0400FF7F050030
:1018B000FFFF0500FF7F0600FFFF0600FF7F070018
:1018C000FF8F0700FF9F0700FFAF0700FFBF070064
:1018D000FFCF0700FFDF0700FFFFFFFFFFFFFFFF56
:1018E000FFFFFFFFFFFFFFFF1201000202000008E1
:1018F000291E100400010102030109024300020134
:1019000000803209040000010202000405240010D6
:101910000105240103010424020205240600010735
:1019200005810310000209040100020A00000407F7
:101930000502024000000705820240000000040387
:1019400009041203520045004300200047006D00C7
:1019500062004800100347007200690070007000C8
:10196000650072001A033000300030003000300093
:1019700031003000300030003000300030000A0309
:10198000560043004F004D009F0C0000FB13000069
:10199000151400000000000000000000000000001E
:1019A0000000000000000000000000000000000037
:1019B0000000000000000000000000000000000027
:1019C00000000000000000005374617274696E67CB
:1019D00020757365722061707000456E7465726960
:1019E0006E6720626F6F746C6F61646572000000D7
:1019F000101A0000000000407000000060010000AC
:101A0000801A000070000040A00E00008801000055
:101A1000DA190000C81900000000000000000000F2
:101A200000000000000000000000000000000000B6
:101A300000000000000000000000000000000100A5
:101A400000008025000000000800000000000000E9
:101A50000000000000000000000000000000000086
:101A60000000000000000000000000000000000076
:101A70000000000000000000000000000000000066
:040000050000011CDA
:00000001FF
