:020000040000FA
:1020000018F09FE518F09FE518F09FE518F09FE5A0
:1020100018F09FE50000A0E120F11FE518F09FE512
:1020200054200000402000004C48000044200000E4
:1020300048200000000000004C200000502000005C
:10204000FEFFFFEAFEFFFFEAFEFFFFEAFEFFFFEAF8
:10205000FEFFFFEA20019FE5AA10A0E35520A0E3C0
:102060002030A0E3A03180E5A03190E5403013E2BC
:10207000FCFFFF0A0130A0E30C3180E50B30A0E348
:10208000843080E58C1080E58C2080E50130A0E371
:10209000803080E58C1080E58C2080E5883090E5EC
:1020A000013313E2FCFFFF0A883090E5CC409FE546
:1020B000043003E00B40A0E3043033E0F9FFFF1AE3
:1020C0000530A0E3043180E50530A0E3083180E568
:1020D0000030A0E3A83180E50030A0E3AC3180E51A
:1020E0000330A0E3803080E58C1080E58C2080E513
:1020F0008C409FE5C44080E57C009FE50410A0E390
:10210000041080E50210A0E3001080E5458F4FE247
:102110000191A0E3FF00B8E8FF00A9E8FF00B8E8DC
:10212000FF00A9E85C009FE50210A0E3001080E535
:1021300054009FE5DBF021E300D0A0E1000040E285
:10214000D7F021E300D0A0E1000040E2D1F021E38C
:1021500000D0A0E1000040E2D2F021E300D0A0E1F5
:10216000010C40E2D3F021E300D0A0E1400040E2C6
:1021700010F021E314009FE510FF2FE100C01FE0E5
:10218000FF7FFF005E01004340C01FE0C009004028
:10219000942100000CD09FE5A10900EB00009FE511
:1021A00010FF2FE1E921000080080040354A10B5FA
:1021B0001168002803D001200143116002E04808A3
:1021C00040001060002002F040F902F0EDF800211C
:1021D00007204007416003210160AA218160552149
:1021E000816010BC08BC184770B52748002585627F
:1021F00000F02CFB00F0B8FC00F03CF9002000F0EF
:10220000B9F900F07DF8012000F0B4F900F052FABD
:1022100000F0B8FF01F04CFA0022022101231BA0BC
:1022200002F07EFD244C022600F096F900F0ABFC93
:10223000642806D900F0A2FC072000F0B7F901F0ED
:1022400050FA2078022814D11CA002F069FD002069
:10225000257000F06DF9002808D0002000F096F9F4
:102260001CA002F05DFD01F072FA02E021A002F074
:1022700057FD2078012800D1267001F0FDFB01F008
:102280005CF9D1E7004008E000C002E0526F626FE5
:1022900074696E6F2061726D206669726D7761720C
:1022A000652076657273696F6E2025642E25642E15
:1022B00025640A0D0000000000010040696F5F7393
:1022C00077305F747269676765726564203D20329C
:1022D0000A0D000073746F726520706F7369746902
:1022E0006F6E20747269676765726564206F6E0A2D
:1022F0000D000000535730206F66660A0D00000085
:102300003A480268032109070A43026082690A43C6
:102310008261374882680121C9040A4382604268A9
:102320000A43426033490820C86033480268030406
:102330001A43026042680C231A4342604268302309
:102340001A434260086820221043086070472949F8
:102350000A6804239A430A60886048680006FCD52E
:1023600088680006000E704722490A6804231A4351
:102370000A60886048680006FCD588680004000C84
:10238000704730B50400000CFFF7EEFF0500200495
:10239000000CFFF7E9FF290430BC08BC08431847CC
:1023A0001248C16982051143C16170470F488169B4
:1023B00082051143816170470C48C1694205114390
:1023C000C1617047094881694205114381617047C5
:1023D0000748C1680122D2041143C1607047044814
:1023E00041680122D20411434160704780C0FF3F21
:1023F000008002E0000002E000C002E007002DE9DA
:1024000064009FE50010D0E5000051E30110A00337
:102410000010C00554109FE5402191E50000A0E3A5
:10242000022082E3402181E5000100E50700BDE8CC
:1024300004F05EE207002DE92C009FE50110D0E5D5
:10244000000051E30110A0030110C0051C109FE51E
:10245000402191E50000A0E3042082E3402181E5D2
:10246000000100E50700BDE804F05EE20001004065
:1024700000C01FE070B56E480268FF210A43026089
:1024800082690A43826100F0C6FB00F0CFFB694815
:10249000826802210A438260C2680A43C2600268FD
:1024A0000A4302608368042213438360C3681343B2
:1024B000C3600368134303605F4B604CE363604C8D
:1024C0000F23E3635F4C8D0325615C4E5E4D403608
:1024D00035605B4D40352B60CB0323615B4B1C6942
:1024E0004D052C431C611C69CD052C431C61574BC9
:1024F00040331C690325AD052C431C611C69AD00EC
:102500002C431C6103688B430360016891430160A5
:102510004F488168802211438160816840221143C5
:102520008160816892001143816070BC08BC1847CB
:102530003F4940394A690B30012181400A4201D0AC
:102540000120704700207047394BDA690121814032
:102550000A43DA617047C04610B500F061FB7D2187
:10256000C900884202D90020FFF7EEFF10BC08BC6A
:102570001847C0462E4B9A69012181400A439A614F
:102580007047C046002900D0F4E7DDE710B5002809
:1025900007D00128EAD100F049FB0120FFF7EAFF4C
:1025A000E4E700F038FB0020F8E7C04620494A691C
:1025B000012181400A4200D0C6E7DBE7F8B50E00F2
:1025C000002805D0012805D0022814D1082402E0F3
:1025D000072400E006241FA002F0A2FB1C4F0125E7
:1025E000002E0BD020A002F09BFB78682900A140B0
:1025F000084378600AE001001DA013E026A002F065
:102600008FFBF8682900A1400843F860210025A04D
:1026100002F086FB3868A540284201D0012100E085
:10262000002122A002F07CFBF8BC08BC1847000087
:1026300080C0FF3F40C11FE0FC23000000F1FFFF0E
:1026400000F2FFFF00F0FFFF3424000000C002E0B2
:10265000008002E0696F5F736574506F7765724543
:102660006E61626C65642000656E61626C6520005D
:10267000696F5F736574506F776572456E61626CE8
:10268000656420756E6B6F776E206368616E6E6532
:102690006C2025750A0D000064697361626C652009
:1026A000000000006368616E6E656C2025750A0D80
:1026B00000000000704710B5FFF78AFE0520FFF705
:1026C00046FE0020FFF743FE0400FFF788FE2000CF
:1026D00010BC08BC184710B5FFF77AFE0620FFF7BC
:1026E00036FEFFF77CFEF3E710B5FFF771FE04201E
:1026F000FFF72DFEFFF773FEEAE770B504000D004B
:10270000FFF7E9FFFFF764FE0220FFF720FE20003D
:10271000FFF72AFE2800FFF71AFEFFF760FE70BCE5
:1027200008BC184710B50400FFF752FE0320FFF75E
:102730000EFE2000FFF718FE0020FFF708FE040041
:10274000FFF74DFE2000C3E770B504000D00FFF752
:10275000C2FFFFF73DFE0220FFF7F9FD2000FFF763
:1027600003FE2800FFF700FEFFF739FED7E710B59C
:102770000400FFF72DFE0320FFF7E9FD2000FFF71F
:10278000F3FD0020FFF7F0FD0400FFF728FE200016
:102790009EE770B504000D00FFF79DFFFFF718FEE0
:1027A0000220FFF7D4FD2000FFF7DEFD2800FFF731
:1027B000E8FDFFF714FEB2E710B50400FFF708FECE
:1027C0000320FFF7C4FD2000FFF7CEFD0020FFF738
:1027D000D8FD0400FFF703FE200079E710B5FFF7EE
:1027E000F7FD0520FFF7B3FD0020FFF7B0FD040063
:1027F000FFF7F5FD20006BE710B50400FFF76BFF56
:10280000FFF7E6FD0120FFF7A2FD2000FFF79FFD87
:10281000FFF7E5FD5CE700060904084311020843E1
:10282000184301000020B4E7F8B504000D001600BD
:102830001F000020FFF7C0FF010E2170010C29705E
:10284000010A31703870F8BC08BC1847104801689C
:102850005022114301600F4805218162816A802264
:10286000114381628321C160042101600021416024
:102870000321C160704707494A699206FCD5086088
:10288000704704484169C907FCD0006870470000E0
:1028900000C002E000C000E010B5FFF7ECFF10BC84
:1028A00008BC18470020C043704710B5FFF7E3FF8E
:1028B000F5E7FEE701C08FE21CFF2FE15949C86927
:1028C000012252071043C86157480021417010216E
:1028D000C170704770B55448002444704471534827
:1028E000102101F067FF4F49886901225207104308
:1028F0008861FFF7E3FF01210020FFF75FFE4C48EE
:102900000323C36044604B490A6801252D052A430F
:102910000A600A68AD002A430A604749474A1163C2
:10292000474A0F211163474AA9011161C2688021FA
:102930000A43C26008220260446005228262826A01
:102940000A438262C2688A43C2608168436070BC85
:1029500008BC1847334948690122520710434861AF
:1029600031490020087088707047FFB506001700D5
:102970001C0081B000F023F92B4D03E000F024F996
:10298000052802D8A8780028F8D0FFF7E3FF2749E8
:10299000FF20103108704870A01C8E70C87002981B
:1029A000087100200E0006E0810032187958401CA2
:1029B0000006000E5171A042F6D31C48103000F002
:1029C000A1FA3119A41D48710120AC7168713078E9
:1029D0001749086005B0F0BC08BC184770B5050081
:1029E00000F0EDF8104C03E000F0EEF8052802D8F6
:1029F000A0780028F8D0E8782900001D02060B48CE
:102A0000120E1030A27101F0BBFEFFF7A3FF0120F0
:102A100060710648064910300078086097E70A4858
:102A2000DCE70000008002E0080100400C020040EA
:102A3000008007E000C002E04C2A000040F1FFFFE8
:102A400040F2FFFF00F0FFFFE84E00003F502DE98D
:102A5000FC509FE5FC309FE50140A0E3340000EA14
:102A60000E0000E2040050E31600000A100000CA45
:102A7000000050E3E0009F05180090052C00000ABC
:102A8000020050E32A00001A0500D5E50610D5E53E
:102A9000010050E1C4109F350010D137001083357C
:102AA000010080320500C5352100003A80FFFFEBB0
:102AB0001F0000EA060050E3140093051C00000A02
:102AC0000C0050E31A00001A000093E50400C5E56D
:102AD0000100D5E50310D5E5010050E10040C52512
:102AE000030050E30700001A0410D5E5041081E24A
:102AF0000310C5E5FF1001E2100051E30200A083BE
:102B00000000C5850600008A0010D5E5000051E3ED
:102B10000410D50548209F050010C207010080025F
:102B20000100C5050100D5E50310D5E5010050E120
:102B30000240C505080093E5FF0000E2010010E334
:102B4000C6FFFF0A0000A0E3000100E53F50BDE81A
:102B500004F05EE208010040008007E0000001E0B0
:102B60001C0200400C0200403649012048600B2244
:102B7000CA60354948603548C86070473248806847
:102B80003349086070473048806831490968401A05
:102B900070472D4880682E49486070472A488068F1
:102BA0002B494968401A704727488068284988603F
:102BB00070472548806826498968401A704722482E
:102BC00080682349C86070471F4880682049C968E9
:102BD000401A70471C4880681D49086170471A48B0
:102BE00080681B490969401A70471748806818496E
:102BF000486170471448806815494969401A704710
:102C0000114880681249886170470F4880681049F0
:102C10008969401A70470C4880680D49C86170473F
:102C2000094880680A49C969401A7047064880689F
:102C3000074908627047044880680549096A401AD4
:102C400070470000004000E0008000E0DF2E000040
:102C50002C02004001C08FE21CFF2FE15849C869D7
:102C6000012212071043C86156480021417010210B
:102C7000C170704770B55348002444704471524885
:102C8000102101F097FD4E49886901221207104377
:102C90008861FFF7E3FF01210800FFF78FFC4B4835
:102CA0000323C36044604A494A6A1D062A434A62B4
:102CB0004A6A9D062A434A624649474A5163474A3F
:102CC0000F215163D105464A1161C26880210A4330
:102CD000C26008220260446005228262826A0A435E
:102CE0008262C2688A43C2608168436070BC08BC6B
:102CF0001847334948690122120710434861314996
:102D00000020087088707047FFB5060017001C008F
:102D100081B0FFF75FFF2B4D03E0FFF760FF052851
:102D200002D8A8780028F8D0FFF7E3FF2649FF2053
:102D3000103108704870A01C8E70C870029808711D
:102D400000200E0006E0810032187958401C000671
:102D5000000E5171A042F6D31B48103000F0D2F89B
:102D60003119A41D48710120AC7168713078174980
:102D7000086005B0F0BC08BC184770B50500FFF747
:102D800029FF104C03E0FFF72AFF052802D8A0789E
:102D90000028F8D0E8782900001D02060A48120E23
:102DA0001030A27101F0ECFCFFF7A3FF012060716D
:102DB0000548064910300078086097E70948DCE7C5
:102DC000008002E00F0100405002004000C007E018
:102DD00000C002E0E82D000040F1FFFF40F2FFFFDD
:102DE00000F0FFFFE84E00003F502DE9FC509FE54A
:102DF000FC309FE50140A0E3340000EA0E0000E251
:102E0000040050E31600000A100000CA000050E35E
:102E1000E0009F05180090052C00000A020050E316
:102E20002A00001A0500D5E50610D5E5010050E19D
:102E3000C4109F350010D137001083350100803257
:102E40000500C5352100003A81FFFFEB1F0000EAB5
:102E5000060050E3140093051C00000A0C0050E328
:102E60001A00001A000093E50400C5E50100D5E54D
:102E70000310D5E5010050E10040C525030050E3F3
:102E80000700001A0410D5E5041081E20310C5E51F
:102E9000FF1001E2100051E30200A0830000C5858D
:102EA0000600008A0010D5E5000051E30410D505A6
:102EB00048209F050010C207010080020100C505DF
:102EC0000100D5E50310D5E5010050E10240C5053C
:102ED000080093E5FF0000E2010010E3C6FFFF0ACF
:102EE0000000A0E3000100E53F50BDE804F05EE211
:102EF0000F01004000C007E0000001E06002004058
:102F00005002004010B4C37800220221DB1C06E00E
:102F1000445CA2181204491C120C0906090E8B42CB
:102F2000F6D8D04310BC0006000E7047020008001F
:102F300010B5002A08D0012A09D0022A0AD100F0CF
:102F4000EDFE10BC08BC1847FFF748FDF9E7FFF796
:102F500014FFF6E71100FDA001F0E2FEF1E7F0B585
:102F600085B000276846FFA11CC91CC03C00601C3E
:102F70000006000E00266B4603903500987068002E
:102F8000281800190101081AF9490A5C002A20D002
:102F90004018817B01291CD10021817341786B4647
:102FA00099718178D971C17819720079587268461F
:102FB000FFF7A8FF6B46987228006946FFF7B6FF37
:102FC0000120A840010031430E063843360E0706A3
:102FD0003F0E6D1C2D062D0E032DD0D3002E34D0A8
:102FE000FFF70EFEFFF711FE0628FBD3E14800783D
:102FF000002802D0E048017902E0F00705D08021E6
:103000002001021BDA4810184173DC4800780028C0
:1030100002D0DB48017902E0B00706D5802120010B
:10302000021BD348101820308176D648007800283B
:1030300002D0D548017902E0700706D58021200131
:10304000021BCB4810186030C171039C032C8ED337
:10305000002401252800A040384203D0CB4920009D
:10306000FFF764FF641C2406240E032CF2D3002F08
:1030700005D0FFF7C5FDFFF7C8FD0328FBD305B05A
:10308000F0BC08BC1847FEB5C1A006C86B4606C315
:10309000C14901244A782000002A00D00020BE49FE
:1030A000B34E48704878002700280BD13200010148
:1030B000091A8918401C0006000ECF7009280F71EC
:1030C000F5D31EE0002200214800081880180301F3
:1030D000181A335C002B08D08019437920254370DF
:1030E00083798370C57007718473491C0906090EC2
:1030F0000329E9D3521C1206120E032AE3D3FFF769
:103100002EFFA5486B46407800259871681C07067D
:103110003F0E6B46002668469F70FFF7F3FE6B4636
:103120000024D8716000201840190101081A904944
:10313000085C002808D020006946FFF7F7FE012050
:10314000A04030430606360E641C2406240E032CD1
:10315000E8D3002E05D0FFF753FDFFF756FD0628F4
:10316000FBD33D00032FD1D38B484078002805D0F6
:103170000120FFF7FFF9FEBC08BC18470120FFF74C
:10318000E3F9F8E710B5FFF7A5FBFFF773FD00F0D3
:1031900046FDFFF778FFD4E610B5002806D00128D9
:1031A00006D0022806D177480078CAE67148FBE7C6
:1031B0007248F9E7010065A001F0B2FD0020C0E609
:1031C000FEB576A001684068694F00240091019027
:1031D000601C0006000E6B46029098700026684640
:1031E000FFF790FE6B460025D8716800281800197B
:1031F0000101081A385C002808D028006946FFF74A
:1032000095FE0120A84030430606360E6D1C2D06A3
:103210002D0E032DE9D3002E57D0FFF7F1FCFFF759
:10322000F4FC0628FBD35348007800280ED05249FE
:1032300020010A79001BC01942734A7942728A79C7
:103240008272CA79C272097A017306E0F00704D06B
:1032500021018020091BC9194873484800780028BB
:103260000FD0474920010A79001BC019203082760F
:103270004A7982758A79C275CA790276097A417665
:1032800007E0B00705D52001001B8021C0192030C0
:1032900081763C48007800280FD03B4920010A790C
:1032A000001BC0196030C2714A79C2708A790271FC
:1032B000CA794271097A817107E0700705D520014A
:1032C000001B8021C0196030C171029C032C00D208
:1032D0007EE750E7FEB533A0016840680025009105
:1032E0000190002468002F18601C0606360E6B46FD
:1032F00068469E70FFF706FE6B46587128006946C7
:10330000FFF714FEFFF77CFCFFF77FFC0628FBD3DA
:103310002800FFF741FF002801D0012100E0002133
:1033200038190201121A12483400032E8154DBD3DB
:103330006D1C2D062D0E032DD3D3FFF741FF1BA0CF
:1033400001F0EEFC0A4F0025002439E0556E6B6E4B
:103350006F776E206368616E6E656C2025750A0D4F
:1033600000000000FFFF0007041E00000000000036
:10337000700200400A0100400C02004011010040B0
:1033800050020040CE01004048030040E84E0000DB
:10339000FFFF00040318000016010040FFFF0004B7
:1033A00002060400FFFF0002010000005365727670
:1033B0006F7320666F756E643A200A0D000000007E
:1033C000680028180290621C29009BA001F0A8FC4C
:1033D0000298001901010E1AB85D002801D09BA0C7
:1033E00000E09CA001F09CFCF019027BC17A120263
:1033F0008A18417A807A0002091899A001F090FC9D
:103400009BA001F08DFC641C2406240E032CDAD34F
:103410006D1C2D062D0E032D96D396A001F080FC79
:10342000A9E6FEB595A001684068964F002400917A
:103430000190601C0006000E6B46029098700026FA
:103440006846FFF75FFD6B460025D87168002818B5
:1034500000190101081A385C002808D028006946C4
:10346000FFF764FD0120A84030430606360E6D1CB0
:103470002D062D0E032DE9D3002E59D0FFF7C0FBEA
:10348000FFF7C3FB0628FBD37F48007800280ED047
:103490007E4920010A79001BC01942734A794271A2
:1034A0008A798271CA79C271097A017206E0F007DD
:1034B00004D021018020091BC91948737448007881
:1034C00000280FD0734920010A79001BC019203051
:1034D00082764A7982748A79C274CA790275097AC5
:1034E000417507E0B00705D52001001B8021C019F8
:1034F0002030817668480078002811D06749200183
:10350000001B0A79C31918006030C2714A79403330
:10351000DA778A790270CA794270097A817007E095
:10352000700705D52001001B8021C0196030C171D2
:10353000029C032C00D27CE71DE6F8B558480178C0
:10354000002946D00021017056484078002840D01C
:103550000022002148000818801803011E1A49485B
:10356000805D002829D00C2048434F4BC0189300A1
:10357000C318DF1C1B1D5D789C1C002D02D1207818
:1035800000281AD03F483F7830184678BC46BE42E3
:103590000AD186781F78BE4206D1C678AE4203D1E2
:1035A00006792778BE4208D0664646701B7883703D
:1035B000C5702478012304718373491C0906090E20
:1035C0000329C7D3521C1206120E032AC1D3FFF7D8
:1035D000C6FC34480078002801D0FFF722FF334CA6
:1035E0002078022808D10120FEF7A2FF002803D08E
:1035F00000202070FFF747FD2078012801D102202C
:103600002070F8BC08BC184770B5022811D82D21CD
:1036100048431C4E002405002001001B801940195E
:103620000F30072101F0C6F8641C2406240E032C79
:10363000F2D370BC08BC18474368616E6E656C209D
:1036400025752049442025753A200000666F756E67
:10365000640000006E6F7420666F756E6400000079
:1036600043573A20257520204343573A20257500BB
:103670000A0D00000A0D0A0D00000000FFFF000403
:1036800002240400700200400A0100400C020040C5
:103690001101004050020040CE01004048030040AC
:1036A0001801004016010040F702004001010040EF
:1036B0003EB5FE4968461CC91CC0FD4C0C22E01CEE
:1036C000694601F05DF8200000F0DCF9A07000F020
:1036D00051FC00F080FE012000F0B7FE3EBC08BCAB
:1036E0001847F2490322091F10B5822008DF10BCD9
:1036F00008BC184710B5EE4CA43CE0700020A07048
:10370000200000F0BFF9A07021002278822008DF9D
:10371000EDE710B5E64CA03CE0700020A070200062
:1037200000F0B0F9A07021002278822008DFDEE7E7
:1037300010B5DF4C9C3CE0700020A070200000F031
:10374000A1F9A07021002278822008DFCFE770B5B0
:10375000D848D74D0078983DEC1C002801D1FFF7E0
:1037600060FED54B00200101091ACA185679611C68
:10377000401C267092790006A41C000E09280A70CD
:10378000F1D30020A870CA48983800F07BF9C849E6
:10379000A87098392A78822008DF70BC08BC1847C6
:1037A00010B5FFF797FDC24CC3490020833C0201CE
:1037B000121A23188A5C401C0006000E0928DA70D1
:1037C000F5D30020A070BA48833800F05BF9B849FF
:1037D000A07083392278822008DF88E710B5C1788D
:1037E000B34CC91D773C2170C2780100E01C121D4A
:1037F00000F0C6FF200000F045F9A07021002278FB
:10380000822008DF73E7AA4810B502780100822001
:1038100008DF6CE770B5A64DA74E273DEC1C0020D5
:103820000101091A89194A7A631C401C22708C7A9A
:103830005A1C00061C70CC7A9B1C000E1470097B6D
:103840005C1C09281970EBD30020A8709848273811
:1038500000F018F99649A87027392A78822008DFE5
:103860009BE770B5924D944E573DEC1C002108012A
:10387000401A80194379621C491C23708479531CB7
:1038800009061470C479921C090E1C70047A147015
:10389000407B941C09295070E9D30020A87084480B
:1038A000573800F0EFF88249A87057392A788220FB
:1038B00008DF72E7FEB5684600F04FFB7D4E7F4F94
:1038C0000125CCE07D4801A9019500F01DFB387869
:1038D00000993C00884201DD79A024E0032801D250
:1038E0007EA020E02A2801D987A01CE0401E01907C
:1038F000601C01A900F008FB227800980021801AC2
:103900000090080006E0235C59180904401C090CCB
:103910000006000E8242F6D80806000EFF2801D1EC
:10392000002D05D181A001F0FBF9FEBC08BC1847B1
:10393000637801F007FA0B07545D606B6F747E8447
:103940008792990000203070E178200000290AD089
:1039500001291AD002293ED1001D00F0DFF9FFF73E
:1039600018F9774C25E0001DFFF738F8FFF711F93B
:10397000744C2078002806D1FFF710F90628F8D3F8
:103980002078002824D070481EE0001DFFF7F5F9CC
:10399000FFF7FFF86D4C2078002806D1FFF7FEF8FE
:1039A0000628F8D32078002801D069480CE00120CF
:1039B0000EE02078002806D1FFF7F0F80628F8D3AB
:1039C0002078002803D06348FFF708FF47E0022073
:1039D000FFF79FFE43E00220FFF78CFE3FE03749F0
:1039E0000800273800F0CCFE3148A538057036E0D5
:1039F000FFF7D6FE33E0E07830703078002801D051
:103A000055A000E05AA001F08BF928E0E078FFF71C
:103A1000FBFD24E0FFF705FDFFF723FF1FE0227900
:103A2000E17859A001F07CF92179E078FEF7C6FD34
:103A300015E061A001F074F9FFF725FB0FE0FFF737
:103A4000E9FE0CE0E17863A001F06AF9E078002873
:103A500000D00120FEF7AAFB01E0FFF7D4FE00989A
:103A6000002800DD2EE760E70120B5E71148007867
:103A7000002800D0F5E6704710B5FFF71BFFFFF7F1
:103A8000F5FF34E610B4037842780321D21806E03B
:103A9000445CA2181204491C120C0906090E8B4240
:103AA000F6D8D04310BC0006000E7047F44E00005C
:103AB000BD01004016010040700200401E0300409E
:103AC0004E6163687269636874206E69636874200C
:103AD0006B6F6D706C6574740A0D00004E616368E5
:103AE00072696368746CE46E6765206D757373202A
:103AF0006772F6DF657220676C6569636820332042
:103B00007365696E0A0D00004E61636872696368CF
:103B1000746CE46E6765206D757373203C3D2034D2
:103B200032207365696E0A0D000000005072FC6659
:103B300073756D6D656E6665686C65720A0D000063
:103B4000CE0100400A0100400C020040110100407B
:103B500050020040480300404175746F2075706446
:103B600061746520656E61626C6564200A0D0000F9
:103B70004175746F20757064617465206469736148
:103B8000626C6564200A0D00656E61626C65207070
:103B90006F776572207265636569766564202D2094
:103BA0006368616E6E656C3A2025752020656E61D4
:103BB000626C653A20257500546F67676C652074E8
:103BC0006F727175652072656365697665640A0D4B
:103BD0000000000052657365742064657669636552
:103BE0002E20456E7465722055534220426F6F74CB
:103BF0006C6F616465723A2025640A0D0000000054
:103C000001C08FE21CFF2FE15649C8680122104312
:103C1000C8605548002141701021C170704770B5CF
:103C200051480024447044715048102100F0C2FDF6
:103C30004C498868012210438860FFF7E5FF0121A5
:103C40000220FEF7BBFC4A480325C5604460494991
:103C50000A6902231A430A610B69082213430B61A4
:103C60004549464BD961464B0F21D9618021431408
:103C70001961C3680B43C36002604460052282621D
:103C8000826A0A438262C2688A43C2608168456070
:103C900070BC08BC1847334948680122104348608B
:103CA00031490020087088707047FFB50600170082
:103CB0001C0081B0FEF799FF2B4D03E0FEF79AFF41
:103CC000052802D8A8780028F8D0FFF7E4FF274994
:103CD000FF20103108704870A01C8E70C8700298C8
:103CE000087100200E0006E0810032187958401C4F
:103CF0000006000E5171A042F6D31C481030FFF7A9
:103D000001F93119A41D48710120AC716871307836
:103D10001749086005B0F0BC08BC184770B505002D
:103D2000FEF763FF104C03E0FEF764FF052802D89E
:103D3000A0780028F8D0E8782900001D02060B487A
:103D4000120E1030A27100F01BFDFFF7A4FF01203E
:103D500060710648064910300078086098E7094805
:103D6000DCE70000008002E0CC0100404803004096
:103D7000000001E000C002E0883D000000F1FFFF0C
:103D800000F2FFFFE84E00003F502DE9F8509FE59C
:103D9000F8309FE50140A0E3330000EA0E0000E2A6
:103DA000040050E31500000A0F0000CA000050E3B1
:103DB000180093052C00000A020050E32A00001AA4
:103DC0000500D5E50610D5E5010050E1C0109F358E
:103DD0000010D13700108335010080320500C53551
:103DE0002100003A85FFFFEB1F0000EA060050E3C8
:103DF000140093051C00000A0C0050E31A00001A7E
:103E0000000093E50400C5E50100D5E50310D5E504
:103E1000010050E10040C525030050E30700001AEF
:103E20000410D5E5041081E20310C5E5FF1001E29E
:103E3000100051E30200A0830000C5850600008A3F
:103E40000010D5E5000051E30410D50544209F057E
:103E50000010C207010080020100C5050100D5E580
:103E60000310D5E5010050E10240C505080093E5C7
:103E7000FF0000E2010010E3C7FFFF0A0000A0E31B
:103E8000000100E53F50BDE804F05EE2CC010040D7
:103E9000000001E0580300404803004001C08FE2E9
:103EA0001CFF2FE110B500F0FDF810BC08BC18474E
:103EB00010B500F0CCF8F8E7704710B50328F4D13E
:103EC00000F054F80F490A888242EED0088000F0D2
:103ED000CAF8EAE710B5022804D00328E5D100F0BB
:103EE00097F8E2E700F098F8DFE77047704770470F
:103EF000704770477047704770477047704770470A
:103F000070477047D401004010B40968624A0B0042
:103F100009E054686406640EA418247A0470546896
:103F2000401C641C5460491EF3D210BC180070473A
:103F300030B40968584A0B000AE0156804786D0629
:103F40006D0EAD182C721468401C491E641C146060
:103F50000029F2D130BC180070474F490A684968FF
:103F6000511A4906490E0160002070474B49002054
:103F700008807047494A00B501205080FFF7F6FFDE
:103F80004549108000200860486008BC184701209F
:103F900070470120704701207047012070470120C1
:103FA000704710B53E4C61782078E27809020843EA
:103FB000A17812060904114308433849891D00F00D
:103FC00010FC21793548801D017161794171A17919
:103FD0008171012010BC08BC1847304810B5801D05
:103FE00000F0F6FB2E49020A08704A70020C000E1F
:103FF0008A70C8702948801D02790A7142794A7115
:10400000807988710120E5E7012070470120704721
:1040100022490120488070471F4808B506C8802003
:10402000891A4906490E401A402804D81B49012024
:10403000888001B0A9E7184902204C3900F07BFACA
:104040000090154869464C38FFF772FFF1E71349B5
:104050008888002806D0104805C8824202D1002076
:104060008880D9E770470C4810B5A1210C38017041
:104070002021417000218170C170017102224171C3
:104080008271C17105490A2209880172090A4172C7
:104090000100812008DF9DE7B4030040D601004005
:1040A0003C04004095480121818000210170944A20
:1040B0004170C160826001617047904910B5203144
:1040C000002000F038FA10BC08BC184710B58B4C23
:1040D0001834A288402A00D940222168802008DFB5
:1040E000216809182160A188081AA080EBE710B5A3
:1040F000824C00201834216800F01DFA216809184C
:104100002160A188081AA080DDE70022110010B507
:10411000802008DFD7E710B57A49002000F00BFABD
:10412000D1E7F8B5754C754D18342600083631784E
:104130000027030000F006FE086005A1D16060DCE6
:10414000DE60FFF7BAFF3078C00900F0BFF9F088F1
:10415000A08030784106890F1CD0012970D1C0069B
:10416000C00E6DD001286BD13079002801D0012814
:104170007ED17078634D04286AD055DC002860D069
:10418000012860D002285CD0032871D17088FFF725
:1041900004FF66E0737800F0D5FD0C070A6B0C6B2A
:1041A000121A1F212732446B00F0F8FB11E00020A7
:1041B00000E0012000F032FC002859D04CE0C0069D
:1041C000C00E55D1B07880210843287044E000F03B
:1041D00099FB00284CD021E000204AE0C006C00E28
:1041E00046D14648401C18E000F068FC00283FD04B
:1041F000FFF78BFFFFF760FEF8BC08BC1847C0064E
:10420000C00E012834D16878002831D03079A978DF
:1042100088422DD23949143140182060FFF756FFEB
:10422000EAE700F0F7FCC7E720280AD0212816D0DB
:10423000222819D023281BD17088FFF7E7FE46E01B
:1042400016E02560D8E7FFF7A4FE0AE02560E5E761
:104250007088FFF7A4FE3AE0FFF757FFCCE7FFF7BF
:10426000BCFE0028F2D103E07088FFF7CDFE2EE0FF
:10427000802000F04AF9A780BEE7C8092AD1A088AB
:104280000028B9D0FFF733FFA0880028B4D13078D8
:104290004106890FECD00129EAD1C006C00EE7D053
:1042A0000128E5D13079002801D00128E0D17078CB
:1042B000002806D0022807D02028D9D1FFF771FEA8
:1042C00005E0FFF764FE02E07088FFF764FE002857
:1042D000CED0C1E7FFF71FFF8EE7C8099ED128782F
:1042E000010689D54006400E287000F04DF883E79E
:1042F000002000E0802000F012F97DE7E40100409A
:10430000010001003C0400400FC08FE21CFF2FE1C0
:1043100001000007C00E090600D5401C7047B249D5
:1043200010228A6008610868C006FCD57047AE4A52
:104330001023936010611068C006FCD59360116172
:104340001068C006FCD5704710B5A74A10230C00B2
:104350009360FFF7DDFF052100040902401810619A
:104360001068C006FCD5936014611068C006FCD5C7
:1043700010BC08BC18479C4930228A600861086854
:104380008006FCD54869704730B504049748984DBD
:10439000044321002800FFF7CAFF21002800FFF78F
:1043A000C6FF30BC08BC18478F48002140308160F0
:1043B0004021C16001228260C1608B480168C9054B
:1043C000FCD50021C9438163416381600D214160B7
:1043D000704770477047874800B541680F229206C2
:1043E0009143416041680522920611434160C168D2
:1043F000814A1140C160C168804A1143C1600169AE
:104400000322920491430161016901229204114344
:1044100001617B484168420611434160794912239A
:104420004B638A6B18009043FBD1774877498861CA
:10443000774901208861774980050861FFF7B4FF5B
:104440000020FFF7A1FF08BC1847002800D001207A
:104450000104FF317048013169E770480088800726
:1044600002D56F496C4862E77047704700B5002875
:1044700000D001200104FF316A480131FFF757FFE6
:10448000594903204031486057480168C905FCD5A7
:10449000FF2101318160D6E710B502008078FFF777
:1044A00037FF514940314C68012383401C434C6025
:1044B00088605079127900021043C8604A48016848
:1044C000C905FCD5FF210131816051E7704700B576
:1044D000FFF71EFF5449000408438913FFF727FF25
:1044E000B1E700B5FFF714FF4F49000408434F49F7
:1044F000FFF71DFFA7E700B5FFF70AFF4A490004D1
:1045000008438913FFF713FF9DE700B5FFF700FF8E
:104510004549000408434249FFF709FF93E700B506
:10452000FFF7F6FE4049000408438913FFF7FFFE3A
:1045300089E73F4908E7F3B581B001982A4E0007A3
:104540000D00800E401CB062306A0105FCD580056C
:10455000800D00900024C01C870805E0B069290088
:1045600000F03FF92D1D641CA742F7D80020B0626F
:1045700001993048C840C00703D12D490198FFF781
:10458000E3FE0098FEBC08BC1847F7B50098164F2C
:1045900000070D00800E801CB862029878620298B5
:1045A0000024C01C860805E0280000F011F9F8611D
:1045B0002D1D641CA642F7D80020B8621E49009841
:1045C000FFF7C2FE0298DDE710B51C48FFF7A7FE13
:1045D0001B4C2000FFF7CFFE03002000FFF7CBFEAF
:1045E00000021843C4E6000000C2E0FF00018000A2
:1045F0000005D00000C002E0CFFFFFCF1000002078
:10460000C0C01FE0C0CFE0FF4446000040F1FFFF04
:1046100040F2FFFF00F0FFFF0005FE00E801004050
:10462000000101000005D800000540000001200045
:104630000005F200481200000005FA000005F50030
:104640000002F500FF532DE920619FE5004296E549
:10465000080014E31200000A0800A0E3080286E53F
:104660000C019FE527FFFFEB08019FE5930000EB9E
:10467000100010E30040A0E10100000A920000EBEE
:1046800005FEFFEB080014E33400000A040014E305
:104690000100000A8F0000EB300000EA900000EB00
:1046A0002E0000EA010014E30190A0E308928615B1
:1046B0008E00001B040014E32800000A307296E507
:1046C0000050A0E3B0809FE50540A0E1050057E160
:1046D0002000000A1914A0E1070011E11A00000AE5
:1046E000015085E1A400A0E1381286E5001296E5AC
:1046F000200011E3FCFFFF0A141296E5010014E309
:104700000B00001A000054E30400001A040011E337
:1047100000109815000051130100A0130800001AA2
:10472000001198E7000051E30700000A0200A0E32F
:10473000030000EA001198E7000051E30200000ABC
:104740000300A0E30FE0A0E111FF2FE1014084E2AC
:10475000200054E3DCFFFF3A0400A0E3080286E5F2
:104760000000A0E3000100E5FF53BDE804F05EE2B5
:1047700000C0E0FF0005FE000002FE00004F000048
:1047800003000B439B070AD102E008C9121F08C0AF
:10479000042AFAD203E00B78491C0370401C521E15
:1047A000F9D270471206120E01E00270401C491E39
:1047B000FBD270470022F5E710B504000800110095
:1047C00002002000FFF7EEFF200010BC08BC1847D5
:1047D000021D0321521E137800021843491EF9D509
:1047E0007047030003220870491C000A521EFAD5C4
:1047F000180070470B00010030B400202022012473
:1048000009E00D00D5409D4205D31D009540491B90
:104810002500954040191500521E002DF1DC30BCDA
:104820007047000001C08FE21CFF2FE1054C064DD0
:1048300004E020000FC800F084FA1034AC42F8D332
:1048400000F05CF8EC4F00000C50000000502DE927
:1048500000C04FE100112DE920001CE3B2C05E1141
:10486000FFCCCC1304C01E05FFC4CC0324809FE5FD
:1048700008005CE10600002A1C808FE20CC198E76A
:104880000FE0A0E11CFF2FE10011BDE80CF06FE18B
:104890000090FDE8FEFFFFEA0900000094480000D8
:1048A0009448000094480000944800009448000098
:1048B0009448000094480000944800008B45000094
:1048C00000C09FE51CFF2FE17743000000C09FE57B
:1048D0001CFF2FE1A943000000C09FE51CFF2FE152
:1048E000D543000000C09FE51CFF2FE1D34300002B
:1048F00000C09FE51CFF2FE1B13E00007847C04695
:1049000025F6FFEA214830B40178C078C906C90EFF
:104910003AD11E4C083C012808D01C4902288B784B
:1049200008D0032830D11A4800211FE01948206020
:10493000122022E01848002108E00278002A04D062
:10494000C278857812022A431018491C8B42F4D190
:104950000178002918D02060C178827808021043BD
:104960000BE00278002A00D01018491C8B42F8D1C5
:104970000178002908D020600078A188814200D900
:10498000A080012030BC70470020FBE704020040FB
:10499000964F0000404F0000524F000070B41D4879
:1049A0001C4B0078083BC106C90E24D019481D00D5
:1049B000183D6A780079184C012922D0022927D1A4
:1049C0008F21084001218140060604D50607360FD5
:1049D00001210904B140002A01D1000718D1A868BB
:1049E000084215D0E868084000D001202070000A75
:1049F00060701C6002E007481C381860012070BC21
:104A00007047002A04D0A978884201D20020EDE73F
:104A10000020F4E7040200403C04004070B5254B40
:104A20000200187819004988234DC006C00E20D016
:104A300001283CD002283AD118798F23012418404C
:104A40008440030604D503071B0F012424049C4063
:104A50006B78002B2BD0030729D0AB68234226D0DC
:104A6000002924D1002A16D0FFF74FFDE868204323
:104A700018E001291BD10224002A05D00120FFF7EC
:104A8000F4FCA888204304E00020FFF7EEFCA8888F
:104A9000A043A88007E02969214204D1FFF73FFD28
:104AA000E868A043E860012070BC08BC18470020FB
:104AB000FAE7000004020040E4010040F8B5524863
:104AC00000260178C906C90E70D180784E4F203F6C
:104AD00000286DD04D4C65E06078022820D0042875
:104AE0005ED0052819D1002E17D1A5788F2101207D
:104AF0000D40A840290604D52907090F012000040C
:104B00008840B96801432000B960FFF7C5FC280060
:104B1000FFF7DDFC2800FFF7EEFC2078041941E0E8
:104B2000394861798078814235D1787021790020C7
:104B3000B97035490C3900220A54401C0428FAD3B4
:104B400001250120B968A840084202D02800FFF7DB
:104B5000C8FC01200004B968A840084204D028001D
:104B600080210843FFF7BDFC6D1C102DE9D32848B8
:104B70003D00B8600020F86038610120FFF776FC46
:104B8000E0794006A88802D50121084301E04008E9
:104B90004000A880C1E7E078A17800020843BDE7A3
:104BA000E678BAE72078002896D121E025E0FFE7F3
:104BB000002001242504802678700120B968A040D7
:104BC000084202D02000FFF78CFC2800B968A04002
:104BD000084203D020003043FFF783FC641C102CF4
:104BE000EBD30B48B8600020F8603861FFF73EFC5B
:104BF000054879788078884203D00020F8BC08BC4A
:104C000018470120FAE7000004020040524F00005C
:104C100001000100F0B5002685B03F4803960296DA
:104C200000783700C006C00E012873D13A482038FA
:104C3000407800286ED00020384C009061E0607809
:104C400002282DD0042836D0052858D132480179C1
:104C5000B14254D1A1788F22012511408D4001919C
:104C6000090605D5019901250907090F2D048D4075
:104C70008078B84232D12848203881682943816041
:104C8000C168A943C1602000FFF706FC0198FFF747
:104C90001EFC0198FFF72FFC0298284302902EE09B
:104CA0001D49607920394978884228D0E078A17878
:104CB0000002084324E0A678E77800200290164816
:104CC0000179B1421BD18078B84218D101200090FF
:104CD00011480C38815D0391875510E00398874295
:104CE0000DD1029828420AD10B4820388168A94387
:104CF0008160C168A943C1600198FFF7F2FB207889
:104D00000419207800289AD1009805B0F0BC08BC9E
:104D10001847FFE70020F8E704020040524F000068
:104D20000FB410B5044A054B029803A900F032F8FD
:104D300010BC08BC04B018470401004099280000CA
:104D4000104718477847C04601C05EE50C0053E1A4
:104D50000330DE370C30DE2783C08EE01CFF2FE1EE
:104D6000000052E3043090140420421204308114F5
:104D7000FAFFFF1A1EFF2FE11EFF2FE10000A0E344
:104D8000000052E30420421204008114FBFFFF1ACA
:104D90001EFF2FE1FFB5040000258DB092E025280D
:104DA00076D100274F4A641C01210C972378080014
:104DB000203B98400300134202D00743641CF5E7F0
:104DC00020782E2817D1042007436078641C2A28F5
:104DD0000CD10E98641C02C80E900C910BE00C993B
:104DE0000A22514330394018641C0C90207801008D
:104DF00030390929F3D92078002867D0642809D0F0
:104E0000692807D0752866D10E990A200B9001C930
:104E10000E9114E00E990A200B9001C90E91002802
:104E200002DA40422D2102E0390504D52B216B46E0
:104E30001972012104E0F90701D02021F7E70021D0
:104E40000BAE009105E00B99FFF7D4FC3031761ED4
:104E500031700028F7D103A8801B2030019078071B
:104E600001D401200C90019A0C990020914200DDA0
:104E7000881A00270C9007E00FA906C902A8C05D98
:104E8000FFF75EFF6D1C7F1C00988742F4DB06E095
:104E900021E00FA906C93020FFF752FF6D1C0C98C6
:104EA000411E00280C91F4DC06E00FA9307806C9F9
:104EB000761CFFF745FF6D1C0198411E00280191EB
:104EC000F3DC641C2078002800D068E7280011B0CB
:104ED000F0BC08BC18470FA906C9FFF731FF6D1CCD
:104EE000EFE7000009280100FFFFFE0205FA0000BD
:104EF00003FFFD00020000000000000001000000B0
:104F000023410000BB3E0000D53E00000000000031
:104F10000000000000000000000000000000000091
:104F20000000000000000000000000000000000081
:104F30000000000000000000000000000000000071
:104F40001201000202000040291E080400010102B3
:104F5000030109024300020100803209040000013C
:104F600002020100052400100105240103010424AC
:104F7000020205240600010705810340000209041E
:104F80000100020A000100070502024000000705B7
:104F9000820240000000040309041203520045008D
:104FA0004300200047006D00620048001A035200D1
:104FB0006F0062006F00740069006E006F002000D7
:104FC000410072006D001A033000300030003000E4
:104FD0003000310030003000300030003000300050
:104FE0000A03560043004F004D0000000C50000023
:104FF000000100400C010000604D0000185100004D
:105000000C020040B40700007C4D000000000000CE
:105010000000000000000000000000000000000090
:10502000000001010004030000040100000404006A
:105030000015050000000000000000000000000056
:105040000000000000000C0700000000000000004D
:10505000000000020000000000000000000000004E
:105060000000000000000000000000000000000040
:1050700000003006000000000000000000000000FA
:105080000000000000000000000000000000000020
:105090000000000000000000000000000000000010
:1050A00000002708000000000000000000000000D1
:1050B00000000000000000000000000000000000F0
:1050C0000000000000000000000F090000000000C8
:1050D00000000000000000000000000000000000D0
:1050E0000000000001000000802500000000080012
:1050F00000000000000000000000000000000000B0
:10510000000000000000000000000000000000009F
:08511000000000000000000097
:040000050000219442
:00000001FF
