:020000040000FA
:1000000018F09FE518F09FE518F09FE518F09FE5C0
:1000100018F09FE50000A0E120F11FE518F09FE532
:1000200058000000400000004400000048000000AC
:100030004C000000000000005000000054000000D0
:10004000FEFFFFEAFEFFFFEAFEFFFFEAFEFFFFEA18
:10005000FEFFFFEAFEFFFFEAFC009FE5AA10A0E317
:100060005520A0E32030A0E3A03180E5A03190E549
:10007000403013E2FCFFFF0A0130A0E30C3180E5C1
:100080000B30A0E3843080E58C1080E58C2080E587
:100090000130A0E3803080E58C1080E58C2080E585
:1000A000883090E5013313E2FCFFFF0A883090E5C9
:1000B000A8409FE5043003E00B40A0E3043033E0A8
:1000C000F9FFFF1A0530A0E3043180E50530A0E315
:1000D000083180E50030A0E3A83180E50030A0E3DE
:1000E000AC3180E50330A0E3803080E58C1080E502
:1000F0008C2080E560009FE50410A0E3041080E5FB
:100100000210A0E3001080E554009FE5DBF021E33E
:1001100000D0A0E1000040E2D7F021E300D0A0E150
:10012000000040E2D1F021E300D0A0E1000040E275
:10013000D2F021E300D0A0E1010C40E2D3F021E3B2
:1001400000D0A0E1080040E210F021E300D0A0E1DF
:1001500001AB4DE20C009FE510FF2FE100C01FE056
:10016000FF7FFF00E80D00406C010000000000EB85
:10017000300000EB2C008FE2000C90E800A08AE039
:1001800000B08BE001704AE20B005AE10000001A57
:10019000280000EB0F00BAE818E04FE2010013E37B
:1001A00003F0471013FF2FE1881B0000A81B00007D
:1001B000102052E27800B0287800A128FBFFFF8AC7
:1001C000822EB0E13000B0283000A12800409045D8
:1001D000004081451EFF2FE101C08FE21CFF2FE18F
:1001E0001FB501F075FC059886460FBC009C02B057
:1001F0007047AE4630BC70477847C0464433221142
:100200000030B0E30040B0E30050B0E30060B0E382
:10021000102052E27800A128FCFFFF8A822EB0E174
:100220003000A128003081451EFF2FE101C08FE280
:100230001CFF2FE130B47546ED0400EB0210A0E185
:10024000E4FFFFEB1CC09FE50FC08CE001001CE346
:100250000DE08F120FE0A0011CFF2FE101C08FE223
:100260001CFF2FE101F0F6F9AD110000EEFFFFEBEE
:10027000FD0400EB0C009FE50C109FE504209FE5BA
:1002800008309FE51EFF2FE1E0080040E00C004031
:10029000E00800400FC08FE21CFF2FE101000007C3
:1002A000C00E090600D5401C7047A34910228A6081
:1002B00008610868C006FCD570479F4A1023936008
:1002C00010611068C006FCD5936011611068C0060B
:1002D000FCD57047984930228A600861086880061A
:1002E000FCD54869704730B504049448944D0443E4
:1002F00021002800FFF7E1FF21002800FFF7DDFFC4
:1003000030BC08BC18478C48002140308160402137
:10031000C16001228260C16087480168C905FCD5BF
:100320000021C9438163416381600C2141607047B2
:1003300070477047834800B541680F229206914389
:10034000416041680522920611434160C168302234
:100350009143C160C16810221143C1600169032249
:1003600092049143016101690122920411430161E8
:1003700075484168420611434160744912234B633A
:100380008A6B18009043FBD17148724988617249A9
:1003900001208861714980050861FFF7B4FF0020E2
:1003A000FFF7A1FF08BC1847002800D00120010476
:1003B000FF316B48013180E7704700B5002800D05D
:1003C00001200104FF3167480131FFF776FF5A49E8
:1003D00003204031486058480168C905FCD5FF2119
:1003E00001318160DEE710B502008078FFF756FF2B
:1003F000514940314C68012383401C434C60886064
:100400005079127900021043C8604B480168C90551
:10041000FCD5FF210131816010BC08BC1847704732
:1004200000B5FFF73BFF5049000408438913FFF76D
:1004300044FFB7E700B5FFF731FF4B49000408431D
:100440004A49FFF73AFFADE700B5FFF727FF4649F6
:10045000000408438913FFF730FFA3E700B5FFF757
:100460001DFF4149000408434149FFF726FF99E772
:1004700000B5FFF713FF3C49000408438913FFF759
:100480001CFF8FE7F3B581B001982B4E00070D00DC
:10049000800E401CB062306A0105FCD58005800DDD
:1004A00000900024C01C870805E0B069290001F015
:1004B0008BF82D1D641CA742F7D80020B06201996B
:1004C0002C48C840C0070BD10800FFF7E7FE052104
:1004D000000409024018FFF7E8FE2748FFF7E5FE91
:1004E0000098FEBC08BC1847F7B50098124F0007EB
:1004F0000D00800E801CB862029878620298002479
:10050000C01C860805E0280001F04CF8F8612D1D9C
:10051000641CA642F7D80020B8620098FFF7BEFE20
:100520000521000409024018FFF7BFFE1348FFF73A
:10053000BCFE0298D5E7000000C2E0FF0001800089
:100540000005D00000C002E0C0C01FE0C0CFE0FF47
:100550008005000040F1FFFF40F2FFFF00F0FFFFC9
:100560000005FE000005D800000540000001200045
:1005700000010100481200000005F2000005FA0029
:10058000FF502DE908519FE5003295E5083285E5D9
:10059000080013E31400000AF8009FE53CFFFFEB9E
:1005A000F4009FE5370400EB100010E30200000A9E
:1005B000370400EBB50000EB310000EA020010E365
:1005C0002F00001A080010E30700000A040010E3DF
:1005D0000200000A310400EB330400EB280000EABB
:1005E000340400EB360400EB250000EA040013E3BA
:1005F0002300000AA4609FE50040A0E30170A0E38F
:10060000300295E51714A0E1010010E11900000A7D
:10061000A400A0E1381285E5001295E5200011E361
:10062000FCFFFF0A141295E5010014E30B00001A09
:10063000000054E30400001A040011E300109615B2
:10064000000051130100A0130800001A001196E7E2
:10065000000051E30700000A0200A0E3030000EAE3
:10066000001196E7000051E30200000A0300A0E336
:100670000FE0A0E111FF2FE1014084E2200054E3EC
:10068000DEFFFF3A0000A0E3000100E5FF50BDE8F7
:1006900004F05EE200C0E0FF0005FE000002FE0084
:1006A000C81B00007748012181800021764A017033
:1006B00041708260C1607047724910B51C310020E2
:1006C000FFF7E0FE10BC08BC184710B56D4C1434A1
:1006D000A288402A00D9402221688020FFF704FF29
:1006E000216809182160A188081AA080EAE710B5DE
:1006F000644C002014342168FFF7C4FE21680918F7
:100700002160A188081AA080DCE7002210B5110042
:100710008020FFF7E9FED5E710B55C490020FFF720
:10072000B1FECFE7F8B5574C564D143426000836C5
:1007300031780027030001F0BDF9082505809125D7
:1007400025A19F25FFF7B8FF3078C009FFF767FEA6
:10075000F088A08030784106890F16D0012967D132
:10076000C006C00E012863D13079002860D17078AE
:10077000FE2856D0FF285BD100F0B8F8002857D0EB
:10078000FFF7C3FFF8BC08BC1847737801F092F973
:100790000C070A500C5010181D1F2531405000F056
:1007A000DBFF0FE0002000E0012001F019F835E048
:1007B000C006C00E3CD1B078802108432870DFE726
:1007C00000F086FF0028DDD132E0002031E0C006D5
:1007D000C00E2DD12B48401C28E0C006C00E27D1EA
:1007E00001F04AF8002823D0FFF78FFF00F065F8EA
:1007F000C8E7C006C00E01281AD16878002817D0B3
:100800003079A978884213D21E49103140180DE082
:10081000C006C00E01280BD101F0D2F80028AFD1DC
:1008200006E000F06BF8002802D01848206017E0BE
:100830008020FFF713FEA780A4E7C8090BD1A0888A
:1008400000289FD0FFF753FFA08800289AD1307866
:100850004006800FECE7FFF75FFF93E7C80902D07F
:10086000FFF733FF8EE7287801068BD54006400E50
:100870002870FFF738FD85E7802000E00020FFF7B3
:10088000F7FD7FE700000040010001005400004038
:1008900001C08FE21CFF2FE110B5FFF703FF1149E4
:1008A0001020C86110BC08BC18470E492020886180
:1008B00070470C492020C86170470B4809490278ED
:1008C0001020002A01D088617047C861704710B5B8
:1008D000022804D00328E5D100F08EFBE2E700F007
:1008E000A8FBDFE780C0FF3F01000040FF49032075
:1008F000C861FF490020087001207047FD490020B1
:10090000087001207047F0B4FB4AFC4C956892686F
:10091000E66EFB4CB21A002314190126F60232E0EF
:1009200001225202904218D2132809D0142809D06B
:10093000C21FFF3AF83A09D0012A09D1AA221EE0C3
:10094000620A00E0620C1206120E18E0552216E050
:100950001D2813D8EB4A125C11E0B04205D2EA4AD6
:100960001218FF3AFF3A023A06E0E84AE84F1268E6
:10097000BA4203D12A18921B127800E00022E54FF8
:10098000401CFA545B1C8B42CAD3F0BC7047F8B5CC
:10099000D74DEC68402C00D94024D848D84AC16EC5
:1009A000D5488068091AA8688B180619B34203D283
:1009B000091A8C18042129702100FFF7A4FFD549DA
:1009C00022008220FFF790FDA8680019A860E8685F
:1009D000061BD048EE60A730070000F0E3FD001BC7
:1009E000390000F0F1FD002E02D10320287002E052
:1009F0002878022806D0BD490120C861C5490020D9
:100A00009F310873F8BC08BC1847C24910B5C248EA
:100A10009F3100F0D9FDBF490D229F318220FFF7A1
:100A200063FDB3490520087010BC08BC1847F8B531
:100A30000500B1480E000121806849028D42E1D3D2
:100A40008A000121954226D2A94F002420E0B14816
:100A5000AD4A291940308A18005DFF3AFF3A023A40
:100A6000E528107013D1A948AC4B02689A4203D014
:100A70001000AB4A90420AD131204001814206D198
:100A80003869002803D100F09BFC01203861641C08
:100A9000B442DCD3B6E7A34B40191960A24B002146
:100AA00019609C49801A3200403100F034FCA9E7FB
:100AB000F8B592488E4CC16E8F4865788068904A30
:100AC000091AA0688B184519AB4207D2081A80187A
:100AD0006070052020700220FFF7C0FC6178A068DC
:100AE000FFF7A5FF6578A0684019A060E068461B85
:100AF0008848E660A730070000F054FD401B39002D
:100B000000F062FD002E02D02078052812D1854C1D
:100B10002068002804D084490120086000F01BFDF3
:100B20000020724A02212060D1617A499F31087306
:100B3000FFF76BFF66E7F8B570486D4DC16E6E4804
:100B40006C7880686E4A091AA8688B180419A34249
:100B500007D2081A80186870052028700220FFF755
:100B60007DFC6C4B00201A006C78A968403208E0CC
:100B70000E189E5D175CBE4202D00020686002E045
:100B8000401CA042F4D30819A860E868061B61481D
:100B9000EE60A730070000F005FD001B390000F0F3
:100BA00013FD002E02D02878052809D1696801209C
:100BB000002900D0002057499F310873FFF725FF17
:100BC00020E7544810B58030427C017DC37C12067A
:100BD0001143827C1B0212041A431143444A490206
:100BE0009160817DC07D090201434A484C028830F2
:100BF000D46000F0D7FCA0420DD08220FFF72EFC7D
:100C00000220FFF72BFC434902209F310873FFF7B6
:100C1000FCFE002008E7012006E770B53D4888305B
:100C200000F0C0FC3B4D02249F35002806D12C73F8
:100C3000FFF7EBFE002070BC08BC18473548803039
:100C4000007B000603D40220FFF708FCEFE7012039
:100C5000F1E770B52F48883000F0A4FC244C61788F
:100C6000884200D260702B49627840318220FFF7C1
:100C70003BFC032020702748A730050000F092FCC1
:100C80006178401A290000F09FFC224900209F3122
:100C90000873D0E71F4810B5883000F083FC0028A7
:100CA00009D01C488030007B000601D5822000E07E
:100CB0000220FFF7D3FB174900209F310873FFF78D
:100CC000A4FEB1E610B5FFF7A8FF00283FD01148F9
:100CD0007021403001700021022241708270C17089
:100CE000017141710A228171C2711FE080C0FF3F12
:100CF0002400004054000040081C0000881C000034
:100D000001080000D81A000094000040FC01000017
:100D100044332211940600405553425321436587C2
:100D200065872143380000403C0000400172417259
:100D300081723022C1720273012242738173C173C6
:100D400001744174CE4912204870FFF782FF6BE6B0
:100D500010B5FFF762FF00283ED0CA48002280236A
:100D60000270437001218270C170202101714371B2
:100D70008271C2714B2202726522427269236C2217
:100D80008372C2720173417381734C22C173027406
:100D900050224274432282743222C274332202757A
:100DA0005822427582754422C175027673224376B9
:100DB00082766B22C276017741778177C1773122C3
:100DC000203002702E22427030228270C170AC49F5
:100DD00024204870FFF73DFF26E610B5FFF71DFF02
:100DE00000280BD0A74803210170002141708170B9
:100DF000C170A34904204870FFF72BFF14E610B51B
:100E0000FFF70BFF00280FD09E480021062201703B
:100E100042708170C170017141718171C1719849D5
:100E200008204870FFF715FFFEE510B5FFF7F5FE47
:100E300000281BD09448C16E94488068091A9448D1
:100E40000818410A8F48491E0A0E02700A0C4270A7
:100E50000A0A8270C17000210171022241718271FF
:100E6000C171874908204870FFF7F3FEDCE510B533
:100E7000FFF7D3FE00281ED0824800210170417088
:100E800008228170C270804A0171D36E7F4A9268D5
:100E90009A1A7F4BD218530E4371530C520A837126
:100EA000C2710222027241728272C17274490C20B4
:100EB0004870FFF7CEFEB7E5F8B5714E714F0020D0
:100EC0007178704A403702E0135C3B54401C884202
:100ED000FAD31F2974D16B48403000F063FB6D4991
:100EE00088426DD1381D00F05DFB664C5F34211DDA
:100EF00000F06AFB2000173800F054FB2100083195
:100F000000F062FB787B002804D1B87B002801D078
:100F1000102802D90120207356E0F87B1E28F9D052
:100F200010DC122832D006DC00282CD00328F1D1A6
:100F3000FFF7C8FE66E51528ECD01A28EAD1FFF7BE
:100F40004CFF5FE502252A282BD013DC232820D074
:100F5000252821D02828DDD1FFF733FE0028E9D04D
:100F6000387B00061BD54C49012088613570FFF79E
:100F70000EFD47E52F282AD05528CBD05A28C9D1B5
:100F8000FFF73DFF3EE5FFF785FE3BE5FFF7E0FE9F
:100F900038E5FFF76CFF35E5FFF747FF32E5022044
:100FA0000FE0FFF70EFE0028C4D0387B000619D4EE
:100FB0003A4900200860384885610120307021E5F9
:100FC00012E0FFF74BFA2573FFF71FFD1AE5FFF755
:100FD000F8FD0028AED0387B000603D40120307025
:100FE00070600FE58220ECE78220FFF737FA0220DD
:100FF000FFF734FA0620E1E7214910B50878022806
:1010000008D003280ED004280FD0052801D10020D5
:10101000087009E51B484030C07B2828F9D1FFF74C
:10102000B6FC01E5FFF7F1FCFEE48220FFF716FABB
:10103000F8E710B513490220FFF724FA1049487069
:10104000087800280BD001280FD10E484030C07B13
:101050002A2807D02F2801D1FFF76DFDE4E4FFF720
:101060002BFFE1E4FFF724FDDEE40220FFF7F6F9B1
:10107000044902205F310873FFF7C7FCD4E4000085
:1010800024000040D4060040881C0000081C00001A
:10109000010800005553424380C0FF3F3800004024
:1010A00010B557A000F02AFA0020FFF77DF9FFF7EE
:1010B0002AF9002107204007416003210160AA218D
:1010C00081605521816010BC08BC18474E48002142
:1010D00081624E48FF22026001617047F8B54C49B9
:1010E000002008604B4EF8203070FF2070704A4C92
:1010F0004A4AB0709268E46E494B0321A71A08006F
:10110000FA18930A10E05A1E824201D1454A00E0C3
:10111000421C140105052D0F2C437518705412093B
:10112000C91C6C70801CAA708342ECD83E4C002015
:1011300001239B023218215CD218401C40281170F8
:10114000F8D33A493A4A086890421DD0394C020017
:101150003948A24201D13122C270384C0A68A242F9
:1011600001D13222C2700968354A914201D133213E
:10117000C170344904200A18203A3418127FE41848
:10118000401C0B282270F6D32B487F1C2030390AD4
:1011900007774177390C8177390EC177FFF796FFD2
:1011A000FFF7C8F80120FFF7FFF800F0C9F900F0D9
:1011B000DDF9254D254C264E206800280BD16068AE
:1011C000002808D000F0CCF9A84204D921A000F0F2
:1011D00095F9FFF765FF200003C8084308D100F028
:1011E000B4F9B04204D91FA000F088F9FFF758FF06
:1011F00000F0C1F9C828DFD900F0B8F9DCE7000039
:10120000526573657400000000C002E080C0FF3FBB
:101210003400004094000040881C0000081C0000BE
:1012200001080000FF0F0000F61A0000FC0100009A
:1012300044332211785634129404004021436587C8
:1012400065872143361B00008813000038000040EA
:1012500060EA000046696E6973686564202835732A
:1012600029000000496E61637469766974792028E9
:101270003630732900000000F8B55B4E35697561A2
:101280005A4C33272760271D0EC72061584A391D45
:10129000200000F00EFC3561F8BC08BC184730B4E3
:1012A000524B32241C601B1D07C3514A30BC4F48AF
:1012B000191D104730B44D4B34241C601B1D07C34F
:1012C0004B4A30BC4948191D1047F8B5464E070037
:1012D0003569756147480224A20082588A4215D9AF
:1012E000444AA000803A1058884209D13A002100AF
:1012F0002000FFF7D4FF3A0021002000FFF7DAFFBB
:101300003A0021002000FFF7CAFF02E0641C1B2CFA
:10131000E2D93561C0E7F8B5374C6368002B00D1DE
:101320006060354B314D00209B68283503E00E5C32
:101330001F18401CEE559042F9D39818FF2501352F
:10134000A842A06017D1200003C8FFF7BEFF274EB8
:1013500014363068002800D0FEE7244A200003C875
:1013600028322B00FFF788FF3068002800D0FEE706
:101370000020A060606000208EE710B500F001F949
:1013800000F004F90A28FBD300F0D6F8012040034E
:1013900000F08EFB10BC08BC1847144810B535216E
:1013A00001600221416081600100114A143100F0A6
:1013B00080FB0E48143000680028EBD00120E9E7DC
:1013C00010B50D4C1B2122680220FFF768FF226830
:1013D0001B210220FFF76EFF04481430006800282C
:1013E000D8D0FEE7D6E7000000F0FFFF400700403E
:1013F000F1FFFF7F881C00004000004070B500F046
:1014000095F800F057F81EA000F078F8214D2868F4
:10141000214CC00704D021A000F070F8002020600B
:10142000FF202860204821490068214D884208D1CA
:10143000FFF7B3FF002804D0686800F05FF8FFF7FB
:101440009CFF2068C0070DD1FFF7A7FF002809D037
:10145000686800F053F82068012108432060FFF716
:101460008CFF08E0286800F049F820684008400038
:101470002060FFF733FE70BC08BC00201847000056
:101480005374617274757020626F6F746C6F6164F5
:101490006572000080C11FE0004008E0504F5220FC
:1014A0007265736574210000FC01000065872143AB
:1014B0004C0000401B4910B50868502210430860DA
:1014C000194805218162816A80221143816283214A
:1014D000C16004210160002141600321C16000F06E
:1014E00050F800F053F80A28FBD310BC08BC18478A
:1014F0000D494A699206FCD50860704700B500287E
:1015000007D0030002E0FFF7F3FF5B1C1878002808
:10151000F9D10A20FFF7ECFF0D20FFF7E9FF08BC27
:101520001847000000C002E000C000E01A48012196
:1015300041601A49C16070471749002048607047F0
:101540001548806816490860704713488068144938
:101550000968401A70471048806811494860704710
:101560000D4880680E494968401A70470A488068EB
:101570000B49C8607047084880680949C968401A23
:1015800070470548806806490861704702488068CE
:1015900003490969401A7047004000E0DF2E00004F
:1015A000680800407847C0460120D0E50010D0E52B
:1015B0000230D0E50300D0E5021481E1031881E197
:1015C000000C81E11EFF2FE17847C0462024A0E1F6
:1015D0000000C1E50120C1E52028A0E10220C1E50D
:1015E000202CA0E10320C1E51EFF2FE170477047CA
:1015F000704700000E50A0E1180000EB05E0A0E1EC
:101600000050B0E10D10A0E10A30A0E10700C0E3F6
:1016100000D0A0E160D08DE220402DE914FBFFEB6B
:101620002040BDE80060A0E30070A0E30080A0E3DC
:1016300000B0A0E30710C1E305C0A0E1C009ACE819
:10164000C009ACE8C009ACE8C009ACE801D0A0E131
:101650001EFF2FE10400C046C0462000FEF7CCFD6F
:1016600000009FE51EFF2FE17C0800400C109FE565
:101670001800A0E3563412EF1EFF2FE1080000000F
:10168000260002001EFF2FE100C09FE51CFF2FE196
:10169000D502000000C09FE51CFF2FE107030000FA
:1016A00000C09FE51CFF2FE13303000000C09FE551
:1016B0001CFF2FE1AB08000000C09FE51CFF2FE1DD
:1016C0003103000000C09FE51CFF2FE1B3080000BC
:1016D00070B51D480178C078C906C90E32D11A4BC1
:1016E000083B01280AD0184902288A780AD0032822
:1016F00028D1164810181860007819E014481860AE
:10170000122015E01348002108E00478002C04D0D2
:10171000C478857824022C432018491C8A42F4D1CD
:10172000017800290ED01860C17882780802104331
:101730009988814200D99880FEF7C7FF012070BCCC
:1017400008BC18470020FAE71C000040701B00008E
:101750003D1B00004F1B000070B51F481E4B00785A
:10176000083BC106C90E29D01B481D00143D6A78EC
:1017700000791A4C012925D002292AD18F2108404D
:1017800001218140060604D50607360F0121090410
:10179000B140002A01D100071BD1A868084218D027
:1017A000E868084000D001202070000A60701C60CA
:1017B000FEF78BFF012070BC08BC1847064818389C
:1017C0001860F5E7002A04D0A978884201D20020E9
:1017D000EAE70020EFE700001C0000405400004052
:1017E00070B5234B0200187819004988214DC006B6
:1017F000C00E20D0012839D0022837D118798F2384
:10180000012418408440030604D503071B0F01245C
:1018100024049C406B78002B28D0030726D0AB68AB
:10182000234223D0002921D1002A16D0FEF716FE2C
:10183000E868204315E0012918D10224002A05D0C8
:101840000120FEF7B9FDA888204304E00020FEF740
:10185000B3FDA888A043A88004E0FEF709FEE8686D
:10186000A043E860012070BC08BC18470020FAE7DC
:101870001C00004000000040F8B54E484D4E8078F6
:1018800001271C3E00286BD04B4C65E06078022895
:1018900021D004285DD005281AD10098002817D13E
:1018A000A5788F2005403800A840290604D52907CF
:1018B000090F012000048840B16801432000B16095
:1018C000FEF791FD2800FEF7ABFD2800FEF7BCFDFA
:1018D0002078041940E0374861798078814233D11B
:1018E000707021790020B17032490C3900220A54FD
:1018F000401C0428FAD301253800B168A8400842EA
:1019000002D02800FEF796FD01200004B168A8402F
:10191000084204D0280080210843FEF78BFD6D1C8F
:10192000102DE9D325483500B0600020F06001207B
:10193000FEF743FDE0794006A88801D5384301E071
:1019400040084000A880C3E7E078A178000208437F
:10195000BFE7E0780090BBE72078002896D11EE032
:10196000002001242504802770700120B168A04068
:10197000084202D02000FEF75DFD2800B168A040BB
:10198000084203D020003843FEF754FD641C102C9D
:10199000EBD30A48B0600020F060FEF70EFD05486A
:1019A00071788078884203D10120F8BC08BC1847C0
:1019B0000020FAE71C0000404F1B0000010001005E
:1019C000F0B5394885B04078002868D00020374C01
:1019D000009060E0607802282DD0042835D00528DA
:1019E00057D131491C310879B04252D1A0788F22A9
:1019F0000125104085400190000605D5019801257C
:101A00000007000F2D0485408878B84231D1264860
:101A1000816829438160C168A943C1602000FEF745
:101A2000E2FC0198FEF7FCFC0198FEF70DFD029820
:101A3000284302902DE01C4861794078814228D0EB
:101A4000E078A1780002084324E0A678E778002037
:101A5000029015481C300179B1421AD18078B84201
:101A600017D10120009010481030815D03918755F7
:101A70000FE0039887420CD10298284209D10A4806
:101A80008168A9438160C168A943C1600198FEF7DC
:101A9000D1FC20780419207800289BD1009805B04B
:101AA000F0BC08BC18470000000000404F1B0000BD
:101AB000004710477847C04601C05EE50C0053E17F
:101AC0000330DE370C30DE2783C08EE01CFF2FE1B1
:101AD0007847C0461EFF2FE1EB3C904D53444F53D7
:101AE000352E300002020100011000EC03F8020064
:101AF0000100010000004352502044495341424C30
:101B00004428000000000000000000000000000069
:101B10000000000000004649524D574152454249DD
:101B20004E2018BC41973738373800003D6E2B38AF
:101B3000020000D0070020454E41424C44120110E3
:101B40000100000040291E0C04100104203E010980
:101B50000220000101008032090400000208065042
:101B6000480705820240000007050202400000000D
:101B7000040309041C034B00650069006C0020008D
:101B800053006F006600740077006100720065000A
:101B90001E03550053004200200042006F006F00FA
:101BA00074006C00610061006400650072000A034B
:101BB00030003000300031000E034D0065006D0034
:101BC0006F0072007900000025070000000000008F
:101BD000CF0800000000000000000000000000002E
:101BE00000000000000000000000000000000000F5
:101BF00000000000000000000000000000000000E5
:101C000000000000000000000000000000100000C4
:101C100000200000003000000040000000500000E4
:101C20000060000000700000008000000000010063
:101C3000008001000000020000800200000003009C
:101C40000080030000000400008004000000050084
:101C5000008005000000060000800600000007006C
:101C6000008007000090070000A0070000B00700F8
:101C700000C0070000D00700FFFFFFFFFFFFFFFFCE
:101C8000FFFFFFFFFFFFFFFFFF0F0000FF1F000030
:101C9000FF2F0000FF3F0000FF4F0000FF5F00002C
:101CA000FF6F0000FF7F0000FFFF0000FF7F0100CB
:101CB000FFFF0100FF7F0200FFFF0200FF7F030024
:101CC000FFFF0300FF7F0400FFFF0400FF7F05000C
:101CD000FFFF0500FF7F0600FFFF0600FF7F0700F4
:101CE000FF8F0700FF9F0700FFAF0700FFBF070040
:101CF000FFCF0700FFDF0700FFFFFFFFFFFFFFFF32
:101D0000FFFFFFFFFFFFFFFF5374617274696E678F
:101D100020757365722061707000456E746572691C
:101D20006E6720626F6F746C6F6164657200000093
:101D3000501D00000000004054000000B0010000F1
:101D4000A41D000054000040940D0000000200009B
:101D50000000000000000000000000000000000083
:101D60000000000000000000000000000000000073
:101D70000000000000000000000000000000000063
:101D80000000000000000000000000000000000053
:101D900060EA000000000000000000001A1D0000C2
:041DA000081D00001A
:040000050000016C8A
:00000001FF
